:020000040800F2
:1000000000000120191F0008A5160008B1160008FD
:10001000B9160008C1160008C91600080000000043
:10002000000000000000000000000000D1160008E1
:10003000DF16000800000000ED160008FB1600089F
:10004000691F0008691F0008691F0008691F000870
:10005000691F0008691F0008691F0008691F000860
:10006000691F0008691F0008691F0008691F000850
:10007000691F0008691F0008691F0008691F000840
:10008000691F0008691F0008691F000800000000C0
:10009000000000000000000000000000691F0008D0
:1000A000691F000809170008691F0008691F000878
:1000B000691F0008691F0008691F0008691F000800
:1000C000691F0008691F0008691F0008691F0008F0
:1000D000691F0008691F0008691F00080000000070
:1000E0001D170008691F0008691F000800000000B4
:1000F000000000000000000000000000691F000870
:1001000000000000691F0008691F0008691F00083F
:1001100000000000000000000000000000000000DF
:10012000691F0008691F0008691F0008691F00088F
:10013000691F00080000000000000000000000002F
:10014000000000000000000000000000691F00081F
:10015000691F0008691F0008691F0008691F00085F
:10016000691F0008691F000800000000000000006F
:10017000000000000000000000000000000000007F
:1001800000000000691F00080000000000000000DF
:04019000691F0008DB
:1001980010B5054C237833B9044B13B10448AFF3B9
:1001A80000800123237010BDFC0100200000000026
:1001B800707D000808B5034B1BB103490348AFF332
:1001C800008008BD0000000000020020707D0008CB
:1001D80081F0004102E000BF83F0004330B54FEAF0
:1001E80041044FEA430594EA050F08BF90EA020F5D
:1001F8001FBF54EA000C55EA020C7FEA645C7FEAF0
:10020800655C00F0E2804FEA5454D4EB5555B8BF12
:100218006D420CDD2C4480EA020281EA030382EA83
:10022800000083EA010180EA020281EA0303362D15
:1002380088BF30BD11F0004F4FEA01314FF4801CE8
:100248004CEA113102D0404261EB410113F0004FFA
:100258004FEA03334CEA133302D0524263EB4303B1
:1002680094EA050F00F0A780A4F10104D5F1200E4F
:100278000DDB02FA0EFC22FA05F2801841F10001AA
:1002880003FA0EF2801843FA05F359410EE0A5F17E
:1002980020050EF1200E012A03FA0EFC28BF4CF0AF
:1002A800020C43FA05F3C01851EBE37101F0004565
:1002B80007D54FF0000EDCF1000C7EEB00006EEB72
:1002C8000101B1F5801F1BD3B1F5001F0CD34908FC
:1002D8005FEA30004FEA3C0C04F101044FEA445253
:1002E80012F5800F80F09A80BCF1004F08BF5FEADA
:1002F800500C50F1000041EB045141EA050130BDBA
:100308005FEA4C0C404141EB0101013C28BFB1F5CB
:10031800801FE9D291F0000F04BF01460020B1FA16
:1003280081F308BF2033A3F10B03B3F120020CDAE9
:100338000C3208DD02F1140CC2F10C0201FA0CF0C7
:1003480021FA02F10CE002F11402D8BFC2F1200C2C
:1003580001FA02F120FA0CFCDCBF41EA0C019040E2
:10036800E41AA2BF01EB0451294330BD6FEA04042B
:100378001F3C1CDA0C340EDC04F11404C4F1200216
:1003880020FA04F001FA02F340EA030021FA04F328
:1003980045EA030130BDC4F10C04C4F1200220FA7F
:1003A80002F001FA04F340EA0300294630BD21FABD
:1003B80004F0294630BD94F0000F83F4801306BF83
:1003C80081F480110134013D4EE77FEA645C18BF77
:1003D8007FEA655C29D094EA050F08BF90EA020F0E
:1003E80005D054EA000C04BF1946104630BD91EA06
:1003F800030F1EBF0021002030BD5FEA545C05D109
:100408004000494128BF41F0004130BD14F5800447
:100418003CBF01F5801130BD01F0004545F0FE41BB
:1004280041F470014FF0000030BD7FEA645C1ABFF0
:10043800194610467FEA655C1CBF0B46024650EA27
:10044800013406BF52EA033591EA030F41F4002153
:1004580030BD00BF90F0000F04BF0021704730B5D9
:100468004FF4806404F132044FF000054FF00001AE
:1004780050E700BF90F0000F04BF0021704730B56F
:100488004FF4806404F1320410F0004548BF404244
:100498004FF000013EE700BF42004FEAE2014FEA99
:1004A80031014FEA02701FBF12F07F4393F07F4F74
:1004B80081F06051704732F07F4208BF704793F077
:1004C8007F4F04BF41F40021704730B54FF460748A
:1004D80001F0004521F000411CE700BF50EA01028D
:1004E80008BF704730B54FF000050AE050EA010236
:1004F80008BF704730B511F0004502D5404261EBA6
:1005080041014FF4806404F132045FEA915C3FF4E6
:10051800D8AE4FF003025FEADC0C18BF03325FEA83
:10052800DC0C18BF033202EBDC02C2F1200300FA34
:1005380003FC20FA02F001FA03FE40EA0E0021FA59
:1005480002F11444BDE600BF70B54FF0FF0C4CF447
:10055800E06C1CEA11541DBF1CEA135594EA0C0FF9
:1005680095EA0C0F00F0DEF82C4481EA030621EA34
:100578004C5123EA4C5350EA013518BF52EA03356F
:1005880041F4801143F4801338D0A0FB02CE4FF021
:100598000005E1FB02E506F00042E0FB03E54FF051
:1005A8000006E1FB03569CF0000F18BF4EF0010E49
:1005B800A4F1FF04B6F5007F64F5407404D25FEA45
:1005C8004E0E6D4146EB060642EAC62141EA5551F8
:1005D8004FEAC52040EA5E504FEACE2EB4F1FD0C3A
:1005E80088BFBCF5E06F1ED8BEF1004F08BF5FEAB8
:1005F800500E50F1000041EB045170BD06F000466A
:1006080046EA010140EA020081EA0301B4EB5C0416
:10061800C2BFD4EB0C0541EA045170BD41F480110E
:100628004FF0000E013C00F3AB8014F1360FDEBF33
:10063800002001F0004170BDC4F10004203C35DA0F
:100648000C341BDC04F11404C4F1200500FA05F392
:1006580020FA04F001FA05F240EA020001F0004233
:1006680021F0004110EBD37021FA04F642EB0601A9
:100678005EEA430E08BF20EAD37070BDC4F10C04D3
:10068800C4F1200500FA04F320FA05F001FA04F297
:1006980040EA020001F0004110EBD37041F1000183
:1006A8005EEA430E08BF20EAD37070BDC4F120058E
:1006B80000FA05F24EEA020E20FA04F301FA05F2F6
:1006C80043EA020321FA04F001F0004121FA04F29E
:1006D80020EA020000EBD3705EEA430E08BF20EA6E
:1006E800D37070BD94F0000F0FD101F000464000A8
:1006F80041EB010111F4801F08BF013CF7D041EA2A
:10070800060195F0000F18BF704703F0004652002D
:1007180043EB030313F4801F08BF013DF7D043EAFE
:100728000603704794EA0C0F0CEA135518BF95EAB4
:100738000C0F0CD050EA410618BF52EA4306D1D13B
:1007480081EA030101F000414FF0000070BD50EA5A
:10075800410606BF1046194652EA430619D094EAE4
:100768000C0F02D150EA013613D195EA0C0F05D1CE
:1007780052EA03361CBF104619460AD181EA030122
:1007880001F0004141F0FE4141F470014FF00000DA
:1007980070BD41F0FE4141F4780170BD70B54FF075
:1007A800FF0C4CF4E06C1CEA11541DBF1CEA1355F5
:1007B80094EA0C0F95EA0C0F00F0A7F8A4EB0504D7
:1007C80081EA030E52EA03354FEA013100F08880CE
:1007D8004FEA03334FF0805545EA131343EA126397
:1007E8004FEA022245EA111545EA10654FEA00264C
:1007F8000EF000419D4208BF964244F1FD0404F505
:10080800407402D25B084FEA3202B61A65EB030560
:100818005B084FEA32024FF480104FF4002CB6EB1D
:10082800020E75EB030E22BFB61A754640EA0C009D
:100838005B084FEA3202B6EB020E75EB030E22BFDD
:10084800B61A754640EA5C005B084FEA3202B6EB1E
:10085800020E75EB030E22BFB61A754640EA9C00DD
:100868005B084FEA3202B6EB020E75EB030E22BFAD
:10087800B61A754640EADC0055EA060E18D04FEA6B
:10088800051545EA16754FEA06164FEAC30343EA0B
:1008980052734FEAC2025FEA1C1CC0D111F4801FD8
:1008A8000BD141EA00014FF000004FF0004CB6E7D1
:1008B80011F4801F04BF01430020B4F1FD0C88BF70
:1008C800BCF5E06F3FF6AFAEB5EB030C04BFB6EB7B
:1008D800020C5FEA500C50F1000041EB045170BD6E
:1008E8000EF0004E4EEA113114EB5C04C2BFD4EB9B
:1008F8000C0541EA045170BD41F480114FF0000E1F
:10090800013C90E645EA060E8DE60CEA135594EA9A
:100918000C0F08BF95EA0C0F3FF43BAF94EA0C0F9D
:100928000AD150EA01347FF434AF95EA0C0F7FF412
:1009380025AF104619462CE795EA0C0F06D152EA66
:1009480003353FF4FDAE1046194622E750EA41064A
:1009580018BF52EA43067FF4C5AE50EA41047FF45B
:100968000DAF52EA43057FF4EBAE12E74FF0FF3CC0
:1009780006E000BF4FF0010C02E000BF4FF0010C91
:100988004DF804CD4FEA410C7FEA6C5C4FEA430C0A
:1009980018BF7FEA6C5C1BD001B050EA410C0CBF59
:1009A80052EA430C91EA030F02BF90EA020F0020BB
:1009B800704710F1000F91EA030F58BF994208BF22
:1009C80090422CBFD8176FEAE37040F001007047DF
:1009D8004FEA410C7FEA6C5C02D150EA013C07D136
:1009E8004FEA430C7FEA6C5CD6D152EA033CD3D081
:1009F8005DF8040B704700BF8446104662468C467B
:100A08001946634600E000BF01B5FFF7B7FF0028AD
:100A180048BF10F1000F01BD4DF808EDFFF7F4FFD6
:100A28000CBF012000205DF808FB00BF4DF808ED61
:100A3800FFF7EAFF34BF012000205DF808FB00BF84
:100A48004DF808EDFFF7E0FF94BF012000205DF8A6
:100A580008FB00BF4DF808EDFFF7CEFF94BF01205B
:100A680000205DF808FB00BF4DF808EDFFF7C4FF54
:100A780034BF012000205DF808FB00BF4FEA4102A7
:100A880012F5001215D211D56FF47873B3EB6252D8
:100A980012D94FEAC12343F0004343EA505311F0FF
:100AA800004F23FA02F018BF404270474FF0000091
:100AB800704750EA013005D111F0004008BF6FF0CF
:100AC800004070474FF00000704700BF4FEA4102F6
:100AD800B2F1E04324BFB3F5001CDCF1FE5C0DD994
:100AE80001F0004C4FEAC0024CEA5070B2F1004FDE
:100AF80040EB830008BF20F00100704711F0804FE1
:100B080021D113F13872BCBF01F00040704741F4A5
:100B180080114FEA5252C2F11802C2F1200C10FAA9
:100B28000CF320FA02F018BF40F001004FEAC1238D
:100B38004FEAD32303FA0CFC40EA0C0023FA02F331
:100B48004FEA4303CCE77FEA625307D150EA013307
:100B58001EBF4FF0FE4040F44000704701F00040D7
:100B680040F0FE4040F40000704700BF53B94AB956
:100B7800002908BF00281CBF4FF0FF314FF0FF309D
:100B880000F06AB9ADF1080C6DE904CE00F006F882
:100B9800DDF804E0DDE9022304B070472DE9F047F1
:100BA800089D0C46002B4ED194468C458646B2FAD9
:100BB80082F262D94AB1C2F12003914020FA03F3CC
:100BC8000CFA02FC194300FA02FE4FEA1C471FFA0E
:100BD8008CF6B1FBF7F44FEA1E4307FB141143EA06
:100BE800014304FB06F199420AD91CEB030304F103
:100BF800FF3080F01281994240F20F81023C634439
:100C0800591A1FFA8EF3B1FBF7F007FB101143EAEC
:100C1800014300FB06F69E420AD91CEB030300F1D0
:100C2800FF3180F0FC809E4240F2F9806344023834
:100C38009B1B40EA044000211DB1D3400022C5E9B6
:100C48000032BDE8F0878B4205D90DB1C5E9000136
:100C580000210846F5E7B3FA83F1002946D1A342FB
:100C680002D39042C0F0F080861A64EB030301209F
:100C7800002DE6D0C5E90063E3E7002A40F0908044
:100C8800A1EB0C044FEA1C481FFA8CF70121B4FBB6
:100C9800F8F64FEA1E4308FB164443EA044307FBF1
:100CA80006F0984208D91CEB030306F1FF3402D280
:100CB800984200F2CD8026461C1A1FFA8EF3B4FB28
:100CC800F8F008FB104443EA044300FB07F79F428F
:100CD80008D91CEB030300F1FF3402D29F4200F253
:100CE800B0802046DB1B40EA0640A5E7C1F120069C
:100CF8008B4022FA06F71F4320FA06FC04FA01F398
:100D080043EA0C03F44000FA01F8380C4FEA13499F
:100D1800B4FBF0FE1FFA87FC00FB1E4449EA0444BA
:100D28000EFB0CF9A14502FA01F20AD93C190EF1A1
:100D3800FF3A80F08480A14540F28180AEF1020E36
:100D48003C44A4EB09041FFA83F9B4FBF0F300FB5D
:100D5800134449EA044403FB0CFCA44507D93C1995
:100D680003F1FF3067D2A44565D9023B3C4443EA0E
:100D78000E40A0FB0293A4EB0C049C42CE469C467A
:100D880051D34ED055B1B8EB0E0364EB0C0404FA02
:100D980006F6CB401E43CC40C5E90064002150E76D
:100DA800C2F1200320FA03F10CFA02FC24FA03F33F
:100DB80094400C434FEA1C4800FA02FE1FFA8CF7D5
:100DC800B3FBF8F008FB1031230C43EA014300FBA6
:100DD80007F1994208D91CEB030300F1FF362CD226
:100DE80099422AD9023863445B1AA4B2B3FBF8F1DA
:100DF80008FB113344EA034401FB07F3A34208D973
:100E08001CEB040401F1FF3613D2A34211D90239B5
:100E18006444E41A41EA004139E70446F0E608462A
:100E280006E7C845AED2B9EB020E63EB070C0138F2
:100E3800A8E73146EDE7034699E73046D4E7D646BA
:100E48007FE7634402384DE70646234608460FE726
:100E5800023E634430E700BF704700BF80B584B0EE
:100E680000AF78600023FB730023BB737B68002B03
:100E780002D10123FB7317E07B681B68184603F057
:100E880055FD03461A46BB7B1343BB7305F0ACFD07
:100E980002467B685A60BB7B002B03D17B685B688A
:100EA800002B01D10123FB73FB7B18461037BD468D
:100EB80080BD80B584B000AF786039600023FB73D3
:100EC8000023BB737B68002B02D03B68002B02D148
:100ED8000123FB7337E03B689B693A6810469847E3
:100EE8003B685A693B685A607B681B68184603F080
:100EF80095FF0346BB73BB7B002B11D17B681B6836
:100F08003A681146184603F0C3FE03461A46BB7BEF
:100F18001343BB73BB7B002B15D00123FB7312E07B
:100F28007B681B68184603F0A1FF0346BB73BB7BB5
:100F3800012B08D17B681B68184603F0F7FC0346B1
:100F4800BB730123FB73FB7B18461037BD4680BD7E
:100F580080B58AB000AF07F1140300221A605A6006
:100F68009A60DA601A6100233B61514B1B6B504A4F
:100F780043F0040313634E4B1B6B03F004033B6104
:100F88003B690023FB604A4B1B6B494A43F08003D3
:100F98001363474B1B6B03F08003FB60FB68002364
:100FA800BB60434B1B6B424A43F001031363404B46
:100FB8001B6B03F00103BB60BB6800237B603C4BE9
:100FC8001B6B3B4A43F002031363394B1B6B03F063
:100FD80002037B607B6800224FF4C041354801F072
:100FE800EDFA00223321344801F0E8FA01224FF4E7
:100FF8008051314801F0E2FA00224FF440612F4855
:1010080001F0DCFA4FF4C0437B610123BB6100238C
:10101800FB6100233B6207F114031946254801F0E0
:1010280049F933237B610123BB610223FB61002360
:101038003B6207F1140319461F4801F03BF94FF4CE
:1010480080637B614FF48813BB610123FB6107F167
:1010580014031946184801F02DF94FF480537B61A9
:101068000123BB610023FB6100233B6207F11403EA
:101078001946114801F01EF94FF440637B610123C2
:10108800BB610223FB6100233B6207F1140319468D
:101098000A4801F00FF900220021282001F0D3F8B6
:1010A800282001F0ECF800BF2837BD4680BD00BFFE
:1010B80000380240000802400004024000000240DC
:1010C80080B582B000AF00F04DFF00F093F9FFF754
:1010D8003FFF00F06FFB00F06DFC00F0C3FB00F079
:1010E80015FC00F0CBFC00F01DFD00F031FA9FED7F
:1010F800B50AB54805F0BEF803461A46B34B1B7847
:101108001343DAB2B14B1A70B148FFF7A7FE034692
:101118001A46B04B1B781343DAB2AE4B1A70AE497D
:10112800AB48FFF7C6FE03461A46AA4B1B78134383
:10113800DAB2A84B1A70DFEDA90A9FEDA90AA248F6
:1011480004F0BAFB03461A46A04B1B781343DAB2E5
:101158009E4B1A700023FB7112E09FED9A0A9A4881
:1011680005F0C2F903461A46984B1B781343DAB2C6
:10117800964B1A70642000F067FFFB790133FB710E
:10118800FB79312BE9D9904805F016F803461A4641
:101198008E4B1B781343DAB28C4B1A704FF4FA60FB
:1011A80000F052FF8C498A48FFF783FE03461A462F
:1011B800884B1B781343DAB2864B1A70DFED870A27
:1011C8009FED880A804804F077FB03461A467F4B58
:1011D8001B781343DAB27D4B1A700023BB7112E0FF
:1011E8009FED780A784805F07FF903461A46774B51
:1011F8001B781343DAB2754B1A70642000F024FF91
:10120800BB790133BB71BB79312BE9D96E4804F046
:10121800D3FF03461A466D4B1B781343DAB26B4B68
:101228001A704FF4FA6000F00FFF6B496848FFF737
:1012380040FE03461A46674B1B781343DAB2654BE8
:101248001A70DFED660A9FED680A5F4804F034FB08
:1012580003461A465D4B1B781343DAB25B4B1A7090
:1012680000237B7112E09FED570A574805F03CF9BF
:1012780003461A46554B1B781343DAB2534B1A7080
:10128800642000F0E1FE7B7901337B717B79312B9F
:10129800E9D94D4804F090FF03461A464B4B1B789A
:1012A8001343DAB2494B1A704FF4FA6000F0CCFEDF
:1012B80049494748FFF7FDFD03461A46454B1B7849
:1012C8001343DAB2434B1A70DFED440A9FED470A25
:1012D8003D4804F0F1FA03461A463C4B1B78134389
:1012E800DAB23A4B1A7000233B7112E09FED350ACF
:1012F800354805F0F9F803461A46344B1B78134372
:10130800DAB2324B1A70642000F09EFE3B7901334A
:101318003B713B79312BE9D92B4804F04DFF03464B
:101328001A462A4B1B781343DAB2284B1A704FF42B
:10133800FA6000F089FE28492548FFF7BAFD034600
:101348001A46244B1B781343DAB2224B1A70F1EE7B
:10135800080A9FED270A1C4804F00AFD03461A46AE
:101368001A4B1B781343DAB2184B1A7000233B60F0
:1013780012E09FED140A144805F0B6F803461A4621
:10138800124B1B781343DAB2104B1A70642000F02A
:101398005BFE3B6801333B603B6840F28922934225
:1013A800E7D9094804F008FF03461A46074B1B789B
:1013B8001343DAB2054B1A704FF4FA6000F044FE9A
:1013C800ADE600BF0000C842380000201802002027
:1013D800080000201902002010000020CDCC4C3E4F
:1013E80000000000000034430000B44200008743BE
:1013F8009A99993E80B594B000AF07F12003302246
:101408000021184605F0C2FB07F10C0300221A6000
:101418005A609A60DA601A610023BB60294B1B6C22
:10142800284A43F080531364264B1B6C03F0805307
:10143800BB60BB6800237B60234B1B6823F44043DD
:10144800214A43F4004313601F4B1B6803F44043D5
:101458007B607B6801233B624FF480337B6202230D
:10146800BB634FF48003FB6319233B64A8237B64AD
:101478000223BB640423FB6407F12003184601F030
:10148800CFF80346002B01D000F05CF80F23FB6077
:1014980002233B6100237B614FF48053BB6100232F
:1014A800FB6107F10C030221184601F031FB0346EA
:1014B800002B01D000F046F801F010FC00BF5037B7
:1014C800BD4680BD003802400070004080B483B043
:1014D80000AF0346FB80FB88B3F5806F02D1044B55
:1014E80001221A7000BF0C37BD465DF8047B7047B7
:1014F8001A02002080B483B000AF78607B680122B4
:101508001A707B6804221A727B685B7A0133DAB23C
:101518007B685A727B685B7A0133DAB27B689A72AD
:101528007B689B7A0133DAB27B68DA727B68DB7A94
:101538000133DAB27B681A7300BF0C37BD465DF819
:10154800047B704780B400AF72B600BF00BFFDE7F0
:1015580080B500AF174B184A1A60164B4FF48272C9
:101568005A60144B00229A60124B0022DA60114B29
:1015780000221A610F4B00225A610E4B4FF4007281
:101588009A610C4B1022DA610A4B00221A62094B4D
:1015980000225A62074B00229A62064B0A22DA623C
:1015A800044801F089FC0346002B01D0FFF7CAFF6D
:1015B80000BF80BD1C0200200038004080B58AB002
:1015C80000AF786007F1140300221A605A609A602D
:1015D800DA601A617B681B68194A93422CD1002390
:1015E8003B61184B1B6C174A43F480431364154B3B
:1015F8001B6C03F480433B613B690023FB60114B88
:101608001B6B104A43F0020313630E4B1B6B03F072
:101618000203FB60FB684FF460437B610223BB61FC
:101628000023FB6103233B6205237B6207F114035C
:101638001946054800F03EFE00BF2837BD4680BD6C
:1016480000380040003802400004024080B483B0F3
:1016580000AF00237B60104B5B6C0F4A43F4804360
:1016680053640D4B5B6C03F480437B607B68002301
:101678003B60094B1B6C084A43F080531364064BCC
:101688001B6C03F080533B603B6800BF0C37BD46C2
:101698005DF8047B704700BF0038024080B500AF9A
:1016A80001F0EEFB00BFFDE780B400AF00BFFDE72F
:1016B80080B400AF00BFFDE780B400AF00BFFDE716
:1016C80080B400AF00BFFDE780B400AF00BFBD46E7
:1016D8005DF8047B704780B400AF00BFBD465DF87D
:1016E800047B704780B400AF00BFBD465DF8047B43
:1016F800704780B500AF00F087FC00BF80BD0000D8
:1017080080B500AF024802F06DFC00BF80BD00BF8D
:10171800A002002080B500AF4FF4806000F068FFA1
:1017280000BF80BD80B586B000AF7860144A154B05
:10173800D31A7B617B693B61134B1B68002B02D179
:10174800114B124A1A60104B1A687B6813443A69A5
:101758009A4207D205F032FA03460C221A604FF07B
:10176800FF3309E0084B1B68FB60074B1A687B686E
:101778001344054A1360FB6818461837BD4680BDF8
:1017880000000120000400009C020020C805002081
:1017980080B400AF064BD3F88830054A43F4700391
:1017A800C2F8883000BFBD465DF8047B704700BFB3
:1017B80000ED00E080B58CB000AF07F10C032422E7
:1017C8000021184605F0E2F93B1D00221A605A6014
:1017D800224B234A1A60214B03225A601F4B0022D6
:1017E8009A601E4B4AF6E032DA601C4B00221A61FE
:1017F8001A4B00225A61194B00229A610323FB609D
:1018080000233B6101237B610023BB610023FB6153
:1018180000233B6201237B620023BB620023FB623F
:1018280007F10C0319460D4802F0A8FA0346002BED
:1018380001D0FFF787FE00237B600023BB603B1DC0
:101848001946064802F0F0FF0346002B01D0FFF7C7
:1018580079FE00BF3037BD4680BD00BFA002002022
:101868000000014080B58CB000AF07F10C032422C2
:101878000021184605F08AF93B1D00221A605A60BB
:10188800214B4FF080421A601F4B03225A601E4BB7
:1018980000229A601C4B4AF6E032DA601A4B0022AA
:1018A8001A61194B00229A610323FB6000233B61F4
:1018B80001237B610023BB610023FB6100233B62A2
:1018C80001237B620023BB620023FB6207F10C0348
:1018D80019460D4802F052FA0346002B01D0FFF7D3
:1018E80031FE00237B600023BB603B1D1946064880
:1018F80002F09AFF0346002B01D0FFF723FE00BF3A
:101908003037BD4680BD00BFE802002080B58CB0EE
:1019180000AF07F10C0324220021184605F036F920
:101928003B1D00221A605A60204B214A1A601F4B47
:1019380003225A601D4B00229A601C4B4AF6E03283
:10194800DA601A4B00221A61184B00229A610323AD
:10195800FB6000233B6101237B610023BB61002303
:10196800FB6100233B6201237B620023BB620023EF
:10197800FB6207F10C0319460C4802F0FFF9034615
:10198800002B01D0FFF7DEFD00237B600023BB6046
:101998003B1D1946054802F047FF0346002B01D0BE
:1019A800FFF7D0FD00BF3037BD4680BD30030020B3
:1019B8000004004080B58AB000AF07F12003002280
:1019C8001A605A603B1D00221A605A609A60DA60F9
:1019D8001A615A619A61274B274A1A60254B0022DF
:1019E8005A60244B00229A60224B41F26702DA6067
:1019F800204B00221A611F4B00229A611D4802F0F9
:101A0800BDF80346002B01D0FFF79CFD00233B6285
:101A180000237B6207F120031946164802F004FFF1
:101A28000346002B01D0FFF78DFD60237B60002368
:101A3800BB600023FB6000237B613B1D0822194625
:101A48000C4802F0BFFB0346002B01D0FFF77AFDDC
:101A58003B1D0C221946074802F0B4FB0346002B35
:101A680001D0FFF76FFD034800F0F0F900BF2837F9
:101A7800BD4680BD780300200008004080B58CB0CA
:101A880000AF07F10C0324220021184605F07EF868
:101A98003B1D00221A605A60204B214A1A601F4BD6
:101AA80003225A601D4B00229A601C4B4AF6E03212
:101AB800DA601A4B00221A61184B00229A6103233C
:101AC800FB6000233B6101237B610023BB61002392
:101AD800FB6100233B6201237B620023BB6200237E
:101AE800FB6207F10C0319460C4802F047F903465C
:101AF800002B01D0FFF726FD00237B600023BB608D
:101B08003B1D1946054802F08FFE0346002B01D005
:101B1800FFF718FD00BF3037BD4680BDC003002069
:101B2800000C004080B588B000AF3B1D00221A6051
:101B38005A609A60DA601A615A619A611F4B204AAA
:101B48001A601E4B00225A601C4B00229A601B4BE5
:101B580041F26702DA60194B00221A61174B002222
:101B68009A61164802F00AF80346002B01D0FFF7E5
:101B7800E9FC60237B600023BB600023FB6000233B
:101B88007B613B1D002219460C4802F01BFB0346F3
:101B9800002B01D0FFF7D6FC3B1D0422194607484D
:101BA80002F010FB0346002B01D0FFF7CBFC0348E3
:101BB80000F04CF900BF2037BD4680BD0804002066
:101BC8000040014080B590B000AF786007F12C0369
:101BD80000221A605A609A60DA601A617B681B6892
:101BE800784A934235D10023BB62774B5B6C764AC7
:101BF80043F001035364744B5B6C03F00103BB6255
:101C0800BB6A00237B62704B1B6B6F4A43F0010376
:101C180013636D4B1B6B03F001037B627B6A4FF40C
:101C28004073FB6202233B6302237B630223BB6393
:101C38000123FB6307F12C031946644800F03AFBC3
:101C480000220F21192000F0FEFA192000F017FBDE
:101C5800B3E07B681B68B3F1804F4BD100233B6234
:101C6800594B1B6C584A43F001031364564B1B6CC9
:101C780003F001033B623B6A0023FB61524B1B6B81
:101C8800514A43F0010313634F4B1B6B03F00103ED
:101C9800FB61FB690023BB614B4B1B6B4A4A43F05A
:101CA80002031363484B1B6B03F00203BB61BB6960
:101CB8004FF40043FB6202233B6302237B6302234E
:101CC800BB630123FB6307F12C0319463F4800F06F
:101CD800F1FA0823FB6202233B6302237B6302239E
:101CE800BB630123FB6307F12C031946384800F056
:101CF800E1FA62E07B681B68364A93422CD10023E4
:101D08007B61314B1B6C304A43F0020313642E4B4A
:101D18001B6C03F002037B617B6900233B612A4B48
:101D28001B6B294A43F001031363274B1B6B03F01A
:101D380001033B613B69C023FB6202233B6302232F
:101D48007B630223BB630223FB6307F12C03194661
:101D58001E4800F0AFFA30E07B681B681E4A9342C9
:101D68002BD10023FB60184B1B6C174A43F0080368
:101D78001364154B1B6C03F00803FB60FB6800231E
:101D8800BB60114B1B6B104A43F0010313630E4BEE
:101D98001B6B03F00103BB60BB680323FB620223D8
:101DA8003B6302237B630223BB630223FB6307F1CC
:101DB8002C031946054800F07DFA00BF4037BD46A0
:101DC80080BD00BF00000140003802400000024012
:101DD8000004024000040040000C004080B485B0BC
:101DE80000AF78607B681B68154A93420ED10023C8
:101DF800FB60144B1B6C134A43F004031364114B30
:101E08001B6C03F00403FB60FB6812E07B681B6833
:101E18000D4A93420DD10023BB600A4B5B6C094A03
:101E280043F480335364074B5B6C03F48033BB602B
:101E3800BB6800BF1437BD465DF8047B704700BF20
:101E480000080040003802400040014080B58AB0D8
:101E580000AF786007F1140300221A605A609A6094
:101E6800DA601A617B681B68244A93421FD10023F9
:101E78003B61234B1B6B224A43F002031363204B45
:101E88001B6B03F002033B613B694FF440737B61BA
:101E98000223BB610223FB6102233B6202237B62B4
:101EA80007F114031946174800F004FA22E07B688A
:101EB8001B68154A93421DD10023FB60104B1B6B16
:101EC8000F4A43F0010313630D4B1B6B03F001032F
:101ED800FB60FB680C237B610223BB610223FB616F
:101EE80002233B6203237B6207F114031946074868
:101EF80000F0E0F900BF2837BD4680BD000800406B
:101F08000038024000040240004001400000024046
:101F1800DFF834D0FFF73CFC0C480D490D4A00238C
:101F280002E0D458C4500433C4188C42F9D30A4A86
:101F38000A4C002301E013600432A242FBD304F0F0
:101F480043FEFFF7BDF870470000012000000020A5
:101F5800FC010020887F0008FC010020C805002043
:101F6800FEE7000080B500AF0E4B1B680D4A43F436
:101F7800007313600B4B1B680A4A43F480631360B9
:101F8800084B1B68074A43F480731360032000F072
:101F98004FF90F2000F008F8FFF758FB0023184608
:101FA80080BD00BF003C024080B582B000AF7860C1
:101FB800124B1A68124B1B7819464FF47A73B3FB0D
:101FC800F1F3B2FBF3F3184600F067F90346002B70
:101FD80001D001230EE07B680F2B0AD80022796814
:101FE8004FF0FF3000F02FF9064A7B68136000239A
:101FF80000E0012318460837BD4680BD2C000020AC
:10200800340000203000002080B400AF064B1B785D
:102018001A46064B1B681344044A136000BFBD46AA
:102028005DF8047B704700BF340000205004002096
:1020380080B400AF034B1B681846BD465DF8047BAF
:10204800704700BF5004002080B584B000AF7860AE
:10205800FFF7EEFFB8607B68FB60FB68B3F1FF3FFA
:1020680005D00A4B1B781A46FB681344FB6000BF77
:10207800FFF7DEFF0246BB68D31AFA689A42F7D820
:1020880000BF00BF1037BD4680BD00BF3400002030
:1020980080B485B000AF78607B6803F00703FB600D
:1020A8000C4BDB68BB60BA684FF6FF031340BB609C
:1020B800FB681A02BB68134343F0BF6343F4003361
:1020C800BB60044ABB68D36000BF1437BD465DF8E7
:1020D800047B704700ED00E080B400AF044BDB6880
:1020E8001B0A03F007031846BD465DF8047B7047DA
:1020F80000ED00E080B483B000AF0346FB7197F9B0
:102108000730002B0BDBFB7903F01F02074997F917
:1021180007305B09012000FA02F241F8232000BFD2
:102128000C37BD465DF8047B704700BF00E100E056
:1021380080B483B000AF03463960FB7197F907306C
:10214800002B0ADB3B68DAB20C4997F90730120119
:10215800D2B20B4483F800230AE03B68DAB208499C
:10216800FB7903F00F03043B1201D2B20B441A7639
:1021780000BF0C37BD465DF8047B704700E100E006
:1021880000ED00E080B489B000AFF860B9607A6013
:10219800FB6803F00703FB61FB69C3F10703042B2A
:1021A80028BF0423BB61FB690433062B02D9FB69F2
:1021B800033B00E000237B614FF0FF32BB6902FA6A
:1021C80003F3DA43BB681A407B699A404FF0FF314A
:1021D8007B6901FA03F3D9437B680B401343184624
:1021E8002437BD465DF8047B7047000080B582B097
:1021F80000AF78607B68013BB3F1807F01D3012396
:102208000FE00A4A7B68013B53600F214FF0FF3013
:10221800FFF78EFF054B00229A60044B07221A60D5
:10222800002318460837BD4680BD00BF10E000E017
:1022380080B582B000AF78607868FFF729FF00BFEB
:102248000837BD4680BD80B586B000AF0346B9608B
:102258007A60FB7300237B61FFF73EFF78617A6841
:10226800B9687869FFF78EFF024697F90F30114673
:102278001846FFF75DFF00BF1837BD4680BD80B523
:1022880082B000AF0346FB7197F907301846FFF795
:1022980031FF00BF0837BD4680BD80B582B000AFB2
:1022A80078607868FFF7A2FF034618460837BD46EE
:1022B80080BD000080B489B000AF78603960002329
:1022C8007B6100233B610023BB610023FB6159E173
:1022D8000122FB6902FA03F37B613B681B687A6998
:1022E80013403B613A697B699A4240F048813B68F8
:1022F8005B6803F00303012B05D03B685B6803F0C0
:102308000303022B30D17B689B68BB61FB695B00D0
:10231800032202FA03F3DB43BA691340BB613B684B
:10232800DA68FB695B0002FA03F3BA691343BB611D
:102338007B68BA699A607B685B68BB610122FB694C
:1023480002FA03F3DB43BA691340BB613B685B687D
:102358001B0903F00102FB6902FA03F3BA6913438C
:10236800BB617B68BA695A603B685B6803F003032A
:10237800032B17D07B68DB68BB61FB695B0003221A
:1023880002FA03F3DB43BA691340BB613B689A68FE
:10239800FB695B0002FA03F3BA691343BB617B680C
:1023A800BA69DA603B685B6803F00303022B23D148
:1023B800FB69DA087B68083253F82230BB61FB6995
:1023C80003F007039B000F2202FA03F3DB43BA6909
:1023D8001340BB613B681A69FB6903F007039B0064
:1023E80002FA03F3BA691343BB61FB69DA087B6835
:1023F8000832B96943F822107B681B68BB61FB6926
:102408005B00032202FA03F3DB43BA691340BB61A2
:102418003B685B6803F00302FB695B0002FA03F3A5
:10242800BA691343BB617B68BA691A603B685B6829
:1024380003F44033002B00F0A2800023FB60574BCD
:102448005B6C564A43F480435364544B5B6C03F40F
:102458008043FB60FB68524AFB699B08023352F8D1
:102468002330BB61FB6903F003039B000F2202FAD0
:1024780003F3DB43BA691340BB617B68494A934263
:1024880019D07B68484A934213D07B68474A9342E5
:102498000DD07B68464A934207D07B68454A9342F1
:1024A80001D1042308E0072306E0032304E0022304
:1024B80002E0012300E00023FA6902F0030292001F
:1024C8009340BA691343BB613549FB699B080233E2
:1024D800BA6941F82320384B9B68BB613B69DB43F1
:1024E800BA691340BB613B685B6803F48013002B37
:1024F80003D0BA693B691343BB612F4ABB69936038
:102508002D4BDB68BB613B69DB43BA691340BB6198
:102518003B685B6803F40013002B03D0BA693B697E
:102528001343BB61244ABB69D360234B5B68BB611F
:102538003B69DB43BA691340BB613B685B6803F4E2
:102548000033002B03D0BA693B691343BB611A4AB5
:10255800BB695360184B1B68BB613B69DB43BA69B5
:102568001340BB613B685B6803F48033002B03D0E6
:10257800BA693B691343BB610F4ABB691360FB69C6
:102588000133FB61FB690F2B7FF6A2AE00BF00BFD2
:102598002437BD465DF8047B704700BF0038024011
:1025A80000380140000002400004024000080240D8
:1025B800000C024000100240003C014080B483B08F
:1025C80000AF78600B467B8013467B707B78002BCE
:1025D80003D07A887B689A6103E07B881A047B6859
:1025E8009A6100BF0C37BD465DF8047B7047000058
:1025F80080B582B000AF0346FB80084B5A69FB8860
:102608001340002B06D0054AFB885361FB88184607
:10261800FEF75CFF00BF0837BD4680BD003C0140A7
:1026280080B586B000AF78607B68002B01D10123AC
:1026380067E27B681B6803F00103002B75D0884BA9
:102648009B6803F00C03042B0CD0854B9B6803F0AC
:102658000C03082B12D1824B5B6803F48003B3F59B
:10266800800F0BD17E4B1B6803F40033002B5BD02B
:102678007B685B68002B57D1012342E27B685B686B
:10268800B3F5803F06D1764B1B68754A43F4803317
:1026980013601DE07B685B68B3F5A02F0CD1704B0D
:1026A8001B686F4A43F4802313606D4B1B686C4AA8
:1026B80043F4803313600BE0694B1B68684A23F4CA
:1026C80080331360664B1B68654A23F480231360CC
:1026D8007B685B68002B13D0FFF7AAFC386108E021
:1026E800FFF7A6FC02463B69D31A642B01D90323E2
:1026F80007E25B4B1B6803F40033002BF0D014E0B7
:10270800FFF796FC386108E0FFF792FC02463B6948
:10271800D31A642B01D90323F3E1514B1B6803F44B
:102728000033002BF0D100E000BF7B681B6803F08A
:102738000203002B63D04A4B9B6803F00C03002B69
:102748000BD0474B9B6803F00C03082B1CD1444B60
:102758005B6803F48003002B16D1414B1B6803F020
:102768000203002B05D07B68DB68012B01D0012315
:10277800C7E13B4B1B6823F0F8027B681B69DB0051
:10278800374913430B603AE07B68DB68002B20D0A5
:10279800344B01221A60FFF74BFC386108E0FFF761
:1027A80047FC02463B69D31A022B01D90323A8E14F
:1027B8002B4B1B6803F00203002BF0D0284B1B683F
:1027C80023F0F8027B681B69DB00254913430B6083
:1027D80015E0244B00221A60FFF72AFC386108E054
:1027E800FFF726FC02463B69D31A022B01D90323C3
:1027F80087E11B4B1B6803F00203002BF0D17B68B9
:102808001B6803F00803002B36D07B685B69002B3C
:1028180016D0154B01221A60FFF70AFC386108E050
:10282800FFF706FC02463B69D31A022B01D90323A2
:1028380067E10B4B5B6F03F00203002BF0D01BE04A
:10284800094B00221A60FFF7F3FB38610EE0FFF72F
:10285800EFFB02463B69D31A022B07D9032350E149
:102868000038024000004742800E4742884B5B6FA9
:1028780003F00203002BEAD17B681B6803F0040312
:10288800002B00F097800023FB75814B1B6C03F035
:102898008053002B0FD10023BB607D4B1B6C7C4AFF
:1028A80043F0805313647A4B1B6C03F08053BB6076
:1028B800BB680123FB75774B1B6803F48073002BFF
:1028C80018D1744B1B68734A43F480731360FFF785
:1028D800AFFB386108E0FFF7ABFB02463B69D31A50
:1028E800022B01D903230CE16A4B1B6803F48073A4
:1028F800002BF0D07B689B68012B06D1644B1B6FC3
:10290800634A43F0010313671CE07B689B68052B4F
:102918000CD15F4B1B6F5E4A43F0040313675C4B9B
:102928001B6F5B4A43F0010313670BE0584B1B6FA7
:10293800574A23F001031367554B1B6F544A23F082
:10294800040313677B689B68002B15D0FFF770FBA7
:1029580038610AE0FFF76CFB02463B69D31A41F283
:102968008832934201D90323CBE0494B1B6F03F014
:102978000203002BEED014E0FFF75AFB38610AE09F
:10298800FFF756FB02463B69D31A41F2883293425D
:1029980001D90323B5E03E4B1B6F03F00203002B64
:1029A800EED1FB7D012B05D1394B1B6C384A23F046
:1029B800805313647B689B69002B00F0A180344B23
:1029C8009B6803F00C03082B5CD07B689B69022B87
:1029D80041D1314B00221A60FFF72AFB386108E029
:1029E800FFF726FB02463B69D31A022B01D90323C2
:1029F80087E0274B1B6803F00073002BF0D17B683E
:102A0800DA697B681B6A1A437B685B6A9B011A4315
:102A18007B689B6A5B08013B1B041A437B68DB6A83
:102A28001B061B4913434B601B4B01221A60FFF71F
:102A3800FFFA386108E0FFF7FBFA02463B69D31A50
:102A4800022B01D903235CE0114B1B6803F00073D0
:102A5800002BF0D054E0104B00221A60FFF7E8FA80
:102A6800386108E0FFF7E4FA02463B69D31A022B03
:102A780001D9032345E0064B1B6803F00073002BC4
:102A8800F0D13DE07B689B69012B07D1012338E039
:102A98000038024000700040600047421B4B5B68F2
:102AA800FB607B689B69012B28D0FB6803F48002DC
:102AB8007B68DB699A4221D1FB6803F03F027B689F
:102AC8001B6A9A421AD1FA6847F6C07313407A68AB
:102AD800526A9201934211D1FB6803F440327B6839
:102AE8009B6A5B08013B1B049A4207D1FB6803F011
:102AF80070627B68DB6A1B069A4201D0012300E002
:102B0800002318461837BD4680BD00BF0038024074
:102B180080B584B000AF786039607B68002B01D144
:102B28000123CCE0684B1B6803F007033A689A421C
:102B38000CD9654B3A68D2B21A70634B1B6803F024
:102B480007033A689A4201D00123B8E07B681B6802
:102B580003F00203002B20D07B681B6803F00403FA
:102B6800002B05D0594B9B68584A43F4E0539360B7
:102B78007B681B6803F00803002B05D0534B9B6848
:102B8800524A43F460439360504B9B6823F0F00231
:102B98007B689B684D4913438B607B681B6803F017
:102BA8000103002B44D07B685B68012B07D1474B9E
:102BB8001B6803F40033002B19D101237FE07B68E5
:102BC8005B68022B03D07B685B68032B07D13F4B04
:102BD8001B6803F00073002B09D101236FE03B4B06
:102BE8001B6803F00203002B01D1012367E0374B78
:102BF8009B6823F003027B685B68344913438B604E
:102C0800FFF716FAF8600AE0FFF712FA0246FB68C7
:102C1800D31A41F28832934201D903234FE02B4B58
:102C28009B6803F00C027B685B689B009A42EBD1BF
:102C3800254B1B6803F007033A689A420CD2224BD3
:102C48003A68D2B21A70204B1B6803F007033A683F
:102C58009A4201D0012332E07B681B6803F0040329
:102C6800002B08D0194B9B6823F4E0527B68DB6883
:102C7800164913438B607B681B6803F00803002B1D
:102C880009D0124B9B6823F460427B681B69DB0008
:102C98000E4913438B6000F02DF802460B4B9B68DE
:102CA8001B0903F00F030A49CB5C22FA03F3094A14
:102CB8001360094B1B681846FFF776F9002318467E
:102CC8001037BD4680BD00BF003C024000380240BE
:102CD8008C7D00082C0000203000002080B400AF5C
:102CE800034B01221A6000BFBD465DF8047B7047A4
:102CF8004C0047422DE9B04F90B000AF00237B63F2
:102D08000023FB6300233B630023BB63594B9B6891
:102D180003F00C03082B0DD0082B00F2A180002B28
:102D280002D0042B03D09BE0534BBB639BE0534B77
:102D3800BB6398E04F4B5B6803F03F037B634D4BED
:102D48005B6803F48003002B28D04A4B5B689B091F
:102D580000223B627A623B6AC3F308000021474BBA
:102D680003FB01F2002300FB03F31344434AA0FBD7
:102D78000212FA620A46BA62FA6A1344FB627B6B71
:102D88000022BB61FA61D7E90623D7E90A01FDF7FA
:102D9800EDFE02460B461346FB6353E0354B5B687A
:102DA8009B0900223B617A613B69C3F3080A4FF033
:102DB800000B52465B464FF000004FF000015901EE
:102DC80041EAD261500102460B46B2EB0A0863EBB6
:102DD8000B094FF000024FF000034FEA891343EA52
:102DE80098634FEA8812B2EB080463EB09054FF0C9
:102DF80000024FF00003EB0043EA5473E20014466C
:102E08001D4614EB0A033B6045EB0B037B604FF058
:102E180000024FF00003D7E9004529468B022146FE
:102E280043EA915321468A02104619467B6B0022D9
:102E3800BB60FA60D7E90223FDF798FE02460B460D
:102E48001346FB630B4B5B681B0C03F00303013356
:102E58005B003B63FA6B3B6BB2FBF3F3BB6302E0D3
:102E6800054BBB6300BFBB6B18464037BD46BDE88A
:102E7800B08F00BF003802400024F40040787D0184
:102E880080B500AF064BDB6803F08003802B04D1CC
:102E980000F00AF8034B80221A7000BF80BD00BF03
:102EA800003802400E38024080B400AF00BFBD4673
:102EB8005DF8047B7047000080B582B000AF786091
:102EC8007B68002B01D101239BE07B685B6A002BA8
:102ED80008D17B685B68B3F5827F09D07B680022E4
:102EE800DA6105E07B6800221A617B6800225A617A
:102EF8007B6800229A627B6893F85130DBB2002B22
:102F080026D17B68002283F850207B683F4A9A6567
:102F18007B683F4ADA657B683E4A1A667B683E4AA8
:102F28005A667B683D4A9A667B683D4ADA667B68E2
:102F38003C4A1A677B683C4A5A677B689B6F002B40
:102F480002D17B68394A9A677B689B6F7868984793
:102F58007B68022283F851207B681B681A687B68AB
:102F68001B6822F040021A607B685B6803F4827277
:102F78007B689B6803F404431A437B68DB6803F4AB
:102F880000631A437B681B6903F002031A437B68DA
:102F98005B6903F001031A437B689B6903F40073C0
:102FA8001A437B68DB6903F038031A437B681B6AA2
:102FB80003F0800342EA03017B689B6A03F4005232
:102FC8007B681B680A431A607B689B691B0C03F0CB
:102FD80004017B685B6A03F010027B681B680A4384
:102FE8005A607B681B68DA697B681B6822F4006298
:102FF800DA617B6800225A657B68012283F85120D8
:10300800002318460837BD4680BD00BF4538000874
:10301800593800086D3800088138000895380008CC
:10302800A9380008BD380008D1380008C5150008BF
:1030380080B588B000AFF860B9603B601346FB808C
:10304800FEF7F6FFF861FB887B83FB6893F8513045
:10305800DBB2012B01D002232AE1BB68002B02D08E
:10306800FB88002B01D1012322E1FB6893F8503043
:10307800012B01D102231BE1FB68012283F85020B8
:10308800FB68032283F85120FB6800225A65FB681D
:10309800BA681A63FB68FA889A86FB68FA88DA863F
:1030A800FB6800229A63FB6800229A87FB6800226B
:1030B800DA87FB6800225A64FB6800221A64FB68FE
:1030C8009B68B3F5004F0FD1FB681B681A68FB6853
:1030D8001B6822F040021A60FB681B681A68FB68CC
:1030E8001B6842F480421A60FB681B681B6803F087
:1030F8004003402B07D0FB681B681A68FB681B68F5
:1031080042F040021A60FB68DB68B3F5006F52D1E9
:10311800FB685B68002B02D07B8B012B45D1FB68D9
:103128001B6B1A88FB681B68DA60FB681B6B9A1CB0
:10313800FB681A63FB68DB8E9BB2013B9AB2FB68A3
:10314800DA8632E0FB681B689B6803F00203022BF7
:1031580012D1FB681B6B1A88FB681B68DA60FB6876
:103168001B6B9A1CFB681A63FB68DB8E9BB2013BE6
:103178009AB2FB68DA8618E0FEF75AFF0246FB6946
:10318800D31A3A689A4203D83B68B3F1FF3F02D199
:103198003B68002B09D1FB68012283F85120FB68AA
:1031A800002283F85020032382E0FB68DB8E9BB269
:1031B800002BC7D153E0FB685B68002B02D07B8BE8
:1031C800012B47D1FB681A6BFB681B680C3312781C
:1031D8001A70FB681B6B5A1CFB681A63FB68DB8E52
:1031E8009BB2013B9AB2FB68DA8633E0FB681B6846
:1031F8009B6803F00203022B13D1FB681A6BFB6870
:103208001B680C3312781A70FB681B6B5A1CFB681E
:103218001A63FB68DB8E9BB2013B9AB2FB68DA86C5
:1032280018E0FEF705FF0246FB69D31A3A689A428E
:1032380003D83B68B3F1FF3F02D13B68002B09D1AB
:10324800FB68012283F85120FB68002283F8502094
:1032580003232DE0FB68DB8E9BB2002BC6D1FA69F5
:103268003968F86800F036FC0346002B02D0FB688A
:1032780020225A65FB689B68002B0AD100237B61DA
:10328800FB681B68DB687B61FB681B689B687B616C
:103298007B69FB68012283F85120FB68002283F8D0
:1032A8005020FB685B6D002B01D0012300E0002358
:1032B80018462037BD4680BD80B588B002AFF8609B
:1032C800B9603B601346FB80FB6893F85130DBB272
:1032D800012B01D0022304E1FB685B68B3F5827F10
:1032E80012D1FB689B68002B0ED1FB68042283F87F
:1032F8005120FA883B6800931346BA68B968F868A1
:1033080000F0F3F80346ECE0FEF792FE7861BB6844
:10331800002B02D0FB88002B01D10123E1E0FB68E0
:1033280093F85030012B01D10223DAE0FB68012227
:1033380083F85020FB68042283F85120FB680022A0
:103348005A65FB68BA689A63FB68FA889A87FB68CB
:10335800FA88DA87FB6800221A63FB6800229A86DB
:10336800FB680022DA86FB6800221A64FB680022E8
:103378005A64FB689B68B3F5004F0FD1FB681B6864
:103388001A68FB681B6822F040021A60FB681B6819
:103398001A68FB681B6822F480421A60FB681B6885
:1033A8001B6803F04003402B07D0FB681B681A68B2
:1033B800FB681B6842F040021A60FB68DB68002B60
:1033C80070D135E0FB681B689B6803F00103012B93
:1033D80015D1FB681B6803F10C02FB689B6B127824
:1033E800D2B21A70FB689B6B5A1CFB689A63FB6825
:1033F800DB8F9BB2013B9AB2FB68DA8718E0FEF7D5
:1034080017FE02467B69D31A3A689A4203D83B688A
:10341800B3F1FF3F02D13B68002B09D1FB680122C1
:1034280083F85120FB68002283F85020032358E0DA
:10343800FB68DB8F9BB2002BC4D138E0FB681B68AC
:103448009B6803F00103012B13D1FB681B68DA6842
:10345800FB689B6B92B21A80FB689B6B9A1CFB689B
:103468009A63FB68DB8F9BB2013B9AB2FB68DA87F1
:1034780018E0FEF7DDFD02467B69D31A3A689A42E6
:1034880003D83B68B3F1FF3F02D13B68002B09D159
:10349800FB68012283F85120FB68002283F8502042
:1034A80003231EE0FB68DB8F9BB2002BC6D17A6931
:1034B8003968F86800F0A8FA0346002B02D0FB68C8
:1034C80020225A65FB68012283F85120FB680022FC
:1034D80083F85020FB685B6D002B01D0012300E0CE
:1034E800002318461837BD4680BD80B58AB000AFA6
:1034F800F860B9607A607B8001237B62FEF798FDF3
:103508003862FB6893F85130FB77FB685B68BB61F6
:103518007B88FB82FB7F012B0CD0BB69B3F5827FD4
:1035280006D1FB689B68002B02D1FB7F042B01D0DE
:1035380002237FE1BB68002B05D07B68002B02D0FB
:103548007B88002B01D1012374E1FB6893F850308C
:10355800012B01D102236DE1FB68012283F8502081
:10356800FB6893F85130DBB2042B03D0FB680522CB
:1035780083F85120FB6800225A65FB687A689A63D1
:10358800FB687A88DA87FB687A889A87FB68BA6862
:103598001A63FB687A88DA86FB687A889A86FB68F9
:1035A80000221A64FB6800225A64FB681B681B68C7
:1035B80003F04003402B07D0FB681B681A68FB68C0
:1035C8001B6842F040021A60FB68DB68B3F5006FC5
:1035D8007ED1FB685B68002B02D0FB8A012B6CD183
:1035E800FB681B6B1A88FB681B68DA60FB681B6B3F
:1035F8009A1CFB681A63FB68DB8E9BB2013B9AB28C
:10360800FB68DA8659E0FB681B689B6803F00203D5
:10361800022B1BD1FB68DB8E9BB2002B16D07B6A7A
:10362800012B13D1FB681B6B1A88FB681B68DA60D7
:10363800FB681B6B9A1CFB681A63FB68DB8E9BB2EA
:10364800013B9AB2FB68DA8600237B62FB681B6841
:103658009B6803F00103012B19D1FB68DB8F9BB238
:10366800002B14D0FB681B68DA68FB689B6B92B26E
:103678001A80FB689B6B9A1CFB689A63FB68DB8F5C
:103688009BB2013B9AB2FB68DA8701237B62FEF7A3
:10369800CFFC02463B6AD31A3A6B9A420DD83B6B71
:1036A800B3F1FF3F09D0FB68012283F85120FB6882
:1036B800002283F850200323BCE0FB68DB8E9BB21A
:1036C800002BA0D1FB68DB8F9BB2002B9BD182E043
:1036D800FB685B68002B02D0FB8A012B71D1FB6869
:1036E8001A6BFB681B680C3312781A70FB681B6B2B
:1036F8005A1CFB681A63FB68DB8E9BB2013B9AB2CB
:10370800FB68DA865DE0FB681B689B6803F00203D0
:10371800022B1CD1FB68DB8E9BB2002B17D07B6A77
:10372800012B14D1FB681A6BFB681B680C331278E9
:103738001A70FB681B6B5A1CFB681A63FB68DB8EEC
:103748009BB2013B9AB2FB68DA8600237B62FB6876
:103758001B689B6803F00103012B19D1FB68DB8F01
:103768009BB2002B14D0FB681B68DA68FB689B6B64
:10377800D2B21A70FB689B6B5A1CFB689A63FB6891
:10378800DB8F9BB2013B9AB2FB68DA8701237B622D
:10379800FEF74EFC02463B6AD31A3A6B9A4203D8AC
:1037A8003B6BB3F1FF3F02D13B6B002B09D1FB68A8
:1037B800012283F85120FB68002283F8502003235C
:1037C80038E0FB68DB8E9BB2002B9CD1FB68DB8F5B
:1037D8009BB2002B97D13A6A396BF86800F07AF9F6
:1037E8000346002B08D0FB6820225A65FB6800229C
:1037F80083F8502001231DE0FB689B68002B0AD149
:1038080000233B61FB681B68DB683B61FB681B6846
:103818009B683B613B69FB68012283F85120FB6888
:10382800002283F85020FB685B6D002B01D0012338
:1038380000E0002318462837BD4680BD80B483B019
:1038480000AF786000BF0C37BD465DF8047B704759
:1038580080B483B000AF786000BF0C37BD465DF818
:10386800047B704780B483B000AF786000BF0C372A
:10387800BD465DF8047B704780B483B000AF7860C4
:1038880000BF0C37BD465DF8047B704780B483B039
:1038980000AF786000BF0C37BD465DF8047B704709
:1038A80080B483B000AF786000BF0C37BD465DF8C8
:1038B800047B704780B483B000AF786000BF0C37DA
:1038C800BD465DF8047B704780B483B000AF786074
:1038D80000BF0C37BD465DF8047B704780B483B0E9
:1038E80000AF78607B6893F85130DBB218460C372C
:1038F800BD465DF8047B704780B588B000AFF860BE
:10390800B9603B601346FB71FEF792FB0246BB6A47
:103918009B1A3A681344FB61FEF78AFBB861394B7E
:103928001B685B011B0DFA6902FB03F37B6154E022
:103938003B68B3F1FF3F50D0FEF77AFB0246BB6904
:10394800D31AFA699A4202D9FB69002B3DD1FB6868
:103958001B685A68FB681B6822F0E0025A60FB6823
:103968005B68B3F5827F11D1FB689B68B3F5004FA4
:1039780004D0FB689B68B3F5806F07D1FB681B68B0
:103988001A68FB681B6822F040021A60FB689B6A91
:10399800B3F5005F0FD1FB681B681A68FB681B68EA
:1039A80022F400521A60FB681B681A68FB681B68DF
:1039B80042F400521A60FB68012283F85120FB6828
:1039C800002283F85020032317E07B69002B01D1E4
:1039D8000023FB617B69013B7B61FB681B689A687C
:1039E800BB681340BA689A420CBF01230023DBB2BC
:1039F8001A46FB799A429BD1002318462037BD46C8
:103A080080BD00BF2C00002080B586B002AFF860F2
:103A1800B9607A60FB685B68B3F5827F11D1FB6897
:103A28009B68B3F5004F04D0FB689B68B3F5806FC3
:103A380007D1FB681B681A68FB681B6822F0400204
:103A48001A60FB685B68B3F5827F2AD1FB689B68C4
:103A5800B3F5806F12D07B680093BB680022802189
:103A6800F868FFF749FF0346002B2DD0FB685B6D14
:103A780043F02002FB685A65032326E07B68009325
:103A8800BB6800220121F868FFF736FF0346002BC8
:103A98001AD0FB685B6D43F02002FB685A6503236C
:103AA80013E07B680093BB6800220121F868FFF7E8
:103AB80023FF0346002B07D0FB685B6D43F0200211
:103AC800FB685A65032300E0002318461037BD46FB
:103AD80080BD000080B588B002AFF860B9607A6038
:103AE8007B680093BB6801220221F868FFF704FF96
:103AF8000346002B07D0FB685B6D43F02002FB6890
:103B08005A65032332E01B4B1B681B4AA2FB0323A5
:103B18005B0D4FF47A7202FB03F37B61FB685B6811
:103B2800B3F5827F12D17B680093BB6800228021A5
:103B3800F868FFF7E1FE0346002B16D0FB685B6DC3
:103B480043F02002FB685A6503230FE07B69002BD2
:103B58000AD07B69013B7B61FB681B689B6803F0AB
:103B68008003802BF2D000E000BF002318461837EE
:103B7800BD4680BD2C000020819F5E1680B582B0B6
:103B880000AF78607B68002B01D1012341E07B689E
:103B980093F83D30DBB2002B06D17B68002283F816
:103BA8003C207868FEF71AF97B68022283F83D20EA
:103BB8007B681A687B6804331946104600F0F6FBE8
:103BC8007B68012283F846207B68012283F83E2027
:103BD8007B68012283F83F207B68012283F840201C
:103BE8007B68012283F841207B68012283F8422008
:103BF8007B68012283F843207B68012283F84420F4
:103C08007B68012283F845207B68012283F83D20E8
:103C1800002318460837BD4680BD000080B584B033
:103C280000AF786039603B68002B09D17B6893F856
:103C38003E30DBB2012B14BF01230023DBB222E0AC
:103C48003B68042B09D17B6893F83F30DBB2012B2A
:103C580014BF01230023DBB215E03B68082B09D110
:103C68007B6893F84030DBB2012B14BF012300239B
:103C7800DBB208E07B6893F84130DBB2012B14BF5C
:103C880001230023DBB2002B01D0012368E03B684D
:103C9800002B04D17B68022283F83E2013E03B68A6
:103CA800042B04D17B68022283F83F200BE03B6899
:103CB800082B04D17B68022283F8402003E07B684C
:103CC800022283F841207B681B6801223968184664
:103CD80000F084FD7B681B68234A934207D17B6808
:103CE8001B685A6C7B681B6842F400425A647B6804
:103CF8001B681D4A934218D07B681B68B3F1804F3C
:103D080013D07B681B68194A93420ED07B681B68E6
:103D1800174A934209D07B681B68164A934204D01D
:103D28007B681B68144A934211D17B681B689B68A7
:103D380003F00703FB60FB68062B10D07B681B6849
:103D48001A687B681B6842F001021A6007E07B680A
:103D58001B681A687B681B6842F001021A6000231E
:103D680018461037BD4680BD0000014000040040E1
:103D780000080040000C00400040014080B586B0BB
:103D880000AF786039607B68002B01D1012397E090
:103D98007B6893F83D30DBB2002B06D17B680022AC
:103DA80083F83C207868FDF70DFF7B68022283F8D2
:103DB8003D207B681B689B687A68126823F48043FF
:103DC80023F0070393607B681A687B6804331946FD
:103DD800104600F0EBFA7B681B689B687B617B6888
:103DE8001B689B693B617B681B681B6AFB603B68BF
:103DF8001B687A6913437B613B6923F4407323F0A2
:103E080003033B613B689A683B689B691B02134349
:103E18003A6913433B613B6923F4406323F00C0385
:103E28003B613B6923F4704323F0F0033B613B683B
:103E3800DA683B68DB691B0213433A6913433B6149
:103E48003B681B691A013B681B6A1B0313433A69E9
:103E580013433B61FB6823F02203FB60FB6823F0FC
:103E68008803FB603B685A683B685B691B01134326
:103E7800FA681343FB607B681B687A699A607B6801
:103E88001B683A699A617B681B68FA681A627B68E2
:103E9800012283F846207B68012283F83E207B6854
:103EA800012283F83F207B68012283F842207B6847
:103EB800012283F843207B68012283F83D200023F8
:103EC80018461837BD4680BD80B584B000AF78600D
:103ED80039607B6893F83E30FB737B6893F83F301A
:103EE800BB737B6893F842307B737B6893F84330ED
:103EF8003B733B68002B10D1FB7B012B02D17B7BF2
:103F0800012B01D0012369E07B68022283F83E205F
:103F18007B68022283F8422031E03B68042B10D1F1
:103F2800BB7B012B02D13B7B012B01D0012355E048
:103F38007B68022283F83F207B68022283F84320B3
:103F48001DE0FB7B012B08D1BB7B012B05D17B7BC3
:103F5800012B02D13B7B012B01D001233EE07B6882
:103F6800022283F83E207B68022283F83F207B6888
:103F7800022283F842207B68022283F843203B68B0
:103F8800002B03D03B68042B08D00FE07B681B682C
:103F980001220021184600F021FC16E07B681B680E
:103FA80001220421184600F019FC0EE07B681B680A
:103FB80001220021184600F011FC7B681B680122D1
:103FC8000421184600F00AFC00BF7B681B681A68C9
:103FD8007B681B6842F001021A60002318461037FC
:103FE800BD4680BD80B584B000AF78607B681B6833
:103FF800DB68FB607B681B681B69BB60BB6803F000
:104008000203002B20D0FB6803F00203002B1BD017
:104018007B681B686FF002021A617B6801221A77BD
:104028007B681B689B6903F00303002B03D0786847
:1040380000F09EF905E0786800F090F9786800F0E3
:10404800A1F97B6800221A77BB6803F00403002BF0
:1040580020D0FB6803F00403002B1BD07B681B688F
:104068006FF004021A617B6802221A777B681B686A
:104078009B6903F44073002B03D0786800F078F94B
:1040880005E0786800F06AF9786800F07BF97B68E9
:1040980000221A77BB6803F00803002B20D0FB68C6
:1040A80003F00803002B1BD07B681B686FF0080225
:1040B8001A617B6804221A777B681B68DB6903F046
:1040C8000303002B03D0786800F052F905E0786804
:1040D80000F044F9786800F055F97B6800221A77F7
:1040E800BB6803F01003002B20D0FB6803F010031B
:1040F800002B1BD07B681B686FF010021A617B686D
:1041080008221A777B681B68DB6903F44073002B6D
:1041180003D0786800F02CF905E0786800F01EF903
:10412800786800F02FF97B6800221A77BB6803F0E3
:104138000103002B0CD0FB6803F00103002B07D010
:104148007B681B686FF001021A61786800F0FCF860
:10415800BB6803F08003002B0CD0FB6803F08003DE
:10416800002B07D07B681B686FF080021A617868A3
:1041780000F0D2FBBB6803F04003002B0CD0FB68B7
:1041880003F04003002B07D07B681B686FF04002E8
:104198001A61786800F000F9BB6803F02003002B6F
:1041A8000CD0FB6803F02003002B07D07B681B684A
:1041B8006FF020021A61786800F0A4FB00BF103786
:1041C800BD4680BD80B586B000AFF860B9607A6042
:1041D8000023FB75FB6893F83C30012B01D10223C7
:1041E800AEE0FB68012283F83C207B680C2B00F2D0
:1041F8009F8001A252F823F0354200083943000895
:10420800394300083943000875420008394300085B
:104218003943000839430008B74200083943000809
:104228003943000839430008F7420008FB681B6857
:10423800B968184600F046F9FB681B689A69FB687C
:104248001B6842F008029A61FB681B689A69FB6860
:104258001B6822F004029A61FB681B689969BB68B5
:104268001A69FB681B680A439A6164E0FB681B686B
:10427800B968184600F08CF9FB681B689A69FB68F6
:104288001B6842F400629A61FB681B689A69FB68C4
:104298001B6822F480629A61FB681B689969BB6895
:1042A8001B691A02FB681B680A439A6143E0FB68B2
:1042B8001B68B968184600F0D7F9FB681B68DA690B
:1042C800FB681B6842F00802DA61FB681B68DA6960
:1042D800FB681B6822F00402DA61FB681B68D96975
:1042E800BB681A69FB681B680A43DA6123E0FB684C
:1042F8001B68B968184600F021FAFB681B68DA6980
:10430800FB681B6842F40062DA61FB681B68DA69C3
:10431800FB681B6822F48062DA61FB681B68D96954
:10432800BB681B691A02FB681B680A43DA6102E072
:104338000123FB7500BFFB68002283F83C20FB7D4E
:1043480018461837BD4680BD80B483B000AF78608A
:1043580000BF0C37BD465DF8047B704780B483B05E
:1043680000AF786000BF0C37BD465DF8047B70472E
:1043780080B483B000AF786000BF0C37BD465DF8ED
:10438800047B704780B483B000AF786000BF0C37FF
:10439800BD465DF8047B704780B483B000AF786099
:1043A80000BF0C37BD465DF8047B704780B485B00C
:1043B80000AF786039607B681B68FB607B683A4AAD
:1043C80093420FD07B68B3F1804F0BD07B68374A9C
:1043D800934207D07B68364A934203D07B68354ABC
:1043E800934208D1FB6823F07003FB603B685B686D
:1043F800FA681343FB607B682B4A93421BD07B68A7
:10440800B3F1804F17D07B68284A934213D07B685A
:10441800274A93420FD07B68264A93420BD07B6889
:10442800254A934207D07B68244A934203D07B688D
:10443800234A934208D1FB6823F44073FB603B682E
:10444800DB68FA681343FB60FB6823F080023B6873
:104458005B691343FB607B68FA681A603B689A687B
:104468007B68DA623B681A687B689A627B680E4AE6
:10447800934203D13B681A697B681A637B680122FF
:104488005A617B681B6903F00103012B05D17B6826
:104498001B6923F001027B681A6100BF1437BD460F
:1044A8005DF8047B704700BF000001400004004035
:1044B80000080040000C004000400140004401405A
:1044C8000048014080B487B000AF786039607B68ED
:1044D8001B6A7B617B681B6A23F001027B681A6296
:1044E8007B685B683B617B689B69FB60FB6823F0CA
:1044F8007003FB60FB6823F00303FB603B681B68E9
:10450800FA681343FB607B6923F002037B613B6815
:104518009B687A6913437B617B681C4A93420CD180
:104528007B6923F008037B613B68DB687A69134386
:104538007B617B6923F004037B617B68134A9342A8
:1045480011D13B6923F480733B613B6923F4007309
:104558003B613B685B693A6913433B613B689B6914
:104568003A6913433B617B683A695A607B68FA6829
:104578009A613B685A687B685A637B687A691A62F1
:1045880000BF1C37BD465DF8047B70470000014042
:1045980080B487B000AF786039607B681B6A7B6144
:1045A8007B681B6A23F010027B681A627B685B6871
:1045B8003B617B689B69FB60FB6823F4E043FB601D
:1045C800FB6823F44073FB603B681B681B02FA68B6
:1045D8001343FB607B6923F020037B613B689B6886
:1045E8001B017A6913437B617B681E4A93420DD194
:1045F8007B6923F080037B613B68DB681B017A6978
:1046080013437B617B6923F040037B617B68154A18
:10461800934213D13B6923F480633B613B6923F4E4
:1046280000633B613B685B699B003A6913433B61EC
:104638003B689B699B003A6913433B617B683A6915
:104648005A607B68FA689A613B685A687B689A6323
:104658007B687A691A6200BF1C37BD465DF8047B27
:10466800704700BF0000014080B487B000AF786099
:1046780039607B681B6A7B617B681B6A23F48072E4
:104688007B681A627B685B683B617B68DB69FB60FF
:10469800FB6823F07003FB60FB6823F00303FB60F7
:1046A8003B681B68FA681343FB607B6923F400735B
:1046B8007B613B689B681B027A6913437B617B685B
:1046C8001D4A93420DD17B6923F400637B613B68EB
:1046D800DB681B027A6913437B617B6923F480637F
:1046E8007B617B68144A934213D13B6923F480535E
:1046F8003B613B6923F400533B613B685B691B01E9
:104708003A6913433B613B689B691B013A69134350
:104718003B617B683A695A607B68FA68DA613B6892
:104728005A687B68DA637B687A691A6200BF1C374B
:10473800BD465DF8047B70470000014080B487B037
:1047480000AF786039607B681B6A3B617B681B6AD5
:1047580023F480527B681A627B685B687B617B68A4
:10476800DB69FB60FB6823F4E043FB60FB6823F430
:104778004073FB603B681B681B02FA681343FB60CD
:104788003B6923F400533B613B689B681B033A6910
:1047980013433B617B68104A934209D17B6923F438
:1047A80080437B613B685B699B017A6913437B614A
:1047B8007B687A695A607B68FA68DA613B685A688C
:1047C8007B681A647B683A691A6200BF1C37BD4669
:1047D8005DF8047B704700BF0000014080B487B0DB
:1047E80000AFF860B9607A60BB6803F01F0301226C
:1047F80002FA03F37B61FB681A6A7B69DB431A40A0
:10480800FB681A62FB681A6ABB6803F01F037968C1
:1048180001FA03F31A43FB681A6200BF1C37BD464E
:104828005DF8047B7047000080B485B000AF786005
:1048380039607B6893F83C30012B01D1022350E0AA
:104848007B68012283F83C207B68022283F83D20A4
:104858007B681B685B68FB607B681B689B68BB6048
:10486800FB6823F07003FB603B681B68FA6813431E
:10487800FB607B681B68FA685A607B681B681C4A87
:10488800934218D07B681B68B3F1804F13D07B68C4
:104898001B68184A93420ED07B681B68164A9342DD
:1048A80009D07B681B68154A934204D07B681B6853
:1048B800134A93420CD1BB6823F08003BB603B686A
:1048C8005B68BA681343BB607B681B68BA689A6008
:1048D8007B68012283F83D207B68002283F83C2016
:1048E800002318461437BD465DF8047B704700BFA7
:1048F800000001400004004000080040000C004097
:104908000040014080B483B000AF786000BF0C372E
:10491800BD465DF8047B704780B483B000AF786013
:1049280000BF0C37BD465DF8047B704780B58CB07E
:1049380000AF7860002387F82F307B68002B03D105
:10494800012387F82F309BE100233B7400237B74FD
:104958000023BB740023FB7400233B7300237B7389
:104968000023BB730023FB73002387F82830002340
:1049780087F82930002387F82A30002387F82B305E
:10498800002387F82430082387F82530002387F888
:104998002630002387F82730002387F820300023AB
:1049A80087F82130002387F82230002387F8233046
:1049B80000233B7700237B770023BB770023FB771B
:1049C80000233B7600237B760023BB760023FB760F
:1049D80000233B7508237B750023BB750023FB75FB
:1049E8007B681B68184600F0C1FA03461A4697F818
:1049F8002F30134387F82F3097F82F30002B40F0D3
:104A08003F817B681B68184600F052FB03461A4634
:104A180097F82F30134387F82F307B681B681846A8
:104A280000F0D0FA03461A4697F82F30134387F858
:104A38002F3097F82F30002B40F022817B681B68BD
:104A480003222B21184600F09FFB03461A4697F8CD
:104A58002F30134387F82F307B68186807F110034D
:104A68002322202100F0D0FB03461A4697F82F3066
:104A7800134387F82F307B68186807F10C03272247
:104A8800242100F0C1FB03461A4697F82F30134340
:104A980087F82F307B68186807F128030322002164
:104AA80000F0B2FB03461A4697F82F30134387F8F5
:104AB8002F307B68186807F124030722042100F0CF
:104AC800A3FB03461A4697F82F30134387F82F3075
:104AD8007B68186807F120030B22082100F094FB7B
:104AE80003461A4697F82F30134387F82F307B6810
:104AF800186807F11C031322102100F085FB0346F8
:104B08001A4697F82F30134387F82F307B681868B8
:104B180007F118031722142100F076FB03461A4602
:104B280097F82F30134387F82F307B68186807F100
:104B380014031B22182100F067FB03461A4697F856
:104B48002F30134387F82F307B681B6804226021BD
:104B5800184600F019FB03461A4697F82F301343FE
:104B680087F82F307B681B6801227021184600F0F7
:104B78000BFB03461A4697F82F30134387F82F305C
:104B8800424A07F108031268114619800233120CD1
:104B98001A707B681B79052B38D801A252F823F0CC
:104BA800C14B0008CF4B0008DD4B0008EB4B000859
:104BB800F94B0008074C000800233B72C0237B72A6
:104BC8008023BB7226E000233B72D1237B728123B2
:104BD800BB721FE080233B72E5237B728323BB7289
:104BE80018E080233B72F6237B728423BB7211E0AA
:104BF80081233B72E5237B728323BB720AE0812306
:104C08003B72F6237B728423BB7203E0012387F88F
:104C18002F3000BF7B681B683A7A2A21184600F0BB
:104C2800B3FA03461A4697F82F30134387F82F3004
:104C38007B681B687A7A2921184600F0A5FA034692
:104C48001A4697F82F30134387F82F307B681B6874
:104C5800BA7A2821184600F097FA03461A4697F8B8
:104C68002F30134387F82F307B681B68184600F0F5
:104C7800E4F903461A4697F82F30134387F82F3084
:104C880097F82F3018463037BD4680BD887D00081C
:104C980080B586B002AF786039600023FB737B680B
:104CA800002B02D03B68002B02D10123FB73ABE041
:104CB800584B00221A70574B00225A70554B00224D
:104CC8009A70544B0022DA707B681B685249184668
:104CD80000F05CFB03461A46FB7B1343FB734E4B09
:104CE8001B7803F00403DBB2002B29D13B6858681A
:104CF8003B681B78474A194600F0E0F803461A4615
:104D0800FB7B1343FB737B6818683B681A7A3B6824
:104D18000933009313463F4A402100F0BDFA034689
:104D28001A46FB7B1343FB737B681B68812118467B
:104D380000F000FB03461A46FB7B1343FB7363E05A
:104D4800354B1B7803F01003DBB2002B29D13B68ED
:104D580058683B681B782F4A194600F0AFF803469D
:104D68001A46FB7B1343FB737B6818683B681A7A07
:104D78003B68093300931346264A422100F08CFA17
:104D880003461A46FB7B1343FB737B681B6882212F
:104D9800184600F0CFFA03461A46FB7B1343FB7311
:104DA80032E01D4B1B7803F04003DBB2002B29D106
:104DB8003B6858683B681B78164A194600F07EF82D
:104DC80003461A46FB7B1343FB737B6818683B68F2
:104DD8001A7A3B680933009313460E4A442100F0BF
:104DE8005BFA03461A46FB7B1343FB737B681B681D
:104DF8008421184600F09EFA03461A46FB7B1343AB
:104E0800FB7301E00123FB73FB7B18461037BD469B
:104E180080BD00BF5C0400205404002080B584B02D
:104E280000AF78600023FB737B68002B02D101235D
:104E3800FB7314E07B681B680B4A2D21184600F0B1
:104E48005FF903461A46FB7B1343FB73064B1B783B
:104E580003F02003DBB2002B01D00123FB73FB7BA3
:104E680018461037BD4680BD5804002080B584B070
:104E780000AF78600023FB737B68002B02D101230D
:104E8800FB7314E07B681B680B4A2D21184600F061
:104E980037F903461A46FB7B1343FB73064B1B7813
:104EA80003F01003DBB2002B01D00123FB73FB7B63
:104EB80018461037BD4680BD5804002080B487B01E
:104EC80000AFF8600B467A60FB720023FB75002385
:104ED800BB75FB7A022B2ED1FB68DAB27B68DA70DD
:104EE800FB681B0AFB60FB68DAB27B689A70FB6898
:104EF8001B0AFB60FB68DBB203F00303BB75FB68AE
:104F0800DB00FB60FB68DBB223F01F03DAB2BB7D7A
:104F18001344BB75BB7D0833BB75BB7D23F01403FD
:104F2800DAB27B685A70FB681B0AFB60FB68DAB26E
:104F38007B681A7013E07B6800229A707B680022F5
:104F4800DA70FB685B01FB60FB68DAB27B685A7059
:104F5800FB681B0AFB60FB68DAB27B681A70FB7D92
:104F680018461C37BD465DF8047B704780B584B091
:104F780000AF78600023FB737B68002B02D101230C
:104F8800FB7318E001224FF480510D48FDF716FB22
:104F98000A23BB737868FEF7A1FC0346012B02D1F4
:104FA8000023FB7307E0BB7B013BBB730123FB734F
:104FB800BB7B002BEED1FB7B18461037BD4680BD6E
:104FC8000004024080B584B000AF78600023FB7312
:104FD8007B68002B02D10123FB7329E080220F217B
:104FE800786800F0D1F803461A46FB7B1343FB733D
:104FF8000A23BB7300237B7307F10D031A460E21A6
:10500800786800F07DF803461A46FB7B1343FB7370
:105018007B7B03F0E003802B02D10023FB7301E0CC
:105028000123FB73BB7B013BBB73BB7B002BE1D133
:10503800FB7B18461037BD4680BD80B584B000AFF5
:1050480078600023FB737B68002B02D10123FB737C
:1050580029E000220F21786800F096F803461A46E6
:10506800FB7B1343FB730A23BB7300237B7307F19A
:105078000D031A460E21786800F042F803461A46D6
:10508800FB7B1343FB737B7B03F0E003002B02D114
:105098000023FB7301E00123FB73BB7B013BBB7364
:1050A800BB7B002BE1D1FB7B18461037BD4680BD8A
:1050B80080B584B000AF78600023FB737B68002B59
:1050C80002D10123FB7314E000224FF480510B48F6
:1050D800FDF774FAC021786800F090F903461A4683
:1050E800FB7B1343FB7301224FF480510348FDF708
:1050F80065FAFB7B18461037BD4680BD00040240A8
:1051080080B586B000AFF8600B467A60FB7200236A
:10511800FB75FB68002B02D10123FB752CE00022F4
:105128004FF480511748FDF749FA0321F86800F059
:1051380065F903461A46FB7D1343FB75FB7A19464E
:10514800F86800F05BF903461A46FB7D1343FB75CC
:1051580007F116031946F86800F090F903461A4655
:10516800FB7D1343FB7501224FF480510548FDF781
:1051780025FABA7D7B681A70FB7D18461837BD463C
:1051880080BD00BF0004024080B584B000AF7860E5
:105198000B46FB701346BB700023FB737B68002B28
:1051A80002D10123FB7328E000224FF480511548F7
:1051B800FDF704FA0221786800F020F903461A4640
:1051C800FB7B1343FB73FB781946786800F016F9EC
:1051D80003461A46FB7B1343FB73BB781946786872
:1051E80000F00CF903461A46FB7B1343FB730122BC
:1051F8004FF480510348FDF7E1F9FB7B184610375F
:10520800BD4680BD0004024080B586B000AFF8609E
:105218007B600B46FB721346BB720023FB75FB6871
:10522800002B02D10123FB752EE000224FF48051A0
:105238001848FDF7C3F90221F86800F0DFF80346C3
:105248001A46FB7D1343FB75FB7A1946F86800F094
:10525800D5F803461A46FB7D1343FB75BA7AFB7AE9
:10526800D31ADBB20133DBB21A467968F86800F06A
:10527800E4F803461A46FB7D1343FB7501224FF4FD
:1052880080510448FDF79AF9FB7D18461837BD464A
:1052980080BD00BF0004024080B586B000AFF86052
:1052A8007A601A460B46FB721346BB720023FB75E5
:1052B800FB68002B02D10123FB7534E000224FF478
:1052C80080511B48FDF77AF9FB7A1946F86800F017
:1052D80095F803461A46FB7D1343FB75042279684B
:1052E800F86800F0AAF803461A46FB7D1343FB75DD
:1052F800BB7A1946F86800F081F803461A46FB7D28
:105308001343FB75BB7A1A46396AF86800F095F8BA
:1053180003461A46FB7D1343FB7501224FF4805167
:105328000348FDF74BF9FB7D18461837BD4680BD8D
:105338000004024080B584B000AF78600B46FB7073
:105348000023FB737B68002B02D10123FB7315E05C
:1053580000224FF480510C48FDF730F9FB781946CC
:10536800786800F04BF803461A46FB7B1343FB733F
:1053780001224FF480510448FDF720F9FB7B1846C1
:105388001037BD4680BD00BF0004024080B584B020
:1053980000AF786039600023FB737B68002B02D173
:1053A8000123FB7322E000224FF480511248FDF7DD
:1053B80005F9A021786800F021F803461A46FB7B1E
:1053C8001343FB7307F10E031946786800F056F88B
:1053D80003461A46FB7B1343FB7301224FF48051AB
:1053E8000548FDF7EBF8BA7B3B681A70FB7B18465B
:1053F8001037BD4680BD00BF0004024080B584B0B0
:1054080000AF78600B46FB700023FB737B68002BB2
:1054180002D10123FB730BE0F91C4FF0FF3301228B
:105428007868FDF705FE0346002B01D00123FB73C6
:10543800FB7B18461037BD4680BD80B586B000AFEF
:10544800F860B9601346FB710023FB75FB68002BFD
:1054580002D10123FB750CE0FB799AB24FF0FF33C0
:10546800B968F868FDF7E4FD0346002B01D0012375
:10547800FB75FB7D18461837BD4680BD80B584B0E6
:1054880000AF786039600023FB737B68002B02D182
:105498000123FB7312E00023BB7307F10E014FF0E9
:1054A800FF3301227868FDF707FF0346002B02D07F
:1054B8000123FB7302E0BA7B3B681A70FB7B18463A
:1054C8001037BD4680BD80B584B000AF786000233A
:1054D800FB737B68002B02D10123FB731BE07B6805
:1054E8004FF000025A607B684FF000029A607B68B8
:1054F80000221A617B681B681B6845F2F0525A62E9
:105508007B681B683C211846FEF7DEFC0346002B2F
:1055180001D00123FB73FB7B18461037BD4680BDC5
:105528002DE9B04386B000AF786087ED000A00230C
:10553800FB757B68002B02D10123FB7593E07B6828
:105548001B681B685B6A3B617B681B681B6845F2CC
:10555800F0525A624FF00003FB604FF00003BB604B
:105568003B6907EE903AF8EE677A9FED457A77EE59
:10557800C77AC7ED037A97ED037ADFED426AC7EE83
:10558800267AC7ED027AD7ED027A9FED3F7A67EE69
:10559800877A17EE900AFAF77FFF04460D463868B7
:1055A800FAF77AFF4FF00002384BFBF7F7F802469C
:1055B8000B4620462946FBF7F1F802460B461046F3
:1055C8001946FBF783FA02467B685A607B68D3ED7D
:1055D800017AF5EEC07AF1EE10FA12D57B685B68B5
:1055E8001846FAF759FF02460B4610461946FBF7CC
:1055F8006DFA034607EE903AF1EE677A7B68C3EDE1
:10560800017A7B689B681846FAF746FF04460D4600
:10561800D7ED027A77EEA77A17EE900AFAF73CFFF1
:1056280015A3D3E90023FAF78FFF02460B469046ED
:1056380099467B68DB681846FAF72EFF02460B4648
:1056480040464946FAF780FF02460B46204629465F
:10565800FAF7C4FD02460B4610461946FBF736FA20
:1056680002467B689A60FB7D18461837BD46BDE840
:10567800B08300BFAFF30080182D4454FB210940CC
:1056880000E0AB460000DC430000704200408F4061
:1056980080B584B000AF78600023FB737B68002B73
:1056A80002D10123FB732DE07B681B7C002B05D105
:1056B8007B68DB681B6800225A6318E07B681B7CE8
:1056C800042B05D17B68DB681A68002393630EE01E
:1056D8007B681B7C082B05D17B68DB681A68002374
:1056E800D36304E07B68DB681A68002313647B6873
:1056F800DA687B681B7C19461046FEF78FFA044B64
:10570800044A1A60FB7B18461037BD4680BD00BFAF
:10571800980100200000434380B584B000AF786052
:1057280087ED000A0023FB737B68002B02D101235D
:10573800FB7316E097ED000A786800F06BF80346F3
:10574800FB737B6818687B681B8901221946FCF784
:1057580035FF7B6858687B685B8900221946FCF72F
:105768002DFFFB7B18461037BD4680BD80B584B041
:1057780000AF786087ED000A0023FB737B68002B7D
:1057880002D10123FB7316E097ED000A786800F058
:1057980041F80346FB737B6818687B681B89002205
:1057A8001946FCF70BFF7B6858687B685B89012208
:1057B8001946FCF703FFFB7B18461037BD4680BD32
:1057C80080B584B000AF78600023FB737B68002B42
:1057D80002D10123FB7316E09FED0D0A786800F0F3
:1057E80019F80346FB737B6818687B681B890022DD
:1057F8001946FCF7E3FE7B6858687B685B890022E2
:105808001946FCF7DBFEFB7B18461037BD4680BD0A
:105818000000000080B487B000AF786087ED000A10
:105828000023FB757B68002B02D10123FB7536E052
:105838001E4B93ED007AD7ED006AC6EE877AC7ED66
:10584800047AD7ED047A9FED1A7A67EE877AFCEE30
:10585800E77A17EE903AFB607B681B7C002B05D13A
:105868007B68DB681B68FA685A6318E07B681B7CF6
:10587800042B05D17B68DB681A68FB6893630EE02C
:105888007B681B7C082B05D17B68DB681A68FB6882
:10589800D36304E07B68DB681A68FB681364FB7DEC
:1058A80018461C37BD465DF8047B704798010020F8
:1058B8000038834500000000B0B58CB000AFF86038
:1058C80087ED020AC7ED010A002387F82F30FB682D
:1058D800002B03D1012387F82F3041E24FF000035A
:1058E800BB624FF000037B624FF000033B624FF056
:1058F8000003FB614FF00003BB614FF000037B61C5
:105908004FF000033B61D7ED017A9FEDDD7A67EE3A
:10591800877AB0EE670A01F027FAB0EE407ADFED39
:10592800D86AC7EE267AC7ED017A7868FAF7B4FD27
:1059380004460D46B868FAF7AFFDCBA3D3E90023B8
:10594800FAF702FE02460B46104619464FF00002CF
:10595800CC4BFAF723FF02460B4643EC172BB0EE6D
:10596800470AF0EE670A01F057F953EC102B20466E
:105978002946FAF7E9FD02460B4610461946FBF799
:10598800A5F80346BB617868FAF786FD04460D461C
:10599800B868FAF781FDB4A3D3E90023FAF7D4FD78
:1059A80002460B46104619464FF00002B54BFAF76F
:1059B800F5FE02460B4643EC172BB0EE470AF0EE15
:1059C800670A01F07DF953EC102B20462946FAF7B7
:1059D800BBFD02460B4610461946FBF777F803460F
:1059E8007B6197ED067AD7ED057A77EE677A17EE41
:1059F800900AFAF751FD04460D463869FAF74CFD4E
:105A08004FF00002A04BFAF79FFD02460B462046D6
:105A18002946FAF7E1FB02460B461046194694A3BD
:105A2800D3E90023FAF790FD02460B4610461946C3
:105A3800FBF74CF80346BB6297ED067AD7ED057A7B
:105A480077EE277A17EE900AFAF726FD04460D46F8
:105A58003869FAF721FD4FF000028B4BFAF774FD15
:105A680002460B4620462946FAF7B8FB02460B4683
:105A7800104619467EA3D3E90023FAF765FD0246CE
:105A88000B4610461946FBF721F803467B6297ED53
:105A9800067AD7ED057A77EE277A17EE900AFAF7A5
:105AA800FBFC04460D463869FAF7F6FC4FF0000295
:105AB800754BFAF749FD02460B4620462946FAF788
:105AC8008BFB02460B461046194669A3D3E900230F
