:020000040800F2
:10000000000001208D410008C13B0008CD3B0008E5
:10001000D53B0008DD3B0008E53B00080000000080
:1000200000000000000000000000000041E50008A2
:10003000ED3B00080000000091E70008E1B1000876
:10004000DD410008DD410008DD410008DD41000818
:10005000DD410008DD410008DD410008DD41000808
:10006000DD410008DD410008DD410008DD410008F8
:10007000DD410008DD410008DD410008DD410008E8
:10008000DD410008DD410008DD41000800000000FE
:10009000000000000000000000000000DD4100083A
:1000A000DD410008FD3B0008DD410008DD4100089E
:1000B000DD410008113C0008253C0008DD41000836
:1000C000DD410008DD410008DD410008DD41000898
:1000D000DD410008393C0008DD4100080000000057
:1000E0004D3C0008DD410008DD4100080000000033
:1000F000000000000000000000000000DD410008DA
:1001000000000000DD410008DD410008DD4100087D
:1001100000000000000000000000000000000000DF
:10012000DD410008DD410008DD410008DD41000837
:10013000DD41000800000000000000000000000099
:10014000000000000000000000000000DD41000889
:10015000DD410008DD410008DD410008DD41000807
:10016000DD410008DD410008000000000000000043
:10017000000000000000000000000000000000007F
:1001800000000000DD410008000000000000000049
:04019000DD41000845
:1001A00010B5054C237833B9044B13B10448AFF3B1
:1001B00000800123237010BDE00500200000000036
:1001C0009CFE000808B5034B1BB103490348AFF37D
:1001D000008008BD00000000E40500209CFE00082F
:1001E00081F0004102E000BF83F0004330B54FEAE8
:1001F00041044FEA430594EA050F08BF90EA020F55
:100200001FBF54EA000C55EA020C7FEA645C7FEAE7
:10021000655C00F0E2804FEA5454D4EB5555B8BF0A
:100220006D420CDD2C4480EA020281EA030382EA7B
:10023000000083EA010180EA020281EA0303362D0D
:1002400088BF30BD11F0004F4FEA01314FF4801CE0
:100250004CEA113102D0404261EB410113F0004FF2
:100260004FEA03334CEA133302D0524263EB4303A9
:1002700094EA050F00F0A780A4F10104D5F1200E47
:100280000DDB02FA0EFC22FA05F2801841F10001A2
:1002900003FA0EF2801843FA05F359410EE0A5F176
:1002A00020050EF1200E012A03FA0EFC28BF4CF0A7
:1002B000020C43FA05F3C01851EBE37101F000455D
:1002C00007D54FF0000EDCF1000C7EEB00006EEB6A
:1002D0000101B1F5801F1BD3B1F5001F0CD34908F4
:1002E0005FEA30004FEA3C0C04F101044FEA44524B
:1002F00012F5800F80F09A80BCF1004F08BF5FEAD2
:10030000500C50F1000041EB045141EA050130BDB1
:100310005FEA4C0C404141EB0101013C28BFB1F5C3
:10032000801FE9D291F0000F04BF01460020B1FA0E
:1003300081F308BF2033A3F10B03B3F120020CDAE1
:100340000C3208DD02F1140CC2F10C0201FA0CF0BF
:1003500021FA02F10CE002F11402D8BFC2F1200C24
:1003600001FA02F120FA0CFCDCBF41EA0C019040DA
:10037000E41AA2BF01EB0451294330BD6FEA040423
:100380001F3C1CDA0C340EDC04F11404C4F120020E
:1003900020FA04F001FA02F340EA030021FA04F320
:1003A00045EA030130BDC4F10C04C4F1200220FA77
:1003B00002F001FA04F340EA0300294630BD21FAB5
:1003C00004F0294630BD94F0000F83F4801306BF7B
:1003D00081F480110134013D4EE77FEA645C18BF6F
:1003E0007FEA655C29D094EA050F08BF90EA020F06
:1003F00005D054EA000C04BF1946104630BD91EAFE
:10040000030F1EBF0021002030BD5FEA545C05D100
:100410004000494128BF41F0004130BD14F580043F
:100420003CBF01F5801130BD01F0004545F0FE41B3
:1004300041F470014FF0000030BD7FEA645C1ABFE8
:10044000194610467FEA655C1CBF0B46024650EA1F
:10045000013406BF52EA033591EA030F41F400214B
:1004600030BD00BF90F0000F04BF0021704730B5D1
:100470004FF4806404F132044FF000054FF00001A6
:1004800050E700BF90F0000F04BF0021704730B567
:100490004FF4806404F1320410F0004548BF40423C
:1004A0004FF000013EE700BF42004FEAE2014FEA91
:1004B00031014FEA02701FBF12F07F4393F07F4F6C
:1004C00081F06051704732F07F4208BF704793F06F
:1004D0007F4F04BF41F40021704730B54FF4607482
:1004E00001F0004521F000411CE700BF50EA010285
:1004F00008BF704730B54FF000050AE050EA01022E
:1005000008BF704730B511F0004502D5404261EB9D
:1005100041014FF4806404F132045FEA915C3FF4DE
:10052000D8AE4FF003025FEADC0C18BF03325FEA7B
:10053000DC0C18BF033202EBDC02C2F1200300FA2C
:1005400003FC20FA02F001FA03FE40EA0E0021FA51
:1005500002F11444BDE600BF70B54FF0FF0C4CF43F
:10056000E06C1CEA11541DBF1CEA135594EA0C0FF1
:1005700095EA0C0F00F0DEF82C4481EA030621EA2C
:100580004C5123EA4C5350EA013518BF52EA033567
:1005900041F4801143F4801338D0A0FB02CE4FF019
:1005A0000005E1FB02E506F00042E0FB03E54FF049
:1005B0000006E1FB03569CF0000F18BF4EF0010E41
:1005C000A4F1FF04B6F5007F64F5407404D25FEA3D
:1005D0004E0E6D4146EB060642EAC62141EA5551F0
:1005E0004FEAC52040EA5E504FEACE2EB4F1FD0C32
:1005F00088BFBCF5E06F1ED8BEF1004F08BF5FEAB0
:10060000500E50F1000041EB045170BD06F0004661
:1006100046EA010140EA020081EA0301B4EB5C040E
:10062000C2BFD4EB0C0541EA045170BD41F4801106
:100630004FF0000E013C00F3AB8014F1360FDEBF2B
:10064000002001F0004170BDC4F10004203C35DA07
:100650000C341BDC04F11404C4F1200500FA05F38A
:1006600020FA04F001FA05F240EA020001F000422B
:1006700021F0004110EBD37021FA04F642EB0601A1
:100680005EEA430E08BF20EAD37070BDC4F10C04CB
:10069000C4F1200500FA04F320FA05F001FA04F28F
:1006A00040EA020001F0004110EBD37041F100017B
:1006B0005EEA430E08BF20EAD37070BDC4F1200586
:1006C00000FA05F24EEA020E20FA04F301FA05F2EE
:1006D00043EA020321FA04F001F0004121FA04F296
:1006E00020EA020000EBD3705EEA430E08BF20EA66
:1006F000D37070BD94F0000F0FD101F000464000A0
:1007000041EB010111F4801F08BF013CF7D041EA21
:10071000060195F0000F18BF704703F00046520025
:1007200043EB030313F4801F08BF013DF7D043EAF6
:100730000603704794EA0C0F0CEA135518BF95EAAC
:100740000C0F0CD050EA410618BF52EA4306D1D133
:1007500081EA030101F000414FF0000070BD50EA52
:10076000410606BF1046194652EA430619D094EADC
:100770000C0F02D150EA013613D195EA0C0F05D1C6
:1007800052EA03361CBF104619460AD181EA03011A
:1007900001F0004141F0FE4141F470014FF00000D2
:1007A00070BD41F0FE4141F4780170BD70B54FF06D
:1007B000FF0C4CF4E06C1CEA11541DBF1CEA1355ED
:1007C00094EA0C0F95EA0C0F00F0A7F8A4EB0504CF
:1007D00081EA030E52EA03354FEA013100F08880C6
:1007E0004FEA03334FF0805545EA131343EA12638F
:1007F0004FEA022245EA111545EA10654FEA002644
:100800000EF000419D4208BF964244F1FD0404F5FC
:10081000407402D25B084FEA3202B61A65EB030558
:100820005B084FEA32024FF480104FF4002CB6EB15
:10083000020E75EB030E22BFB61A754640EA0C0095
:100840005B084FEA3202B6EB020E75EB030E22BFD5
:10085000B61A754640EA5C005B084FEA3202B6EB16
:10086000020E75EB030E22BFB61A754640EA9C00D5
:100870005B084FEA3202B6EB020E75EB030E22BFA5
:10088000B61A754640EADC0055EA060E18D04FEA63
:10089000051545EA16754FEA06164FEAC30343EA03
:1008A00052734FEAC2025FEA1C1CC0D111F4801FD0
:1008B0000BD141EA00014FF000004FF0004CB6E7C9
:1008C00011F4801F04BF01430020B4F1FD0C88BF68
:1008D000BCF5E06F3FF6AFAEB5EB030C04BFB6EB73
:1008E000020C5FEA500C50F1000041EB045170BD66
:1008F0000EF0004E4EEA113114EB5C04C2BFD4EB93
:100900000C0541EA045170BD41F480114FF0000E16
:10091000013C90E645EA060E8DE60CEA135594EA92
:100920000C0F08BF95EA0C0F3FF43BAF94EA0C0F95
:100930000AD150EA01347FF434AF95EA0C0F7FF40A
:1009400025AF104619462CE795EA0C0F06D152EA5E
:1009500003353FF4FDAE1046194622E750EA410642
:1009600018BF52EA43067FF4C5AE50EA41047FF453
:100970000DAF52EA43057FF4EBAE12E74FF0FF3CB8
:1009800006E000BF4FF0010C02E000BF4FF0010C89
:100990004DF804CD4FEA410C7FEA6C5C4FEA430C02
:1009A00018BF7FEA6C5C1BD001B050EA410C0CBF51
:1009B00052EA430C91EA030F02BF90EA020F0020B3
:1009C000704710F1000F91EA030F58BF994208BF1A
:1009D00090422CBFD8176FEAE37040F001007047D7
:1009E0004FEA410C7FEA6C5C02D150EA013C07D12E
:1009F0004FEA430C7FEA6C5CD6D152EA033CD3D079
:100A00005DF8040B704700BF8446104662468C4672
:100A10001946634600E000BF01B5FFF7B7FF0028A5
:100A200048BF10F1000F01BD4DF808EDFFF7F4FFCE
:100A30000CBF012000205DF808FB00BF4DF808ED59
:100A4000FFF7EAFF34BF012000205DF808FB00BF7C
:100A50004DF808EDFFF7E0FF94BF012000205DF89E
:100A600008FB00BF4DF808EDFFF7CEFF94BF012053
:100A700000205DF808FB00BF4DF808EDFFF7C4FF4C
:100A800034BF012000205DF808FB00BF4FEA410C95
:100A90007FEA6C5C02D150EA013C0AD14FEA430C78
:100AA0007FEA6C5C02D152EA033C02D14FF00000B5
:100AB00070474FF0010070474FEA4102B2F1E04346
:100AC00024BFB3F5001CDCF1FE5C0DD901F0004C35
:100AD0004FEAC0024CEA5070B2F1004F40EB830085
:100AE00008BF20F00100704711F0804F21D113F1B1
:100AF0003872BCBF01F00040704741F480114FEAEA
:100B00005252C2F11802C2F1200C10FA0CF320FA72
:100B100002F018BF40F001004FEAC1234FEAD3238F
:100B200003FA0CFC40EA0C0023FA02F34FEA4303F9
:100B3000CCE77FEA625307D150EA01331EBF4FF082
:100B4000FE4040F44000704701F0004040F0FE409D
:100B500040F40000704700BF53B94AB9002908BFEC
:100B600000281CBF4FF0FF314FF0FF3000F06AB992
:100B7000ADF1080C6DE904CE00F006F8DDF804E0F4
:100B8000DDE9022304B070472DE9F047089D0C46CB
:100B9000002B4ED194468C458646B2FA82F262D939
:100BA0004AB1C2F12003914020FA03F30CFA02FC8F
:100BB000194300FA02FE4FEA1C471FFA8CF6B1FBFC
:100BC000F7F44FEA1E4307FB141143EA014304FB09
:100BD00006F199420AD91CEB030304F1FF3080F0BF
:100BE0001281994240F20F81023C6344591A1FFA64
:100BF0008EF3B1FBF7F007FB101143EA014300FB52
:100C000006F69E420AD91CEB030300F1FF3180F087
:100C1000FC809E4240F2F980634402389B1B40EA0C
:100C2000044000211DB1D3400022C5E90032BDE8D7
:100C3000F0878B4205D90DB1C5E9000100210846B6
:100C4000F5E7B3FA83F1002946D1A34202D39042DB
:100C5000C0F0F080861A64EB03030120002DE6D07B
:100C6000C5E90063E3E7002A40F09080A1EB0C04A3
:100C70004FEA1C481FFA8CF70121B4FBF8F64FEA43
:100C80001E4308FB164443EA044307FB06F0984260
:100C900008D91CEB030306F1FF3402D2984200F29C
:100CA000CD8026461C1A1FFA8EF3B4FBF8F008FB21
:100CB000104443EA044300FB07F79F4208D91CEBAA
:100CC000030300F1FF3402D29F4200F2B0802046BD
:100CD000DB1B40EA0640A5E7C1F120068B4022FA63
:100CE00006F71F4320FA06FC04FA01F343EA0C035B
:100CF000F44000FA01F8380C4FEA1349B4FBF0FE57
:100D00001FFA87FC00FB1E4449EA04440EFB0CF961
:100D1000A14502FA01F20AD93C190EF1FF3A80F01E
:100D20008480A14540F28180AEF1020E3C44A4EBE8
:100D300009041FFA83F9B4FBF0F300FB134449EAFA
:100D4000044403FB0CFCA44507D93C1903F1FF3014
:100D500067D2A44565D9023B3C4443EA0E40A0FB60
:100D60000293A4EB0C049C42CE469C4651D34ED039
:100D700055B1B8EB0E0364EB0C0404FA06F6CB4055
:100D80001E43CC40C5E90064002150E7C2F12003B6
:100D900020FA03F10CFA02FC24FA03F394400C430A
:100DA0004FEA1C4800FA02FE1FFA8CF7B3FBF8F07A
:100DB00008FB1031230C43EA014300FB07F1994281
:100DC00008D91CEB030300F1FF362CD299422AD933
:100DD000023863445B1AA4B2B3FBF8F108FB113389
:100DE00044EA034401FB07F3A34208D91CEB0404C3
:100DF00001F1FF3613D2A34211D902396444E41A37
:100E000041EA004139E70446F0E6084606E7C845EE
:100E1000AED2B9EB020E63EB070C0138A8E73146FE
:100E2000EDE7034699E73046D4E7D6467FE76344CB
:100E300002384DE70646234608460FE7023E634464
:100E400030E700BF704700BF80B586B000AF786064
:100E50000023FB757B68002B02D10123FB756CE03E
:100E60004FF00003BB604FF000033B61354BD3ED07
:100E7000007A354B93ED007AF0EE470AB0EE670A40
:100E80000EF0C6F9F0EE407A9FED307A67EE877A81
:100E9000B3EE047A77EE877AC7ED037A07F1080399
:100EA00097ED030A1946786800F006F903461A46DA
:100EB000FB7D1343FB75264BD3ED007A9FED251A7E
:100EC000DFED250AB0EE670A0EF07EF90346002B2F
:100ED0000DD11F4BD3ED007A9FED201ADFED200AD4
:100EE000B0EE670A0EF070F90346002B22D0154BC6
:100EF000D3ED007AF5EE407AF1EE10FA1AD0124BEB
:100F000093ED007AD7ED027A77EE677A0020B0EEA3
:100F1000670A00F077F8F0EE407A0B4BC3ED007AE9
:100F20001049114800F0D0FA03461A46FB7D1343DE
:100F3000FB7502E0044B0D4A1A60FB7D184618371A
:100F4000BD4680BD0006002014000020000048427D
:100F50000406002000003442000000000000B443FA
:100F600000809D43C0010020180000206666E63E18
:100F700080B584B000AF78600023FB737B68002BE2
:100F800002D10123FB732BE07A687B68D3ED1A7AD8
:100F9000B7EE003AFFEE002AB0EE672ADFED131A33
:100FA000B3EE051ADFED120AB7EE080A10460DF08F
:100FB000F9FF7B6803F128027B68D3ED1A7A9FED75
:100FC0000D3ADFED0D2AB0EE672ADFED0C1A9FED2A
:100FD0000C1AF6EE000A9FED090A10460DF0E2FF2A
:100FE000FB7B18461037BD4680BD00BF6666B64124
:100FF000000000009A99193F9A9919BF0000C84251
:10100000CDCC4C3F80B485B000AF87ED010A0346DC
:10101000FB70264BFB60D7ED017AF5EEC07AF1EE5E
:1010200010FA07D5FB78224A9B0013444FF00002C8
:101030001A6015E0D7ED017A9FED1E7AF4EEC77ABB
:10104000F1EE10FA06DDFB78194A9B001344174AAB
:101050001A6005E0FB78164A9B0013447A681A6010
:101060000023FB7215E0FB7A114A9B001344D3ED79
:10107000007A97ED037AB4EEE77AF1EE10FA05DB29
:10108000FB7A0B4A9B0013441B68FB60FB7A01331D
:10109000FB72FB7A042BE6D9FB6807EE903AB0EEC0
:1010A000670A1437BD465DF8047B70476666E63E06
:1010B000000000206666E63E80B586B000AFF860AE
:1010C000B96087ED010A0023FB75FB68002B02D194
:1010D0000123FB751DE0FA68D7ED017ADFED0F6A99
:1010E00087EEA67AFB681B6DD3ED007A9FED0B6A45
:1010F000C7EE866AF0EE660AB0EE470A10460DF0BB
:101100008AFF87ED040AFB683A69DA66BB683A69C8
:101110001A60FB7D18461837BD4680BD0000C842E6
:1011200080B487B000AFF860B9607A603B6000239C
:10113000FB75FB68002B02D10123FB7508E0084A10
:10114000BB681360074A3B681360074A7B681360FB
:10115000FB7D18461C37BD465DF8047B704700BF19
:1011600024060020280600202C06002080B584B02C
:1011700000AF78600023FB730023BB737B68002BF8
:1011800002D10123FB738BE0484B9B681B69D3EDB5
:10119000007AB1EE047AF4EEC77AF1EE10FA23D9B0
:1011A000424BDB681B69D3ED007AB1EE047AF4EEB2
:1011B000C77AF1EE10FA17D93C4B9B691B69D3ED46
:1011C000007AB1EE047AF4EEC77AF1EE10FA0BD998
:1011D000364B5B691B69D3ED007AB1EE047AF4EE0D
:1011E000C77AF1EE10FA49D8304B9B681B69D3EDF2
:1011F000007AB1EE047AF4EEC77AF1EE10FA0BD968
:101200002A4BDB681B69D3ED007AB1EE047AF4EE69
:10121000C77AF1EE10FA05D8786800F075F8034641
:10122000BB7304E0786800F07DF80346BB731F4B86
:101230009B691B69D3ED007AB1EE047AF4EEC77AAC
:10124000F1EE10FA0BD9194B5B691B69D3ED007AEB
:10125000B1EE047AF4EEC77AF1EE10FA05D87868A8
:1012600000F06EF80346BB7304E0786800F076F88F
:101270000346BB730E4B1B68984711E0786800F07B
:1012800051F80346BB73786800F084F80346BB73DB
:10129000786800F063F80346BB73064B1B689847F9
:1012A000FB7B18461037BD4680BD00BF20000020E4
:1012B000280600202C06002080B584B000AF78609E
:1012C0000023FB730023BB737B68002B02D1012337
:1012D000FB7312E0786800F04FF80346BB73094BCC
:1012E0001B684FF4FA709847786800F053F803468B
:1012F000BB73044B1B68FA209847FB7B18461037DA
:10130000BD4680BD2406002080B582B000AF786065
:101310007B685B68184608F013FF034618460837D9
:10132000BD4680BD80B582B000AF78607B685B68E9
:10133000184608F01EFF034618460837BD4680BD14
:1013400080B582B000AF78607B689B68184608F073
:10135000F7FE034618460837BD4680BD80B582B00B
:1013600000AF78607B689B68184608F002FF034670
:1013700018460837BD4680BD80B582B000AF7860A2
:101380007B681B68184608F0DBFE034618460837E2
:10139000BD4680BD80B582B000AF78607B681B68B9
:1013A000184608F0E6FE034618460837BD4680BDDD
:1013B00080B584B000AF78600023FB730023BB735B
:1013C0007B68002B02D10123FB7317E07B681B684D
:1013D000184607F0DFFE03461A46BB7B1343BB7378
:1013E0000DF032FF02467B685A60BB7B002B03D1B5
:1013F0007B685B68002B01D10123FB73FB7B1846E4
:101400001037BD4680BD80B584B000AF78603960CC
:101410000023FB737B68002B02D03B68002B02D1BA
:101420000123FB7305E07B685B68396818460DF0A3
:1014300027FFFB7B18461037BD4680BD80B58AB0BC
:1014400000AF7860002387F82730002387F8263024
:101450007B68002B03D1012387F827302CE0002381
:101460003B627B681B6807F10C021146184608F0C6
:1014700009F903461A4697F82630134387F82630B1
:1014800097F82630002B17D17B685B6807F10C01B9
:101490000C4A18460DF02CFF38623B6A002B0BD02B
:1014A0003B6A07F10C01142218460EF045F83B6A1E
:1014B0009B693A6A1046984797F8273018462837AC
:1014C000BD4680BD7F15000880B584B000AF786050
:1014D00039600023FB730023BB737B68002B02D0B1
:1014E0003B68002B02D10123FB7343E03B689B69FF
:1014F0003A68104698473B685A693B685A607B686F
:101500001B68184608F07CF90346BB73BB7B002BB5
:101510001DD17B681B683A681146184607F0ECFF3E
:1015200003461A46BB7B1343BB73BB7B002B21D006
:101530000123FB73BB7B012B1CD17B681B68184606
:1015400007F028FE0346BB730123FB7312E07B68A0
:101550001B68184608F07CF90346BB73BB7B012B64
:1015600008D17B681B68184607F014FE0346BB735E
:101570000123FB73FB7B18461037BD4680BD80B44A
:1015800085B000AF786039600023FB607B685A69E2
:101590003B685B689A4201D10123FB60FB681846F7
:1015A0001437BD465DF8047B7047000080B487B0F7
:1015B00000AFF8600B467A60FB720023FB75FB6896
:1015C000002B02D07B68002B02D10123FB7538E091
:1015D000FB7A072B32D801A252F823F0FD15000840
:1015E000051600080D160008151600081D1600083F
:1015F000251600082D16000835160008FB687A68C5
:101600005A601EE0FB687A689A601AE0FB687A68A4
:10161000DA6016E0FB687A681A6112E0FB687A68A3
:101620005A610EE0FB687A689A610AE0FB687A68A2
:10163000DA6106E0FB687A681A6202E00123FB7552
:1016400000BFFB7D18461C37BD465DF8047B704724
:1016500080B584B000AF78600023FB737B68002BFB
:1016600002D10123FB730BE07B681B68184608F06E
:10167000CCF90346BB73BB7B002B01D00123FB736A
:10168000FB7B18461037BD4680BD000080B588B092
:1016900000AF78600023FB777B68002B02D1012329
:1016A000FB77EBE07B681B681B79AA3B032B00F2FE
:1016B000E18001A252F823F0C91600080D170008B6
:1016C0009B170008611800087B681B685A1D07F10A
:1016D0000C031068516803C3D7ED037A9FED6A7A53
:1016E00027EE877ADFED696AC7EE267A684BC3ED8D
:1016F000007A3B69674A136067496848FFF7E4FE70
:1017000003461A46FB7F1343FB77B7E07B681B68F1
:101710005A1D07F10C031068516803C3D7ED037A13
:10172000B0EE087A27EE877ADFED586AC7EE267AA0
:101730005B4BC3ED007AD7ED047AB6EE007A27EE64
:10174000877ADFED526AC7EE267A564BC3ED007AF0
:10175000554B5B6D554A136055495048FFF7B4FE31
:1017600003461A46FB7F1343FB774D4BD3ED007ABC
:10177000F5EE407AF1EE10FA0BD14A4BD3ED007A38
:10178000F5EE407AF1EE10FA03D14A4B1B68984708
:1017900074E0494B1B68984770E07B681B681A1D12
:1017A00007F114031068516803C3127A1A707B7D25
:1017B000012B07D17B685B68002B03D07B685B68DB
:1017C00000209847BB7D012B07D17B689B68002BCD
:1017D00003D07B689B6800209847FB7D012B07D1D5
:1017E0007B68DB68002B03D07B68DB6800209847B0
:1017F0003B7E012B07D17B681B69002B03D07B68E4
:101800001B69002098477B7E012B07D17B685B69B1
:10181000002B03D07B685B6900209847BB7E012BBF
:1018200007D17B689B69002B03D07B689B690020F4
:101830009847FB7E012B07D17B68DB69002B03D027
:101840007B68DB69002098473B7F012B15D17B68C3
:101850001B6A002B11D07B681B6A002098470CE0A4
:101860007B681B6805331B68BB607B685B6ABA6872
:101870001A6003E00123FB7700E000BFFB7F1846FE
:101880002037BD4680BD00BF6666E63E0000C84208
:101890000006002004060020C001002018000020DF
:1018A000080600200C060020E4000020FC050020B3
:1018B000DC010020340600203006002080B485B012
:1018C00000AF786039600023FB737B68002B02D087
:1018D0003B68002B02D10123FB7302E0044A3B6802
:1018E0001360FB7B18461437BD465DF8047B7047D8
:1018F0003006002080B485B000AF786039600023E6
:10190000FB737B68002B02D03B68002B02D10123C4
:10191000FB7302E0044A3B681360FB7B18461437F4
:10192000BD465DF8047B70473406002080B584B066
:1019300000AF78600023FB737B68002B02D101238A
:10194000FB730EE07B681A687B685B68194610467B
:1019500008F054FC0346BB73BB7B002B01D0012372
:10196000FB73FB7B18461037BD4680BD80B584B045
:1019700000AF78600023FB737B68002B02D101234A
:10198000FB7314E07B681A687B685B681946104635
:1019900008F0D2FC0346BB73BB7B002B02D00123B3
:1019A000FB7304E07B685B685A6A7B689A60FB7B28
:1019B00018461037BD4680BD80B582B000AF002309
:1019C000FB710B490B48FFF71EFD03461A46FB79D6
:1019D0001343FB7108490748FFF715FD03461A46F4
:1019E000FB791343FB71FB7918460837BD4680BD70
:1019F00014020020180000203002002080B485B0BE
:101A000000AF78607B6801221A707B6808221A7226
:101A1000114B93ED007A114BD3ED007AB4EEE77AD7
:101A2000F1EE10FA03DD0D4B1B68BB6002E00A4BC0
:101A30001B68BB600A4B1B68FB607B6809331A4656
:101A400007F1080303CB1060516000BF1437BD4697
:101A50005DF8047B704700BF0006002014000020E2
:101A60000406002080B485B000AF78607B68012256
:101A70001A707B6808221A72094B1B68BB60094BFD
:101A80001B68FB607B6809331A4607F1080303CB28
:101A90001060516000BF1437BD465DF8047B70478D
:101AA000080600200C06002080B485B000AF7860E6
:101AB0007B6801221A707B6804221A72064B1B682D
:101AC000FB607B680933FA681A6000BF1437BD46B3
:101AD0005DF8047B704700BF1806002080B584B015
:101AE00000AF78600023BB817B6809331B889BB201
:101AF000BB813B7BFB737B7BBB73BA7BFB7B114660
:101B0000184600F037FC00BF1037BD4680BD00000E
:101B100080B487B000AF786007F1080300221A6034
:101B20005A607B6803F1090207F1080310685168E5
:101B300003C3BB687B61FB683B61064A7B6913603A
:101B4000054A3B69136000BF1C37BD465DF8047B46
:101B5000704700BF1C0600202006002080B485B01E
:101B600000AF78600023FB737B68002B02D1012358
:101B7000FB73F3E07B685B6804221A737B681B6865
:101B800004221A737B689B6828221A737B68DB68BF
:101B900004221A737B681B6904221A737B685B69D1
:101BA00004221A737B689B6904221A737B68DB69C1
:101BB00004221A737B681B6A04221A737B685B6AAF
:101BC00004221A737B689B6A04221A737B68DB6A9F
:101BD00004221A737B681B6B04221A737B685B6B8D
:101BE00004221A737B689B6B04221A737B68DB6B7D
:101BF00004221A737B681B6C04221A737B685B6C6B
:101C000004221A737B689B6C04221A737B68DB6C5A
:101C100004221A737B681B6D04221A737B685B6D48
:101C200004221A737B689B6D04221A737B68DB6D38
:101C300004221A737B681B6E04221A737B685B6E26
:101C400004221A737B689B6E04221A737B68DB6E16
:101C500004221A737B685B68444A9A607B681B683D
:101C6000434A9A607B689B68424A9A607B68DB685B
:101C7000414A9A60414B1A687B681B6912699A60F5
:101C80003E4B5A687B685B6912699A603B4B9A6865
:101C90007B689B6912699A60384BDA687B68DB69FC
:101CA00012699A60354B1A697B681B6A12699A60DF
:101CB000324B5A697B685B6A12699A602F4B9A694A
:101CC0007B689B6A12699A602C4BDA697B68DB6AD5
:101CD00012699A607B681B6B294A9A607B685B6B10
:101CE000284A9A607B689B6B274A9A607B68DB6B0B
:101CF000264A9A607B681B6C254A9A607B685B6CFD
:101D0000244A9A607B689B6C234A9A607B68DB6CF0
:101D1000224A9A607B681B6D214A9A607B685B6DE2
:101D2000204A9A607B689B6D164A9A607B68DB6DDF
:101D3000154A9A607B681B6E144A9A607B685B6EDA
:101D4000134A9A607B689B6E174A9A607B68DB6EC9
:101D5000164A9A607B689B68154A5A60FB7B184656
:101D60001437BD465DF8047B704700BF4C0200206D
:101D70009C0600203806002048000020200000209B
:101D800018060020080100200C010020100100208E
:101D900014010020FC05002038010020FC00002078
:101DA0000001002004010020000600201400002093
:101DB0009120000880B584B000AF78600023FB73E9
:101DC0007B68002B02D10123FB7356E17B68DB6843
:101DD0009B681B681A46AB4B1A607B689B6C9B68C0
:101DE0001B681A46A74B5A607B685B6C9B681B6834
:101DF0001A46A44B9A607B681B699B681B681A464D
:101E0000A04BDA607B685B699B681B681A469D4B38
:101E10001A617B689B699B681B681A46994B5A61DB
:101E20007B68DB699B681B681A46964B9A617B68E6
:101E30001B6A9B681B681A46924BDA617B685B6A77
:101E40009B681B681A468F4B1A627B689B6A9B686B
:101E50001B681A468B4B5A627B68DB6A9B681B685F
:101E60001A46884B9A627B689B6D9B681B681A4672
:101E7000844BDA627B68DB6D9B681B681A46814B7A
:101E80001A637B681B6E9B681B681A467D4B5A63FE
:101E90007B685B6E9B681B681A467A4B9A637B680B
:101EA0009B6E9B681B681A46764BDA637B68DB6E19
:101EB0009B681B681A46734B1A64734B1B689A68BD
:101EC000714B1B6842F001029A600023BB730EE065
:101ED000BB7B9B006B4A1344112219466A4802F0EF
:101EE000E3FA0346694A1360BB7B0133BB73BB7BD8
:101EF000002BEDD06422002162480DF0D9FA7B68F6
:101F00005B68184608F04EF903461A46FB7B1343FC
:101F1000FB737B68DB68184608F044F903461A46F1
:101F2000FB7B1343FB737B689B6C184608F03AF904
:101F300003461A46FB7B1343FB737B685B6C1846B6
:101F400008F030F903461A46FB7B1343FB737B68AA
:101F50001B69184608F026F903461A46FB7B134313
:101F6000FB737B685B69184608F01CF903461A4648
:101F7000FB7B1343FB737B689B69184608F012F9DF
:101F800003461A46FB7B1343FB737B68DB691846E9
:101F900008F008F903461A46FB7B1343FB737B6882
:101FA0001B6A184608F0FEF803461A46FB7B1343EB
:101FB000FB737B685B6A184608F0F4F803461A4620
:101FC000FB7B1343FB737B689B6A184608F0EAF8B7
:101FD00003461A46FB7B1343FB737B68DB6A184698
:101FE00008F0E0F803461A46FB7B1343FB737B685B
:101FF0009B6D184608F0D6F803461A46FB7B134340
:10200000FB737B68DB6D184608F0CCF803461A4674
:10201000FB7B1343FB737B681B6E184608F0C2F80A
:1020200003461A46FB7B1343FB737B685B6E1846C3
:1020300008F0B8F803461A46FB7B1343FB737B6832
:102040009B6E184608F0AEF803461A46FB7B134316
:10205000FB737B68DB6E184608F0A4F803461A464B
:10206000FB7B1343FB737B681B68184608F09AF8E8
:1020700003461A46FB7B1343FB73FB7B1846103762
:10208000BD4680BD38060020440700209C06002085
:1020900080B483B000AF214B9B687B607B68204A93
:1020A0001360204B1B687B607B681D4A53601E4B8E
:1020B0001B687B607B681A4A93601C4B1B687B60C3
:1020C0007B68174AD3601A4B1B687B607B68144A95
:1020D0001361184B1B687B607B68114A5361164B78
:1020E0001B687B607B680E4A9361144B1B687B60A6
:1020F0007B680B4AD361124B1B687B607B68084A84
:102100005362104B1B687B607B68054A936200BF7B
:102110000C37BD465DF8047B704700BF40000020CF
:1021200038060020A80B0020AC0B0020B00B0020CC
:10213000B40B0020B80B0020BC0B0020C00B00200B
:10214000C40B00201806002080B584B000AF786072
:102150000023FB737B68002B02D10123FB7316E085
:102160007B682433B2EE043AFAEE042A9FED0A2A81
:10217000DFED0A1A9FED0A1ADFED0A0A9FED0A0A3F
:1021800018460CF00FFF7B6818460CF0B5FDFB7B82
:1021900018461037BD4680BD0000C84209D7833FAE
:1021A00051B89E3F00000000CDCCCCBC80B485B0BF
:1021B00000AF78600023FB737B68002B02D1012302
:1021C000FB730BE07B6893ED167A7B68DB6CD3EDD9
:1021D000007A77EE277A7B68C3ED167AFB7B184688
:1021E0001437BD465DF8047B70470000B0B586B07B
:1021F00000AFF860B96087ED010A0023FB75FB684A
:10220000002B02D0BB68002B02D10123FB7563E0D9
:102210004FF000033B61FB6803F12402FB68D3ED40
:10222000157AF0EE670A97ED010A10460CF0F3FEFE
:1022300087ED040AD7ED047AB3EE047A67EE877A65
:10224000C7ED047A3869FEF72FF904460D46386960
:10225000FEF72AF902460B4643EC102B0DF0A0FCCA
:1022600051EC100B4FF000021E4BFDF7BFFF024672
:102270000B4620462946FEF7FFFB0346002B0DD0F8
:102280003869FEF711F902460B4643EC102B0DF0AE
:102290000BFCB0EE407AF0EE607A0CE03869FEF7A5
:1022A00003F902460B4643EC102B0DF079FCB0EE1F
:1022B000407AF0EE607A51EC170BFEF7FDFB034617
:1022C0003B6197ED047AF3EE046AC7EE267AC7ED18
:1022D000047ABB683A691A60FB7D18461837BD4618
:1022E000B0BD00BF0000E03F80B584B000AF7860B3
:1022F0000023FB737B68002B02D10123FB7334E0C6
:102300007B68DB6C93ED007A7B68D3ED167A77EE11
:10231000677AC7ED027A7A687B681B6DD3ED007A25
:102320007B6893ED177AB0EE471AD7ED020AB0EE4C
:10233000670A10460CF012FDF0EE407A7B68C3EDA0
:10234000157A7B685B6D1846FEF7AEF802460B46C1
:1023500043EC102B0DF0A0FC53EC102B104619464B
:10236000FEF7AAFB02467B685A65FB7B18461037CE
:10237000BD4680BD80B584B000AF03460A46FB7100
:102380001346BB710023FB73FB79013B082B00F262
:10239000818001A252F823F0BD230008E523000844
:1023A000FB23000811240008272400083D2400080E
:1023B00053240008692400087F2400080220B2EE9C
:1023C000020AFEF71FFEF0EE407A424BC3ED007AA0
:1023D00041494248FFF778F803461A46FB7B13430E
:1023E000FB7358E00220B2EE0B0AFEF70BFEF0EE94
:1023F000407A384BC3ED007A4DE00220B3EE020A7A
:10240000FEF700FEF0EE407A324BC3ED007A42E078
:1024100002209FED330AFEF7F5FDF0EE407A2D4BDA
:10242000C3ED007A37E00220B3EE0B0AFEF7EAFDB7
:10243000F0EE407A274BC3ED007A2CE002209FEDAE
:10244000290AFEF7DFFDF0EE407A224BC3ED007A59
:1024500021E002209FED240AFEF7D4FDF0EE407A41
:102460001C4BC3ED007A16E002209FED200AFEF718
:10247000C9FDF0EE407A174BC3ED007A0BE0022065
:102480009FED1B0AFEF7BEFDF0EE407A114BC3ED47
:10249000007A00E000BF10491048FFF715F8034626
:1024A0001A46FB7B1343FB73BB790A3B032B0BD808
:1024B00001A252F823F000BFC9240008C924000873
:1024C000C9240008C924000800BF00BF18461037FF
:1024D000BD4680BD14000020C0010020180000206F
:1024E0000000B4410000FC41000010420000224204
:1024F0000000344280B584B000AF0023FB724FF07F
:102500000003FB604FF000037B602A4BD3ED007AA1
:102510009FED297AF4EEC77AF1EE10FA08DD254B2B
:10252000D3ED007A9FED257A77EEC77AC7ED037A6F
:10253000234B93ED007AD7ED037A77EE677AC7EDF8
:10254000017AB2EE041ADFED1F0A97ED010A0CF0D2
:102550003BFE034683F00103DBB2002B20D09FED4E
:10256000191AFAEE040A97ED010A0CF02DFE034643
:1025700083F00103DBB2002B12D002209FED120A80
:10258000FEF740FDF0EE407A104BC3ED007A1049A3
:102590001048FEF799FF03461A46FB7A1343FB7275
:1025A000044B1B68064A136000BF18461037BD462F
:1025B00080BD00BFFC050020000034430000B44390
:1025C000A0060020000000006666E63E1400002021
:1025D000C001002018000020F0B58BB006AF786075
:1025E0000023FB737B68002B02D10123FB7322E0E5
:1025F0007B681D687B681E697B689B683B607B68A5
:102600009B697A685268796849697868C0687C68AB
:10261000E469049403900291019200933B6832466E
:102620002946082008F03AFB0346BB73BB7B002B0E
:1026300001D00123FB73FB7B18461437BD46F0BD68
:1026400080B584B000AF78600023FB737B68002BFB
:1026500002D10123FB730EE07B681A687B681B695B
:102660000121022008F068FB0346BB73BB7B002BF3
:1026700001D00123FB73FB7B18461037BD4680BD9C
:1026800080B584B000AF78600023FB737B68002BBB
:1026900002D10123FB730EE07B685A687B685B699B
:1026A0000521022008F048FB0346BB73BB7B002BCF
:1026B00001D00123FB73FB7B18461037BD4680BD5C
:1026C00080B584B000AF78600023FB737B68002B7B
:1026D00002D10123FB730EE07B689A687B689B69DB
:1026E0000321022008F028FB0346BB73BB7B002BB1
:1026F00001D00123FB73FB7B18461037BD4680BD1C
:1027000080B584B000AF78600023FB737B68002B3A
:1027100002D10123FB730EE07B68DA687B68DB691A
:102720000721022008F008FB0346BB73BB7B002B8C
:1027300001D00123FB73FB7B18461037BD4680BDDB
:1027400080B584B000AF78600023FB737B68002BFA
:1027500002D10123FB732EE04FF00003BB607B68C6
:102760001B681B69D3ED007AB0EE670A144800F0CD
:102770001FF987ED020A97ED020A114800F0F2F8FE
:102780007B681B681B69BA681A607B681B691B69D8
:10279000D3ED007AB0EE670A0A4800F009F987ED38
:1027A000020A97ED020A074800F0DCF87B681B6913
:1027B0001B69BA681A60FB7B18461037BD4680BD9E
:1027C000A4060020F406002080B584B000AF786035
:1027D0000023FB737B68002B02D10123FB732EE0E7
:1027E0004FF00003BB607B685B681B69D3ED007A28
:1027F000B0EE670A144800F0DBF887ED020A97EDA7
:10280000020A114800F0AEF87B685B681B69BA6881
:102810001A607B685B691B69D3ED007AB0EE670ACA
:102820000A4800F0C5F887ED020A97ED020A07484A
:1028300000F098F87B685B691B69BA681A60FB7BDB
:1028400018461037BD4680BDB80600200807002096
:1028500080B584B000AF78600023FB737B68002BE9
:1028600002D10123FB732EE04FF00003BB607B68B5
:102870009B681B69D3ED007AB0EE670A144800F03C
:1028800097F887ED020A97ED020A114800F06AF8FE
:102890007B689B681B69BA681A607B689B691B69C7
:1028A000D3ED007AB0EE670A0A4800F081F887EDB0
:1028B000020A97ED020A084800F054F87B689B6909
:1028C0001B69BA681A60FB7B18461037BD4680BD8D
:1028D000CC0600201C0700203007002080B584B003
:1028E00000AF78600023FB737B68002B02D10123CB
:1028F000FB732EE04FF00003BB607B68DB681B6955
:10290000D3ED007AB0EE670A144800F051F887ED75
:10291000020A97ED020A114800F024F87B68DB6890
:102920001B69BA681A607B68DB691B69D3ED007AA2
:10293000B0EE670A0A4800F03BF887ED020A97ED0F
:10294000020A074800F00EF87B68DB691B69BA6869
:102950001A60FB7B18461037BD4680BDE00600209C
:102960003007002080B485B000AF786087ED000AA2
:102970000423FB730FE0FB7B03F18043013B9B00CF
:102980007A681A44FB7B9B0079680B4412681A60D2
:10299000FB7B013BFB73FB7B002BECD17B683A6834
:1029A0001A6000BF1437BD465DF8047B7047000015
:1029B00080B487B000AF786087ED000A4FF0000365
:1029C0007B614FF000033B610023FB730EE0FB7B58
:1029D0009B007A681344D3ED007A97ED047A77EE82
:1029E000277AC7ED047AFB7B0133FB73FB7B042B57
:1029F000EDD997ED047AF1EE046AC7EE267AC7EDB9
:102A0000047AD7ED047A9FED187A77EE877A97EDFE
:102A1000007AB4EEE77AF1EE10FA15DCD7ED047A1D
:102A20009FED117A77EEC77A97ED007AB4EEE77AE8
:102A3000F1EE10FA08D4D7ED007A9FED0B7AF4EEA0
:102A4000C77AF1EE10FA02DD3B697B6101E03B6879
:102A50007B617B6907EE903AB0EE670A1C37BD4692
:102A60005DF8047B704700BF0000C84380B500AF2D
:102A7000064B074A1A60054801F0FAFC0346002B92
:102A800001D000F07BFF00BF80BD00BF44070020E5
:102A90000030024080B485B000AF78607B681B686E
:102AA0000B4A93420DD10023FB600A4B1B6B094A72
:102AB00043F480531363074B1B6B03F48053FB6099
:102AC000FB6800BF1437BD465DF8047B704700BF4C
:102AD000003002400038024080B500AF4D4A00216E
:102AE000012008F061FD03464B4A13604B4A002168
:102AF000012008F059FD0346494A1360494A002164
:102B0000012008F051FD0346474A1360474A00215F
:102B1000012008F049FD0346454A1360454A00215B
:102B2000012008F041FD0346434A1360434A002157
:102B3000022008F039FD0346414A1360414A002152
:102B4000022008F031FD03463F4A13603F4B00224C
:102B500001213F4808F0ACFC03463E4A13603E4A60
:102B600000213E4808F0A0FB03463D4A13603D4A61
:102B700000213D4808F098FB03463C4A13603C4A5C
:102B800000213C4808F090FB03463B4A13603B4A57
:102B900000213B4808F088FB03463A4A13603A4A52
:102BA00000213A4808F080FB0346394A1360394A4D
:102BB0000021394808F078FB0346384A1360384A48
:102BC0000021384808F070FB0346374A1360374A43
:102BD0000021374808F068FB0346364A1360364A3E
:102BE0000021364808F060FB0346354A1360354A39
:102BF0000021354808F058FB0346344A1360344A34
:102C00000021344808F050FB0346334A136000BFEC
:102C100080BD00BF840101087C07002094010108E9
:102C200080070020A401010884070020B4010108E6
:102C300088070020C40101088C070020D401010886
:102C400090070020E40101089407002074010108A6
:102C5000B131000878070020E8FF0008DD2C0008EB
:102C60004C0700200C000108C12D0008500700206F
:102C7000300001080D2E0008540700205400010800
:102C80003D2E00085807002078000108F12E0008AA
:102C90005C0700209C000108253000086007002028
:102CA000C00001087530000864070020E400010836
:102CB000ED30000868070020080101081D310008F8
:102CC0006C0700202C0101083D310008700700202E
:102CD00050010108893100087407002080B584B0D4
:102CE00000AF7860642008F0B3FB2D48FEF71EFEAD
:102CF0000346FB732B4B1B684FF0FF31184608F05F
:102D0000DDFC0023BB601EE0274B1B684FF0FF314A
:102D1000184608F0D3FC2248FEF728FE03461A4660
:102D2000FB7B1343FB731E4B5B689B691F4A13605D
:102D30001F48FFF73BFA03461A46FB7B1343FB731E
:102D4000BB680133BB60BB68632BDDD9184B93EDC7
:102D5000167ADFED186AC7EE267A154BC3ED167AA0
:102D6000154B1B68184608F0FBFC144B1B681846F3
:102D700008F0F6FC0C4B1B684FF0FF31184608F0CA
:102D80009DFC0748FEF7F2FD03461A46FB7B134302
:102D9000FB73034B5B689B69044A136000BFE9E760
:102DA00040000020940700207C070020140600202B
:102DB000E40000200000C842880700208C070020A3
:102DC00080B584B000AF78600E48FEF7F1FA034694
:102DD000FB73FEF7F1FD03461A46FB7B1343FB73BF
:102DE000094B1B684FF0FF31184608F067FC054897
:102DF000FEF724FB03461A46FB7B1343FB7300BF1D
:102E0000EEE700BF180000209007002080B584B0D6
:102E100000AF78600848FEF7A1FE0346FB73064842
:102E2000FEF7C8FF03461A46FB7B1343FB7364207F
:102E300008F00EFB00BFF2E74C00002080B584B024
:102E400000AF78602948FFF7C7FB0346FB732748AC
:102E5000FFF7F6FB03461A46FB7B1343FB73322056
:102E600008F0F6FA2148FFF76BFC03461A46FB7B95
:102E70001343FB731D48FFF723FC03461A46FB7BF5
:102E80001343FB73322008F0E3FA1848FFF7E0FC25
:102E900003461A46FB7B1343FB731448FFF7F0FB12
:102EA00003461A46FB7B1343FB73322008F0D0FA2B
:102EB0000E48FFF789FC03461A46FB7B1343FB735E
:102EC0000A48FFF71DFC03461A46FB7B1343FB73BE
:102ED000322008F0BDFA0548FFF700FD03461A4608
:102EE000FB7B1343FB7300BFB1E700BF2000002052
:102EF00080B584B000AF78600023FB733D493E4845
:102F0000FEF7DCFC03461A46FB7B1343FB733B498D
:102F10003948FEF7EFFC03461A46FB7B1343FB736D
:102F2000374A00213448FEF741FB03461A46FB7B33
:102F30001343FB73334A01212F48FEF737FB034647
:102F40001A46FB7B1343FB732F4A02212A48FEF7E4
:102F50002DFB03461A46FB7B1343FB732B4A0321CD
:102F60002548FEF723FB03461A46FB7B1343FB73FE
:102F7000274A04212048FEF719FB03461A46FB7B2B
:102F80001343FB73234A05211B48FEF70FFB03463F
:102F90001A46FB7B1343FB731F4A06211648FEF7B4
:102FA00005FB03461A46FB7B1343FB731B4A0721B1
:102FB0001148FEF7FBFA03461A46FB7B1343FB73EB
:102FC0000D48FEF745FB03461A46FB7B1343FB7394
:102FD000134B1B684FF0FF31184608F06FFB064893
:102FE000FEF754FB03461A46FB7B1343FB7300BFFB
:102FF000E6E700BF01350008BC00002019350008D5
:10300000253200085D3200089932000819330008A3
:1030100089330008F933000869340008D534000802
:103020008007002080B584B000AF78600E48FFF7BD
:103030008BF80346FB730D4B1B68184608F090FB9A
:103040000B4B1B684FF0FF31184608F037FB064862
:10305000FFF74AF903461A46FB7B1343FB730A202A
:1030600008F0F6F900BFF2E7E40000209407002022
:103070008807002080B584B000AF78600023FB7320
:103080004FF00003BB60144B1B68BB60134BD3EDC8
:10309000007AB0EE670A10491148FFF7A7F8034617
:1030A0001A46FB7B1343FB730B4BD3ED007A97ED72
:1030B000027AB4EE677AF1EE10FA08D009490A48AC
:1030C000FEF702FA03461A46FB7B1343FB736420A8
:1030D00008F0BEF9D7E700BF18060020FC05002065
:1030E000E4000020F80100201800002080B584B022
:1030F00000AF78600848FDF73BFF0346FB730648C6
:10310000FDF7A2FE03461A46FB7B1343FB736420C4
:1031100008F09EF900BFF2E74401002080B584B0BA
:1031200000AF78600023FB73FFF7E4F90346FB73FD
:103130004FF4FA7008F08CF900BFF5E780B584B061
:1031400000AF78600C4B0D4A0D490E48FDF7E8FFC3
:103150000346FB734FF4FA6008F07AF90948FEF76A
:1031600005F803461A46FB7B1343FB73642008F003
:103170006FF900BFF2E700BF49350008613500086C
:1031800031350008B401002080B584B000AF78600C
:103190000023FB7300F0E4F90448FEF78DF80346C2
:1031A0001A46FB7B1343FB7300BFF5E7B401002015
:1031B00080B483B000AF786000BF0C37BD465DF8C7
:1031C000047B704780B582B000AF0346FB80FB886C
:1031D000B3F5005F04D1094B1B68184608F0C0FA2C
:1031E000FB88B3F5805F04D1054B1B68184608F0D7
:1031F000B7FA00BF0837BD4680BD00BF900700206A
:103200007C07002080B582B000AF7860044B1B685B
:10321000184608F0A5FA00BF0837BD4680BD00BFBC
:103220008007002080B483B000AF7860084B4FF077
:1032300000021A60074B4FF000021A60064B4FF075
:1032400000021A6000BF0C37BD465DF8047B704772
:103250000006002004060020FC05002080B483B096
:1032600000AF7860084B5B6A084A1360064B9B6AA4
:10327000074A1360044BDB6A064A136000BF0C3731
:10328000BD465DF8047B7047E400002098070020ED
:103290009C070020A007002080B483B000AF7860B6
:1032A000184B1B68002B03D1174B184A1A6017E004
:1032B000144B1B68012B03D1134B154A1A600FE006
:1032C000104B1B68022B04D10F4B4FF07E521A603B
:1032D00006E00C4B1B68032B02D10B4B0D4A1A6006
:1032E000084B1B680133074A1360064B1B68032B0E
:1032F00002DD044B00221A6000BF0C37BD465DF8AA
:10330000047B7047A80700205002002000002041E5
:10331000000020C1000080BFB0B582B000AF78606F
:10332000154B1B681846FDF7BFF804460D46134BB6
:103330001B681846FDF7B8F80DA3D3E90023FDF785
:103340000BF902460B4620462946FCF74FFF024682
:103350000B4610461946FDF7AFFB0346064A1360BD
:10336000054B1B68064A536200BF0837BD46B0BD17
:10337000FCA9F1D24D62503F980700205002002076
:10338000E400002000000000B0B582B000AF78601B
:10339000154B1B681846FDF787F804460D46134B7E
:1033A0001B681846FDF780F80DA3D3E90023FDF74D
:1033B000D3F802460B4620462946FCF717FF024683
:1033C0000B4610461946FDF777FB0346064A136085
:1033D000054B1B68064A936200BF0837BD46B0BD67
:1033E0002D431CEBE2361A3F9C07002050020020C0
:1033F000E400002000000000B0B582B000AF7860AB
:10340000154B1B681846FDF74FF804460D46134B45
:103410001B681846FDF748F80DA3D3E90023FDF714
:103420009BF802460B4620462946FCF7DFFE024683
:103430000B4610461946FDF73FFB0346064A13604C
:10344000054B1B68064AD36200BF0837BD46B0BDB6
:103450007B14AE47E17A843FA00700205002002091
:10346000E400002000000000B0B582B000AF78603A
:10347000154B1B681846FDF717F804460D46134B0D
:103480001B681846FDF710F80DA3D3E90023FDF7DC
:1034900063F802460B4620462946FCF7A7FE024683
:1034A0000B4610461946FDF707FB0346064A136014
:1034B000054B1B68064A136300BF0837BD46B0BD05
:1034C0007B14AE47E17A843FA4070020500200201D
:1034D000E400002080B483B000AF7860074BD3EDE8
:1034E000007AB2EE047A77EE877A044BC3ED007A65
:1034F00000BF0C37BD465DF8047B7047FC0500201B
:1035000080B500AF034B1B68184607F05FFF00BF94
:1035100080BD00BF6407002080B500AF034B1B686F
:10352000184607F074FF00BF80BD00BF640700208D
:1035300080B582B000AF7860786807F089FF00BF7F
:103540000837BD4680BD000080B500AF034B1B6847
:10355000184607F05CFF00BF80BD00BF7407002065
:1035600080B500AF034B1B68184607F02FFF00BF64
:1035700080BD00BF7407002080B58AB000AF07F19E
:10358000140300221A605A609A60DA601A610023FC
:103590003B61654B1B6B644A43F004031363624B4E
:1035A0001B6B03F004033B613B690023FB605E4B34
:1035B0001B6B5D4A43F0800313635B4B1B6B03F093
:1035C0008003FB60FB680023BB60574B1B6B564AB4
:1035D00043F001031363544B1B6B03F00103BB6007
:1035E000BB6800237B60504B1B6B4F4A43F00203C8
:1035F00013634D4B1B6B03F002037B607B6800225F
:103600004FF4C041494801F091F9002249F6020106
:10361000474801F08BF901221021454801F086F955
:1036200000220421434801F081F94FF4C0437B613B
:103630000123BB610023FB6100233B6207F11403FC
:1036400019463A4800F0EEFF02237B610123BB617B
:103650000223FB6102233B6207F11403194634483D
:1036600000F0E0FF10237B610123BB610123FB61BC
:1036700000233B6207F1140319462D4800F0D2FFE6
:1036800004237B610123BB610223FB6102233B62B4
:1036900007F114031946274800F0C4FF4FF4805384
:1036A0007B614FF48813BB610223FB6107F11403B4
:1036B0001946204800F0B6FF4FF400537B614FF4E9
:1036C0000413BB610123FB6107F114031946194878
:1036D00000F0A8FF4FF4C0537B610123BB610223BC
:1036E000FB6100233B6207F114031946104800F008
:1036F00099FF4FF400437B610123BB610023FB6111
:1037000000233B6207F114031946094800F08AFFC1
:1037100000220521282000F081FE282000F09AFEDA
:1037200000BF2837BD4680BD003802400008024077
:10373000000002400004024080B500AF124B134A63
:103740001A60114B124A5A600F4B00229A600E4BBE
:103750000022DA600C4B4FF480421A610A4B0022BF
:103760005A61094B00229A61074B0022DA61064B2D
:1037700000221A62044801F00BF90346002B01D025
:1037800000F0FCF800BF80BDAC07002000580040EE
:10379000801A060080B58AB000AF786007F1140384
:1037A00000221A605A609A60DA601A617B681B68AE
:1037B000214A93423CD100233B61204B1B6B1F4AA3
:1037C00043F0020313631D4B1B6B03F002033B61C9
:1037D0003B694FF480637B611223BB610123FB6172
:1037E00003233B6204237B6207F114031946144848
:1037F00000F018FF08237B611223BB610123FB61EA
:1038000003233B6209237B6207F1140319460C482A
:1038100000F008FF0023FB60084B1B6C074A43F4D1
:1038200080031364054B1B6C03F48003FB60FB688F
:1038300000BF2837BD4680BD005800400038024018
:103840000004024080B500AF00F0CAFC00F018F898
:10385000FFF792FE00F0C2FA00F04CFAFFF76CFF9F
:1038600000F092F800F0BAFB00F0E2FBFFF7FEF880
:1038700007F0D0FCFFF730F907F0F0FC00BFFDE7E0
:1038800080B594B000AF07F1200330220021184624
:103890000BF00EFE07F10C0300221A605A609A60CA
:1038A000DA601A610023BB60294B1B6C284A43F085
:1038B00080531364264B1B6C03F08053BB60BB68C2
:1038C00000237B60234B1B6823F44043214A43F4CD
:1038D000004313601F4B1B6803F440437B607B680D
:1038E00001233B624FF480337B620223BB634FF4BE
:1038F0008003FB6319233B64A8237B640223BB641E
:103900000423FB6407F12003184602F065F8034620
:10391000002B01D000F032F80F23FB6002233B6143
:1039200000237B614FF48053BB610023FB6107F1EF
:103930000C030221184602F0C7FA0346002B01D0FF
:1039400000F01CF802F0A6FB00BF5037BD4680BD5A
:10395000003802400070004080B582B000AF78604F
:103960007B681B68044A934201D100F05BFC00BFF6
:103970000837BD4680BD00BF0044014080B400AFA1
:1039800072B600BF00BFFDE780B500AF174B184A05
:103990001A60164B4FF482725A60144B00229A60E0
:1039A000124B0022DA60114B00221A610F4B0022E9
:1039B0005A610E4B4FF400729A610C4B1822DA6177
:1039C0000A4B00221A62094B00225A62074B00225E
:1039D0009A62064B0A22DA62044802F0AEFC034601
:1039E000002B01D0FFF7CAFF00BF80BD00080020F8
:1039F0000030014080B58AB000AF786007F1140351
:103A000000221A605A609A60DA601A617B681B684B
:103A1000194A93422BD100233B61184B5B6C174A28
:103A200043F480535364154B5B6C03F480533B6148
:103A30003B690023FB60114B1B6B104A43F00103F1
:103A400013630E4B1B6B03F00103FB60FB68E02369
:103A50007B610223BB610123FB6103233B620523DE
:103A60007B6207F114031946054800F0DBFD00BF37
:103A70002837BD4680BD00BF0030014000380240FD
:103A80000000024080B582B000AF00237B60124B83
:103A90005B6C114A43F4804353640F4B5B6C03F43B
:103AA00080437B607B6800233B600B4B1B6C0A4AA6
:103AB00043F080531364084B1B6C03F080533B604E
:103AC0003B6800220F216FF0010000F0A7FC00BF4F
:103AD0000837BD4680BD00BF0038024080B58CB0BD
:103AE00000AF78600023BB6200237B620023BB60D1
:103AF0002E4B5B6C2D4A43F4003353642B4B5B6CB1
:103B000003F40033BB60BB6807F10C0207F110033C
:103B10001146184602F0C4FB02F0AEFBB862BB6A65
:103B2000234AA2FB03239B0C013B7B62214B224ACD
:103B30001A60204B40F2E732DA601E4A7B6A53601B
:103B40001C4B00221A611B4B00229A60194B002269
:103B50009A61184803F0D0F9034687F82F3097F898
:103B60002F30002B1BD1134803F02CFA034687F8A3
:103B70002F3097F82F30002B11D1192000F06AFC5C
:103B80007B680F2B08D800227968192000F046FCCA
:103B90000A4A7B68136002E0012387F82F3097F808
:103BA0002F3018463037BD4680BD00BF0038024078
:103BB00083DE1B43580800200044014058020020C7
:103BC00080B500AF02F09EFB00BFFDE780B400AF00
:103BD00000BFFDE780B400AF00BFFDE780B400AFD9
:103BE00000BFFDE780B400AF00BFFDE780B400AFC9
:103BF00000BFBD465DF8047B7047000080B500AF94
:103C0000024803F0B7FB00BF80BD00BF580800208A
:103C100080B500AF024803F0ADFB00BF80BD00BF20
:103C20001009002080B500AF024803F0A3FB00BFDD
:103C300080BD00BFC409002080B500AF024804F079
:103C4000DFFA00BF80BD00BF780A002080B500AF5A
:103C50004FF4805000F084FE4FF4005000F080FEDE
:103C600000BF80BD80B586B000AF7860144A154BA8
:103C7000D31A7B617B693B61134B1B68002B02D11C
:103C8000114B124A1A60104B1A687B6813443A6948
:103C90009A4207D20BF024FC03460C221A604FF024
:103CA000FF3309E0084B1B68FB60074B1A687B6811
:103CB0001344054A1360FB6818461837BD4680BD9B
:103CC00000000120000400000C09002000930020E7
:103CD00080B400AF064BD3F88830054A43F4700334
:103CE000C2F8883000BFBD465DF8047B704700BF56
:103CF00000ED00E080B586B000AF07F110030022B0
:103D00001A605A603B4600221A605A609A60DA6074
:103D1000304B314A1A602F4B53225A602D4B0022F0
:103D20009A602C4B4FF6FF72DA602A4B00221A6120
:103D3000284B00229A61274803F0A6F90346002B7E
:103D400001D0FFF71BFE00233B6100237B6107F1DD
:103D5000100319461F4804F0B9F80346002B01D0A0
:103D6000FFF70CFE0A233B6001237B600023BB604E
:103D70000023FB603B4600221946164803F00AFC6C
:103D80000346002B01D0FFF7F9FD3B4604221946FC
:103D9000104803F0FFFB0346002B01D0FFF7EEFDB8
:103DA0003B46082219460B4803F0F4FB0346002B60
:103DB00001D0FFF7E3FD3B460C221946054803F00E
:103DC000E9FB0346002B01D0FFF7D8FD00BF1837F1
:103DD000BD4680BD100900200004004080B586B0BB
:103DE00000AF07F1100300221A605A603B46002220
:103DF0001A605A609A60DA60304B314A1A602F4B71
:103E000053225A602D4B00229A602C4B4FF6FF72C2
:103E1000DA602A4B00221A61284B00229A61274857
:103E200003F032F90346002B01D0FFF7A7FD002372
:103E30003B6100237B6107F1100319461F4804F022
:103E400045F80346002B01D0FFF798FD0A233B609D
:103E500001237B600023BB600023FB603B46002204
:103E60001946164803F096FB0346002B01D0FFF7D6
:103E700085FD3B4604221946104803F08BFB0346A0
:103E8000002B01D0FFF77AFD3B46082219460B486C
:103E900003F080FB0346002B01D0FFF76FFD3B468C
:103EA0000C221946054803F075FB0346002B01D090
:103EB000FFF764FD00BF1837BD4680BDC409002070
:103EC0000008004080B58CB000AF786007F11C039B
:103ED00000221A605A609A60DA601A617B681B6877
:103EE0003A4A934234D10023BB61394B1B6C384AA8
:103EF00043F002031364364B1B6C03F00203BB61F7
:103F0000BB6900237B61324B1B6B314A43F00203D8
:103F100013632F4B1B6B03F002037B617B6933231D
:103F2000FB6102233B6202237B620023BB6202230C
:103F3000FB6207F11C031946264800F073FB0022C0
:103F400005211D2000F06AFA1D2000F083FA39E0F7
:103F50007B681B68204A934234D100233B611C4B91
:103F60001B6C1B4A43F004031364194B1B6C03F0D6
:103F700004033B613B690023FB60154B1B6B144A38
:103F800043F002031363124B1B6B03F00203FB604D
:103F9000FB684FF47073FB6102233B6202237B6278
:103FA0000023BB620223FB6207F11C031946094888
:103FB00000F038FB002205211E2000F02FFA1E2001
:103FC00000F048FA00BF3037BD4680BD0004004015
:103FD00000380240000402400008004080B500AFF5
:103FE000114B124A1A60104B4FF4E1325A600E4BDB
:103FF00000229A600C4B0022DA600B4B00221A61FF
:10400000094B0C225A61084B00229A61064B002290
:10401000DA61054803F0E6FF0346002B01D0FFF705
:10402000ADFC00BF80BD00BF780A00200010014039
:1040300080B500AF114B124A1A60104B4FF4612249
:104040005A600E4B00229A600C4B0022DA600B4B38
:1040500000221A61094B0C225A61084B00229A6116
:10406000064B0022DA61054803F0BCFF0346002B33
:1040700001D0FFF783FC00BF80BD00BFF00A002025
:104080000044004080B58CB000AF786007F11C039D
:1040900000221A605A609A60DA601A617B681B68B5
:1040A000364A934235D10023BB61354B5B6C344AB1
:1040B00043F010035364324B5B6C03F01003BB619D
:1040C000BB6900237B612E4B1B6B2D4A43F0010320
:1040D00013632B4B1B6B03F001037B617B694FF474
:1040E000C063FB6102233B6201237B620323BB624B
:1040F0000723FB6207F11C031946224800F092FADD
:1041000000220521252000F089F9252000F0A2F9E0
:1041100030E07B681B681C4A93422BD100233B6133
:10412000174B1B6C164A43F400331364144B1B6C7F
:1041300003F400333B613B690023FB60104B1B6BB6
:104140000F4A43F0010313630D4B1B6B03F0010394
:10415000FB60FB680C23FB6102233B6201237B6253
:104160000323BB620723FB6207F11C0319460548C2
:1041700000F058FA00BF3037BD4680BD0010014046
:10418000003802400000024000440040DFF834D014
:10419000FFF79EFD0C480D490D4A002302E0D4585C
:1041A000C4500433C4188C42F9D30A4A0A4C002381
:1041B00001E013600432A242FBD30BF097F9FFF742
:1041C00041FB70470000012000000020E0050020B6
:1041D00090020108E005002000930020FEE70000A7
:1041E00080B500AF0E4B1B680D4A43F4007313609B
:1041F0000B4B1B680A4A43F480631360084B1B682F
:10420000074A43F480731360032000F0FCF80F208A
:10421000FFF764FCFFF736FC0023184680BD00BFA3
:10422000003C024080B400AF064B1B781A46064B98
:104230001B681344044A136000BFBD465DF8047B4D
:10424000704700BF5C020020680B002080B400AF04
:10425000034B1B681846BD465DF8047B704700BFE2
:10426000680B002080B584B000AF7860FFF7EEFFE8
:10427000B8607B68FB60FB68B3F1FF3F05D00A4B79
:104280001B781A46FB681344FB6000BFFFF7DEFF94
:104290000246BB68D31AFA689A42F7D800BF00BF3B
:1042A0001037BD4680BD00BF5C02002080B485B0E1
:1042B00000AF78607B6803F00703FB600C4BDB68A2
:1042C000BB60BA684FF6FF031340BB60FB681A027D
:1042D000BB68134343F0BF6343F40033BB60044A3D
:1042E000BB68D36000BF1437BD465DF8047B7047E0
:1042F00000ED00E080B400AF044BDB681B0A03F064
:1043000007031846BD465DF8047B704700ED00E0EA
:1043100080B483B000AF0346FB7197F90730002BE0
:104320000BDBFB7903F01F02074997F907305B09A4
:10433000012000FA02F241F8232000BF0C37BD46ED
:104340005DF8047B704700BF00E100E080B483B0FB
:1043500000AF03463960FB7197F90730002B0ADB89
:104360003B68DAB20C4997F907301201D2B20B441C
:1043700083F800230AE03B68DAB20849FB7903F0CE
:104380000F03043B1201D2B20B441A7600BF0C3764
:10439000BD465DF8047B704700E100E000ED00E001
:1043A00080B489B000AFF860B9607A60FB6803F050
:1043B0000703FB61FB69C3F10703042B28BF042338
:1043C000BB61FB690433062B02D9FB69033B00E0A8
:1043D00000237B614FF0FF32BB6902FA03F3DA433B
:1043E000BB681A407B699A404FF0FF317B6901FA44
:1043F00003F3D9437B680B40134318462437BD466B
:104400005DF8047B704780B582B000AF7860786853
:10441000FFF74CFF00BF0837BD4680BD80B586B0B2
:1044200000AF0346B9607A60FB7300237B61FFF73E
:1044300061FF78617A68B9687869FFF7B1FF024671
:1044400097F90F3011461846FFF780FF00BF183765
:10445000BD4680BD80B582B000AF0346FB7197F9C1
:1044600007301846FFF754FF00BF0837BD4680BD30
:1044700080B582B000AF78607B68002B01D101234A
:104480000EE07B685B79DBB2002B05D17B680022F4
:104490001A717868FEF7FEFA7B6801225A710023D0
:1044A00018460837BD4680BD80B487B000AFF860BD
:1044B000B9607A6000233B61FB6802225A710023D5
:1044C0007B610AE07B699B00BA681A44FB681B6841
:1044D00012681A607B6901337B617A697B689A4252
:1044E000F0D3FB681B681B683B61FB6801225A71B3
:1044F0003B6918461C37BD465DF8047B704780B5A4
:1045000084B000AF78607B689B6DFB60FFF79EFE18
:10451000B8607B6893F83530DBB2022B08D07B683B
:1045200080225A657B68002283F83420012352E000
:104530007B681B681A687B681B6822F016021A6089
:104540007B681B685A697B681B6822F080025A618D
:104550007B681B6C002B03D17B689B6C002B07D006
:104560007B681B681A687B681B6822F008021A6067
:104570007B681B681A687B681B6822F001021A605E
:1045800013E0FFF763FE0246BB68D31A052B0CD974
:104590007B6820225A657B68032283F835207B687C
:1045A000002283F83420032315E07B681B681B6816
:1045B00003F00103002BE4D17B68DB6D3F229A40BE
:1045C000FB689A607B68012283F835207B680022B3
:1045D00083F83420002318461037BD4680BD80B4D0
:1045E00083B000AF78607B6893F83530DBB2022B84
:1045F00004D07B6880225A6501230CE07B68052289
:1046000083F835207B681B681A687B681B6822F07A
:1046100001021A60002318460C37BD465DF8047B82
:104620007047000080B489B000AF78603960002323
:104630007B6100233B610023BB610023FB6159E1E7
:104640000122FB6902FA03F37B613B681B687A690C
:1046500013403B613A697B699A4240F048813B686C
:104660005B6803F00303012B05D03B685B6803F034
:104670000303022B30D17B689B68BB61FB695B0045
:10468000032202FA03F3DB43BA691340BB613B68C0
:10469000DA68FB695B0002FA03F3BA691343BB6192
:1046A0007B68BA699A607B685B68BB610122FB69C1
:1046B00002FA03F3DB43BA691340BB613B685B68F2
:1046C0001B0903F00102FB6902FA03F3BA69134301
:1046D000BB617B68BA695A603B685B6803F003039F
:1046E000032B17D07B68DB68BB61FB695B0003228F
:1046F00002FA03F3DB43BA691340BB613B689A6873
:10470000FB695B0002FA03F3BA691343BB617B6880
:10471000BA69DA603B685B6803F00303022B23D1BC
:10472000FB69DA087B68083253F82230BB61FB6909
:1047300003F007039B000F2202FA03F3DB43BA697D
:104740001340BB613B681A69FB6903F007039B00D8
:1047500002FA03F3BA691343BB61FB69DA087B68A9
:104760000832B96943F822107B681B68BB61FB699A
:104770005B00032202FA03F3DB43BA691340BB6117
:104780003B685B6803F00302FB695B0002FA03F31A
:10479000BA691343BB617B68BA691A603B685B689E
:1047A00003F44033002B00F0A2800023FB60574B42
:1047B0005B6C564A43F480435364544B5B6C03F484
:1047C0008043FB60FB68524AFB699B08023352F846
:1047D0002330BB61FB6903F003039B000F2202FA45
:1047E00003F3DB43BA691340BB617B68494A9342D8
:1047F00019D07B68484A934213D07B68474A93425A
:104800000DD07B68464A934207D07B68454A934265
:1048100001D1042308E0072306E0032304E0022378
:1048200002E0012300E00023FA6902F00302920093
:104830009340BA691343BB613549FB699B08023356
:10484000BA6941F82320384B9B68BB613B69DB4365
:10485000BA691340BB613B685B6803F48013002BAB
:1048600003D0BA693B691343BB612F4ABB699360AC
:104870002D4BDB68BB613B69DB43BA691340BB610D
:104880003B685B6803F40013002B03D0BA693B69F3
:104890001343BB61244ABB69D360234B5B68BB6194
:1048A0003B69DB43BA691340BB613B685B6803F457
:1048B0000033002B03D0BA693B691343BB611A4A2A
:1048C000BB695360184B1B68BB613B69DB43BA692A
:1048D0001340BB613B685B6803F48033002B03D05B
:1048E000BA693B691343BB610F4ABB691360FB693B
:1048F0000133FB61FB690F2B7FF6A2AE00BF00BF47
:104900002437BD465DF8047B704700BF0038024085
:10491000003801400000024000040240000802404C
:10492000000C024000100240003C014080B483B003
:1049300000AF78600B467B8013467B707B78002B42
:1049400003D07A887B689A6103E07B881A047B68CD
:104950009A6100BF0C37BD465DF8047B70470000CC
:1049600080B582B000AF0346FB80084B5A69FB88D4
:104970001340002B06D0054AFB885361FB8818467C
:10498000FEF720FC00BF0837BD4680BD003C01405B
:1049900080B584B000AF78607B68002B01D1012323
:1049A0002BE17B6893F83D30DBB2002B06D17B68AE
:1049B000002283F83C207868FEF7ECFE7B68242216
:1049C00083F83D207B681B681A687B681B6822F0AF
:1049D00001021A607B681B681A687B681B6842F4D6
:1049E00000421A607B681B681A687B681B6822F4A7
:1049F00000421A6001F02CFCF8607B685B68814A19
:104A0000934207D8FB68804A934294BF0123002356
:104A1000DBB206E0FB687D4A934294BF012300238A
:104A2000DBB2002B01D00123E7E0FB68784AA2FB50
:104A300003239B0CBB607B681B685B6823F03F0112
:104A40007B681B68BA680A435A607B681B681B6AEC
:104A500023F03F017B685B686A4A934202D8BB68D7
:104A6000013309E0BB684FF4967202FB03F3694A15
:104A7000A2FB03239B0901337A6812680B4313627C
:104A80007B681B68DB6923F44F4222F0FF027B68DE
:104A90005B685C498B4219D8FB68591E7B685B6870
:104AA0005B00B1FBF3F3591C40F6FC730B40002B89
:104AB0000AD0FB68591E7B685B685B00B1FBF3F3AF
:104AC0000133C3F30B0351E004234FE07B689B6881
:104AD000002B11D1FB68581E7B6859680B465B00A0
:104AE0000B44B0FBF3F30133C3F30B03002B0CBFF8
:104AF00001230023DBB212E0FB68581E7B68596873
:104B00000B469B000B4499000B44B0FBF3F30133BD
:104B1000C3F30B03002B0CBF01230023DBB2002BDC
:104B200001D0012322E07B689B68002B0ED1FB683B
:104B3000581E7B6859680B465B000B44B0FBF3F3CF
:104B40000133C3F30B0343F400430FE0FB68581E2B
:104B50007B6859680B469B000B4499000B44B0FBE3
:104B6000F3F30133C3F30B0343F44043796809685B
:104B70001343CB617B681B681B6823F0C0017B6813
:104B8000DA697B681B6A1A437B681B680A431A60F0
:104B90007B681B689B6823F4034323F0FF037A6858
:104BA00011697A68D26811437A6812680B4393607E
:104BB0007B681B68DB6823F0FF017B685A697B68B0
:104BC0009B691A437B681B680A43DA607B681B6831
:104BD0001A687B681B6842F001021A607B68002239
:104BE0001A647B68202283F83D207B6800221A63C8
:104BF0007B68002283F83E20002318461037BD460C
:104C000080BD00BFA08601007F841E00FF083D001C
:104C100083DE1B43D34D621080B588B002AFF860CD
:104C2000084611461A4603467B810B463B811346D4
:104C3000FB80FFF70BFB7861FB6893F83D30DBB23C
:104C4000202B40F0D9807B690093192301226D4904
:104C5000F86800F08BFC0346002B01D00223CCE067
:104C6000FB6893F83C30012B01D10223C5E0FB68BF
:104C7000012283F83C20FB681B681B6803F00103DA
:104C8000012B07D0FB681B681A68FB681B6842F0A1
:104C900001021A60FB681B681A68FB681B6822F433
:104CA00000621A60FB68212283F83D20FB684022E5
:104CB00083F83E20FB6800221A64FB683A6A5A6255
:104CC000FB68BA8C5A85FB685B8D9AB2FB681A85C3
:104CD000FB684D4ADA62F8883A8979897B690193E1
:104CE000BB6A00930346F86800F0C2FA0346002B43
:104CF00052D0012381E07A69B96AF86800F050FD6A
:104D00000346002B0DD0FB681B6C042B07D1FB68FE
:104D10001B681A68FB681B6842F400721A60012362
:104D20006BE0FB685B6A1A78FB681B681A61FB68BA
:104D30005B6A5A1CFB685A62FB681B8D013B9AB286
:104D4000FB681A85FB685B8D9BB2013B9AB2FB68DE
:104D50005A85FB681B685B6903F00403042B1BD1B5
:104D6000FB681B8D002B17D0FB685B6A1A78FB6809
:104D70001B681A61FB685B6A5A1CFB685A62FB6815
:104D80001B8D013B9AB2FB681A85FB685B8D9BB259
:104D9000013B9AB2FB685A85FB681B8D002BAAD198
:104DA0007A69B96AF86800F043FD0346002B0DD01C
:104DB000FB681B6C042B07D1FB681B681A68FB6837
:104DC0001B6842F400721A60012316E0FB681B683E
:104DD0001A68FB681B6842F400721A60FB682022A4
:104DE00083F83D20FB68002283F83E20FB68002208
:104DF00083F83C20002300E0022318461837BD4604
:104E000080BD00BF020010000000FFFF80B58CB025
:104E100002AFF860084611461A4603467B810B46EE
:104E20003B811346FB80FFF711FA7862FB6893F829
:104E30003D30DBB2202B40F014827B6A00931923B3
:104E400001227B49F86800F091FB0346002B01D05A
:104E5000022307E2FB6893F83C30012B01D10223C7
:104E600000E2FB68012283F83C20FB681B681B689A
:104E700003F00103012B07D0FB681B681A68FB686D
:104E80001B6842F001021A60FB681B681A68FB6825
:104E90001B6822F400621A60FB68222283F83D201E
:104EA000FB68402283F83E20FB6800221A64FB68FE
:104EB0003A6B5A62FB68BA8E5A85FB685B8D9AB270
:104EC000FB681A85FB685B4ADA62F8883A89798957
:104ED0007B6A0193BB6B00930346F86800F05EFAAF
:104EE0000346002B01D00123BCE1FB681B8D002B86
:104EF00013D100233B62FB681B685B693B62FB6864
:104F00001B689B693B623B6AFB681B681A68FB680D
:104F10001B6842F400721A6090E1FB681B8D012B44
:104F20001BD1FB681B681A68FB681B6822F480624F
:104F30001A600023FB61FB681B685B69FB61FB680F
:104F40001B689B69FB61FB69FB681B681A68FB684F
:104F50001B6842F400721A6070E1FB681B8D022B23
:104F60001BD1FB681B681A68FB681B6822F480620F
:104F70001A60FB681B681A68FB681B6842F40062D1
:104F80001A600023BB61FB681B685B69BB61FB683F
:104F90001B689B69BB61BB6950E100237B61FB68B7
:104FA0001B685B697B61FB681B689B697B617B6934
:104FB00044E1FB681B8D032B00F2F180FB681B8D25
:104FC000012B23D17A6AB96BF86800F079FC0346AB
:104FD000002B01D0012345E1FB681B681A69FB68BF
:104FE0005B6AD2B21A70FB685B6A5A1CFB685A6231
:104FF000FB681B8D013B9AB2FB681A85FB685B8DD1
:105000009BB2013B9AB2FB685A8517E1FB681B8D86
:10501000022B4ED17B6A0093BB6B00220649F868D5
:1050200000F0A4FA0346002B08D001231AE100BFC8
:10503000020010000000FFFF04000100FB681B6875
:105040001A68FB681B6842F400721A60FB681B68F0
:105050001A69FB685B6AD2B21A70FB685B6A5A1CF9
:10506000FB685A62FB681B8D013B9AB2FB681A858C
:10507000FB685B8D9BB2013B9AB2FB685A85FB686B
:105080001B681A69FB685B6AD2B21A70FB685B6ABC
:105090005A1CFB685A62FB681B8D013B9AB2FB6885
:1050A0001A85FB685B8D9BB2013B9AB2FB685A85FF
:1050B000C4E07B6A0093BB6B00226C49F86800F087
:1050C00055FA0346002B01D00123CBE0FB681B6897
:1050D0001A68FB681B6822F480621A60FB681B6810
:1050E0001A69FB685B6AD2B21A70FB685B6A5A1C69
:1050F000FB685A62FB681B8D013B9AB2FB681A85FC
:10510000FB685B8D9BB2013B9AB2FB685A857B6A58
:105110000093BB6B00225549F86800F027FA03465C
:10512000002B01D001239DE0FB681B681A68FB6817
:105130001B6842F400721A60FB681B681A69FB68FE
:105140005B6AD2B21A70FB685B6A5A1CFB685A62CF
:10515000FB681B8D013B9AB2FB681A85FB685B8D6F
:105160009BB2013B9AB2FB685A85FB681B681A69BF
:10517000FB685B6AD2B21A70FB685B6A5A1CFB68F8
:105180005A62FB681B8D013B9AB2FB681A85FB686B
:105190005B8D9BB2013B9AB2FB685A854EE07A6AFE
:1051A000B96BF86800F08CFB0346002B01D001239B
:1051B00058E0FB681B681A69FB685B6AD2B21A7018
:1051C000FB685B6A5A1CFB685A62FB681B8D013BDB
:1051D0009AB2FB681A85FB685B8D9BB2013B9AB261
:1051E000FB685A85FB681B685B6903F00403042BAA
:1051F00024D1FB681B8D032B07D1FB681B681A6841
:10520000FB681B6822F480621A60FB681B681A69DD
:10521000FB685B6AD2B21A70FB685B6A5A1CFB6857
:105220005A62FB681B8D013B9AB2FB681A85FB68CA
:105230005B8D9BB2013B9AB2FB685A85FB681B8D64
:10524000002B7FF4B6AEFB68202283F83D20FB687C
:10525000002283F83E20FB68002283F83C200023D4
:1052600000E0022318462837BD4680BD0400010037
:1052700080B588B002AFF860084611461A4603466A
:105280007B810B463B811346FB80FB681B681A68D9
:10529000FB681B6842F480721A607B6A00933B6A69
:1052A00000224FF00111F86800F060F90346002B6E
:1052B0000DD0FB681B681B6803F48073B3F5807F17
:1052C00003D1FB684FF400721A6403235FE07B890B
:1052D000DBB21A46FB681B6802F0FE021A617B6AA9
:1052E0003A6A2D49F86800F0BBF90346002B01D05B
:1052F00001234CE000237B61FB681B685B697B61D9
:10530000FB681B689B697B617B697A6A396AF8680C
:1053100000F046FA0346002B0DD0FB681B6C042BF3
:1053200007D1FB681B681A68FB681B6842F40072AF
:105330001A6001232BE0FB88012B05D13B89DAB2EF
:10534000FB681B681A6121E03B891B0A9BB2DAB239
:10535000FB681B681A617A6A396AF86800F020FAFB
:105360000346002B0DD0FB681B6C042B07D1FB6898
:105370001B681A68FB681B6842F400721A600123FC
:1053800005E03B89DAB2FB681B681A610023184606
:105390001837BD4680BD00BF0200010080B588B04F
:1053A00002AFF860084611461A4603467B810B4659
:1053B0003B811346FB80FB681B681A68FB681B680F
:1053C00042F480621A60FB681B681A68FB681B68FD
:1053D00042F480721A607B6A00933B6A00224FF0AD
:1053E0000111F86800F0C2F80346002B0DD0FB68ED
:1053F0001B681B6803F48073B3F5807F03D1FB68DF
:105400004FF400721A640323AAE07B89DBB21A46C8
:10541000FB681B6802F0FE021A617B6A3A6A524915
:10542000F86800F01DF90346002B01D0012397E036
:1054300000237B61FB681B685B697B61FB681B6801
:105440009B697B617B697A6A396AF86800F0A8F920
:105450000346002B0DD0FB681B6C042B07D1FB68A7
:105460001B681A68FB681B6842F400721A6001230B
:1054700076E0FB88012B05D13B89DAB2FB681B681B
:105480001A6121E03B891B0A9BB2DAB2FB681B68F8
:105490001A617A6A396AF86800F082F90346002BCB
:1054A0000DD0FB681B6C042B07D1FB681B681A68C6
:1054B000FB681B6842F400721A60012350E03B89CC
:1054C000DAB2FB681B681A617A6A396AF86800F018
:1054D00067F90346002B0DD0FB681B6C042B07D12A
:1054E000FB681B681A68FB681B6842F400721A604C
:1054F000012335E0FB681B681A68FB681B6842F4EF
:1055000080721A607B6A00933B6A00224FF001119F
:10551000F86800F02BF80346002B0DD0FB681B68E1
:105520001B6803F48073B3F5807F03D1FB684FF4ED
:1055300000721A64032313E07B89DBB243F001039A
:10554000DAB2FB681B681A617B6A3A6A0649F86836
:1055500000F086F80346002B01D0012300E0002371
:1055600018461837BD4680BD0200010080B584B0E2
:1055700000AFF860B9603B601346FB7148E03B68E0
:10558000B3F1FF3F44D0FEF761FE0246BB69D31A78
:105590003A689A4202D33B68002B39D1BB681B0C96
:1055A000DBB2012B0DD1FB681B685B69DA43BB687A
:1055B00013409BB2002B0CBF01230023DBB21A4621
:1055C0000CE0FB681B689B69DA43BB6813409BB225
:1055D000002B0CBF01230023DBB21A46FB799A4251
:1055E00016D1FB6800221A63FB68202283F83D2055
:1055F000FB68002283F83E20FB681B6C43F020020E
:10560000FB681A64FB68002283F83C20012323E036
:10561000BB681B0CDBB2012B0DD1FB681B685B69FF
:10562000DA43BB6813409BB2002B0CBF012300235D
:10563000DBB21A460CE0FB681B689B69DA43BB6867
:1056400013409BB2002B0CBF01230023DBB21A4690
:10565000FB799A4293D0002318461037BD4680BD8F
:1056600080B584B000AFF860B9607A603B6071E0EB
:10567000FB681B685B6903F48063B3F5806F23D11B
:10568000FB681B681A68FB681B6842F400721A60AA
:10569000FB681B686FF480625A61FB6800221A6322
:1056A000FB68202283F83D20FB68002283F83E201F
:1056B000FB681B6C43F00402FB681A64FB68002261
:1056C00083F83C20012367E07B68B3F1FF3F41D0C2
:1056D000FEF7BCFD02463B68D31A7A689A4202D3B1
:1056E0007B68002B36D1BB681B0CDBB2012B0CD1C5
:1056F000FB681B685B69DA43BB6813409BB2002BF5
:1057000014BF01230023DBB20BE0FB681B689B691D
:10571000DA43BB6813409BB2002B14BF0123002364
:10572000DBB2002B16D0FB6800221A63FB68202234
:1057300083F83D20FB68002283F83E20FB681B6C49
:1057400043F02002FB681A64FB68002283F83C20C7
:10575000012321E0BB681B0CDBB2012B0CD1FB68E1
:105760001B685B69DA43BB6813409BB2002B14BF14
:1057700001230023DBB20BE0FB681B689B69DA4363
:10578000BB6813409BB2002B14BF01230023DBB284
:10579000002B7FF46DAF002318461037BD4680BD47
:1057A00080B584B000AFF860B9607A6034E0F86822
:1057B00000F0E3F80346002B01D0012334E0BB687E
:1057C000B3F1FF3F28D0FEF741FD02467B68D31AB4
:1057D000BA689A4202D3BB68002B1DD1FB681B68D4
:1057E0005B6903F08003802B16D0FB6800221A63EC
:1057F000FB68202283F83D20FB68002283F83E20CE
:10580000FB681B6C43F02002FB681A64FB680022F3
:1058100083F83C20012307E0FB681B685B6903F009
:105820008003802BC3D1002318461037BD4680BDAE
:1058300080B584B000AFF860B9607A6034E0F86891
:1058400000F09BF80346002B01D0012334E0BB6835
:10585000B3F1FF3F28D0FEF7F9FC02467B68D31A6C
:10586000BA689A4202D3BB68002B1DD1FB681B6843
:105870005B6903F00403042B16D0FB6800221A6353
:10588000FB68202283F83D20FB68002283F83E203D
:10589000FB681B6C43F02002FB681A64FB68002263
:1058A00083F83C20012307E0FB681B685B6903F079
:1058B0000403042BC3D1002318461037BD4680BD16
:1058C00080B584B000AFF860B9607A6049E0FB68E9
:1058D0001B685B6903F01003102B19D1FB681B6870
:1058E0006FF010025A61FB6800221A63FB682022E5
:1058F00083F83D20FB68002283F83E20FB681A6C89
:10590000FB681A64FB68002283F83C20012330E026
:10591000FEF79CFC02467B68D31ABA689A4202D30F
:10592000BB68002B1DD1FB681B685B6903F040035B
:10593000402B16D0FB6800221A63FB68202283F8F4
:105940003D20FB68002283F83E20FB681B6C43F07F
:105950002002FB681A64FB68002283F83C200123C4
:1059600007E0FB681B685B6903F04003402BAED186
:10597000002318461037BD4680BD80B483B000AF09
:1059800078607B681B685B6903F48063B3F5806FA4
:105990001BD17B681B686FF480625A617B680022B0
:1059A0001A637B68202283F83D207B68002283F8FD
:1059B0003E207B681B6C43F004027B681A647B68A2
:1059C000002283F83C20012300E0002318460C3716
:1059D000BD465DF8047B704780B586B000AF786047
:1059E0007B68002B01D1012367E27B681B6803F011
:1059F0000103002B75D0884B9B6803F00C03042B2C
:105A00000CD0854B9B6803F00C03082B12D1824B02
:105A10005B6803F48003B3F5800F0BD17E4B1B68EA
:105A200003F40033002B5BD07B685B68002B57D1FD
:105A3000012342E27B685B68B3F5803F06D1764B79
:105A40001B68754A43F4803313601DE07B685B6814
:105A5000B3F5A02F0CD1704B1B686F4A43F4802321
:105A600013606D4B1B686C4A43F4803313600BE08A
:105A7000694B1B68684A23F480331360664B1B68CC
:105A8000654A23F4802313607B685B68002B13D086
:105A9000FEF7DCFB386108E0FEF7D8FB02463B6905
:105AA000D31A642B01D9032307E25B4B1B6803F471
:105AB0000033002BF0D014E0FEF7C8FB386108E09B
:105AC000FEF7C4FB02463B69D31A642B01D90323BA
:105AD000F3E1514B1B6803F40033002BF0D100E0DD
