:020000040800F2
:1000000000000120E51000086D0D0008750D0008C6
:100010007D0D0008850D00088D0D00080000000012
:10002000000000000000000000000000950D000826
:10003000A30D000800000000B10D0008BF0D00086E
:100040003511000835110008351100083511000878
:100050003511000835110008351100083511000868
:100060003511000835110008351100083511000858
:100070003511000835110008351100083511000848
:100080003511000835110008351100080000000086
:100090000000000000000000000000003511000812
:1000A0003511000835110008351100083511000818
:1000B000CD0D0008E10D00083511000835110008CC
:1000C00035110008351100083511000835110008F8
:1000D0003511000835110008351100080000000036
:1000E0003511000835110008351100080000000026
:1000F00000000000000000000000000035110008B2
:100100000000000035110008351100083511000805
:1001100000000000000000000000000000000000DF
:100120003511000835110008351100083511000897
:100130003511000800000000000000000000000071
:100140000000000000000000000000003511000861
:100150003511000835110008351100083511000867
:1001600035110008351100080000000000000000F3
:10017000000000000000000000000000000000007F
:100180000000000035110008000000000000000021
:04019000351100081D
:1001980010B5054C237833B9044B13B10448AFF3B9
:1001A80000800123237010BDA00000200000000083
:1001B800AC35000808B5034B1BB103490348AFF33E
:1001C800008008BD00000000A4000020AC35000835
:1001D80070B54FF0FF0C4CF4E06C1CEA11541DBFD5
:1001E8001CEA135594EA0C0F95EA0C0F00F0DEF8A0
:1001F8002C4481EA030621EA4C5123EA4C5350EA85
:10020800013518BF52EA033541F4801143F48013D5
:1002180038D0A0FB02CE4FF00005E1FB02E506F066
:100228000042E0FB03E54FF00006E1FB03569CF0BB
:10023800000F18BF4EF0010EA4F1FF04B6F5007FC1
:1002480064F5407404D25FEA4E0E6D4146EB060633
:1002580042EAC62141EA55514FEAC52040EA5E50BC
:100268004FEACE2EB4F1FD0C88BFBCF5E06F1ED866
:10027800BEF1004F08BF5FEA500E50F1000041EB9D
:10028800045170BD06F0004646EA010140EA02004A
:1002980081EA0301B4EB5C04C2BFD4EB0C0541EA6C
:1002A800045170BD41F480114FF0000E013C00F381
:1002B800AB8014F1360FDEBF002001F0004170BDA5
:1002C800C4F10004203C35DA0C341BDC04F11404BE
:1002D800C4F1200500FA05F320FA04F001FA05F24A
:1002E80040EA020001F0004221F0004110EBD37017
:1002F80021FA04F642EB06015EEA430E08BF20EA43
:10030800D37070BDC4F10C04C4F1200500FA04F3E5
:1003180020FA05F001FA04F240EA020001F0004177
:1003280010EBD37041F100015EEA430E08BF20EAEA
:10033800D37070BDC4F1200500FA05F24EEA020E32
:1003480020FA04F301FA05F243EA020321FA04F061
:1003580001F0004121FA04F220EA020000EBD37018
:100368005EEA430E08BF20EAD37070BD94F0000F18
:100378000FD101F00046400041EB010111F4801F4C
:1003880008BF013CF7D041EA060195F0000F18BFFD
:10039800704703F00046520043EB030313F4801F39
:1003A80008BF013DF7D043EA0603704794EA0C0FF3
:1003B8000CEA135518BF95EA0C0F0CD050EA410609
:1003C80018BF52EA4306D1D181EA030101F0004186
:1003D8004FF0000070BD50EA410606BF10461946AE
:1003E80052EA430619D094EA0C0F02D150EA0136BA
:1003F80013D195EA0C0F05D152EA03361CBF1046FB
:1004080019460AD181EA030101F0004141F0FE4199
:1004180041F470014FF0000070BD41F0FE4141F41D
:10042800780170BD81F0004102E000BF83F0004315
:1004380030B54FEA41044FEA430594EA050F08BF77
:1004480090EA020F1FBF54EA000C55EA020C7FEA3B
:10045800645C7FEA655C00F0E2804FEA5454D4EBB8
:100468005555B8BF6D420CDD2C4480EA020281EA82
:10047800030382EA000083EA010180EA020281EABA
:100488000303362D88BF30BD11F0004F4FEA01310C
:100498004FF4801C4CEA113102D0404261EB41011B
:1004A80013F0004F4FEA03334CEA133302D05242A1
:1004B80063EB430394EA050F00F0A780A4F101045D
:1004C800D5F1200E0DDB02FA0EFC22FA05F2801897
:1004D80041F1000103FA0EF2801843FA05F359417D
:1004E8000EE0A5F120050EF1200E012A03FA0EFCFC
:1004F80028BF4CF0020C43FA05F3C01851EBE37126
:1005080001F0004507D54FF0000EDCF1000C7EEB42
:1005180000006EEB0101B1F5801F1BD3B1F5001F80
:100528000CD349085FEA30004FEA3C0C04F101049F
:100538004FEA445212F5800F80F09A80BCF1004FC8
:1005480008BF5FEA500C50F1000041EB045141EA4A
:10055800050130BD5FEA4C0C404141EB0101013C13
:1005680028BFB1F5801FE9D291F0000F04BF014602
:100578000020B1FA81F308BF2033A3F10B03B3F1D4
:1005880020020CDA0C3208DD02F1140CC2F10C0264
:1005980001FA0CF021FA02F10CE002F11402D8BFC2
:1005A800C2F1200C01FA02F120FA0CFCDCBF41EA8E
:1005B8000C019040E41AA2BF01EB0451294330BD5D
:1005C8006FEA04041F3C1CDA0C340EDC04F114043A
:1005D800C4F1200220FA04F001FA02F340EA030011
:1005E80021FA04F345EA030130BDC4F10C04C4F157
:1005F800200220FA02F001FA04F340EA0300294637
:1006080030BD21FA04F0294630BD94F0000F83F480
:10061800801306BF81F480110134013D4EE77FEA63
:10062800645C18BF7FEA655C29D094EA050F08BFAF
:1006380090EA020F05D054EA000C04BF1946104690
:1006480030BD91EA030F1EBF0021002030BD5FEAD4
:10065800545C05D14000494128BF41F0004130BDFC
:1006680014F580043CBF01F5801130BD01F0004550
:1006780045F0FE4141F470014FF0000030BD7FEAC3
:10068800645C1ABF194610467FEA655C1CBF0B46BE
:10069800024650EA013406BF52EA033591EA030FD5
:1006A80041F4002130BD00BF90F0000F04BF0021CD
:1006B800704730B54FF4806404F132044FF0000500
:1006C8004FF0000150E700BF90F0000F04BF002179
:1006D800704730B54FF4806404F1320410F00045DF
:1006E80048BF40424FF000013EE700BF42004FEADA
:1006F800E2014FEA31014FEA02701FBF12F07F4357
:1007080093F07F4F81F06051704732F07F4208BF0D
:10071800704793F07F4F04BF41F40021704730B514
:100728004FF4607401F0004521F000411CE700BF60
:1007380050EA010208BF704730B54FF000050AE0E3
:1007480050EA010208BF704730B511F0004502D5E4
:10075800404261EB41014FF4806404F132045FEAE6
:10076800915C3FF4D8AE4FF003025FEADC0C18BF8F
:1007780003325FEADC0C18BF033202EBDC02C2F181
:10078800200300FA03FC20FA02F001FA03FE40EA13
:100798000E0021FA02F11444BDE600BF4FEA4102FF
:1007A800B2F1E04324BFB3F5001CDCF1FE5C0DD9C7
:1007B80001F0004C4FEAC0024CEA5070B2F1004F11
:1007C80040EB830008BF20F00100704711F0804F14
:1007D80021D113F13872BCBF01F00040704741F4D9
:1007E80080114FEA5252C2F11802C2F1200C10FADD
:1007F8000CF320FA02F018BF40F001004FEAC123C1
:100808004FEAD32303FA0CFC40EA0C0023FA02F364
:100818004FEA4303CCE77FEA625307D150EA01333A
:100828001EBF4FF0FE4040F44000704701F000400A
:1008380040F0FE4040F40000704700BF53B94AB989
:10084800002908BF00281CBF4FF0FF314FF0FF30D0
:1008580000F06AB9ADF1080C6DE904CE00F006F8B5
:10086800DDF804E0DDE9022304B070472DE9F04724
:10087800089D0C46002B4ED194468C458646B2FA0C
:1008880082F262D94AB1C2F12003914020FA03F3FF
:100898000CFA02FC194300FA02FE4FEA1C471FFA41
:1008A8008CF6B1FBF7F44FEA1E4307FB141143EA39
:1008B800014304FB06F199420AD91CEB030304F136
:1008C800FF3080F01281994240F20F81023C63446C
:1008D800591A1FFA8EF3B1FBF7F007FB101143EA20
:1008E800014300FB06F69E420AD91CEB030300F104
:1008F800FF3180F0FC809E4240F2F9806344023868
:100908009B1B40EA044000211DB1D3400022C5E9E9
:100918000032BDE8F0878B4205D90DB1C5E9000169
:1009280000210846F5E7B3FA83F1002946D1A3422E
:1009380002D39042C0F0F080861A64EB03030120D2
:10094800002DE6D0C5E90063E3E7002A40F0908077
:10095800A1EB0C044FEA1C481FFA8CF70121B4FBE9
:10096800F8F64FEA1E4308FB164443EA044307FB24
:1009780006F0984208D91CEB030306F1FF3402D2B3
:10098800984200F2CD8026461C1A1FFA8EF3B4FB5B
:10099800F8F008FB104443EA044300FB07F79F42C2
:1009A80008D91CEB030300F1FF3402D29F4200F286
:1009B800B0802046DB1B40EA0640A5E7C1F12006CF
:1009C8008B4022FA06F71F4320FA06FC04FA01F3CB
:1009D80043EA0C03F44000FA01F8380C4FEA1349D3
:1009E800B4FBF0FE1FFA87FC00FB1E4449EA0444EE
:1009F8000EFB0CF9A14502FA01F20AD93C190EF1D5
:100A0800FF3A80F08480A14540F28180AEF1020E69
:100A18003C44A4EB09041FFA83F9B4FBF0F300FB90
:100A2800134449EA044403FB0CFCA44507D93C19C8
:100A380003F1FF3067D2A44565D9023B3C4443EA41
:100A48000E40A0FB0293A4EB0C049C42CE469C46AD
:100A580051D34ED055B1B8EB0E0364EB0C0404FA35
:100A680006F6CB401E43CC40C5E90064002150E7A0
:100A7800C2F1200320FA03F10CFA02FC24FA03F372
:100A880094400C434FEA1C4800FA02FE1FFA8CF708
:100A9800B3FBF8F008FB1031230C43EA014300FBD9
:100AA80007F1994208D91CEB030300F1FF362CD259
:100AB80099422AD9023863445B1AA4B2B3FBF8F10D
:100AC80008FB113344EA034401FB07F3A34208D9A6
:100AD8001CEB040401F1FF3613D2A34211D90239E9
:100AE8006444E41A41EA004139E70446F0E608465E
:100AF80006E7C845AED2B9EB020E63EB070C013826
:100B0800A8E73146EDE7034699E73046D4E7D646ED
:100B18007FE7634402384DE70646234608460FE759
:100B2800023E634430E700BF704700BF80B588B01D
:100B380000AF07F10C0300221A605A609A60DA606D
:100B48001A610023BB601F4B1B6B1E4A43F08003D6
:100B580013631C4B1B6B03F08003BB60BB68002353
:100B68007B60184B1B6B174A43F001031363154B4B
:100B78001B6B03F001037B607B6800233B60114B18
:100B88001B6B104A43F0020313630E4B1B6B03F0FD
:100B980002033B603B68002280210B4800F0F4FD13
:100BA8008023FB6001233B6100237B610023BB6141
:100BB80007F10C031946044800F062FC00BF203717
:100BC800BD4680BD003802400000024080B582B0BA
:100BD80002AF00F0ADFA00F02DF8FFF7A7FF00F024
:100BE80075F900F015F90F4B00930F4B0F4A104998
:100BF800042002F03DFA4FF4967000F00BFB0B4B0B
:100C08000B4A0121022002F081FA4FF4967000F09D
:100C180001FB044B044A0321022002F077FA00BFCB
:100C2800E9E700BF3C000020280000201400002055
:100C38000000002080B594B000AF07F120033022F7
:100C48000021184602F082FC07F10C0300221A600A
:100C58005A609A60DA601A610023BB60284B1B6CEB
:100C6800274A43F080531364254B1B6C03F08053D1
:100C7800BB60BB6800237B60224B1B6823F44043A6
:100C8800204A43F4004313601E4B1B6803F440439F
:100C98007B607B6802233B620123FB6210233B637A
:100CA8000223BB630023FB6308233B6454237B6458
:100CB8000223BB640423FB6407F12003184600F0F9
:100CC8007DFD0346002B01D000F01EF80F23FB60CA
:100CD80002233B6100237B614FF48053BB610023F7
:100CE800FB6107F10C030221184600F0DFFF034601
:100CF800002B01D000F008F800BF5037BD4680BD7A
:100D0800003802400070004080B400AF72B600BFE7
:100D180000BFFDE780B483B000AF00237B60104BB9
:100D28005B6C0F4A43F4804353640D4B5B6C03F4D4
:100D380080437B607B6800233B60094B1B6C084A3F
:100D480043F080531364064B1B6C03F080533B60E5
:100D58003B6800BF0C37BD465DF8047B704700BF99
:100D68000038024080B400AF00BFFDE780B400AF98
:100D780000BFFDE780B400AF00BFFDE780B400AF5F
:100D880000BFFDE780B400AF00BFFDE780B400AF4F
:100D980000BFBD465DF8047B704780B400AF00BF5C
:100DA800BD465DF8047B704780B400AF00BFBD4608
:100DB8005DF8047B704780B500AF00F00BFA00BF08
:100DC80080BD000080B500AF024801F0F3FA00BF13
:100DD80080BD00BFCC00002080B500AF024801F004
:100DE800E9FA00BF80BD00BF8001002080B400AFD9
:100DF800064BD3F88830054A43F47003C2F88830AC
:100E080000BFBD465DF8047B704700BF00ED00E001
:100E180080B586B000AF07F1100300221A605A604F
:100E28003B4600221A605A609A60DA60264B4FF0FF
:100E380080421A60244B53225A60234B00229A6046
:100E4800214B4FF0FF32DA601F4B00221A611E4B14
:100E580000229A611C4801F037F90346002B01D0A3
:100E6800FFF752FF00233B6100237B6107F110036A
:100E78001946154802F054F80346002B01D0FFF735
:100E880043FF0A233B6001237B600023BB600023F0
:100E9800FB603B46002219460B4801F09BFB0346CA
:100EA800002B01D0FFF730FF3B46042219460648C5
:100EB80001F090FB0346002B01D0FFF725FF00BF90
:100EC8001837BD4680BD00BFCC00002080B586B075
:100ED80000AF07F1100300221A605A603B46002257
:100EE8001A605A609A60DA60254B264A1A60244BC9
:100EF80053225A60224B00229A60214B4FF4FA7217
:100F0800DA601F4B00221A611D4B00229A611C48AF
:100F180001F0DAF80346002B01D0FFF7F5FE0023B5
:100F28003B6100237B6107F110031946144801F067
:100F3800F7FF0346002B01D0FFF7E6FE0A233B60CC
:100F480001237B600023BB600023FB603B4600223B
:100F580019460B4801F03EFB0346002B01D0FFF772
:100F6800D3FE3B4608221946054801F033FB0346E9
:100F7800002B01D0FFF7C8FE00BF1837BD4680BD63
:100F8800800100200004004080B58CB000AF78607C
:100F980007F11C0300221A605A609A60DA601A612D
:100FA8007B681B68B3F1804F34D10023BB61474B8A
:100FB8001B6C464A43F001031364444B1B6C03F05B
:100FC8000103BB61BB6900237B61404B1B6B3F4A3C
:100FD80043F0010313633D4B1B6B03F001037B617B
:100FE8007B690323FB6102233B6200237B620023AE
:100FF800BB620123FB6207F11C031946344800F069
:101008003FFA002200211C2000F003FA1C2000F007
:101018001CFA56E07B681B682E4A934251D1002384
:101028003B612A4B1B6C294A43F002031364274B8C
:101038001B6C03F002033B613B690023FB60234BFD
:101048001B6B224A43F001031363204B1B6B03F015
:101058000103FB60FB680023BB601C4B1B6B1B4A36
:1010680043F002031363194B1B6B03F00203BB60CD
:10107800BB684023FB6102233B6200237B620023A1
:10108800BB620223FB6207F11C031946104800F0FB
:10109800F7F90123FB6102233B6200237B620023F3
:1010A800BB620223FB6207F11C0319460A4800F0E1
:1010B800E7F9002200211D2000F0ABF91D2000F007
:1010C800C4F900BF3037BD4680BD00BF00380240BC
:1010D800000002400004004000040240DFF834D061
:1010E800FFF784FE0C480D490D4A002302E0D4584E
:1010F800C4500433C4188C42F9D30A4A0A4C00235A
:1011080001E013600432A242FBD302F027FAFFF792
:101118005DFD70470000012000000020A0000020B5
:10112800E4350008A0000020A0020020FEE700002F
:1011380080B500AF0E4B1B680D4A43F40073136073
:101148000B4B1B680A4A43F480631360084B1B6807
:10115800074A43F480731360032000F04FF90F200F
:1011680000F008F8FFF7D6FD0023184680BD00BF41
:10117800003C024080B582B000AF7860124B1A681C
:10118800124B1B7819464FF47A73B3FBF1F3B2FB99
:10119800F3F3184600F067F90346002B01D001234A
:1011A8000EE07B680F2B0AD8002279684FF0FF30D9
:1011B80000F02FF9064A7B681360002300E0012342
:1011C80018460837BD4680BD500000205800002052
:1011D8005400002080B400AF064B1B781A46064B1B
:1011E8001B681344044A136000BFBD465DF8047BC6
:1011F800704700BF580000203402002080B400AFC0
:10120800034B1B681846BD465DF8047B704700BF5A
:101218003402002080B584B000AF7860FFF7EEFF9D
:10122800B8607B68FB60FB68B3F1FF3F05D00A4BF1
:101238001B781A46FB681344FB6000BFFFF7DEFF0C
:101248000246BB68D31AFA689A42F7D800BF00BFB3
:101258001037BD4680BD00BF5800002080B485B05F
:1012680000AF78607B6803F00703FB600C4BDB681A
:10127800BB60BA684FF6FF031340BB60FB681A02F5
:10128800BB68134343F0BF6343F40033BB60044AB5
:10129800BB68D36000BF1437BD465DF8047B704758
:1012A80000ED00E080B400AF044BDB681B0A03F0DC
:1012B80007031846BD465DF8047B704700ED00E063
:1012C80080B483B000AF0346FB7197F90730002B59
:1012D8000BDBFB7903F01F02074997F907305B091D
:1012E800012000FA02F241F8232000BF0C37BD4666
:1012F8005DF8047B704700BF00E100E080B483B074
:1013080000AF03463960FB7197F90730002B0ADB01
:101318003B68DAB20C4997F907301201D2B20B4494
:1013280083F800230AE03B68DAB20849FB7903F046
:101338000F03043B1201D2B20B441A7600BF0C37DC
:10134800BD465DF8047B704700E100E000ED00E079
:1013580080B489B000AFF860B9607A60FB6803F0C8
:101368000703FB61FB69C3F10703042B28BF0423B0
:10137800BB61FB690433062B02D9FB69033B00E020
:1013880000237B614FF0FF32BB6902FA03F3DA43B3
:10139800BB681A407B699A404FF0FF317B6901FABC
:1013A80003F3D9437B680B40134318462437BD46E3
:1013B8005DF8047B7047000080B582B000AF7860AC
:1013C8007B68013BB3F1807F01D301230FE00A4A18
:1013D8007B68013B53600F214FF0FF30FFF78EFF12
:1013E800054B00229A60044B07221A600023184616
:1013F8000837BD4680BD00BF10E000E080B582B070
:1014080000AF78607868FFF729FF00BF0837BD464E
:1014180080BD80B586B000AF0346B9607A60FB73C3
:1014280000237B61FFF73EFF78617A68B9687869C5
:10143800FFF78EFF024697F90F3011461846FFF75F
:101448005DFF00BF1837BD4680BD80B582B000AFD4
:101458000346FB7197F907301846FFF731FF00BFC5
:101468000837BD4680BD80B582B000AF7860786827
:10147800FFF7A2FF034618460837BD4680BD0000A7
:1014880080B489B000AF7860396000237B610023A5
:101498003B610023BB610023FB6159E10122FB6929
:1014A80002FA03F37B613B681B687A6913403B616E
:1014B8003A697B699A4240F048813B685B6803F06F
:1014C8000303012B05D03B685B6803F00303022B81
:1014D80030D17B689B68BB61FB695B00032202FA21
:1014E80003F3DB43BA691340BB613B68DA68FB6905
:1014F8005B0002FA03F3BA691343BB617B68BA69FC
:101508009A607B685B68BB610122FB6902FA03F39E
:10151800DB43BA691340BB613B685B681B0903F096
:101528000102FB6902FA03F3BA691343BB617B68E2
:10153800BA695A603B685B6803F00303032B17D052
:101548007B68DB68BB61FB695B00032202FA03F37B
:10155800DB43BA691340BB613B689A68FB695B006F
:1015680002FA03F3BA691343BB617B68BA69DA60AC
:101578003B685B6803F00303022B23D1FB69DA089D
:101588007B68083253F82230BB61FB6903F007031C
:101598009B000F2202FA03F3DB43BA691340BB61D5
:1015A8003B681A69FB6903F007039B0002FA03F31F
:1015B800BA691343BB61FB69DA087B680832B96909
:1015C80043F822107B681B68BB61FB695B00032240
:1015D80002FA03F3DB43BA691340BB613B685B68FB
:1015E80003F00302FB695B0002FA03F3BA691343D1
:1015F800BB617B68BA691A603B685B6803F4403377
:10160800002B00F0A2800023FB60574B5B6C564A0E
:1016180043F480435364544B5B6C03F48043FB6096
:10162800FB68524AFB699B08023352F82330BB61BE
:10163800FB6903F003039B000F2202FA03F3DB4369
:10164800BA691340BB617B68494A934219D07B68E9
:10165800484A934213D07B68474A93420DD07B682F
:10166800464A934207D07B68454A934201D10423F6
:1016780008E0072306E0032304E0022302E0012335
:1016880000E00023FA6902F0030292009340BA696D
:101698001343BB613549FB699B080233BA6941F8BA
:1016A8002320384B9B68BB613B69DB43BA69134015
:1016B800BB613B685B6803F48013002B03D0BA69F5
:1016C8003B691343BB612F4ABB6993602D4BDB68B1
:1016D800BB613B69DB43BA691340BB613B685B682C
:1016E80003F40013002B03D0BA693B691343BB61B1
:1016F800244ABB69D360234B5B68BB613B69DB430E
:10170800BA691340BB613B685B6803F40033002B84
:1017180003D0BA693B691343BB611A4ABB6953607A
:10172800184B1B68BB613B69DB43BA691340BB615B
:101738003B685B6803F48033002B03D0BA693B69CC
:101748001343BB610F4ABB691360FB690133FB613B
:10175800FB690F2B7FF6A2AE00BF00BF2437BD4642
:101768005DF8047B704700BF003802400038014034
:10177800000002400004024000080240000C024041
:1017880000100240003C014080B483B000AF786094
:101798000B467B8013467B707B78002B03D07A88BE
:1017A8007B689A6103E07B881A047B689A6100BFB2
:1017B8000C37BD465DF8047B7047000080B586B0E5
:1017C80000AF78607B68002B01D1012367E27B685A
:1017D8001B6803F00103002B75D0884B9B6803F04E
:1017E8000C03042B0CD0854B9B6803F00C03082BCF
:1017F80012D1824B5B6803F48003B3F5800F0BD1E1
:101808007E4B1B6803F40033002B5BD07B685B685E
:10181800002B57D1012342E27B685B68B3F5803F18
:1018280006D1764B1B68754A43F4803313601DE07C
:101838007B685B68B3F5A02F0CD1704B1B686F4AAF
:1018480043F4802313606D4B1B686C4A43F4803368
:1018580013600BE0694B1B68684A23F480331360FC
:10186800664B1B68654A23F4802313607B685B68BA
:10187800002B13D0FFF7C2FC386108E0FFF7BEFC6D
:1018880002463B69D31A642B01D9032307E25B4B59
:101898001B6803F40033002BF0D014E0FFF7AEFC14
:1018A800386108E0FFF7AAFC02463B69D31A642BAB
:1018B80001D90323F3E1514B1B6803F40033002BD8
:1018C800F0D100E000BF7B681B6803F00203002B27
:1018D80063D04A4B9B6803F00C03002B0BD0474B9B
:1018E8009B6803F00C03082B1CD1444B5B6803F482
:1018F8008003002B16D1414B1B6803F00203002B19
:1019080005D07B68DB68012B01D00123C7E13B4B85
:101918001B6823F0F8027B681B69DB003749134317
:101928000B603AE07B68DB68002B20D0344B012247
:101938001A60FFF763FC386108E0FFF75FFC0246B6
:101948003B69D31A022B01D90323A8E12B4B1B684F
:1019580003F00203002BF0D0284B1B6823F0F80299
:101968007B681B69DB00254913430B6015E0244B9A
:1019780000221A60FFF742FC386108E0FFF73EFCDE
:1019880002463B69D31A022B01D9032387E11B4B7B
:101998001B6803F00203002BF0D17B681B6803F07F
:1019A8000803002B36D07B685B69002B16D0154BDB
:1019B80001221A60FFF722FC386108E0FFF71EFCDD
:1019C80002463B69D31A022B01D9032367E10B4B6B
:1019D8005B6F03F00203002BF0D01BE0094B0022E1
:1019E8001A60FFF70BFC38610EE0FFF707FC0246B0
:1019F8003B69D31A022B07D9032350E10038024070
:101A080000004742800E4742884B5B6F03F0020399
:101A1800002BEAD17B681B6803F00403002B00F05D
:101A280097800023FB75814B1B6C03F08053002BC0
:101A38000FD10023BB607D4B1B6C7C4A43F0805365
:101A480013647A4B1B6C03F08053BB60BB680123A3
:101A5800FB75774B1B6803F48073002B18D1744B0C
:101A68001B68734A43F480731360FFF7C7FB386140
:101A780008E0FFF7C3FB02463B69D31A022B01D9E2
:101A880003230CE16A4B1B6803F48073002BF0D02E
:101A98007B689B68012B06D1644B1B6F634A43F03C
:101AA800010313671CE07B689B68052B0CD15F4B17
:101AB8001B6F5E4A43F0040313675C4B1B6F5B4A62
:101AC80043F0010313670BE0584B1B6F574A23F091
:101AD80001031367554B1B6F544A23F00403136724
:101AE8007B689B68002B15D0FFF788FB38610AE0FC
:101AF800FFF784FB02463B69D31A41F288329342CE
:101B080001D90323CBE0494B1B6F03F00203002BE1
:101B1800EED014E0FFF772FB38610AE0FFF76EFBC6
:101B280002463B69D31A41F28832934201D9032312
:101B3800B5E03E4B1B6F03F00203002BEED1FB7D9B
:101B4800012B05D1394B1B6C384A23F080531364A1
:101B58007B689B69002B00F0A180344B9B6803F0E5
:101B68000C03082B5CD07B689B69022B41D1314B5D
:101B780000221A60FFF742FB386108E0FFF73EFBDE
:101B880002463B69D31A022B01D9032387E0274B6E
:101B98001B6803F00073002BF0D17B68DA697B685F
:101BA8001B6A1A437B685B6A9B011A437B689B6AC2
:101BB8005B08013B1B041A437B68DB6A1B061B4955
:101BC80013434B601B4B01221A60FFF717FB386168
:101BD80008E0FFF713FB02463B69D31A022B01D931
:101BE80003235CE0114B1B6803F00073002BF0D05B
:101BF80054E0104B00221A60FFF700FB386108E040
:101C0800FFF7FCFA02463B69D31A022B01D90323DA
:101C180045E0064B1B6803F00073002BF0D13DE054
:101C28007B689B69012B07D1012338E0003802400B
:101C380000700040600047421B4B5B68FB607B689C
:101C48009B69012B28D0FB6803F480027B68DB6961
:101C58009A4221D1FB6803F03F027B681B6A9A42D3
:101C68001AD1FA6847F6C07313407A68526A92012B
:101C7800934211D1FB6803F440327B689B6A5B088E
:101C8800013B1B049A4207D1FB6803F070627B6832
:101C9800DB6A1B069A4201D0012300E000231846A4
:101CA8001837BD4680BD00BF0038024080B584B0FB
:101CB80000AF786039607B68002B01D10123CCE04C
:101CC800684B1B6803F007033A689A420CD9654BC6
:101CD8003A68D2B21A70634B1B6803F007033A687C
:101CE8009A4201D00123B8E07B681B6803F0020325
:101CF800002B20D07B681B6803F00403002B05D061
:101D0800594B9B68584A43F4E05393607B681B68BF
:101D180003F00803002B05D0534B9B68524A43F449
:101D280060439360504B9B6823F0F0027B689B688C
:101D38004D4913438B607B681B6803F00103002B3C
:101D480044D07B685B68012B07D1474B1B6803F4C1
:101D58000033002B19D101237FE07B685B68022BDD
:101D680003D07B685B68032B07D13F4B1B6803F0EC
:101D78000073002B09D101236FE03B4B1B6803F074
:101D88000203002B01D1012367E0374B9B6823F046
:101D980003027B685B68344913438B60FFF72EFAB4
:101DA800F8600AE0FFF72AFA0246FB68D31A41F204
:101DB8008832934201D903234FE02B4B9B6803F0F1
:101DC8000C027B685B689B009A42EBD1254B1B6831
:101DD80003F007033A689A420CD2224B3A68D2B20F
:101DE8001A70204B1B6803F007033A689A4201D027
:101DF800012332E07B681B6803F00403002B08D042
:101E0800194B9B6823F4E0527B68DB68164913433F
:101E18008B607B681B6803F00803002B09D0124B0A
:101E28009B6823F460427B681B69DB000E491343FF
:101E38008B6000F021F802460B4B9B681B0903F0EE
:101E48000F030A49CB5C22FA03F3094A1360094BD2
:101E58001B681846FFF78EF9002318461037BD4651
:101E680080BD00BF003C024000380240C435000875
:101E780050000020540000202DE9B04F90B000AF72
:101E880000237B630023FB6300233B630023BB63C6
:101E9800594B9B6803F00C03082B0DD0082B00F25C
:101EA800A180002B02D0042B03D09BE0534BBB63D3
:101EB8009BE0534BBB6398E04F4B5B6803F03F03D9
:101EC8007B634D4B5B6803F48003002B28D04A4B9F
:101ED8005B689B0900223B627A623B6AC3F3080095
:101EE8000021474B03FB01F2002300FB03F31344DB
:101EF800434AA0FB0212FA620A46BA62FA6A13441B
:101F0800FB627B6B0022BB61FA61D7E90623D7E944
:101F18000A01FEF793FC02460B461346FB6353E0A7
:101F2800354B5B689B0900223B617A613B69C3F3CF
:101F3800080A4FF0000B52465B464FF000004FF086
:101F48000001590141EAD261500102460B46B2EB49
:101F58000A0863EB0B094FF000024FF000034FEA49
:101F6800891343EA98634FEA8812B2EB080463EBDB
:101F780009054FF000024FF00003EB0043EA5473E9
:101F8800E20014461D4614EB0A033B6045EB0B03C5
:101F98007B604FF000024FF00003D7E90045294667
:101FA8008B02214643EA915321468A02104619467C
:101FB8007B6B0022BB60FA60D7E90223FEF73EFC88
:101FC80002460B461346FB630B4B5B681B0C03F086
:101FD800030301335B003B63FA6B3B6BB2FBF3F328
:101FE800BB6302E0054BBB6300BFBB6B18464037C1
:101FF800BD46BDE8B08F00BF003802400024F400A1
:1020080040787D0180B485B000AF78607B6893F834
:102018003D30DBB2012B01D0012344E07B68022272
:1020280083F83D207B681B68DA687B681B6842F090
:102038000102DA607B681B681E4A934218D07B68ED
:102048001B68B3F1804F13D07B681B681A4A934210
:102058000ED07B681B68194A934209D07B681B68BD
:10206800174A934204D07B681B68164A934211D1E1
:102078007B681B689B6803F00703FB60FB68062B03
:1020880010D07B681B681A687B681B6842F00102E5
:102098001A6007E07B681B681A687B681B6842F057
:1020A80001021A60002318461437BD465DF8047B08
:1020B800704700BF000001400004004000080040D5
:1020C800000C00400040014080B582B000AF78604D
:1020D8007B68002B01D101234CE07B6893F83D30ED
:1020E800DBB2002B11D17B68002283F83C20786892
:1020F80000F0BEFE7B681B6D002B02D17B681F4A77
:102108001A657B681B6D786898477B68022283F89C
:102118003D207B681A687B6804331946104600F036
:10212800D7FC7B68012283F846207B68012283F86C
:102138003E207B68012283F83F207B68012283F8D8
:1021480040207B68012283F841207B68012283F8C4
:1021580042207B68012283F843207B68012283F8B0
:1021680044207B68012283F845207B68012283F89C
:102178003D20002318460837BD4680BD910F000852
:1021880080B584B000AF786039600023FB733B688A
:10219800002B04D17B6893F83E30DBB213E03B6838
:1021A800042B04D17B6893F83F30DBB20BE03B682B
:1021B800082B04D17B6893F84030DBB203E07B68DE
:1021C80093F84130DBB2BB733B68002B04D17B68CA
:1021D80093F84230DBB213E03B68042B04D17B68F0
:1021E80093F84330DBB20BE03B68082B04D17B68E3
:1021F80093F84430DBB203E07B6893F84530DBB2F8
:102208007B73BB7B012B02D17B7B012B01D001238C
:10221800C2E03B68002B04D17B68022283F83E2091
:1022280013E03B68042B04D17B68022283F83F202B
:102238000BE03B68082B04D17B68022283F840201E
:1022480003E07B68022283F841203B68002B04D11D
:102258007B68022283F8422013E03B68042B04D1F8
:102268007B68022283F843200BE03B68082B04D1EB
:102278007B68022283F8442003E07B68022283F80B
:1022880045203B680C2B41D801A252F823F000BF2F
:10229800CD2200081523000815230008152300087F
:1022A800DF2200081523000815230008152300085D
:1022B800F12200081523000815230008152300083B
:1022C800032300087B681B68DA687B681B6842F098
:1022D8000202DA601DE07B681B68DA687B681B68AD
:1022E80042F00402DA6014E07B681B68DA687B68F5
:1022F8001B6842F00802DA600BE07B681B68DA684A
:102308007B681B6842F01002DA6002E00123FB736D
:1023180000BFFB7B002B3ED17B681B68012239681C
:10232800184600F07FFD7B681B681D4A934218D051
:102338007B681B68B3F1804F13D07B681B68194A10
:1023480093420ED07B681B68174A934209D07B687A
:102358001B68164A934204D07B681B68144A934250
:1023680011D17B681B689B6803F00703BB60BB68DF
:10237800062B10D07B681B681A687B681B6842F0C4
:1023880001021A6007E07B681B681A687B681B6893
:1023980042F001021A60FB7B18461037BD4680BD2B
:1023A800000001400004004000080040000C00400C
:1023B8000040014080B584B000AF78607B681B683E
:1023C800DB68FB607B681B681B69BB60BB6803F04C
:1023D8000203002B26D0FB6803F00203002B21D058
:1023E8007B681B686FF002021A617B6801221A770A
:1023F8007B681B689B6903F00303002B05D07B688F
:10240800D3F890307868984709E07B68D3F898301B
:10241800786898477B68D3F89C30786898477B68D9
:1024280000221A77BB6803F00403002B26D0FB6850
:1024380003F00403002B21D07B681B686FF00402B3
:102448001A617B6802221A777B681B689B6903F410
:102458004073002B05D07B68D3F890307868984794
:1024680009E07B68D3F89830786898477B68D3F898
:102478009C30786898477B6800221A77BB6803F01D
:102488000803002B26D0FB6803F00803002B21D09B
:102498007B681B686FF008021A617B6804221A7750
:1024A8007B681B68DB6903F00303002B05D07B689E
:1024B800D3F890307868984709E07B68D3F898306B
:1024C800786898477B68D3F89C30786898477B6829
:1024D80000221A77BB6803F01003002B26D0FB6894
:1024E80003F01003002B21D07B681B686FF01002EB
:1024F8001A617B6808221A777B681B68DB6903F41A
:102508004073002B05D07B68D3F8903078689847E3
:1025180009E07B68D3F89830786898477B68D3F8E7
:102528009C30786898477B6800221A77BB6803F06C
:102538000103002B0ED0FB6803F00103002B09D028
:102548007B681B686FF001021A617B68D3F88030E2
:1025580078689847BB6803F08003002B0ED0FB68AF
:1025680003F08003002B09D07B681B686FF08002A2
:102578001A617B68D3F8B03078689847BB6803F075
:102588004003002B0ED0FB6803F04003002B09D05A
:102598007B681B686FF040021A617B68D3F888304B
:1025A80078689847BB6803F02003002B0ED0FB68BF
:1025B80003F02003002B09D07B681B686FF0200212
:1025C8001A617B68D3F8A8307868984700BF10373D
:1025D800BD4680BD80B586B000AFF860B9607A604E
:1025E8000023FB75FB6893F83C30012B01D10223D3
:1025F80088E0FB68012283F83C207B68002B1BD114
:10260800FB681868BB681968BB685A68BB68DB68F0
:1026180000F0EAFAFB681B689A69FB681B6822F0FD
:102628000C029A61FB681B689969BB689A68FB6829
:102638001B680A439A6160E07B68042B1CD1FB6825
:102648001868BB681968BB685A68BB68DB6800F023
:1026580033FBFB681B689A69FB681B6822F44062BD
:102668009A61FB681B689969BB689B681A02FB68DA
:102678001B680A439A6140E07B68082B1BD1FB6802
:102688001868BB681968BB685A68BB68DB6800F0E3
:1026980050FBFB681B68DA69FB681B6822F00C02B8
:1026A800DA61FB681B68D969BB689A68FB681B68B4
:1026B8000A43DA6121E07B680C2B1CD1FB6818689F
:1026C800BB681968BB685A68BB68DB6800F06DFBBB
:1026D800FB681B68DA69FB681B6822F44062DA61F0
:1026E800FB681B68D969BB689B681A02FB681B6892
:1026F8000A43DA6101E00123FB75FB68002283F8D5
:102708003C20FB7D18461837BD4680BD80B485B097
:1027180000AF786039600023FB603B680C2B31D830
:1027280001A252F823F000BF652700088D27000892
:102738008D2700088D2700086F2700088D270008BF
:102748008D2700088D270008792700088D270008A5
:102758008D2700088D270008832700087B681B68E1
:102768005B6BFB600FE07B681B689B6BFB600AE0A0
:102778007B681B68DB6BFB6005E07B681B681B6C78
:10278800FB6000E000BFFB6818461437BD465DF8E3
:10279800047B704780B483B000AF786000BF0C370B
:1027A800BD465DF8047B704780B483B000AF7860A5
:1027B80000BF0C37BD465DF8047B704780B483B01A
:1027C80000AF786000BF0C37BD465DF8047B7047EA
:1027D80080B483B000AF786000BF0C37BD465DF8A9
:1027E800047B704780B483B000AF786000BF0C37BB
:1027F800BD465DF8047B704780B483B000AF786055
:1028080000BF0C37BD465DF8047B704780B483B0C9
:1028180000AF786000BF0C37BD465DF8047B704799
:1028280080B483B000AF786000BF0C37BD465DF858
:10283800047B704780B483B000AF786000BF0C376A
:10284800BD465DF8047B704780B483B000AF786004
:1028580000BF0C37BD465DF8047B704780B487B075
:1028680000AFF8600B467A60FB720023FB757B684B
:10287800002B01D1012325E1FB6893F83D30DBB241
:10288800012B40F0B980FB7A1A2B00F2B28001A22A
:1028980052F823F00929000811290008192900080D
:1028A80021290008292900083129000839290008A8
:1028B8004129000849290008512900085929000818
:1028C8006129000869290008712900087929000888
:1028D800832900088D29000897290008A1290008E4
:1028E800AB290008B5290008BF290008C929000834
:1028F800D3290008DD290008E7290008F129000884
:10290800FB687A689A64DCE0FB687A68DA64D8E085
:10291800FB687A681A65D4E0FB687A685A65D0E083
:10292800FB687A689A65CCE0FB687A68DA65C8E083
:10293800FB687A681A66C4E0FB687A685A66C0E081
:10294800FB687A689A66BCE0FB687A68DA66B8E081
:10295800FB687A681A67B4E0FB687A685A67B0E07F
:10296800FB687A689A67ACE0FB687A68DA67A8E07F
:10297800FB687A68C3F88020A3E0FB687A68C3F82C
:1029880084209EE0FB687A68C3F8882099E0FB6899
:102998007A68C3F88C2094E0FB687A68C3F89020C2
:1029A8008FE0FB687A68C3F894208AE0FB687A684D
:1029B800C3F8982085E0FB687A68C3F89C2080E01B
:1029C800FB687A68C3F8A0207BE0FB687A68C3F8E4
:1029D800A42076E0FB687A68C3F8A82071E0FB6859
:1029E8007A68C3F8AC206CE0FB687A68C3F8B0205A
:1029F80067E00123FB7564E0FB6893F83D30DBB2C8
:102A0800002B5CD1FB7A0D2B56D801A252F823F08B
:102A1800512A0008592A0008612A0008692A000872
:102A2800712A0008792A0008812A0008892A0008E2
:102A3800912A0008992A0008A12A0008A92A000852
:102A4800B12A0008B92A0008FB687A689A6438E055
:102A5800FB687A68DA6434E0FB687A681A6530E003
:102A6800FB687A685A652CE0FB687A689A6528E002
:102A7800FB687A68DA6524E0FB687A681A6620E001
:102A8800FB687A685A661CE0FB687A689A6618E000
:102A9800FB687A68DA6614E0FB687A681A6710E0FF
:102AA800FB687A685A670CE0FB687A689A6708E0FE
:102AB800FB687A68DA6704E00123FB7501E001230B
:102AC800FB75FB7D18461C37BD465DF8047B7047D7
:102AD80080B485B000AF786039607B681B68FB60A4
:102AE8007B683A4A93420FD07B68B3F1804F0BD092
:102AF8007B68374A934207D07B68364A934203D0B3
:102B08007B68354A934208D1FB6823F07003FB6069
:102B18003B685B68FA681343FB607B682B4A934207
:102B28001BD07B68B3F1804F17D07B68284A93424B
:102B380013D07B68274A93420FD07B68264A93427A
:102B48000BD07B68254A934207D07B68244A93427E
:102B580003D07B68234A934208D1FB6823F440736F
:102B6800FB603B68DB68FA681343FB60FB6823F093
:102B780080023B685B691343FB607B68FA681A60F4
:102B88003B689A687B68DA623B681A687B689A6275
:102B98007B680E4A934203D13B681A697B681A63C3
:102BA8007B6801225A617B681B6903F00103012BD2
:102BB80005D17B681B6923F001027B681A6100BF9D
:102BC8001437BD465DF8047B704700BF0000014024
:102BD8000004004000080040000C00400040014094
:102BE800004401400048014080B487B000AFF8605D
:102BF800B9607A603B60FB681B6A3B61FB681B6AD3
:102C080023F00102FB681A62FB689B697B61FB6821
:102C1800244A934213D0FB68B3F1804F0FD0FB686E
:102C2800214A93420BD0FB68204A934207D0FB68A5
:102C38001F4A934203D0FB681E4A934201D10123E5
:102C480000E00023002B08D07B6923F003037B619D
:102C58007A697B6813437B6103E07B6943F0010376
:102C68007B617B6923F0F0037B613B681B01DBB26E
:102C78007A6913437B613B6923F00A033B61BB68B4
:102C880003F00A033A6913433B61FB687A699A6166
:102C9800FB683A691A6200BF1C37BD465DF8047BC1
:102CA800704700BF000001400004004000080040D9
:102CB800000C00400040014080B487B000AFF860CD
:102CC800B9607A603B60FB681B6A7B61FB681B6AC2
:102CD80023F01002FB681A62FB689B693B613B6941
:102CE80023F440733B617B681B023A6913433B61E1
:102CF8003B6923F470433B613B681B039BB23A6911
:102D080013433B617B6923F0A0037B61BB681B0114
:102D180003F0A0037A6913437B61FB683A699A61FF
:102D2800FB687A691A6200BF1C37BD465DF8047BF0
:102D3800704780B487B000AFF860B9607A603B60D4
:102D4800FB681B6A7B61FB681B6A23F48072FB6863
:102D58001A62FB68DB693B613B6923F003033B6153
:102D68003A697B6813433B613B6923F0F0033B619D
:102D78003B681B01DBB23A6913433B617B6923F46F
:102D880020637B61BB681B0203F420637A691343E9
:102D98007B61FB683A69DA61FB687A691A6200BF8D
:102DA8001C37BD465DF8047B704780B487B000AF20
:102DB800F860B9607A603B60FB681B6A7B61FB68FE
:102DC8001B6A23F48052FB681A62FB68DB693B616B
:102DD8003B6923F440733B617B681B023A691343E8
:102DE8003B613B6923F470433B613B681B039BB227
:102DF8003A6913433B617B6923F420437B61BB68D9
:102E08001B0303F420437A6913437B61FB683A6927
:102E1800DA61FB687A691A6200BF1C37BD465DF843
:102E2800047B704780B487B000AFF860B9607A60FF
:102E3800BB6803F01F03012202FA03F37B61FB68FE
:102E48001A6A7B69DB431A40FB681A62FB681A6AD4
:102E5800BB6803F01F03796801FA03F31A43FB68A0
:102E68001A6200BF1C37BD465DF8047B704700003E
:102E780080B483B000AF78607B681C4AC3F88020B8
:102E88007B681B4AC3F884207B681A4AC3F88820E9
:102E98007B68194AC3F88C207B68184AC3F89020CD
:102EA8007B68174AC3F894207B68164AC3F89820B1
:102EB8007B68154AC3F89C207B68144AC3F8A02095
:102EC8007B68134AC3F8A4207B68124AC3F8A82079
:102ED8007B68114AC3F8AC207B68104AC3F8B0205D
:102EE80000BF0C37BD465DF8047B70479D2700087E
:102EF800B1270008292800083D280008D92700081C
:102F0800ED270008C5270008012800081528000833
:102F18005128000805300008193000082D30000835
:102F280080B485B000AF786039607B6893F83C3036
:102F3800012B01D1022350E07B68012283F83C2059
:102F48007B68022283F83D207B681B685B68FB6016
:102F58007B681B689B68BB60FB6823F07003FB60A1
:102F68003B681B68FA681343FB607B681B68FA6858
:102F78005A607B681B681C4A934218D07B681B68A0
:102F8800B3F1804F13D07B681B68184A93420ED068
:102F98007B681B68164A934209D07B681B68154AF0
:102FA800934204D07B681B68134A93420CD1BB68D8
:102FB80023F08003BB603B685B68BA681343BB605F
:102FC8007B681B68BA689A607B68012283F83D2099
:102FD8007B68002283F83C20002318461437BD463E
:102FE8005DF8047B704700BF00000140000400400A
:102FF80000080040000C00400040014080B483B04D
:1030080000AF786000BF0C37BD465DF8047B7047A1
:1030180080B483B000AF786000BF0C37BD465DF860
:10302800047B704780B483B000AF786000BF0C3772
:10303800BD465DF8047B704780B485B000AF78600A
:103048000B467B807B681B685B6AFB607B88FA6841
:103058001344FB6000BF7B681B685B6AFA689A428E
:10306800F9D800BF00BF1437BD465DF8047B704730
:103078000FB480B584B000AF0023FB7307F11C03C5
:103088003B600023BB602EE03B681A1D3A601B685A
:103098007B607B68002B02D10123FB7327E07B68F0
:1030A8009B68174A12211846FFF7D8FB7B689B6874
:1030B800144A0E211846FFF7D1FB7B689A687B6893
:1030C8001B7B19461046FFF75BF87B689B68184620
:1030D800FEF798FF7B681A690B49BB6841F8232003
:1030E800BB680133BB60BA68BB699A42CCDBFB7B27
:1030F80018461037BD46BDE8804004B0704700BF91
:10310800013200080D340008580200200EB480B5C2
:1031180087B000AF78600023FB7507F12803FB60D8
:103128007B68DAB2324B1A707B6A013B3B6113E071
:10313800FB681A1DFA601A682E493B6941F823207A
:103148002C4A3B6952F82330002B02D10123FB752E
:1031580009E03B6901333B617B6A5A1E7B68134473
:103168003A699A42E4DBFB7D012B38D010E0214A12
:103178003B6952F8233018681E4A3B6952F82330DD
:103188009B8801221946FEF7FFFA3B6901333B6130
:103198007B6A5A1E7B6813443A699A42E7DB154BEF
:1031A8001B689B680A211846FFF746FF10E0114A82
:1031B8003B6952F8233018680E4A3B6952F82330AD
:1031C8009B8800221946FEF7DFFA3B6901333B6111
:1031D8007B6A5A1E7B6813443A699A42E7DBFB7D97
:1031E80018461C37BD46BDE8804003B0704700BF95
:1031F8009C0000203802002090B585B000AF7860B0
:103208000023FB73DFE0FB7B754A52F823309B6891
:103218007A689A4240F0D480FB7B714A52F8233096
:103228001B7B002B05D17B681B7F012B01D1012360
:1032380000E00023DAB26B4B1A70FB7B684A52F845
:1032480023301B7B042B05D17B681B7F022B01D10C
:10325800012300E00023DAB2634B1A70FB7B604A5B
:1032680052F823301B7B082B05D17B681B7F042B6E
:1032780001D1012300E00023DAB25C4B1A70FB7B1A
:10328800574A52F823301B7B0C2B05D17B681B7FD8
:10329800082B01D1012300E00023DAB2544B1A7045
:1032A800504B1B78002B0BD14F4B1B78002B07D1B1
:1032B8004E4B1B78002B03D14D4B1B78002B7FD036
:1032C800FB7B4C4A9B001344D3ED007AB6EE007AA0
:1032D800F4EE477AF1EE10FA1AD1FB7B464A9B00CE
:1032E80013444FF000021A60FB7B3D4A52F823302A
:1032F8001B7B19467868FFF709FA07EE900AFB7BF3
:10330800F8EE677A3B4A9B001344C3ED007A57E016
:10331800FB7B334A52F823301B7B19467868FFF74A
:10332800F5F907EE900AFB7BF8EE677A334A9B00C3
:103338001344C3ED007AFB7B2F4A9B00134493EDA3
:10334800007AFB7B264A52F823309B68DB6807EE3D
:10335800903AF8EE677A27EE277AFB7B274A9B009C
:103368001344D3ED006AFB7B224A9B001344D3ED40
:10337800007A76EEE77A77EE277A17EE900AFDF76D
:10338800B5F915A3D3E90023FCF722FF02460B4643
:1033980010461946FB7B1A4A52F82340FDF7FEF9FE
:1033A80003462360FB7B134A9B0013444FF07C5277
:1033B8001A60FB7B104A9B0013444FF07C521A6042
:1033C800FB7B0133FB73FB7B072B7FF61CAF00BF36
:1033D80000BF1437BD4690BD9CC420B07268913FB1
:1033E8003802002098020020990200209A0200204A
:1033F8009B0200205C0000207C0000207802002056
:103408005802002080B485B000AF78600023FB73B9
:103418007EE0FB7B444A52F823309B681B68B3F17B
:10342800804F06D17B681B68B3F1804F01D101231F
:1034380000E00023DAB23D4B1A70FB7B3A4A52F89F
:1034480023309B681B683A4A934206D17B681B6805
:10345800374A934201D1012300E00023DAB2354B09
:103468001A70FB7B304A52F823309B681B68324A3B
:10347800934206D17B681B682F4A934201D10123EE
:1034880000E00023DAB22D4B1A70FB7B264A52F873
:1034980023309B681B682A4A934206D17B681B68C5
:1034A800274A934201D1012300E00023DAB2254BD9
:1034B8001A701E4B1B78002B0BD11E4B1B78002B50
:1034C80007D11E4B1B78002B03D11E4B1B78002BFA
:1034D8001BD0FB7B1C4A9B001344D3ED007AB6EE4D
:1034E800007AF4EE477AF1EE10FA0ED0FB7B16491B
:1034F8009A000A44D2ED007AB7EE007A77EE877A1E
:10350800114A9B001344C3ED007AFB7B0133FB7324
:10351800FB7B072B7FF67DAF00BF00BF1437BD468E
:103528005DF8047B704700BF380200209C02002031
:10353800000400409D020020000800409E02002078
:10354800000C00409F0200207C000020024403463B
:10355800934200D1704703F8011BF9E770B50D4D90
:103568000D4C641BA4100026A64209D10B4D0C4C2F
:1035780000F018F8641BA4100026A64205D170BDFF
:1035880055F8043B98470136EEE755F8043B984751
:103598000136F2E7DC350008DC350008DC350008C8
:1035A800E0350008F8B500BFF8BC08BC9E46704777
:0C35B800F8B500BFF8BC08BC9E46704788
:1035C40000000000000000000102030406070809CF
:0835D400A0D2FF7F01000000FE
:0435DC00BD01000825
:0435E0009901000845
:1035E4000000024080000000CC0000200000000029
:1035F400BC0000200000024080000000CC0000203D
:1036040004000000C0000020000002408000000010
:103614008001002000000000C400002000000240DF
:10362400800000008001002008000000C800002085
:103634000024F40010000000010000000000003F1E
:103644000000003F0000003F0000003F0000003F7A
:103654000000003F0000003F0000003F0000003F6A
:103664000000003F0000003F0000003F0000003F5A
:103674000000003F0000003F0000003F0100000088
:04000005080010E5FA
:00000001FF
