:020000040800F2
:10000000000001206D120008090A0008150A000806
:100010001D0A0008250A00082D0A0008000000003B
:10002000000000000000000000000000350A000889
:10003000430A000800000000510A00085F0A000897
:10004000BD120008BD120008BD120008BD12000854
:10005000BD120008BD120008BD120008BD12000844
:10006000BD120008BD120008BD120008BD12000834
:10007000BD120008BD120008BD120008BD12000824
:10008000BD120008BD120008BD12000800000000EB
:10009000000000000000000000000000BD12000889
:1000A000BD1200086D0A0008BD120008BD1200084C
:1000B000BD120008BD120008BD120008BD120008E4
:1000C000BD120008BD120008BD120008BD120008D4
:1000D000BD120008BD120008BD120008000000009B
:1000E000BD120008BD120008BD120008000000008B
:1000F000000000000000000000000000BD12000829
:1001000000000000BD120008BD120008BD1200086A
:1001100000000000000000000000000000000000DF
:10012000BD120008BD120008BD120008BD12000873
:10013000BD120008000000000000000000000000E8
:10014000000000000000000000000000BD120008D8
:10015000BD120008BD120008BD120008BD12000843
:10016000BD120008BD1200080000000000000000E1
:10017000000000000000000000000000000000007F
:1001800000000000BD120008000000000000000098
:04019000BD12000894
:1001940010B5054C237833B9044B13B10448AFF3BD
:1001A40000800123237010BD88000020000000009F
:1001B4005847000808B5034B1BB103490348AFF384
:1001C400008008BD000000008C0000205847000893
:1001D40053B94AB9002908BF00281CBF4FF0FF31AA
:1001E4004FF0FF3000F06AB9ADF1080C6DE904CEB0
:1001F40000F006F8DDF804E0DDE9022304B07047FE
:100204002DE9F047089D0C46002B4ED194468C45B1
:100214008646B2FA82F262D94AB1C2F12003914011
:1002240020FA03F30CFA02FC194300FA02FE4FEA27
:100234001C471FFA8CF6B1FBF7F44FEA1E4307FB89
:10024400141143EA014304FB06F199420AD91CEB59
:10025400030304F1FF3080F01281994240F20F81D0
:10026400023C6344591A1FFA8EF3B1FBF7F007FB03
:10027400101143EA014300FB06F69E420AD91CEB27
:10028400030300F1FF3180F0FC809E4240F2F980CC
:10029400634402389B1B40EA044000211DB1D34053
:1002A4000022C5E90032BDE8F0878B4205D90DB1C3
:1002B400C5E9000100210846F5E7B3FA83F10029F6
:1002C40046D1A34202D39042C0F0F080861A64EB78
:1002D40003030120002DE6D0C5E90063E3E7002A0B
:1002E40040F09080A1EB0C044FEA1C481FFA8CF7F5
:1002F4000121B4FBF8F64FEA1E4308FB164443EA17
:10030400044307FB06F0984208D91CEB030306F1EB
:10031400FF3402D2984200F2CD8026461C1A1FFAFE
:100324008EF3B4FBF8F008FB104443EA044300FBEB
:1003340007F79F4208D91CEB030300F1FF3402D2F4
:100344009F4200F2B0802046DB1B40EA0640A5E74E
:10035400C1F120068B4022FA06F71F4320FA06FC5F
:1003640004FA01F343EA0C03F44000FA01F8380CF0
:100374004FEA1349B4FBF0FE1FFA87FC00FB1E444E
:1003840049EA04440EFB0CF9A14502FA01F20AD928
:100394003C190EF1FF3A80F08480A14540F281803F
:1003A400AEF1020E3C44A4EB09041FFA83F9B4FB3A
:1003B400F0F300FB134449EA044403FB0CFCA4459A
:1003C40007D93C1903F1FF3067D2A44565D9023B34
:1003D4003C4443EA0E40A0FB0293A4EB0C049C4271
:1003E400CE469C4651D34ED055B1B8EB0E0364EBC8
:1003F4000C0404FA06F6CB401E43CC40C5E9006465
:10040400002150E7C2F1200320FA03F10CFA02FCA8
:1004140024FA03F394400C434FEA1C4800FA02FE0A
:100424001FFA8CF7B3FBF8F008FB1031230C43EAF6
:10043400014300FB07F1994208D91CEB030300F1C7
:10044400FF362CD299422AD9023863445B1AA4B2EB
:10045400B3FBF8F108FB113344EA034401FB07F34F
:10046400A34208D91CEB040401F1FF3613D2A342C2
:1004740011D902396444E41A41EA004139E70446D7
:10048400F0E6084606E7C845AED2B9EB020E63EBC8
:10049400070C0138A8E73146EDE7034699E73046F3
:1004A400D4E7D6467FE7634402384DE70646234641
:1004B40008460FE7023E634430E700BF704700BFC1
:1004C40080B584B000AF78600023FB730023BB7356
:1004D4007B68002B02D10123FB7317E07B681B6848
:1004E400184603F053FA03461A46BB7B1343BB7307
:1004F40004F019F802467B685A60BB7B002B03D1D9
:100504007B685B68002B01D10123FB73FB7B1846DE
:100514001037BD4680BD80B584B000AF78603960C7
:100524000023FB730023BB737B68002B02D03B6862
:10053400002B02D10123FB7337E03B689B693A68C7
:10054400104698473B685A693B685A607B681B6849
:10055400184603F093FC0346BB73BB7B002B11D1FD
:100564007B681B683A681146184603F0C1FB0346D2
:100574001A46BB7B1343BB73BB7B002B15D00123F3
:10058400FB7312E07B681B68184603F09FFC03466C
:10059400BB73BB7B012B08D17B681B68184603F037
:1005A400F5F90346BB730123FB73FB7B1846103735
:1005B400BD4680BD80B58AB000AF07F114030022A8
:1005C4001A605A609A60DA601A6100233B614D4BED
:1005D4001B6B4C4A43F0040313634A4B1B6B03F03D
:1005E40004033B613B690023FB60464B1B6B454A9C
:1005F40043F080031363434B1B6B03F08003FB60E6
:10060400FB680023BB603F4B1B6B3E4A43F0010376
:1006140013633C4B1B6B03F00103BB60BB680023FB
:100624007B60384B1B6B374A43F002031363354B33
:100634001B6B03F002037B607B6800224FF4404194
:10064400314801F067F900223321304801F062F9A2
:1006540001224FF480512D4801F05CF900224FF43F
:1006640040612B4801F056F94FF440437B6101236C
:10067400BB610223FB6100233B6207F114031946AB
:10068400214800F0C3FF33237B610123BB610223B4
:10069400FB6100233B6207F1140319461B4800F079
:1006A400B5FF4FF480637B614FF48813BB61002373
:1006B400FB6107F114031946144800F0A7FF4FF437
:1006C40080537B610123BB610123FB6100233B62F7
:1006D40007F1140319460D4800F098FF4FF44063E6
:1006E4007B610123BB610223FB6100233B6207F1B1
:1006F40014031946064800F089FF00BF2837BD4699
:1007040080BD00BF003802400008024000040240DF
:100714000000024080B500AF00F0D0FD00F032F8D8
:10072400FFF748FF00F0F2F900F0F0FA00F046FAA3
:1007340000F098FA00F04EFB00F0A0FB00F0BCF8CB
:100744000D48FFF7BDFE03461A460C4B1B781343B6
:10075400DAB20A4B1A700A490748FFF7DCFE03466F
:100764001A46064B1B781343DAB2044B1A70642002
:1007740000F016FE00BFEEE708000020A4000020F1
:100784001000002080B594B000AF07F120033022A0
:100794000021184603F09AFF07F10C0300221A60A7
:1007A4005A609A60DA601A610023BB60294B1B6CA3
:1007B400284A43F080531364264B1B6C03F0805388
:1007C400BB60BB6800237B60234B1B6823F440435E
:1007D400214A43F4004313601F4B1B6803F4404356
:1007E4007B607B6801233B624FF4A0237B6202237E
:1007F400BB634FF48003FB6319233B64A8237B642E
:100804000223BB640423FB6407F12003184601F0B0
:100814009BF80346002B01D000F048F80F23FB603F
:1008240002233B6100237B614FF48053BB610023AF
:10083400FB6107F10C030221184601F0FDFA03469F
:10084400002B01D000F032F801F0DCFB00BF503780
:10085400BD4680BD003802400070004080B483B0C3
:1008640000AF78607B6801221A707B6804221A72D8
:100874007B685B7A0133DAB27B685A727B685B7A95
:100884000133DAB27B689A727B689B7A0133DAB2FD
:100894007B68DA727B68DB7A0133DAB27B681A73BD
:1008A40000BF0C37BD465DF8047B704780B400AFD1
:1008B40072B600BF00BFFDE780B500AF174B184A02
:1008C4001A60164B4FF482725A60144B00229A60DD
:1008D400124B0022DA60114B00221A610F4B0022E6
:1008E4005A610E4B4FF400729A610C4B1022DA617C
:1008F4000A4B00221A62094B00225A62074B00225B
:100904009A62064B0A22DA62044801F069FC034643
:10091400002B01D0FFF7CAFF00BF80BDA800002054
:100924000038004080B58AB000AF786007F1140346
:1009340000221A605A609A60DA601A617B681B6848
:10094400194A93422CD100233B61184B1B6C174A64
:1009540043F480431364154B1B6C03F480433B61E5
:100964003B690023FB60114B1B6B104A43F00203ED
:1009740013630E4B1B6B03F00203FB60FB684FF425
:1009840060437B610223BB610023FB6103233B6261
:1009940005237B6207F114031946054800F036FE6F
:1009A40000BF2837BD4680BD0038004000380240F3
:1009B4000004024080B483B000AF00237B60104B7E
:1009C4005B6C0F4A43F4804353640D4B5B6C03F43C
:1009D40080437B607B6800233B60094B1B6C084AA7
:1009E40043F080531364064B1B6C03F080533B604D
:1009F4003B6800BF0C37BD465DF8047B704700BF01
:100A04000038024080B500AF01F0CEFB00BFFDE727
:100A140080B400AF00BFFDE780B400AF00BFFDE7C6
:100A240080B400AF00BFFDE780B400AF00BFFDE7B6
:100A340080B400AF00BFBD465DF8047B704780B44E
:100A440000AF00BFBD465DF8047B704780B400AFC3
:100A540000BFBD465DF8047B704780B500AF00F071
:100A64007FFC00BF80BD000080B500AF024802F0EB
:100A74000EFB00BF80BD00BF2C01002080B586B0F6
:100A840000AF7860144A154BD31A7B617B693B61D4
:100A9400134B1B68002B02D1114B124A1A60104BE6
:100AA4001A687B6813443A699A4207D203F026FE17
:100AB40003460C221A604FF0FF3309E0084B1B6811
:100AC400FB60074B1A687B681344054A1360FB6894
:100AD40018461837BD4680BD000001200004000000
:100AE400280100203804002080B400AF064BD3F85E
:100AF4008830054A43F47003C2F8883000BFBD460D
:100B04005DF8047B704700BF00ED00E080B58CB059
:100B140000AF07F10C0324220021184603F0D6FD90
:100B24003B1D00221A605A60224B234A1A60214B53
:100B340003225A601F4B00229A601E4B4AF6E03291
:100B4400DA601C4B00221A611A4B00225A61194BBD
:100B540000229A610323FB6000233B6101237B6134
:100B64000023BB610023FB6100233B6201237B6202
:100B74000023BB620023FB6207F10C0319460D48F6
:100B840002F0DFF90346002B01D0FFF78FFE0023AC
:100B94007B600023BB603B1D1946064802F074FECF
:100BA4000346002B01D0FFF781FE00BF3037BD465E
:100BB40080BD00BF2C0100200000014080B58CB036
:100BC40000AF07F10C0324220021184603F07EFD38
:100BD4003B1D00221A605A60214B4FF080421A607C
:100BE4001F4B03225A601E4B00229A601C4B4AF68C
:100BF400E032DA601A4B00221A61194B00229A6122
:100C04000323FB6000233B6101237B610023BB6161
:100C14000023FB6100233B6201237B620023BB6250
:100C24000023FB6207F10C0319460D4802F089F911
:100C34000346002B01D0FFF739FE00237B6000231D
:100C4400BB603B1D1946064802F01EFE0346002BFE
:100C540001D0FFF72BFE00BF3037BD4680BD00BF7B
:100C64007401002080B58CB000AF07F10C0324227E
:100C74000021184603F02AFD3B1D00221A605A6029
:100C8400204B214A1A601F4B03225A601D4B00223D
:100C94009A601C4B4AF6E032DA601A4B00221A6161
:100CA400184B00229A610323FB6000233B6101235C
:100CB4007B610023BB610023FB6100233B620123B2
:100CC4007B620023BB620023FB6207F10C0319461D
:100CD4000C4802F036F90346002B01D0FFF7E6FD7D
:100CE40000237B600023BB603B1D1946054802F0CE
:100CF400CBFD0346002B01D0FFF7D8FD00BF3037F2
:100D0400BD4680BDBC0100200004004080B58AB00F
:100D140000AF07F1200300221A605A603B1D002235
:100D24001A605A609A60DA601A615A619A61274BB4
:100D3400274A1A60254B00225A60244B00229A60ED
:100D4400224B41F26702DA60204B00221A611F4BEA
:100D540000229A611D4802F0A5F80346002B01D039
:100D6400FFF7A4FD00233B6200237B6207F120030D
:100D74001946164802F088FD0346002B01D0FFF700
:100D840095FD60237B600023BB600023FB60002390
:100D94007B613B1D082219460C4802F069FA0346A0
:100DA400002B01D0FFF782FD3B1D0C22194607489A
:100DB40002F05EFA0346002B01D0FFF777FD0348EB
:100DC40000F0F0F900BF2837BD4680BD04020020C2
:100DD4000008004080B58CB000AF07F10C0324225A
:100DE4000021184603F072FC3B1D00221A605A6071
:100DF400204B214A1A601F4B03225A601D4B0022CC
:100E04009A601C4B4AF6E032DA601A4B00221A61EF
:100E1400184B00229A610323FB6000233B610123EA
:100E24007B610023BB610023FB6100233B62012340
:100E34007B620023BB620023FB6207F10C031946AB
:100E44000C4802F07EF80346002B01D0FFF72EFD7C
:100E540000237B600023BB603B1D1946054802F05C
:100E640013FD0346002B01D0FFF720FD00BF3037F0
:100E7400BD4680BD4C020020000C004080B588B007
:100E840000AF3B1D00221A605A609A60DA601A6152
:100E94005A619A611F4B204A1A601E4B00225A6005
:100EA4001C4B00229A601B4B41F26702DA60194B1B
:100EB40000221A61174B00229A61164801F0F2FFD2
:100EC4000346002B01D0FFF7F1FC60237B60002375
:100ED400BB600023FB6000237B613B1D002219469D
:100EE4000C4802F0C5F90346002B01D0FFF7DEFCE5
:100EF4003B1D04221946074802F0BAF90346002BA9
:100F040001D0FFF7D3FC034800F04CF900BF2037B1
:100F1400BD4680BD940200200040014080B590B0E1
:100F240000AF786007F12C0300221A605A609A60BF
:100F3400DA601A617B681B68784A934235D10023D2
:100F4400BB62774B5B6C764A43F001035364744B8A
:100F54005B6C03F00103BB62BB6A00237B62704BD2
:100F64001B6B6F4A43F0010313636D4B1B6B03F060
:100F740001037B627B6A4FF44073FB6202233B6391
:100F840002237B630223BB630123FB6307F12C036E
:100F94001946644800F03AFB00220F21192000F0A2
:100FA400FEFA192000F017FBB3E07B681B68B3F16D
:100FB400804F4BD100233B62594B1B6C584A43F082
:100FC40001031364564B1B6C03F001033B623B6A41
:100FD4000023FB61524B1B6B514A43F00103136323
:100FE4004F4B1B6B03F00103FB61FB690023BB61E7
:100FF4004B4B1B6B4A4A43F002031363484B1B6B76
:1010040003F00203BB61BB694FF40043FB6202239C
:101014003B6302237B630223BB630123FB6307F16E
:101024002C0319463F4800F0F1FA0823FB6202231F
:101034003B6302237B630223BB630123FB6307F14E
:101044002C031946384800F0E1FA62E07B681B681B
:10105400364A93422CD100237B61314B1B6C304ABE
:1010640043F0020313642E4B1B6C03F002037B61F9
:101074007B6900233B612A4B1B6B294A43F0010324
:101084001363274B1B6B03F001033B613B69C023D4
:10109400FB6202233B6302237B630223BB630223C1
:1010A400FB6307F12C0319461E4800F0AFFA30E049
:1010B4007B681B681E4A93422BD10023FB60184BAC
:1010C4001B6C174A43F008031364154B1B6C03F0A5
:1010D4000803FB60FB680023BB60114B1B6B104AC9
:1010E40043F0010313630E4B1B6B03F00103BB605E
:1010F400BB680323FB6202233B6302237B6302235B
:10110400BB630223FB6307F12C031946054800F077
:101114007DFA00BF4037BD4680BD00BF00000140DE
:101124000038024000000240000402400004004075
:10113400000C004080B485B000AF78607B681B6809
:10114400154A93420ED10023FB60144B1B6C134AC7
:1011540043F004031364114B1B6C03F00403FB60A2
:10116400FB6812E07B681B680D4A93420DD1002393
:10117400BB600A4B5B6C094A43F480335364074BEE
:101184005B6C03F48033BB60BB6800BF1437BD469F
:101194005DF8047B704700BF00080040003802403F
:1011A4000040014080B58AB000AF786007F11403B5
:1011B40000221A605A609A60DA601A617B681B68C0
:1011C400244A93421FD100233B61234B1B6B224AC9
:1011D40043F002031363204B1B6B03F002033B61D8
:1011E4003B694FF440737B610223BB610223FB61C3
:1011F40002233B6202237B6207F11403194617485A
:1012040000F004FA22E07B681B68154A93421DD162
:101214000023FB60104B1B6B0F4A43F00103136365
:101224000D4B1B6B03F00103FB60FB680C237B611C
:101234000223BB610223FB6102233B6203237B6223
:1012440007F114031946074800F0E0F900BF2837F6
:10125400BD4680BD00080040003802400004024042
:101264000040014000000240DFF834D0FFF73CFCAE
:101274000C480D490D4A002302E0D458C4500433ED
:10128400C4188C42F9D30A4A0A4C002301E01360C3
:101294000432A242FBD303F037FAFFF73BFA70475C
:1012A400000001200000002088000020944700086E
:1012B4008800002034040020FEE7000080B500AF61
:1012C4000E4B1B680D4A43F4007313600B4B1B68F1
:1012D4000A4A43F480631360084B1B68074A43F4CB
:1012E40080731360032000F04FF90F2000F008F81A
:1012F400FFF760FB0023184680BD00BF003C02409E
:1013040080B582B000AF7860124B1A68124B1B781C
:1013140019464FF47A73B3FBF1F3B2FBF3F31846B7
:1013240000F067F90346002B01D001230EE07B682F
:101334000F2B0AD8002279684FF0FF3000F02FF904
:10134400064A7B681360002300E00123184608372F
:10135400BD4680BD2C000020340000203000002059
:1013640080B400AF064B1B781A46064B1B68134427
:10137400044A136000BFBD465DF8047B704700BF9C
:1013840034000020DC02002080B400AF034B1B6853
:101394001846BD465DF8047B704700BFDC020020A0
:1013A40080B584B000AF7860FFF7EEFFB8607B686B
:1013B400FB60FB68B3F1FF3F05D00A4B1B781A466C
:1013C400FB681344FB6000BFFFF7DEFF0246BB6807
:1013D400D31AFA689A42F7D800BF00BF1037BD4647
:1013E40080BD00BF3400002080B485B000AF7860B9
:1013F4007B6803F00703FB600C4BDB68BB60BA68D7
:101404004FF6FF031340BB60FB681A02BB6813432B
:1014140043F0BF6343F40033BB60044ABB68D3604A
:1014240000BF1437BD465DF8047B704700ED00E053
:1014340080B400AF044BDB681B0A03F007031846B3
:10144400BD465DF8047B704700ED00E080B483B0D6
:1014540000AF0346FB7197F90730002B0BDBFB79D8
:1014640003F01F02074997F907305B09012000FACE
:1014740002F241F8232000BF0C37BD465DF8047B1F
:10148400704700BF00E100E080B483B000AF0346C2
:101494003960FB7197F90730002B0ADB3B68DAB23D
:1014A4000C4997F907301201D2B20B4483F8002398
:1014B4000AE03B68DAB20849FB7903F00F03043B06
:1014C4001201D2B20B441A7600BF0C37BD465DF848
:1014D400047B704700E100E000ED00E080B489B0D7
:1014E40000AFF860B9607A60FB6803F00703FB6142
:1014F400FB69C3F10703042B28BF0423BB61FB6909
:101504000433062B02D9FB69033B00E000237B6113
:101514004FF0FF32BB6902FA03F3DA43BB681A40A7
:101524007B699A404FF0FF317B6901FA03F3D94399
:101534007B680B40134318462437BD465DF8047B93
:101544007047000080B582B000AF78607B68013BD3
:10155400B3F1807F01D301230FE00A4A7B68013B8A
:1015640053600F214FF0FF30FFF78EFF054B002231
:101574009A60044B07221A60002318460837BD46B8
:1015840080BD00BF10E000E080B582B000AF78609D
:101594007868FFF729FF00BF0837BD4680BD80B5D6
:1015A40086B000AF0346B9607A60FB7300237B61A9
:1015B400FFF73EFF78617A68B9687869FFF78EFFB4
:1015C400024697F90F3011461846FFF75DFF00BF3A
:1015D4001837BD4680BD80B582B000AF0346FB71AD
:1015E40097F907301846FFF731FF00BF0837BD46AB
:1015F40080BD80B582B000AF78607868FFF7A2FF45
:10160400034618460837BD4680BD000080B489B043
:1016140000AF7860396000237B6100233B610023C5
:10162400BB610023FB6159E10122FB6902FA03F368
:101634007B613B681B687A6913403B613A697B694B
:101644009A4240F048813B685B6803F00303012B36
:1016540005D03B685B6803F00303022B30D17B6841
:101664009B68BB61FB695B00032202FA03F3DB4363
:10167400BA691340BB613B68DA68FB695B0002FA34
:1016840003F3BA691343BB617B68BA699A607B68E8
:101694005B68BB610122FB6902FA03F3DB43BA69AD
:1016A4001340BB613B685B681B0903F00102FB69E3
:1016B40002FA03F3BA691343BB617B68BA695A60DF
:1016C4003B685B6803F00303032B17D07B68DB687C
:1016D400BB61FB695B00032202FA03F3DB43BA69D3
:1016E4001340BB613B689A68FB695B0002FA03F331
:1016F400BA691343BB617B68BA69DA603B685B68AB
:1017040003F00303022B23D1FB69DA087B68083258
:1017140053F82230BB61FB6903F007039B000F22DF
:1017240002FA03F3DB43BA691340BB613B681A69ED
:10173400FB6903F007039B0002FA03F3BA6913433E
:10174400BB61FB69DA087B680832B96943F8221087
:101754007B681B68BB61FB695B00032202FA03F32D
:10176400DB43BA691340BB613B685B6803F0030267
:10177400FB695B0002FA03F3BA691343BB617B683C
:10178400BA691A603B685B6803F44033002B00F0CD
:10179400A2800023FB60574B5B6C564A43F48043A2
:1017A4005364544B5B6C03F48043FB60FB68524A04
:1017B400FB699B08023352F82330BB61FB6903F0D9
:1017C40003039B000F2202FA03F3DB43BA691340BD
:1017D400BB617B68494A934219D07B68484A93426B
:1017E40013D07B68474A93420DD07B68464A9342A4
:1017F40007D07B68454A934201D1042308E00723BC
:1018040006E0032304E0022302E0012300E00023B6
:10181400FA6902F0030292009340BA691343BB6170
:101824003549FB699B080233BA6941F82320384BD8
:101834009B68BB613B69DB43BA691340BB613B688E
:101844005B6803F48013002B03D0BA693B6913432C
:10185400BB612F4ABB6993602D4BDB68BB613B695D
:10186400DB43BA691340BB613B685B6803F4001354
:10187400002B03D0BA693B691343BB61244ABB699B
:10188400D360234B5B68BB613B69DB43BA6913409C
:10189400BB613B685B6803F40033002B03D0BA6977
:1018A4003B691343BB611A4ABB695360184B1B68FD
:1018B400BB613B69DB43BA691340BB613B685B684E
:1018C40003F48033002B03D0BA693B691343BB6133
:1018D4000F4ABB691360FB690133FB61FB690F2B82
:1018E4007FF6A2AE00BF00BF2437BD465DF8047B7F
:1018F400704700BF00380240003801400000024039
:101904000004024000080240000C024000100240A3
:10191400003C014080B483B000AF78600B467B800C
:1019240013467B707B78002B03D07A887B689A619E
:1019340003E07B881A047B689A6100BF0C37BD46BC
:101944005DF8047B7047000080B586B000AF786016
:101954007B68002B01D1012367E27B681B6803F0DD
:101964000103002B75D0884B9B6803F00C03042BF8
:101974000CD0854B9B6803F00C03082B12D1824BCF
:101984005B6803F48003B3F5800F0BD17E4B1B68B7
:1019940003F40033002B5BD07B685B68002B57D1CA
:1019A400012342E27B685B68B3F5803F06D1764B46
:1019B4001B68754A43F4803313601DE07B685B68E1
:1019C400B3F5A02F0CD1704B1B686F4A43F48023EE
:1019D40013606D4B1B686C4A43F4803313600BE057
:1019E400694B1B68684A23F480331360664B1B6899
:1019F400654A23F4802313607B685B68002B13D053
:101A0400FFF7C2FC386108E0FFF7BEFC02463B6901
:101A1400D31A642B01D9032307E25B4B1B6803F43D
:101A24000033002BF0D014E0FFF7AEFC386108E07F
:101A3400FFF7AAFC02463B69D31A642B01D903239E
:101A4400F3E1514B1B6803F40033002BF0D100E0A9
:101A540000BF7B681B6803F00203002B63D04A4B72
:101A64009B6803F00C03002B0BD0474B9B6803F0DF
:101A74000C03082B1CD1444B5B6803F48003002B3C
:101A840016D1414B1B6803F00203002B05D07B6881
:101A9400DB68012B01D00123C7E13B4B1B6823F01A
:101AA400F8027B681B69DB00374913430B603AE09B
:101AB4007B68DB68002B20D0344B01221A60FFF7CF
:101AC40063FC386108E0FFF75FFC02463B69D31A08
:101AD400022B01D90323A8E12B4B1B6803F002035B
:101AE400002BF0D0284B1B6823F0F8027B681B699D
:101AF400DB00254913430B6015E0244B00221A60D8
:101B0400FFF742FC386108E0FFF73EFC02463B6900
:101B1400D31A022B01D9032387E11B4B1B6803F063
:101B24000203002BF0D17B681B6803F00803002B31
:101B340036D07B685B69002B16D0154B01221A60E6
:101B4400FFF722FC386108E0FFF71EFC02463B6900
:101B5400D31A022B01D9032367E10B4B5B6F03F00C
:101B64000203002BF0D01BE0094B00221A60FFF7A0
:101B74000BFC38610EE0FFF707FC02463B69D31A01
:101B8400022B07D9032350E10038024000004742EA
:101B9400800E4742884B5B6F03F00203002BEAD1AF
:101BA4007B681B6803F00403002B00F0978000237C
:101BB400FB75814B1B6C03F08053002B0FD100236A
:101BC400BB607D4B1B6C7C4A43F0805313647A4B9F
:101BD4001B6C03F08053BB60BB680123FB75774B20
:101BE4001B6803F48073002B18D1744B1B68734A71
:101BF40043F480731360FFF7C7FB386108E0FFF715
:101C0400C3FB02463B69D31A022B01D903230CE11F
:101C14006A4B1B6803F48073002BF0D07B689B68CD
:101C2400012B06D1644B1B6F634A43F00103136716
:101C34001CE07B689B68052B0CD15F4B1B6F5E4AD5
:101C440043F0040313675C4B1B6F5B4A43F00103CF
:101C540013670BE0584B1B6F574A23F001031367BC
:101C6400554B1B6F544A23F0040313677B689B682E
:101C7400002B15D0FFF788FB38610AE0FFF784FBDF
:101C840002463B69D31A41F28832934201D90323B5
:101C9400CBE0494B1B6F03F00203002BEED014E0A2
:101CA400FFF772FB38610AE0FFF76EFB02463B69FF
:101CB400D31A41F28832934201D90323B5E03E4B53
:101CC4001B6F03F00203002BEED1FB7D012B05D12A
:101CD400394B1B6C384A23F0805313647B689B692F
:101CE400002B00F0A180344B9B6803F00C03082BFD
:101CF4005CD07B689B69022B41D1314B00221A6076
:101D0400FFF742FB386108E0FFF73EFB02463B6900
:101D1400D31A022B01D9032387E0274B1B6803F056
:101D24000073002BF0D17B68DA697B681B6A1A4365
:101D34007B685B6A9B011A437B689B6A5B08013B77
:101D44001B041A437B68DB6A1B061B4913434B6065
:101D54001B4B01221A60FFF717FB386108E0FFF7FD
:101D640013FB02463B69D31A022B01D903235CE01F
:101D7400114B1B6803F00073002BF0D054E0104BA0
:101D840000221A60FFF700FB386108E0FFF7FCFA55
:101D940002463B69D31A022B01D9032345E0064BC3
:101DA4001B6803F00073002BF0D13DE07B689B6956
:101DB400012B07D1012338E00038024000700040B5
:101DC400600047421B4B5B68FB607B689B69012B8F
:101DD40028D0FB6803F480027B68DB699A4221D136
:101DE400FB6803F03F027B681B6A9A421AD1FA68C7
:101DF40047F6C07313407A68526A9201934211D134
:101E0400FB6803F440327B689B6A5B08013B1B045C
:101E14009A4207D1FB6803F070627B68DB6A1B0699
:101E24009A4201D0012300E0002318461837BD462A
:101E340080BD00BF0038024080B584B000AF786038
:101E440039607B68002B01D10123CCE0684B1B680F
:101E540003F007033A689A420CD9654B3A68D2B248
:101E64001A70634B1B6803F007033A689A4201D067
:101E74000123B8E07B681B6803F00203002B20D029
:101E84007B681B6803F00403002B05D0594B9B6847
:101E9400584A43F4E05393607B681B6803F00803DB
:101EA400002B05D0534B9B68524A43F46043936024
:101EB400504B9B6823F0F0027B689B684D491343A9
:101EC4008B607B681B6803F00103002B44D07B68A4
:101ED4005B68012B07D1474B1B6803F40033002BCD
:101EE40019D101237FE07B685B68022B03D07B68F8
:101EF4005B68032B07D13F4B1B6803F00073002B77
:101F040009D101236FE03B4B1B6803F00203002B54
:101F140001D1012367E0374B9B6823F003027B6800
:101F24005B68344913438B60FFF72EFAF8600AE0CC
:101F3400FFF72AFA0246FB68D31A41F28832934229
:101F440001D903234FE02B4B9B6803F00C027B6801
:101F54005B689B009A42EBD1254B1B6803F0070397
:101F64003A689A420CD2224B3A68D2B21A70204B89
:101F74001B6803F007033A689A4201D0012332E058
:101F84007B681B6803F00403002B08D0194B9B6883
:101F940023F4E0527B68DB68164913438B607B684B
:101FA4001B6803F00803002B09D0124B9B6823F431
:101FB40060427B681B69DB000E4913438B6000F0B1
:101FC4002DF802460B4B9B681B0903F00F030A49CB
:101FD400CB5C22FA03F3094A1360094B1B681846C9
:101FE400FFF78EF9002318461037BD4680BD00BFA9
:101FF400003C024000380240744700082C000020D6
:102004003000002080B400AF034B01221A6000BFEF
:10201400BD465DF8047B70474C0047422DE9B04F44
:1020240090B000AF00237B630023FB6300233B637A
:102034000023BB63594B9B6803F00C03082B0DD0A2
:10204400082B00F2A180002B02D0042B03D09BE0CC
:10205400534BBB639BE0534BBB6398E04F4B5B68B4
:1020640003F03F037B634D4B5B6803F48003002B59
:1020740028D04A4B5B689B0900223B627A623B6A28
:10208400C3F308000021474B03FB01F2002300FBCC
:1020940003F31344434AA0FB0212FA620A46BA62EB
:1020A400FA6A1344FB627B6B0022BB61FA61D7E9D5
:1020B4000623D7E90A01FEF78BF802460B461346BE
:1020C400FB6353E0354B5B689B0900223B617A61FB
:1020D4003B69C3F3080A4FF0000B52465B464FF0CE
:1020E40000004FF00001590141EAD261500102465B
:1020F4000B46B2EB0A0863EB0B094FF000024FF0FA
:1021040000034FEA891343EA98634FEA8812B2EB5B
:10211400080463EB09054FF000024FF00003EB00E5
:1021240043EA5473E20014461D4614EB0A033B6071
:1021340045EB0B037B604FF000024FF00003D7E93F
:10214400004529468B02214643EA915321468A02DF
:10215400104619467B6B0022BB60FA60D7E9022364
:10216400FEF736F802460B461346FB630B4B5B68DF
:102174001B0C03F0030301335B003B63FA6B3B6B03
:10218400B2FBF3F3BB6302E0054BBB6300BFBB6B65
:1021940018464037BD46BDE8B08F00BF0038024046
:1021A4000024F40040787D0180B500AF064BDB6865
:1021B40003F08003802B04D100F00AF8034B802243
:1021C4001A7000BF80BD00BF003802400E380240C4
:1021D40080B400AF00BFBD465DF8047B70470000CB
:1021E40080B582B000AF78607B68002B01D10123F9
:1021F4009BE07B685B6A002B08D17B685B68B3F566
:10220400827F09D07B680022DA6105E07B680022C6
:102214001A617B6800225A617B6800229A627B689B
:1022240093F85130DBB2002B26D17B68002283F86F
:1022340050207B683F4A9A657B683F4ADA657B6831
:102244003E4A1A667B683E4A5A667B683D4A9A66ED
:102254007B683D4ADA667B683C4A1A677B683C4A7D
:102264005A677B689B6F002B02D17B68394A9A6757
:102274007B689B6F786898477B68022283F85120BB
:102284007B681B681A687B681B6822F040021A602E
:102294007B685B6803F482727B689B6803F4044385
:1022A4001A437B68DB6803F400631A437B681B6989
:1022B40003F002031A437B685B6903F001031A43CA
:1022C4007B689B6903F400731A437B68DB6903F042
:1022D40038031A437B681B6A03F0800342EA030154
:1022E4007B689B6A03F400527B681B680A431A608C
:1022F4007B689B691B0C03F004017B685B6A03F039
:1023040010027B681B680A435A607B681B68DA69A1
:102314007B681B6822F40062DA617B6800225A65DC
:102324007B68012283F85120002318460837BD46F4
:1023340080BD00BF692B00087D2B0008912B00088D
:10234400A52B0008B92B0008CD2B0008E12B0008B1
:10235400F52B00082909000880B588B000AFF860A3
:10236400B9603B601346FB80FFF70EF8F861FB8809
:102374007B83FB6893F85130DBB2012B01D002233D
:102384002AE1BB68002B02D0FB88002B01D101237A
:1023940022E1FB6893F85030012B01D102231BE1A9
:1023A400FB68012283F85020FB68032283F8512044
:1023B400FB6800225A65FB68BA681A63FB68FA88EE
:1023C4009A86FB68FA88DA86FB6800229A63FB68BF
:1023D40000229A87FB680022DA87FB6800225A648D
:1023E400FB6800221A64FB689B68B3F5004F0FD1A9
:1023F400FB681B681A68FB681B6822F040021A60BD
:10240400FB681B681A68FB681B6842F480421A6008
:10241400FB681B681B6803F04003402B07D0FB6874
:102424001B681A68FB681B6842F040021A60FB686C
:10243400DB68B3F5006F52D1FB685B68002B02D0F8
:102444007B8B012B45D1FB681B6B1A88FB681B68CF
:10245400DA60FB681B6B9A1CFB681A63FB68DB8EF3
:102464009BB2013B9AB2FB68DA8632E0FB681B68D8
:102474009B6803F00203022B12D1FB681B6B1A88C2
:10248400FB681B68DA60FB681B6B9A1CFB681A63A9
:10249400FB68DB8E9BB2013B9AB2FB68DA8618E0DC
:1024A400FEF772FF0246FB69D31A3A689A4203D8D0
:1024B4003B68B3F1FF3F02D13B68002B09D1FB68B5
:1024C400012283F85120FB68002283F85020032363
:1024D40082E0FB68DB8E9BB2002BC7D153E0FB6824
:1024E4005B68002B02D07B8B012B47D1FB681A6BF6
:1024F400FB681B680C3312781A70FB681B6B5A1C40
:10250400FB681A63FB68DB8E9BB2013B9AB2FB68E3
:10251400DA8633E0FB681B689B6803F00203022B36
:1025240013D1FB681A6BFB681B680C3312781A70A2
:10253400FB681B6B5A1CFB681A63FB68DB8E9BB23F
:10254400013B9AB2FB68DA8618E0FEF71DFF0246EB
:10255400FB69D31A3A689A4203D83B68B3F1FF3F48
:1025640002D13B68002B09D1FB68012283F851207A
:10257400FB68002283F8502003232DE0FB68DB8EE8
:102584009BB2002BC6D1FA693968F86800F036FCB2
:102594000346002B02D0FB6820225A65FB689B6827
:1025A400002B0AD100237B61FB681B68DB687B611D
:1025B400FB681B689B687B617B69FB68012283F86D
:1025C4005120FB68002283F85020FB685B6D002BD0
:1025D40001D0012300E0002318462037BD4680BD0A
:1025E40080B588B002AFF860B9603B601346FB80E9
:1025F400FB6893F85130DBB2012B01D0022304E1D4
:10260400FB685B68B3F5827F12D1FB689B68002B83
:102614000ED1FB68042283F85120FA883B680093AA
:102624001346BA68B968F86800F0F3F80346ECE0BA
:10263400FEF7AAFE7861BB68002B02D0FB88002B52
:1026440001D10123E1E0FB6893F85030012B01D163
:102654000223DAE0FB68012283F85020FB6804229D
:1026640083F85120FB6800225A65FB68BA689A63B4
:10267400FB68FA889A87FB68FA88DA87FB68002285
:102684001A63FB6800229A86FB680022DA86FB68DC
:1026940000221A64FB6800225A64FB689B68B3F545
:1026A400004F0FD1FB681B681A68FB681B6822F097
:1026B40040021A60FB681B681A68FB681B6822F4F6
:1026C40080421A60FB681B681B6803F04003402BC0
:1026D40007D0FB681B681A68FB681B6842F040025D
:1026E4001A60FB68DB68002B70D135E0FB681B685F
:1026F4009B6803F00103012B15D1FB681B6803F1F0
:102704000C02FB689B6B1278D2B21A70FB689B6B4D
:102714005A1CFB689A63FB68DB8F9BB2013B9AB23D
:10272400FB68DA8718E0FEF72FFE02467B69D31AAE
:102734003A689A4203D83B68B3F1FF3F02D13B6841
:10274400002B09D1FB68012283F85120FB68002289
:1027540083F85020032358E0FB68DB8F9BB2002BE7
:10276400C4D138E0FB681B689B6803F00103012BAC
:1027740013D1FB681B68DA68FB689B6B92B21A8002
:10278400FB689B6B9A1CFB689A63FB68DB8F9BB2AC
:10279400013B9AB2FB68DA8718E0FEF7F5FD0246C2
:1027A4007B69D31A3A689A4203D83B68B3F1FF3F76
:1027B40002D13B68002B09D1FB68012283F8512028
:1027C400FB68002283F8502003231EE0FB68DB8FA4
:1027D4009BB2002BC6D17A693968F86800F0A8FA70
:1027E4000346002B02D0FB6820225A65FB680122B5
:1027F40083F85120FB68002283F85020FB685B6D4E
:10280400002B01D0012300E0002318461837BD46F1
:1028140080BD80B58AB000AFF860B9607A607B8013
:1028240001237B62FEF7B0FD3862FB6893F85130F8
:10283400FB77FB685B68BB617B88FB82FB7F012BBA
:102844000CD0BB69B3F5827F06D1FB689B68002B73
:1028540002D1FB7F042B01D002237FE1BB68002B54
:1028640005D07B68002B02D07B88002B01D101238B
:1028740074E1FB6893F85030012B01D102236DE120
:10288400FB68012283F85020FB6893F85130DBB2D7
:10289400042B03D0FB68052283F85120FB68002237
:1028A4005A65FB687A689A63FB687A88DA87FB68FA
:1028B4007A889A87FB68BA681A63FB687A88DA862A
:1028C400FB687A889A86FB6800221A64FB680022F7
:1028D4005A64FB681B681B6803F04003402B07D055
:1028E400FB681B681A68FB681B6842F040021A60A8
:1028F400FB68DB68B3F5006F7ED1FB685B68002B77
:1029040002D0FB8A012B6CD1FB681B6B1A88FB6815
:102914001B68DA60FB681B6B9A1CFB681A63FB6814
:10292400DB8E9BB2013B9AB2FB68DA8659E0FB6806
:102934001B689B6803F00203022B1BD1FB68DB8E30
:102944009BB2002B16D07B6A012B13D1FB681B6B47
:102954001A88FB681B68DA60FB681B6B9A1CFB68AF
:102964001A63FB68DB8E9BB2013B9AB2FB68DA8682
:1029740000237B62FB681B689B6803F00103012B47
:1029840019D1FB68DB8F9BB2002B14D0FB681B684A
:10299400DA68FB689B6B92B21A80FB689B6B9A1C8B
:1029A400FB689A63FB68DB8F9BB2013B9AB2FB68BE
:1029B400DA8701237B62FEF7E7FC02463B6AD31AFF
:1029C4003A6B9A420DD83B6BB3F1FF3F09D0FB68D9
:1029D400012283F85120FB68002283F8502003234E
:1029E400BCE0FB68DB8E9BB2002BA0D1FB68DB8FC5
:1029F4009BB2002B9BD182E0FB685B68002B02D06A
:102A0400FB8A012B71D1FB681A6BFB681B680C33C2
:102A140012781A70FB681B6B5A1CFB681A63FB68FC
:102A2400DB8E9BB2013B9AB2FB68DA865DE0FB6801
:102A34001B689B6803F00203022B1CD1FB68DB8E2E
:102A44009BB2002B17D07B6A012B14D1FB681A6B45
:102A5400FB681B680C3312781A70FB681B6B5A1CDA
:102A6400FB681A63FB68DB8E9BB2013B9AB2FB687E
:102A7400DA8600237B62FB681B689B6803F0010312
:102A8400012B19D1FB68DB8F9BB2002B14D0FB68A0
:102A94001B68DA68FB689B6BD2B21A70FB689B6B8D
:102AA4005A1CFB689A63FB68DB8F9BB2013B9AB2AA
:102AB400FB68DA8701237B62FEF766FC02463B6A09
:102AC400D31A3A6B9A4203D83B6BB3F1FF3F02D15E
:102AD4003B6B002B09D1FB68012283F85120FB6872
:102AE400002283F85020032338E0FB68DB8E9BB27E
:102AF400002B9CD1FB68DB8F9BB2002B97D13A6AE9
:102B0400396BF86800F07AF90346002B08D0FB68AB
:102B140020225A65FB68002283F8502001231DE01F
:102B2400FB689B68002B0AD100233B61FB681B6890
:102B3400DB683B61FB681B689B683B613B69FB6826
:102B4400012283F85120FB68002283F85020FB689F
:102B54005B6D002B01D0012300E0002318462837C9
:102B6400BD4680BD80B483B000AF786000BF0C3731
:102B7400BD465DF8047B704780B483B000AF7860D5
:102B840000BF0C37BD465DF8047B704780B483B04A
:102B940000AF786000BF0C37BD465DF8047B70471A
:102BA40080B483B000AF786000BF0C37BD465DF8D9
:102BB400047B704780B483B000AF786000BF0C37EB
:102BC400BD465DF8047B704780B483B000AF786085
:102BD40000BF0C37BD465DF8047B704780B483B0FA
:102BE40000AF786000BF0C37BD465DF8047B7047CA
:102BF40080B483B000AF786000BF0C37BD465DF889
:102C0400047B704780B483B000AF78607B6893F82E
:102C14005130DBB218460C37BD465DF8047B704773
:102C240080B588B000AFF860B9603B601346FB71B3
:102C3400FEF7AAFB0246BB6A9B1A3A681344FB617F
:102C4400FEF7A2FBB861394B1B685B011B0DFA69E7
:102C540002FB03F37B6154E03B68B3F1FF3F50D0C8
:102C6400FEF792FB0246BB69D31AFA699A4202D96B
:102C7400FB69002B3DD1FB681B685A68FB681B6825
:102C840022F0E0025A60FB685B68B3F5827F11D1E1
:102C9400FB689B68B3F5004F04D0FB689B68B3F5F1
:102CA400806F07D1FB681B681A68FB681B6822F0F9
:102CB40040021A60FB689B6AB3F5005F0FD1FB68A2
:102CC4001B681A68FB681B6822F400521A60FB68D0
:102CD4001B681A68FB681B6842F400521A60FB68A0
:102CE400012283F85120FB68002283F8502003233B
:102CF40017E07B69002B01D10023FB617B69013B59
:102D04007B61FB681B689A68BB681340BA689A4287
:102D14000CBF01230023DBB21A46FB799A429BD1F4
:102D2400002318462037BD4680BD00BF2C0000207C
:102D340080B586B002AFF860B9607A60FB685B6802
:102D4400B3F5827F11D1FB689B68B3F5004F04D0C3
:102D5400FB689B68B3F5806F07D1FB681B681A6832
:102D6400FB681B6822F040021A60FB685B68B3F5DD
:102D7400827F2AD1FB689B68B3F5806F12D07B6891
:102D84000093BB6800228021F868FFF749FF0346DF
:102D9400002B2DD0FB685B6D43F02002FB685A6565
:102DA400032326E07B680093BB6800220121F868B6
:102DB400FFF736FF0346002B1AD0FB685B6D43F028
:102DC4002002FB685A65032313E07B680093BB6809
:102DD40000220121F868FFF723FF0346002B07D0E8
:102DE400FB685B6D43F02002FB685A65032300E037
:102DF400002318461037BD4680BD000080B588B05A
:102E040002AFF860B9607A607B680093BB68012206
:102E14000221F868FFF704FF0346002B07D0FB6884
:102E24005B6D43F02002FB685A65032332E01B4BC1
:102E34001B681B4AA2FB03235B0D4FF47A7202FB4F
:102E440003F37B61FB685B68B3F5827F12D17B6817
:102E54000093BB6800228021F868FFF7E1FE034677
:102E6400002B16D0FB685B6D43F02002FB685A65AB
:102E740003230FE07B69002B0AD07B69013B7B6154
:102E8400FB681B689B6803F08003802BF2D000E092
:102E940000BF002318461837BD4680BD2C00002013
:102EA400819F5E1680B582B000AF78607B68002B8E
:102EB40001D1012341E07B6893F83D30DBB2002B64
:102EC40006D17B68002283F83C207868FEF732F94B
:102ED4007B68022283F83D207B681A687B68043390
:102EE4001946104600F0B8FA7B68012283F84620A0
:102EF4007B68012283F83E207B68012283F83F200F
:102F04007B68012283F840207B68012283F84120FA
:102F14007B68012283F842207B68012283F84320E6
:102F24007B68012283F844207B68012283F84520D2
:102F34007B68012283F83D20002318460837BD46EC
:102F440080BD80B586B000AF786039607B68002BA7
:102F540001D1012397E07B6893F83D30DBB2002B6D
:102F640006D17B68002283F83C207868FDF7D6FF01
:102F74007B68022283F83D207B681B689B687A6823
:102F8400126823F4804323F0070393607B681A6874
:102F94007B6804331946104600F05EFA7B681B68B0
:102FA4009B687B617B681B689B693B617B681B68D2
:102FB4001B6AFB603B681B687A6913437B613B694E
:102FC40023F4407323F003033B613B689A683B6836
:102FD4009B691B0213433A6913433B613B6923F426
:102FE400406323F00C033B613B6923F4704323F0FB
:102FF400F0033B613B68DA683B68DB691B021343FF
:103004003A6913433B613B681B691A013B681B6ABD
:103014001B0313433A6913433B61FB6823F0220308
:10302400FB60FB6823F08803FB603B685A683B68DD
:103034005B691B011343FA681343FB607B681B68DD
:103044007A699A607B681B683A699A617B681B6835
:10305400FA681A627B68012283F846207B680122A1
:1030640083F83E207B68012283F83F207B6801229D
:1030740083F842207B68012283F843207B68012285
:1030840083F83D20002318461837BD4680BD80B51F
:1030940084B000AF78607B681B68DB68FB607B688A
:1030A4001B681B69BB60BB6803F00203002B20D0C4
:1030B400FB6803F00203002B1BD07B681B686FF0D6
:1030C40002021A617B6801221A777B681B689B697C
:1030D40003F00303002B03D0786800F09FF905E0A8
:1030E400786800F091F9786800F0A2F97B68002212
:1030F4001A77BB6803F00403002B20D0FB6803F0AD
:103104000403002B1BD07B681B686FF004021A6158
:103114007B6802221A777B681B689B6903F44073FF
:10312400002B03D0786800F079F905E0786800F0A6
:103134006BF9786800F07CF97B6800221A77BB6829
:1031440003F00803002B20D0FB6803F00803002BD6
:103154001BD07B681B686FF008021A617B6804222D
:103164001A777B681B68DB6903F00303002B03D029
:10317400786800F053F905E0786800F045F978685C
:1031840000F056F97B6800221A77BB6803F010033D
:10319400002B20D0FB6803F01003002B1BD07B68AE
:1031A4001B686FF010021A617B6808221A777B682B
:1031B4001B68DB6903F44073002B03D0786800F0CC
:1031C4002DF905E0786800F01FF9786800F030F90F
:1031D4007B6800221A77BB6803F00103002B0CD034
:1031E400FB6803F00103002B07D07B681B686FF0BA
:1031F40001021A61786800F0FDF8BB6803F08003EF
:10320400002B0CD0FB6803F08003002B07D07B68F5
:103214001B686FF080021A61786800F0ADFBBB6830
:1032240003F04003002B0CD0FB6803F04003002B99
:1032340007D07B681B686FF040021A61786800F061
:1032440001F9BB6803F02003002B0CD0FB6803F0EA
:103254002003002B07D07B681B686FF020021A61E3
:10326400786800F07FFB00BF1037BD4680BD0000CA
:1032740080B586B000AFF860B9607A600023FB7552
:10328400FB6893F83C30012B01D10223AEE0FB68CC
:10329400012283F83C207B680C2B00F29F8001A262
:1032A40052F823F0DD320008E1330008E13300086E
:1032B400E13300081D330008E1330008E13300085E
:1032C400E13300085F330008E1330008E13300080C
:1032D400E13300089F330008FB681B68B96818468F
:1032E40000F046F9FB681B689A69FB681B6842F0AA
:1032F40008029A61FB681B689A69FB681B6822F0E4
:1033040004029A61FB681B689969BB681A69FB68C7
:103314001B680A439A6164E0FB681B68B968184635
:1033240000F08CF9FB681B689A69FB681B6842F41F
:1033340000629A61FB681B689A69FB681B6822F447
:1033440080629A61FB681B689969BB681B691A02F1
:10335400FB681B680A439A6143E0FB681B68B96811
:10336400184600F0D7F9FB681B68DA69FB681B682C
:1033740042F00802DA61FB681B68DA69FB681B68C3
:1033840022F00402DA61FB681B68D969BB681A6918
:10339400FB681B680A43DA6123E0FB681B68B968B1
:1033A400184600F021FAFB681B68DA69FB681B68A1
:1033B40042F40062DA61FB681B68DA69FB681B6827
:1033C40022F48062DA61FB681B68D969BB681B69F7
:1033D4001A02FB681B680A43DA6102E00123FB75E9
:1033E40000BFFB68002283F83C20FB7D1846183799
:1033F400BD4680BD80B483B000AF786000BF0C3799
:10340400BD465DF8047B704780B483B000AF78603C
:1034140000BF0C37BD465DF8047B704780B483B0B1
:1034240000AF786000BF0C37BD465DF8047B704781
:1034340080B483B000AF786000BF0C37BD465DF840
:10344400047B704780B483B000AF786000BF0C3752
:10345400BD465DF8047B704780B485B000AF7860EA
:1034640039607B681B68FB607B683A4A93420FD0E3
:103474007B68B3F1804F0BD07B68374A934207D007
:103484007B68364A934203D07B68354A934208D11D
:10349400FB6823F07003FB603B685B68FA681343C6
:1034A400FB607B682B4A93421BD07B68B3F1804F4F
:1034B40017D07B68284A934213D07B68274A9342EB
:1034C4000FD07B68264A93420BD07B68254A9342EF
:1034D40007D07B68244A934203D07B68234A9342F3
:1034E40008D1FB6823F44073FB603B68DB68FA682F
:1034F4001343FB60FB6823F080023B685B69134362
:10350400FB607B68FA681A603B689A687B68DA62D9
:103514003B681A687B689A627B680E4A934203D1BF
:103524003B681A697B681A637B6801225A617B686D
:103534001B6903F00103012B05D17B681B6923F090
:1035440001027B681A6100BF1437BD465DF8047B35
:10355400704700BF00000140000400400008004024
:10356400000C00400040014000440140004801407C
:1035740080B487B000AF786039607B681B6A7B6178
:103584007B681B6A23F001027B681A627B685B68B4
:103594003B617B689B69FB60FB6823F07003FB6005
:1035A400FB6823F00303FB603B681B68FA68134362
:1035B400FB607B6923F002037B613B689B687A694B
:1035C40013437B617B681C4A93420CD17B6923F0D3
:1035D40008037B613B68DB687A6913437B617B6921
:1035E40023F004037B617B68134A934211D13B6946
:1035F40023F480733B613B6923F400733B613B68B4
:103604005B693A6913433B613B689B693A691343BD
:103614003B617B683A695A607B68FA689A613B68E7
:103624005A687B685A637B687A691A6200BF1C37E0
:10363400BD465DF8047B70470000014080B487B04C
:1036440000AF786039607B681B6A7B617B681B6AAA
:1036540023F010027B681A627B685B683B617B68BD
:103664009B69FB60FB6823F4E043FB60FB6823F485
:103674004073FB603B681B681B02FA681343FB60E2
:103684007B6923F020037B613B689B681B017A699B
:1036940013437B617B681E4A93420DD17B6923F0FF
:1036A40080037B613B68DB681B017A6913437B61A0
:1036B4007B6923F040037B617B68154A934213D1F5
:1036C4003B6923F480633B613B6923F400633B6102
:1036D4003B685B699B003A6913433B613B689B69A8
:1036E4009B003A6913433B617B683A695A607B6883
:1036F400FA689A613B685A687B689A637B687A695E
:103704001A6200BF1C37BD465DF8047B704700BFDA
:103714000000014080B487B000AF786039607B68F6
:103724001B6A7B617B681B6A23F480727B681A6264
:103734007B685B683B617B68DB69FB60FB6823F04B
:103744007003FB60FB6823F00303FB603B681B68AA
:10375400FA681343FB607B6923F400737B613B6865
:103764009B681B027A6913437B617B681D4A934201
:103774000DD17B6923F400637B613B68DB681B022A
:103784007A6913437B617B6923F480637B617B6883
:10379400144A934213D13B6923F480533B613B6940
:1037A40023F400533B613B685B691B013A69134393
:1037B4003B613B689B691B013A6913433B617B682E
:1037C4003A695A607B68FA68DA613B685A687B68D0
:1037D400DA637B687A691A6200BF1C37BD465DF8FC
:1037E400047B70470000014080B487B000AF78606C
:1037F40039607B681B6A3B617B681B6A23F48052D7
:103804007B681A627B685B687B617B68DB69FB6051
:10381400FB6823F4E043FB60FB6823F44073FB6024
:103824003B681B681B02FA681343FB603B6923F483
:1038340000533B613B689B681B033A6913433B613C
:103844007B68104A934209D17B6923F480437B61EE
:103854003B685B699B017A6913437B617B687A6986
:103864005A607B68FA68DA613B685A687B681A6454
:103874007B683A691A6200BF1C37BD465DF8047B59
:10388400704700BF0000014080B485B000AF78608D
:1038940039607B6893F83C30012B01D1022350E05E
:1038A4007B68012283F83C207B68022283F83D2058
:1038B4007B681B685B68FB607B681B689B68BB60FC
:1038C400FB6823F07003FB603B681B68FA681343D2
:1038D400FB607B681B68FA685A607B681B681C4A3B
:1038E400934218D07B681B68B3F1804F13D07B6878
:1038F4001B68184A93420ED07B681B68164A934291
:1039040009D07B681B68154A934204D07B681B6806
:10391400134A93420CD1BB6823F08003BB603B681D
:103924005B68BA681343BB607B681B68BA689A60BB
:103934007B68012283F83D207B68002283F83C20C9
:10394400002318461437BD465DF8047B704700BF5A
:10395400000001400004004000080040000C00404A
:103964000040014080B483B000AF786000BF0C37E2
:10397400BD465DF8047B704780B483B000AF7860C7
:1039840000BF0C37BD465DF8047B704780B58CB032
:1039940000AF7860002387F82F307B68002B03D1B9
:1039A400012387F82F309BE100233B7400237B74B1
:1039B4000023BB740023FB7400233B7300237B733D
:1039C4000023BB730023FB73002387F828300023F4
:1039D40087F82930002387F82A30002387F82B3012
:1039E400002387F82430082387F82530002387F83C
:1039F4002630002387F82730002387F8203000235F
:103A040087F82130002387F82230002387F82330F9
:103A140000233B7700237B770023BB770023FB77CE
:103A240000233B7600237B760023BB760023FB76C2
:103A340000233B7508237B750023BB750023FB75AE
:103A44007B681B68184600F0C1FA03461A4697F8CB
:103A54002F30134387F82F3097F82F30002B40F086
:103A64003F817B681B68184600F052FB03461A46E8
:103A740097F82F30134387F82F307B681B6818465C
:103A840000F0D0FA03461A4697F82F30134387F80C
:103A94002F3097F82F30002B40F022817B681B6871
:103AA40003222B21184600F09FFB03461A4697F881
:103AB4002F30134387F82F307B68186807F1100301
:103AC4002322202100F0D0FB03461A4697F82F301A
:103AD400134387F82F307B68186807F10C032722FB
:103AE400242100F0C1FB03461A4697F82F301343F4
:103AF40087F82F307B68186807F128030322002118
:103B040000F0B2FB03461A4697F82F30134387F8A8
:103B14002F307B68186807F124030722042100F082
:103B2400A3FB03461A4697F82F30134387F82F3028
:103B34007B68186807F120030B22082100F094FB2E
:103B440003461A4697F82F30134387F82F307B68C3
:103B5400186807F11C031322102100F085FB0346AB
:103B64001A4697F82F30134387F82F307B6818686C
:103B740007F118031722142100F076FB03461A46B6
:103B840097F82F30134387F82F307B68186807F1B4
:103B940014031B22182100F067FB03461A4697F80A
:103BA4002F30134387F82F307B681B680422602171
:103BB400184600F019FB03461A4697F82F301343B2
:103BC40087F82F307B681B6801227021184600F0AB
:103BD4000BFB03461A4697F82F30134387F82F3010
:103BE400424A07F108031268114619800233120C85
:103BF4001A707B681B79052B38D801A252F823F080
:103C04001D3C00082B3C0008393C0008473C0008D8
:103C1400553C0008633C000800233B72C0237B72C0
:103C24008023BB7226E000233B72D1237B72812365
:103C3400BB721FE080233B72E5237B728323BB723C
:103C440018E080233B72F6237B728423BB7211E05D
:103C540081233B72E5237B728323BB720AE08123B9
:103C64003B72F6237B728423BB7203E0012387F843
:103C74002F3000BF7B681B683A7A2A21184600F06F
:103C8400B3FA03461A4697F82F30134387F82F30B8
:103C94007B681B687A7A2921184600F0A5FA034646
:103CA4001A4697F82F30134387F82F307B681B6828
:103CB400BA7A2821184600F097FA03461A4697F86C
:103CC4002F30134387F82F307B681B68184600F0A9
:103CD400E4F903461A4697F82F30134387F82F3038
:103CE40097F82F3018463037BD4680BD704700081E
:103CF40080B586B002AF786039600023FB737B68BF
:103D0400002B02D03B68002B02D10123FB73ABE0F4
:103D1400584B00221A70574B00225A70554B002200
:103D24009A70544B0022DA707B681B68524918461B
:103D340000F05CFB03461A46FB7B1343FB734E4BBC
:103D44001B7803F00403DBB2002B29D13B685868CD
:103D54003B681B78474A194600F0E0F803461A46C8
:103D6400FB7B1343FB737B6818683B681A7A3B68D8
:103D74000933009313463F4A402100F0BDFA03463D
:103D84001A46FB7B1343FB737B681B68812118462F
:103D940000F000FB03461A46FB7B1343FB7363E00E
:103DA400354B1B7803F01003DBB2002B29D13B68A1
:103DB40058683B681B782F4A194600F0AFF8034651
:103DC4001A46FB7B1343FB737B6818683B681A7ABB
:103DD4003B68093300931346264A422100F08CFACB
:103DE40003461A46FB7B1343FB737B681B688221E3
:103DF400184600F0CFFA03461A46FB7B1343FB73C5
:103E040032E01D4B1B7803F04003DBB2002B29D1B9
:103E14003B6858683B681B78164A194600F07EF8E0
:103E240003461A46FB7B1343FB737B6818683B68A5
:103E34001A7A3B680933009313460E4A442100F072
:103E44005BFA03461A46FB7B1343FB737B681B68D0
:103E54008421184600F09EFA03461A46FB7B13435E
:103E6400FB7301E00123FB73FB7B18461037BD464F
:103E740080BD00BFE8020020E002002080B584B0CD
:103E840000AF78600023FB737B68002B02D1012311
:103E9400FB7314E07B681B680B4A2D21184600F065
:103EA4005FF903461A46FB7B1343FB73064B1B78EF
:103EB40003F02003DBB2002B01D00123FB73FB7B57
:103EC40018461037BD4680BDE402002080B584B09A
:103ED40000AF78600023FB737B68002B02D10123C1
:103EE400FB7314E07B681B680B4A2D21184600F015
:103EF40037F903461A46FB7B1343FB73064B1B78C7
:103F040003F01003DBB2002B01D00123FB73FB7B16
:103F140018461037BD4680BDE402002080B487B047
:103F240000AFF8600B467A60FB720023FB75002338
:103F3400BB75FB7A022B2ED1FB68DAB27B68DA7090
:103F4400FB681B0AFB60FB68DAB27B689A70FB684B
:103F54001B0AFB60FB68DBB203F00303BB75FB6861
:103F6400DB00FB60FB68DBB223F01F03DAB2BB7D2E
:103F74001344BB75BB7D0833BB75BB7D23F01403B1
:103F8400DAB27B685A70FB681B0AFB60FB68DAB222
:103F94007B681A7013E07B6800229A707B680022A9
:103FA400DA70FB685B01FB60FB68DAB27B685A700D
:103FB400FB681B0AFB60FB68DAB27B681A70FB7D46
:103FC40018461C37BD465DF8047B704780B584B045
:103FD40000AF78600023FB737B68002B02D10123C0
:103FE400FB7318E001224FF480510D48FDF792FC59
:103FF4000A23BB737868FEF705FE0346012B02D142
:104004000023FB7307E0BB7B013BBB730123FB7302
:10401400BB7B002BEED1FB7B18461037BD4680BD21
:104024000004024080B584B000AF78600023FB73C5
:104034007B68002B02D10123FB7329E080220F212E
:10404400786800F0D1F803461A46FB7B1343FB73F0
:104054000A23BB7300237B7307F10D031A460E2159
:10406400786800F07DF803461A46FB7B1343FB7324
:104074007B7B03F0E003802B02D10023FB7301E080
:104084000123FB73BB7B013BBB73BB7B002BE1D1E7
:10409400FB7B18461037BD4680BD80B584B000AFA9
:1040A40078600023FB737B68002B02D10123FB7330
:1040B40029E000220F21786800F096F803461A469A
:1040C400FB7B1343FB730A23BB7300237B7307F14E
:1040D4000D031A460E21786800F042F803461A468A
:1040E400FB7B1343FB737B7B03F0E003002B02D1C8
:1040F4000023FB7301E00123FB73BB7B013BBB7318
:10410400BB7B002BE1D1FB7B18461037BD4680BD3D
:1041140080B584B000AF78600023FB737B68002B0C
:1041240002D10123FB7314E000224FF480510B48A9
:10413400FDF7F0FBC021786800F090F903461A46B9
:10414400FB7B1343FB7301224FF480510348FDF7BB
:10415400E1FBFB7B18461037BD4680BD00040240DE
:1041640080B586B000AFF8600B467A60FB7200231E
:10417400FB75FB68002B02D10123FB752CE00022A8
:104184004FF480511748FDF7C5FB0321F86800F090
:1041940065F903461A46FB7D1343FB75FB7A194602
:1041A400F86800F05BF903461A46FB7D1343FB7580
:1041B40007F116031946F86800F090F903461A4609
:1041C400FB7D1343FB7501224FF480510548FDF735
:1041D400A1FBBA7D7B681A70FB7D18461837BD4673
:1041E40080BD00BF0004024080B584B000AF786099
:1041F4000B46FB701346BB700023FB737B68002BDC
:1042040002D10123FB7328E000224FF480511548AA
:10421400FDF780FB0221786800F020F903461A4676
:10422400FB7B1343FB73FB781946786800F016F99F
:1042340003461A46FB7B1343FB73BB781946786825
:1042440000F00CF903461A46FB7B1343FB7301226F
:104254004FF480510348FDF75DFBFB7B1846103794
:10426400BD4680BD0004024080B586B000AFF86052
:104274007B600B46FB721346BB720023FB75FB6825
:10428400002B02D10123FB752EE000224FF4805154
:104294001848FDF73FFB0221F86800F0DFF80346F9
:1042A4001A46FB7D1343FB75FB7A1946F86800F048
:1042B400D5F803461A46FB7D1343FB75BA7AFB7A9D
:1042C400D31ADBB20133DBB21A467968F86800F01E
:1042D400E4F803461A46FB7D1343FB7501224FF4B1
:1042E40080510448FDF716FBFB7D18461837BD4680
:1042F40080BD00BF0004024080B586B000AFF86006
:104304007A601A460B46FB721346BB720023FB7598
:10431400FB68002B02D10123FB7534E000224FF42B
:1043240080511B48FDF7F6FAFB7A1946F86800F04D
:1043340095F803461A46FB7D1343FB7504227968FE
:10434400F86800F0AAF803461A46FB7D1343FB7590
:10435400BB7A1946F86800F081F803461A46FB7DDB
:104364001343FB75BB7A1A46396AF86800F095F86E
:1043740003461A46FB7D1343FB7501224FF480511B
:104384000348FDF7C7FAFB7D18461837BD4680BDC4
:104394000004024080B584B000AF78600B46FB7027
:1043A4000023FB737B68002B02D10123FB7315E010
:1043B40000224FF480510C48FDF7ACFAFB78194603
:1043C400786800F04BF803461A46FB7B1343FB73F3
:1043D40001224FF480510448FDF79CFAFB7B1846F8
:1043E4001037BD4680BD00BF0004024080B584B0D4
:1043F40000AF786039600023FB737B68002B02D127
:104404000123FB7322E000224FF480511248FDF790
:1044140081FAA021786800F021F803461A46FB7B54
:104424001343FB7307F10E031946786800F056F83E
:1044340003461A46FB7B1343FB7301224FF480515E
:104444000548FDF767FABA7B3B681A70FB7B184690
:104454001037BD4680BD00BF0004024080B584B063
:1044640000AF78600B46FB700023FB737B68002B66
:1044740002D10123FB730BE0F91C4FF0FF3301223F
:104484007868FDF769FF0346002B01D00123FB7315
:10449400FB7B18461037BD4680BD80B586B000AFA3
:1044A400F860B9601346FB710023FB75FB68002BB1
:1044B40002D10123FB750CE0FB799AB24FF0FF3374
:1044C400B968F868FDF748FF0346002B01D00123C3
:1044D400FB75FB7D18461837BD4680BD80B584B09A
:1044E40000AF786039600023FB737B68002B02D136
:1044F4000123FB7312E00023BB7307F10E014FF09D
:10450400FF3301227868FEF76BF80346002B02D0D4
:104514000123FB7302E0BA7B3B681A70FB7B1846ED
:104524001037BD4680BD80B582B000AF0C2000F0CE
:1045340017F803467B607B68002B01D100230AE057
:104544007B6800225A607B685A687B681A607B68C3
:1045540000229A607B6818460837BD4680BD00007B
:10456400024B0146186800F025B800BF380000204F
:1045740070B50F4E0C463168054611B900F0AEF81F
:1045840030602146284600F0A9F8431C03D14FF0BF
:10459400FF34204670BDC41C24F00304A042F8D0AC
:1045A400211A284600F09AF80130F2D1EFE700BF53
:1045B400EC0200202DE9F843CD1C25F00305083555
:1045C4000C2D38BF0C25002D064601DBA94204D969
:1045D4000C2333600020BDE8F883DFF8D48000F0BA
:1045E40069F8D8F800301C4644BB29463046FFF72A
:1045F400BFFF431C044658D1D8F800402746002F7B
:1046040043D1002C4BD023683946304604EB0309D0
:1046140000F064F8814542D121686D1A294630467C
:10462400FFF7A6FF01303AD023682B442360D8F863
:1046340000305A6862BBC8F800700FE02268521B51
:1046440020D40B2A17D96119A342256018BF5960D9
:10465400636808BFC8F8001062514B60304600F030
:104664002FF804F10B00231D20F00700C21A1CBF11
:104674001B1AA350AFE76268A3420CBFC8F800201E
:104684005A60EBE723466468AEE73C467F68B6E7CA
:104694001A465B68A342FBD100235360DEE70C2378
:1046A4003360304600F00CF894E70560D6E700BFAD
:1046B400F0020020014800F04BB800BF3004002095
:1046C400014800F046B800BF30040020024403460D
:1046D400934200D1704703F8011BF9E738B5064D42
:1046E4000023044608462B60FCF7C8F9431C02D19A
:1046F4002B6803B1236038BD2C040020014B1868DB
:10470400704700BF3800002070B50D4D0D4C641B80
:10471400A4100026A64209D10B4D0C4C00F01AF847
:10472400641BA4100026A64205D170BD55F8043BB5
:1047340098470136EEE755F8043B98470136F2E70F
:104744008C4700088C4700088C47000890470008F5
:1047540070477047F8B500BFF8BC08BC9E46704768
:0C476400F8B500BFF8BC08BC9E467047CA
:10477000000000000000000000000000010203042F
:044780000607080917
:0847840080BAFF7F0100000074
:04478C00B901000867
:044790009501000887
:10479400A80000200000000000000020000000002D
:1047A4000000000000000000000000000000000005
:1047B40000000000BA010000610800080024F400B1
:1047C40010000000010000003C0000200000000078
:1047D400F40200205C030020C40300200000000059
:1047E40000000000000000000000000000000000C5
:1047F40000000000000000000000000000000000B5
:1048040000000000000000000000000000000000A4
:0848140000000000000000009C
:040000050800126D70
:00000001FF
