:020000040800F2
:1000000000000120691C00080917000815170008E6
:100010001D170008251700082D1700080000000014
:10002000000000000000000000000000E19E000849
:10003000351700080000000031A10008B96F000862
:10004000B91C0008B91C0008B91C0008B91C00083C
:10005000B91C0008B91C0008B91C0008B91C00082C
:10006000B91C0008B91C0008B91C0008B91C00081C
:10007000B91C0008B91C0008B91C0008B91C00080C
:10008000B91C0008B91C0008B91C000800000000D9
:10009000000000000000000000000000B91C000883
:1000A000B91C000845170008B91C0008B91C000855
:1000B000B91C0008B91C0008B91C0008B91C0008CC
:1000C000B91C0008B91C0008B91C0008B91C0008BC
:1000D000B91C0008B91C0008B91C00080000000089
:1000E00059170008B91C0008B91C000800000000DE
:1000F000000000000000000000000000B91C000823
:1001000000000000B91C0008B91C0008B91C000858
:1001100000000000000000000000000000000000DF
:10012000B91C0008B91C0008B91C0008B91C00085B
:10013000B91C0008000000000000000000000000E2
:10014000000000000000000000000000B91C0008D2
:10015000B91C0008B91C0008B91C0008B91C00082B
:10016000B91C0008B91C00080000000000000000D5
:10017000000000000000000000000000000000007F
:1001800000000000B91C0008000000000000000092
:04019000B91C00088E
:1001A00010B5054C237833B9044B13B10448AFF3B1
:1001B00000800123237010BDE80000200000000033
:1001C00084B0000808B5034B1BB103490348AFF3E3
:1001D000008008BD00000000EC00002084B0000892
:1001E00081F0004102E000BF83F0004330B54FEAE8
:1001F00041044FEA430594EA050F08BF90EA020F55
:100200001FBF54EA000C55EA020C7FEA645C7FEAE7
:10021000655C00F0E2804FEA5454D4EB5555B8BF0A
:100220006D420CDD2C4480EA020281EA030382EA7B
:10023000000083EA010180EA020281EA0303362D0D
:1002400088BF30BD11F0004F4FEA01314FF4801CE0
:100250004CEA113102D0404261EB410113F0004FF2
:100260004FEA03334CEA133302D0524263EB4303A9
:1002700094EA050F00F0A780A4F10104D5F1200E47
:100280000DDB02FA0EFC22FA05F2801841F10001A2
:1002900003FA0EF2801843FA05F359410EE0A5F176
:1002A00020050EF1200E012A03FA0EFC28BF4CF0A7
:1002B000020C43FA05F3C01851EBE37101F000455D
:1002C00007D54FF0000EDCF1000C7EEB00006EEB6A
:1002D0000101B1F5801F1BD3B1F5001F0CD34908F4
:1002E0005FEA30004FEA3C0C04F101044FEA44524B
:1002F00012F5800F80F09A80BCF1004F08BF5FEAD2
:10030000500C50F1000041EB045141EA050130BDB1
:100310005FEA4C0C404141EB0101013C28BFB1F5C3
:10032000801FE9D291F0000F04BF01460020B1FA0E
:1003300081F308BF2033A3F10B03B3F120020CDAE1
:100340000C3208DD02F1140CC2F10C0201FA0CF0BF
:1003500021FA02F10CE002F11402D8BFC2F1200C24
:1003600001FA02F120FA0CFCDCBF41EA0C019040DA
:10037000E41AA2BF01EB0451294330BD6FEA040423
:100380001F3C1CDA0C340EDC04F11404C4F120020E
:1003900020FA04F001FA02F340EA030021FA04F320
:1003A00045EA030130BDC4F10C04C4F1200220FA77
:1003B00002F001FA04F340EA0300294630BD21FAB5
:1003C00004F0294630BD94F0000F83F4801306BF7B
:1003D00081F480110134013D4EE77FEA645C18BF6F
:1003E0007FEA655C29D094EA050F08BF90EA020F06
:1003F00005D054EA000C04BF1946104630BD91EAFE
:10040000030F1EBF0021002030BD5FEA545C05D100
:100410004000494128BF41F0004130BD14F580043F
:100420003CBF01F5801130BD01F0004545F0FE41B3
:1004300041F470014FF0000030BD7FEA645C1ABFE8
:10044000194610467FEA655C1CBF0B46024650EA1F
:10045000013406BF52EA033591EA030F41F400214B
:1004600030BD00BF90F0000F04BF0021704730B5D1
:100470004FF4806404F132044FF000054FF00001A6
:1004800050E700BF90F0000F04BF0021704730B567
:100490004FF4806404F1320410F0004548BF40423C
:1004A0004FF000013EE700BF42004FEAE2014FEA91
:1004B00031014FEA02701FBF12F07F4393F07F4F6C
:1004C00081F06051704732F07F4208BF704793F06F
:1004D0007F4F04BF41F40021704730B54FF4607482
:1004E00001F0004521F000411CE700BF50EA010285
:1004F00008BF704730B54FF000050AE050EA01022E
:1005000008BF704730B511F0004502D5404261EB9D
:1005100041014FF4806404F132045FEA915C3FF4DE
:10052000D8AE4FF003025FEADC0C18BF03325FEA7B
:10053000DC0C18BF033202EBDC02C2F1200300FA2C
:1005400003FC20FA02F001FA03FE40EA0E0021FA51
:1005500002F11444BDE600BF70B54FF0FF0C4CF43F
:10056000E06C1CEA11541DBF1CEA135594EA0C0FF1
:1005700095EA0C0F00F0DEF82C4481EA030621EA2C
:100580004C5123EA4C5350EA013518BF52EA033567
:1005900041F4801143F4801338D0A0FB02CE4FF019
:1005A0000005E1FB02E506F00042E0FB03E54FF049
:1005B0000006E1FB03569CF0000F18BF4EF0010E41
:1005C000A4F1FF04B6F5007F64F5407404D25FEA3D
:1005D0004E0E6D4146EB060642EAC62141EA5551F0
:1005E0004FEAC52040EA5E504FEACE2EB4F1FD0C32
:1005F00088BFBCF5E06F1ED8BEF1004F08BF5FEAB0
:10060000500E50F1000041EB045170BD06F0004661
:1006100046EA010140EA020081EA0301B4EB5C040E
:10062000C2BFD4EB0C0541EA045170BD41F4801106
:100630004FF0000E013C00F3AB8014F1360FDEBF2B
:10064000002001F0004170BDC4F10004203C35DA07
:100650000C341BDC04F11404C4F1200500FA05F38A
:1006600020FA04F001FA05F240EA020001F000422B
:1006700021F0004110EBD37021FA04F642EB0601A1
:100680005EEA430E08BF20EAD37070BDC4F10C04CB
:10069000C4F1200500FA04F320FA05F001FA04F28F
:1006A00040EA020001F0004110EBD37041F100017B
:1006B0005EEA430E08BF20EAD37070BDC4F1200586
:1006C00000FA05F24EEA020E20FA04F301FA05F2EE
:1006D00043EA020321FA04F001F0004121FA04F296
:1006E00020EA020000EBD3705EEA430E08BF20EA66
:1006F000D37070BD94F0000F0FD101F000464000A0
:1007000041EB010111F4801F08BF013CF7D041EA21
:10071000060195F0000F18BF704703F00046520025
:1007200043EB030313F4801F08BF013DF7D043EAF6
:100730000603704794EA0C0F0CEA135518BF95EAAC
:100740000C0F0CD050EA410618BF52EA4306D1D133
:1007500081EA030101F000414FF0000070BD50EA52
:10076000410606BF1046194652EA430619D094EADC
:100770000C0F02D150EA013613D195EA0C0F05D1C6
:1007800052EA03361CBF104619460AD181EA03011A
:1007900001F0004141F0FE4141F470014FF00000D2
:1007A00070BD41F0FE4141F4780170BD70B54FF06D
:1007B000FF0C4CF4E06C1CEA11541DBF1CEA1355ED
:1007C00094EA0C0F95EA0C0F00F0A7F8A4EB0504CF
:1007D00081EA030E52EA03354FEA013100F08880C6
:1007E0004FEA03334FF0805545EA131343EA12638F
:1007F0004FEA022245EA111545EA10654FEA002644
:100800000EF000419D4208BF964244F1FD0404F5FC
:10081000407402D25B084FEA3202B61A65EB030558
:100820005B084FEA32024FF480104FF4002CB6EB15
:10083000020E75EB030E22BFB61A754640EA0C0095
:100840005B084FEA3202B6EB020E75EB030E22BFD5
:10085000B61A754640EA5C005B084FEA3202B6EB16
:10086000020E75EB030E22BFB61A754640EA9C00D5
:100870005B084FEA3202B6EB020E75EB030E22BFA5
:10088000B61A754640EADC0055EA060E18D04FEA63
:10089000051545EA16754FEA06164FEAC30343EA03
:1008A00052734FEAC2025FEA1C1CC0D111F4801FD0
:1008B0000BD141EA00014FF000004FF0004CB6E7C9
:1008C00011F4801F04BF01430020B4F1FD0C88BF68
:1008D000BCF5E06F3FF6AFAEB5EB030C04BFB6EB73
:1008E000020C5FEA500C50F1000041EB045170BD66
:1008F0000EF0004E4EEA113114EB5C04C2BFD4EB93
:100900000C0541EA045170BD41F480114FF0000E16
:10091000013C90E645EA060E8DE60CEA135594EA92
:100920000C0F08BF95EA0C0F3FF43BAF94EA0C0F95
:100930000AD150EA01347FF434AF95EA0C0F7FF40A
:1009400025AF104619462CE795EA0C0F06D152EA5E
:1009500003353FF4FDAE1046194622E750EA410642
:1009600018BF52EA43067FF4C5AE50EA41047FF453
:100970000DAF52EA43057FF4EBAE12E74FF0FF3CB8
:1009800006E000BF4FF0010C02E000BF4FF0010C89
:100990004DF804CD4FEA410C7FEA6C5C4FEA430C02
:1009A00018BF7FEA6C5C1BD001B050EA410C0CBF51
:1009B00052EA430C91EA030F02BF90EA020F0020B3
:1009C000704710F1000F91EA030F58BF994208BF1A
:1009D00090422CBFD8176FEAE37040F001007047D7
:1009E0004FEA410C7FEA6C5C02D150EA013C07D12E
:1009F0004FEA430C7FEA6C5CD6D152EA033CD3D079
:100A00005DF8040B704700BF8446104662468C4672
:100A10001946634600E000BF01B5FFF7B7FF0028A5
:100A200048BF10F1000F01BD4DF808EDFFF7F4FFCE
:100A30000CBF012000205DF808FB00BF4DF808ED59
:100A4000FFF7EAFF34BF012000205DF808FB00BF7C
:100A50004DF808EDFFF7E0FF94BF012000205DF89E
:100A600008FB00BF4DF808EDFFF7CEFF94BF012053
:100A700000205DF808FB00BF4DF808EDFFF7C4FF4C
:100A800034BF012000205DF808FB00BF4FEA410C95
:100A90007FEA6C5C02D150EA013C0AD14FEA430C78
:100AA0007FEA6C5C02D152EA033C02D14FF00000B5
:100AB00070474FF0010070474FEA4102B2F1E04346
:100AC00024BFB3F5001CDCF1FE5C0DD901F0004C35
:100AD0004FEAC0024CEA5070B2F1004F40EB830085
:100AE00008BF20F00100704711F0804F21D113F1B1
:100AF0003872BCBF01F00040704741F480114FEAEA
:100B00005252C2F11802C2F1200C10FA0CF320FA72
:100B100002F018BF40F001004FEAC1234FEAD3238F
:100B200003FA0CFC40EA0C0023FA02F34FEA4303F9
:100B3000CCE77FEA625307D150EA01331EBF4FF082
:100B4000FE4040F44000704701F0004040F0FE409D
:100B500040F40000704700BF53B94AB9002908BFEC
:100B600000281CBF4FF0FF314FF0FF3000F06AB992
:100B7000ADF1080C6DE904CE00F006F8DDF804E0F4
:100B8000DDE9022304B070472DE9F047089D0C46CB
:100B9000002B4ED194468C458646B2FA82F262D939
:100BA0004AB1C2F12003914020FA03F30CFA02FC8F
:100BB000194300FA02FE4FEA1C471FFA8CF6B1FBFC
:100BC000F7F44FEA1E4307FB141143EA014304FB09
:100BD00006F199420AD91CEB030304F1FF3080F0BF
:100BE0001281994240F20F81023C6344591A1FFA64
:100BF0008EF3B1FBF7F007FB101143EA014300FB52
:100C000006F69E420AD91CEB030300F1FF3180F087
:100C1000FC809E4240F2F980634402389B1B40EA0C
:100C2000044000211DB1D3400022C5E90032BDE8D7
:100C3000F0878B4205D90DB1C5E9000100210846B6
:100C4000F5E7B3FA83F1002946D1A34202D39042DB
:100C5000C0F0F080861A64EB03030120002DE6D07B
:100C6000C5E90063E3E7002A40F09080A1EB0C04A3
:100C70004FEA1C481FFA8CF70121B4FBF8F64FEA43
:100C80001E4308FB164443EA044307FB06F0984260
:100C900008D91CEB030306F1FF3402D2984200F29C
:100CA000CD8026461C1A1FFA8EF3B4FBF8F008FB21
:100CB000104443EA044300FB07F79F4208D91CEBAA
:100CC000030300F1FF3402D29F4200F2B0802046BD
:100CD000DB1B40EA0640A5E7C1F120068B4022FA63
:100CE00006F71F4320FA06FC04FA01F343EA0C035B
:100CF000F44000FA01F8380C4FEA1349B4FBF0FE57
:100D00001FFA87FC00FB1E4449EA04440EFB0CF961
:100D1000A14502FA01F20AD93C190EF1FF3A80F01E
:100D20008480A14540F28180AEF1020E3C44A4EBE8
:100D300009041FFA83F9B4FBF0F300FB134449EAFA
:100D4000044403FB0CFCA44507D93C1903F1FF3014
:100D500067D2A44565D9023B3C4443EA0E40A0FB60
:100D60000293A4EB0C049C42CE469C4651D34ED039
:100D700055B1B8EB0E0364EB0C0404FA06F6CB4055
:100D80001E43CC40C5E90064002150E7C2F12003B6
:100D900020FA03F10CFA02FC24FA03F394400C430A
:100DA0004FEA1C4800FA02FE1FFA8CF7B3FBF8F07A
:100DB00008FB1031230C43EA014300FB07F1994281
:100DC00008D91CEB030300F1FF362CD299422AD933
:100DD000023863445B1AA4B2B3FBF8F108FB113389
:100DE00044EA034401FB07F3A34208D91CEB0404C3
:100DF00001F1FF3613D2A34211D902396444E41A37
:100E000041EA004139E70446F0E6084606E7C845EE
:100E1000AED2B9EB020E63EB070C0138A8E73146FE
:100E2000EDE7034699E73046D4E7D6467FE76344CB
:100E300002384DE70646234608460FE7023E634464
:100E400030E700BF704700BF80B584B000AF786066
:100E50000023FB730023BB737B68002B02D10123AB
:100E6000FB7317E07B681B68184604F0D3FD03464C
:100E70001A46BB7B1343BB7309F00EFC02467B682A
:100E80005A60BB7B002B03D17B685B68002B01D1D0
:100E90000123FB73FB7B18461037BD4680BD80B530
:100EA00084B000AF786039600023FB737B68002B4F
:100EB00002D03B68002B02D10123FB7305E07B6865
:100EC0005B683968184609F003FCFB7B184610374D
:100ED000BD4680BD80B58AB000AF7860002387F83A
:100EE0002730002387F826307B68002B03D10123AD
:100EF00087F827302CE000233B627B681B6807F1F2
:100F00000C021146184604F037FF03461A4697F8BC
:100F10002630134387F8263097F82630002B17D158
:100F20007B685B6807F10C010C4A184609F008FC65
:100F300038623B6A002B0BD03B6A07F10C0114228C
:100F4000184609F021FD3B6A9B693A6A10469847AA
:100F500097F8273018462837BD4680BD610F000836
:100F600080B485B000AF786039600023FB607B6897
:100F70005A693B685B689A4201D10123FB60FB68B8
:100F800018461437BD465DF8047B704780B500AF46
:100F9000134806F007F90346124A1360124A00216B
:100FA000012006F085F90346104A1360104A00211B
:100FB000022006F07DF903460E4A13600E4A002116
:100FC0000E4806F05DF803460D4A13600D4A0021F5
:100FD0000D4806F055F803460C4A136000BF80BD6B
:100FE00054B100081401002064B100081801002069
:100FF00074B100081C0100200CB100081110000899
:101000000C01002030B10008B910000810010020C8
:10101000B0B584B000AF78602349244805F098FA51
:101020000346FB73224B1B684FF0FF31184606F056
:10103000C9F91D491D4805F017FB03461A46FB7BFD
:101040001343FB73184B5B6A1846FFF72DFA12A384
:10105000D3E90023FFF780FA02460B4614461D46EB
:10106000144B1B681846FFF71FFA0DA3D3E90023A2
:10107000FFF772FA02460B4620462946FFF7B6F8FC
:1010800002460B4610461946FFF716FD0346094A6D
:10109000136000BFC6E700BF9A9999999999B93F23
:1010A000CDCCCCCCCCCCEC3FE00400202001002007
:1010B000180100200401002080B584B000AF7860E2
:1010C0000F48FFF7C1FE0346FB730E490C48FFF7BC
:1010D000E6FE03461A46FB7B1343FB730A4B1B6871
:1010E0004FF0FF31184606F06DF90548FFF7F2FEA4
:1010F00003461A46FB7B1343FB7300BFEEE700BFBA
:1011000000000020080000201C01002080B582B0F3
:1011100000AF0346FB80FB88B3F5005F04D1094BA9
:101120001B68184606F0A0F9FB88B3F5805F04D170
:10113000054B1B68184606F097F900BF0837BD46F7
:1011400080BD00BF1C0100201801002080B483B0C6
:1011500000AF7860044B5B6A044A136000BF0C3731
:10116000BD465DF8047B7047E004002008010020C4
:1011700080B588B000AF07F10C0300221A605A60F6
:101180009A60DA601A610023BB603B4B1B6B3A4AE2
:1011900043F080031363384B1B6B03F08003BB6089
:1011A000BB6800237B60344B1B6B334A43F0010365
:1011B0001363314B1B6B03F001037B607B680023DF
:1011C0003B602D4B1B6B2C4A43F0020313632A4BED
:1011D0001B6B03F002033B603B6801221021274890
:1011E00001F014F800220421254801F00FF8102323
:1011F000FB6001233B6101237B610023BB6107F19D
:101200000C0319461D4800F07DFE0423FB600123FA
:101210003B6102237B610023BB6107F10C0319468C
:10122000174800F06FFE4FF48053FB604FF48813B3
:101230003B6102237B6107F10C031946104800F063
:1012400061FE4FF40053FB604FF404133B61012334
:101250007B6107F10C031946094800F053FE002298
:101260000521282000F024FE282000F03DFE00BFCC
:101270002037BD4680BD00BF00380240000002405C
:101280000004024080B500AF124B134A1A60114BA4
:10129000124A5A600F4B00229A600E4B0022DA600D
:1012A0000C4B4FF480421A610A4B00225A61094BE1
:1012B00000229A61074B0022DA61064B00221A6273
:1012C000044800F0D5FF0346002B01D000F0FAF8E7
:1012D00000BF80BD2001002000580040A086010012
:1012E00080B58AB000AF786007F1140300221A605D
:1012F0005A609A60DA601A617B681B68214A9342DF
:101300003CD100233B61204B1B6B1F4A43F002037F
:1013100013631D4B1B6B03F002033B613B694FF4EE
:1013200080637B611223BB610023FB6103233B626B
:1013300004237B6207F114031946144800F0E2FD10
:1013400008237B611223BB610023FB6103233B6203
:1013500009237B6207F1140319460C4800F0D2FD03
:101360000023FB60084B1B6C074A43F480031364A3
:10137000054B1B6C03F48003FB60FB6800BF283740
:10138000BD4680BD005800400038024000040240C5
:1013900080B500AF00F092FC00F016F8FFF7E8FE11
:1013A00000F0A2FA00F02CFAFFF76CFF00F090F8C2
:1013B00000F08AFB00F0B2FB05F018FEFFF7E6FD37
:1013C00005F038FE00BFFDE780B594B000AF07F12F
:1013D000200330220021184609F092FA07F10C038D
:1013E00000221A605A609A60DA601A610023BB60BA
:1013F000294B1B6C284A43F080531364264B1B6C0B
:1014000003F08053BB60BB6800237B60234B1B68E9
:1014100023F44043214A43F4004313601F4B1B68ED
:1014200003F440437B607B6801233B624FF48033CD
:101430007B620223BB634FF48003FB6319233B648D
:10144000A8237B640223BB640423FB6407F120030D
:10145000184601F031FF0346002B01D000F032F8AE
:101460000F23FB6002233B6100237B614FF4805319
:10147000BB610023FB6107F10C030221184602F057
:1014800093F90346002B01D000F01CF802F072FA29
:1014900000BF5037BD4680BD00380240007000409C
:1014A00080B582B000AF78607B681B68044A9342C5
:1014B00001D100F025FC00BF0837BD4680BD00BF4C
:1014C0000044014080B400AF72B600BF00BFFDE72A
:1014D00080B500AF174B184A1A60164B4FF4827252
:1014E0005A60144B00229A60124B0022DA60114BB2
:1014F00000221A610F4B00225A610E4B4FF400720A
:101500009A610C4B1822DA610A4B00221A62094BCD
:1015100000225A62074B00229A62064B0A22DA62C4
:10152000044802F07AFB0346002B01D0FFF7CAFF04
:1015300000BF80BD740100200030014080B58AB03A
:1015400000AF786007F1140300221A605A609A60B5
:10155000DA601A617B681B68194A93422BD1002319
:101560003B61184B5B6C174A43F480535364154B33
:101570005B6C03F480533B613B690023FB60114BC0
:101580001B6B104A43F0010313630E4B1B6B03F0FC
:101590000103FB60FB68E0237B610223BB61012345
:1015A000FB6103233B6205237B6207F114031946A9
:1015B000054800F0A7FC00BF2837BD4680BD00BF2E
:1015C00000300140003802400000024080B582B087
:1015D00000AF00237B60124B5B6C114A43F48043E5
:1015E00053640F4B5B6C03F480437B607B68002388
:1015F0003B600B4B1B6C0A4A43F080531364084B4F
:101600001B6C03F080533B603B6800220F216FF09E
:10161000010000F04DFC00BF0837BD4680BD00BF93
:101620000038024080B58CB000AF78600023BB6208
:1016300000237B620023BB602E4B5B6C2D4A43F47E
:10164000003353642B4B5B6C03F40033BB60BB680B
:1016500007F10C0207F110031146184602F090FA48
:1016600002F07AFAB862BB6A234AA2FB03239B0CFE
:10167000013B7B62214B224A1A60204B40F2E73249
:10168000DA601E4A7B6A53601C4B00221A611B4BB6
:1016900000229A60194B00229A61184803F09CF8C6
:1016A000034687F82F3097F82F30002B1BD11348B3
:1016B00003F0F8F8034687F82F3097F82F30002B07
:1016C00011D1192000F010FC7B680F2B08D80022E4
:1016D0007968192000F0ECFB0A4A7B68136002E08D
:1016E000012387F82F3097F82F3018463037BD4642
:1016F00080BD00BF0038024083DE1B43CC010020C8
:10170000004401402800002080B500AF02F06AFAD2
:1017100000BFFDE780B400AF00BFFDE780B400AFBD
:1017200000BFFDE780B400AF00BFFDE780B400AFAD
:1017300000BFFDE780B400AF00BFBD465DF8047B8D
:101740007047000080B500AF024803F069F900BFA0
:1017500080BD00BFCC01002080B500AF4FF48050A9
:1017600000F06EFD4FF4005000F06AFD00BF80BD38
:1017700080B586B000AF7860144A154BD31A7B61F0
:101780007B693B61134B1B68002B02D1114B124A42
:101790001A60104B1A687B6813443A699A4207D260
:1017A00009F0C6F803460C221A604FF0FF3309E037
:1017B000084B1B68FB60074B1A687B681344054A9B
:1017C0001360FB6818461837BD4680BD0000012035
:1017D0000004000080020020D04F002080B400AF41
:1017E000064BD3F88830054A43F47003C2F88830BA
:1017F00000BFBD465DF8047B704700BF00ED00E010
:1018000080B586B000AF07F1100300221A605A605D
:101810003B4600221A605A609A60DA60304B314AC7
:101820001A602F4B53225A602D4B00229A602C4B8A
:101830004FF6FF72DA602A4B00221A61284B002211
:101840009A61274803F090F80346002B01D0FFF778
:1018500039FE00233B6100237B6107F11003194629
:101860001F4803F0E5FC0346002B01D0FFF72AFEDA
:101870000A233B6001237B600023BB600023FB60E5
:101880003B4600221946164803F0DAF90346002BBE
:1018900001D0FFF717FE3B4604221946104803F01B
:1018A000CFF90346002B01D0FFF70CFE3B46082280
:1018B00019460B4803F0C4F90346002B01D0FFF78B
:1018C00001FE3B460C221946054803F0B9F90346D0
:1018D000002B01D0FFF7F6FD00BF1837BD4680BDD5
:1018E000840200200004004080B586B000AF07F1FC
:1018F000100300221A605A603B4600221A605A60A8
:101900009A60DA60304B314A1A602F4B53225A608A
:101910002D4B00229A602C4B4FF6FF72DA602A4B57
:1019200000221A61284B00229A61274803F01CF814
:101930000346002B01D0FFF7C5FD00233B610023C8
:101940007B6107F1100319461F4803F071FC034641
:10195000002B01D0FFF7B6FD0A233B6001237B601B
:101960000023BB600023FB603B460022194616485B
:1019700003F066F90346002B01D0FFF7A3FD3B46B9
:1019800004221946104803F05BF90346002B01D0EE
:10199000FFF798FD3B46082219460B4803F050F923
:1019A0000346002B01D0FFF78DFD3B460C22194664
:1019B000054803F045F90346002B01D0FFF782FDEF
:1019C00000BF1837BD4680BD380300200008004026
:1019D00080B58CB000AF786007F11C0300221A605C
:1019E0005A609A60DA601A617B681B68324A9342D7
:1019F0002CD10023BB61314B1B6C304A43F00203F6
:101A000013642E4B1B6C03F00203BB61BB69002304
:101A10007B612A4B1B6B294A43F002031363274B5C
:101A20001B6B03F002037B617B693323FB610223A1
:101A30003B6202237B620023BB620223FB6207F14D
:101A40001C0319461E4800F05DFA31E07B681B68F4
:101A50001C4A93422CD100233B61184B1B6C174A44
:101A600043F004031364154B1B6C03F004033B6148
:101A70003B690023FB60114B1B6B104A43F00203D0
:101A800013630E4B1B6B03F00203FB60FB684FF408
:101A90007073FB6102233B6202237B620023BB6203
:101AA0000223FB6207F11C031946054800F02AFADD
:101AB00000BF3037BD4680BD000400400038024002
:101AC000000402400008004080B500AF114B124AEC
:101AD0001A60104B4FF4E1325A600E4B00229A60AC
:101AE0000C4B0022DA600B4B00221A61094B0C22CE
:101AF0005A61084B00229A61064B0022DA610548C0
:101B000003F022FC0346002B01D0FFF7DBFC00BFF3
:101B100080BD00BFEC0300200010014080B500AF85
:101B2000114B124A1A60104B4FF416525A600E4B6A
:101B300000229A600C4B0022DA600B4B00221A61E3
:101B4000094B0C225A61084B00229A61064B002275
:101B5000DA61054803F0F8FB0346002B01D0FFF7DC
:101B6000B1FC00BF80BD00BF640400200044004001
:101B700080B58CB000AF786007F11C0300221A60BA
:101B80005A609A60DA601A617B681B68324A934235
:101B90002DD10023BB61314B5B6C304A43F0100305
:101BA00053642E4B5B6C03F01003BB61BB690023D5
:101BB0007B612A4B1B6B294A43F001031363274BBC
:101BC0001B6B03F001037B617B694FF4C063FB6116
:101BD00002233B6201237B620323BB620723FB6278
:101BE00007F11C0319461E4800F08CF930E07B68B1
:101BF0001B681C4A93422BD100233B61174B1B6C83
:101C0000164A43F400331364144B1B6C03F4003383
:101C10003B613B690023FB60104B1B6B0F4A43F099
:101C2000010313630D4B1B6B03F00103FB60FB68A7
:101C30000C23FB6102233B6201237B620323BB6213
:101C40000723FB6207F11C031946054800F05AF907
:101C500000BF3037BD4680BD001001400038024053
:101C60000000024000440040DFF834D0FFF7B6FD2A
:101C70000C480D490D4A002302E0D458C4500433E7
:101C8000C4188C42F9D30A4A0A4C002301E01360BD
:101C90000432A242FBD308F051FEFFF779FB7047F4
:101CA0000000012000000020E800002020B2000811
:101CB000E8000020D04F0020FEE7000080B500AF14
:101CC0000E4B1B680D4A43F4007313600B4B1B68EB
:101CD0000A4A43F480631360084B1B68074A43F4C5
:101CE00080731360032000F0D8F80F20FFF79AFCF0
:101CF000FFF76CFC0023184680BD00BF003C02408B
:101D000080B400AF064B1B781A46064B1B68134481
:101D1000044A136000BFBD465DF8047B704700BFF6
:101D20002C000020DC04002080B400AF034B1B68B3
:101D30001846BD465DF8047B704700BFDC040020F8
:101D400080B485B000AF78607B6803F00703FB6068
:101D50000C4BDB68BB60BA684FF6FF031340BB60F7
:101D6000FB681A02BB68134343F0BF6343F40033BC
:101D7000BB60044ABB68D36000BF1437BD465DF842
:101D8000047B704700ED00E080B400AF044BDB68DB
:101D90001B0A03F007031846BD465DF8047B704735
:101DA00000ED00E080B483B000AF0346FB7197F90B
:101DB0000730002B0BDBFB7903F01F02074997F973
:101DC00007305B09012000FA02F241F8232000BF2E
:101DD0000C37BD465DF8047B704700BF00E100E0B2
:101DE00080B483B000AF03463960FB7197F90730C8
:101DF000002B0ADB3B68DAB20C4997F90730120175
:101E0000D2B20B4483F800230AE03B68DAB20849F7
:101E1000FB7903F00F03043B1201D2B20B441A7694
:101E200000BF0C37BD465DF8047B704700E100E061
:101E300000ED00E080B489B000AFF860B9607A606E
:101E4000FB6803F00703FB61FB69C3F10703042B85
:101E500028BF0423BB61FB690433062B02D9FB694D
:101E6000033B00E000237B614FF0FF32BB6902FAC5
:101E700003F3DA43BB681A407B699A404FF0FF31A5
:101E80007B6901FA03F3D9437B680B40134318467F
:101E90002437BD465DF8047B704780B582B000AF43
:101EA00078607868FFF74CFF00BF0837BD4680BDFB
:101EB00080B586B000AF0346B9607A60FB7300233B
:101EC0007B61FFF761FF78617A68B9687869FFF72D
:101ED000B1FF024697F90F3011461846FFF780FF11
:101EE00000BF1837BD4680BD80B582B000AF034645
:101EF000FB7197F907301846FFF754FF00BF08370A
:101F0000BD4680BD80B489B000AF786039600023E1
:101F10007B6100233B610023BB610023FB6159E12E
:101F20000122FB6902FA03F37B613B681B687A6953
:101F300013403B613A697B699A4240F048813B68B3
:101F40005B6803F00303012B05D03B685B6803F07B
:101F50000303022B30D17B689B68BB61FB695B008C
:101F6000032202FA03F3DB43BA691340BB613B6807
:101F7000DA68FB695B0002FA03F3BA691343BB61D9
:101F80007B68BA699A607B685B68BB610122FB6908
:101F900002FA03F3DB43BA691340BB613B685B6839
:101FA0001B0903F00102FB6902FA03F3BA69134348
:101FB000BB617B68BA695A603B685B6803F00303E6
:101FC000032B17D07B68DB68BB61FB695B000322D6
:101FD00002FA03F3DB43BA691340BB613B689A68BA
:101FE000FB695B0002FA03F3BA691343BB617B68C8
:101FF000BA69DA603B685B6803F00303022B23D104
:10200000FB69DA087B68083253F82230BB61FB6950
:1020100003F007039B000F2202FA03F3DB43BA69C4
:102020001340BB613B681A69FB6903F007039B001F
:1020300002FA03F3BA691343BB61FB69DA087B68F0
:102040000832B96943F822107B681B68BB61FB69E1
:102050005B00032202FA03F3DB43BA691340BB615E
:102060003B685B6803F00302FB695B0002FA03F361
:10207000BA691343BB617B68BA691A603B685B68E5
:1020800003F44033002B00F0A2800023FB60574B89
:102090005B6C564A43F480435364544B5B6C03F4CB
:1020A0008043FB60FB68524AFB699B08023352F88D
:1020B0002330BB61FB6903F003039B000F2202FA8C
:1020C00003F3DB43BA691340BB617B68494A93421F
:1020D00019D07B68484A934213D07B68474A9342A1
:1020E0000DD07B68464A934207D07B68454A9342AD
:1020F00001D1042308E0072306E0032304E00223C0
:1021000002E0012300E00023FA6902F003029200DA
:102110009340BA691343BB613549FB699B0802339D
:10212000BA6941F82320384B9B68BB613B69DB43AC
:10213000BA691340BB613B685B6803F48013002BF2
:1021400003D0BA693B691343BB612F4ABB699360F3
:102150002D4BDB68BB613B69DB43BA691340BB6154
:102160003B685B6803F40013002B03D0BA693B693A
:102170001343BB61244ABB69D360234B5B68BB61DB
:102180003B69DB43BA691340BB613B685B6803F49E
:102190000033002B03D0BA693B691343BB611A4A71
:1021A000BB695360184B1B68BB613B69DB43BA6971
:1021B0001340BB613B685B6803F48033002B03D0A2
:1021C000BA693B691343BB610F4ABB691360FB6982
:1021D0000133FB61FB690F2B7FF6A2AE00BF00BF8E
:1021E0002437BD465DF8047B704700BF00380240CD
:1021F0000038014000000240000402400008024094
:10220000000C024000100240003C014080B483B04A
:1022100000AF78600B467B8013467B707B78002B89
:1022200003D07A887B689A6103E07B881A047B6814
:102230009A6100BF0C37BD465DF8047B7047000013
:1022400080B582B000AF0346FB80084B5A69FB881B
:102250001340002B06D0054AFB885361FB881846C3
:10226000FEF754FF00BF0837BD4680BD003C01406B
:1022700080B584B000AF78607B68002B01D101236A
:102280002BE17B6893F83D30DBB2002B06D17B68F5
:10229000002283F83C207868FFF722F87B6824222C
:1022A00083F83D207B681B681A687B681B6822F0F6
:1022B00001021A607B681B681A687B681B6842F41D
:1022C00000421A607B681B681A687B681B6822F4EE
:1022D00000421A6001F02CFCF8607B685B68814A60
:1022E000934207D8FB68804A934294BF012300239E
:1022F000DBB206E0FB687D4A934294BF01230023D2
:10230000DBB2002B01D00123E7E0FB68784AA2FB97
:1023100003239B0CBB607B681B685B6823F03F0159
:102320007B681B68BA680A435A607B681B681B6A33
:1023300023F03F017B685B686A4A934202D8BB681E
:10234000013309E0BB684FF4967202FB03F3694A5C
:10235000A2FB03239B0901337A6812680B431362C3
:102360007B681B68DB6923F44F4222F0FF027B6825
:102370005B685C498B4219D8FB68591E7B685B68B7
:102380005B00B1FBF3F3591C40F6FC730B40002BD0
:102390000AD0FB68591E7B685B685B00B1FBF3F3F6
:1023A0000133C3F30B0351E004234FE07B689B68C8
:1023B000002B11D1FB68581E7B6859680B465B00E7
:1023C0000B44B0FBF3F30133C3F30B03002B0CBF3F
:1023D00001230023DBB212E0FB68581E7B685968BA
:1023E0000B469B000B4499000B44B0FBF3F3013305
:1023F000C3F30B03002B0CBF01230023DBB2002B24
:1024000001D0012322E07B689B68002B0ED1FB6882
:10241000581E7B6859680B465B000B44B0FBF3F316
:102420000133C3F30B0343F400430FE0FB68581E72
:102430007B6859680B469B000B4499000B44B0FB2A
:10244000F3F30133C3F30B0343F4404379680968A2
:102450001343CB617B681B681B6823F0C0017B685A
:10246000DA697B681B6A1A437B681B680A431A6037
:102470007B681B689B6823F4034323F0FF037A689F
:1024800011697A68D26811437A6812680B439360C5
:102490007B681B68DB6823F0FF017B685A697B68F7
:1024A0009B691A437B681B680A43DA607B681B6878
:1024B0001A687B681B6842F001021A607B68002280
:1024C0001A647B68202283F83D207B6800221A630F
:1024D0007B68002283F83E20002318461037BD4653
:1024E00080BD00BFA08601007F841E00FF083D0064
:1024F00083DE1B43D34D621080B588B002AFF86015
:10250000084611461A4603467B810B463B8113461B
:10251000FB80FFF709FC7861FB6893F83D30DBB284
:10252000202B40F0D9807B690093192301226D494B
:10253000F86800F08BFC0346002B01D00223CCE0AE
:10254000FB6893F83C30012B01D10223C5E0FB6806
:10255000012283F83C20FB681B681B6803F0010321
:10256000012B07D0FB681B681A68FB681B6842F0E8
:1025700001021A60FB681B681A68FB681B6822F47A
:1025800000621A60FB68212283F83D20FB6840222C
:1025900083F83E20FB6800221A64FB683A6A5A629C
:1025A000FB68BA8C5A85FB685B8D9AB2FB681A850A
:1025B000FB684D4ADA62F8883A8979897B69019328
:1025C000BB6A00930346F86800F0C2FA0346002B8A
:1025D00052D0012381E07A69B96AF86800F050FDB1
:1025E0000346002B0DD0FB681B6C042B07D1FB6846
:1025F0001B681A68FB681B6842F400721A600123AA
:102600006BE0FB685B6A1A78FB681B681A61FB6801
:102610005B6A5A1CFB685A62FB681B8D013B9AB2CD
:10262000FB681A85FB685B8D9BB2013B9AB2FB6825
:102630005A85FB681B685B6903F00403042B1BD1FC
:10264000FB681B8D002B17D0FB685B6A1A78FB6850
:102650001B681A61FB685B6A5A1CFB685A62FB685C
:102660001B8D013B9AB2FB681A85FB685B8D9BB2A0
:10267000013B9AB2FB685A85FB681B8D002BAAD1DF
:102680007A69B96AF86800F043FD0346002B0DD063
:10269000FB681B6C042B07D1FB681B681A68FB687E
:1026A0001B6842F400721A60012316E0FB681B6885
:1026B0001A68FB681B6842F400721A60FB682022EB
:1026C00083F83D20FB68002283F83E20FB6800224F
:1026D00083F83C20002300E0022318461837BD464B
:1026E00080BD00BF020010000000FFFF80B58CB06D
:1026F00002AFF860084611461A4603467B810B4636
:102700003B811346FB80FFF70FFB7862FB6893F871
:102710003D30DBB2202B40F014827B6A00931923FA
:1027200001227B49F86800F091FB0346002B01D0A1
:10273000022307E2FB6893F83C30012B01D102230E
:1027400000E2FB68012283F83C20FB681B681B68E1
:1027500003F00103012B07D0FB681B681A68FB68B4
:102760001B6842F001021A60FB681B681A68FB686C
:102770001B6822F400621A60FB68222283F83D2065
:10278000FB68402283F83E20FB6800221A64FB6845
:102790003A6B5A62FB68BA8E5A85FB685B8D9AB2B7
:1027A000FB681A85FB685B4ADA62F8883A8979899E
:1027B0007B6A0193BB6B00930346F86800F05EFAF6
:1027C0000346002B01D00123BCE1FB681B8D002BCD
:1027D00013D100233B62FB681B685B693B62FB68AB
:1027E0001B689B693B623B6AFB681B681A68FB6855
:1027F0001B6842F400721A6090E1FB681B8D012B8C
:102800001BD1FB681B681A68FB681B6822F4806296
:102810001A600023FB61FB681B685B69FB61FB6856
:102820001B689B69FB61FB69FB681B681A68FB6896
:102830001B6842F400721A6070E1FB681B8D022B6A
:102840001BD1FB681B681A68FB681B6822F4806256
:102850001A60FB681B681A68FB681B6842F4006218
:102860001A600023BB61FB681B685B69BB61FB6886
:102870001B689B69BB61BB6950E100237B61FB68FE
:102880001B685B697B61FB681B689B697B617B697B
:1028900044E1FB681B8D032B00F2F180FB681B8D6C
:1028A000012B23D17A6AB96BF86800F079FC0346F2
:1028B000002B01D0012345E1FB681B681A69FB6806
:1028C0005B6AD2B21A70FB685B6A5A1CFB685A6278
:1028D000FB681B8D013B9AB2FB681A85FB685B8D18
:1028E0009BB2013B9AB2FB685A8517E1FB681B8DCE
:1028F000022B4ED17B6A0093BB6B00220649F8681D
:1029000000F0A4FA0346002B08D001231AE100BF0F
:10291000020010000000FFFF04000100FB681B68BC
:102920001A68FB681B6842F400721A60FB681B6837
:102930001A69FB685B6AD2B21A70FB685B6A5A1C40
:10294000FB685A62FB681B8D013B9AB2FB681A85D3
:10295000FB685B8D9BB2013B9AB2FB685A85FB68B2
:102960001B681A69FB685B6AD2B21A70FB685B6A03
:102970005A1CFB685A62FB681B8D013B9AB2FB68CC
:102980001A85FB685B8D9BB2013B9AB2FB685A8546
:10299000C4E07B6A0093BB6B00226C49F86800F0CE
:1029A00055FA0346002B01D00123CBE0FB681B68DE
:1029B0001A68FB681B6822F480621A60FB681B6857
:1029C0001A69FB685B6AD2B21A70FB685B6A5A1CB0
:1029D000FB685A62FB681B8D013B9AB2FB681A8543
:1029E000FB685B8D9BB2013B9AB2FB685A857B6AA0
:1029F0000093BB6B00225549F86800F027FA0346A4
:102A0000002B01D001239DE0FB681B681A68FB685E
:102A10001B6842F400721A60FB681B681A69FB6845
:102A20005B6AD2B21A70FB685B6A5A1CFB685A6216
:102A3000FB681B8D013B9AB2FB681A85FB685B8DB6
:102A40009BB2013B9AB2FB685A85FB681B681A6906
:102A5000FB685B6AD2B21A70FB685B6A5A1CFB683F
:102A60005A62FB681B8D013B9AB2FB681A85FB68B2
:102A70005B8D9BB2013B9AB2FB685A854EE07A6A45
:102A8000B96BF86800F08CFB0346002B01D00123E2
:102A900058E0FB681B681A69FB685B6AD2B21A705F
:102AA000FB685B6A5A1CFB685A62FB681B8D013B22
:102AB0009AB2FB681A85FB685B8D9BB2013B9AB2A8
:102AC000FB685A85FB681B685B6903F00403042BF1
:102AD00024D1FB681B8D032B07D1FB681B681A6888
:102AE000FB681B6822F480621A60FB681B681A6925
:102AF000FB685B6AD2B21A70FB685B6A5A1CFB689F
:102B00005A62FB681B8D013B9AB2FB681A85FB6811
:102B10005B8D9BB2013B9AB2FB685A85FB681B8DAB
:102B2000002B7FF4B6AEFB68202283F83D20FB68C3
:102B3000002283F83E20FB68002283F83C2000231B
:102B400000E0022318462837BD4680BD040001007E
:102B500080B588B002AFF860084611461A460346B1
:102B60007B810B463B811346FB80FB681B681A6820
:102B7000FB681B6842F480721A607B6A00933B6AB0
:102B800000224FF00111F86800F060F90346002BB5
:102B90000DD0FB681B681B6803F48073B3F5807F5E
:102BA00003D1FB684FF400721A6403235FE07B8952
:102BB000DBB21A46FB681B6802F0FE021A617B6AF0
:102BC0003A6A2D49F86800F0BBF90346002B01D0A2
:102BD00001234CE000237B61FB681B685B697B6120
:102BE000FB681B689B697B617B697A6A396AF86854
:102BF00000F046FA0346002B0DD0FB681B6C042B3B
:102C000007D1FB681B681A68FB681B6842F40072F6
:102C10001A6001232BE0FB88012B05D13B89DAB236
:102C2000FB681B681A6121E03B891B0A9BB2DAB280
:102C3000FB681B681A617A6A396AF86800F020FA42
:102C40000346002B0DD0FB681B6C042B07D1FB68DF
:102C50001B681A68FB681B6842F400721A60012343
:102C600005E03B89DAB2FB681B681A61002318464D
:102C70001837BD4680BD00BF0200010080B588B096
:102C800002AFF860084611461A4603467B810B46A0
:102C90003B811346FB80FB681B681A68FB681B6856
:102CA00042F480621A60FB681B681A68FB681B6844
:102CB00042F480721A607B6A00933B6A00224FF0F4
:102CC0000111F86800F0C2F80346002B0DD0FB6834
:102CD0001B681B6803F48073B3F5807F03D1FB6826
:102CE0004FF400721A640323AAE07B89DBB21A4610
:102CF000FB681B6802F0FE021A617B6A3A6A52495D
:102D0000F86800F01DF90346002B01D0012397E07D
:102D100000237B61FB681B685B697B61FB681B6848
:102D20009B697B617B697A6A396AF86800F0A8F967
:102D30000346002B0DD0FB681B6C042B07D1FB68EE
:102D40001B681A68FB681B6842F400721A60012352
:102D500076E0FB88012B05D13B89DAB2FB681B6862
:102D60001A6121E03B891B0A9BB2DAB2FB681B683F
:102D70001A617A6A396AF86800F082F90346002B12
:102D80000DD0FB681B6C042B07D1FB681B681A680D
:102D9000FB681B6842F400721A60012350E03B8913
:102DA000DAB2FB681B681A617A6A396AF86800F05F
:102DB00067F90346002B0DD0FB681B6C042B07D171
:102DC000FB681B681A68FB681B6842F400721A6093
:102DD000012335E0FB681B681A68FB681B6842F436
:102DE00080721A607B6A00933B6A00224FF00111E7
:102DF000F86800F02BF80346002B0DD0FB681B6829
:102E00001B6803F48073B3F5807F03D1FB684FF434
:102E100000721A64032313E07B89DBB243F00103E1
:102E2000DAB2FB681B681A617B6A3A6A0649F8687D
:102E300000F086F80346002B01D0012300E00023B8
:102E400018461837BD4680BD0200010080B584B029
:102E500000AFF860B9603B601346FB7148E03B6827
:102E6000B3F1FF3F44D0FEF75FFF0246BB69D31AC0
:102E70003A689A4202D33B68002B39D1BB681B0CDD
:102E8000DBB2012B0DD1FB681B685B69DA43BB68C1
:102E900013409BB2002B0CBF01230023DBB21A4668
:102EA0000CE0FB681B689B69DA43BB6813409BB26C
:102EB000002B0CBF01230023DBB21A46FB799A4298
:102EC00016D1FB6800221A63FB68202283F83D209C
:102ED000FB68002283F83E20FB681B6C43F0200255
:102EE000FB681A64FB68002283F83C20012323E07E
:102EF000BB681B0CDBB2012B0DD1FB681B685B6947
:102F0000DA43BB6813409BB2002B0CBF01230023A4
:102F1000DBB21A460CE0FB681B689B69DA43BB68AE
:102F200013409BB2002B0CBF01230023DBB21A46D7
:102F3000FB799A4293D0002318461037BD4680BDD6
:102F400080B584B000AFF860B9607A603B6071E032
:102F5000FB681B685B6903F48063B3F5806F23D162
:102F6000FB681B681A68FB681B6842F400721A60F1
:102F7000FB681B686FF480625A61FB6800221A6369
:102F8000FB68202283F83D20FB68002283F83E2066
:102F9000FB681B6C43F00402FB681A64FB680022A8
:102FA00083F83C20012367E07B68B3F1FF3F41D009
:102FB000FEF7BAFE02463B68D31A7A689A4202D3F9
:102FC0007B68002B36D1BB681B0CDBB2012B0CD10C
:102FD000FB681B685B69DA43BB6813409BB2002B3C
:102FE00014BF01230023DBB20BE0FB681B689B6965
:102FF000DA43BB6813409BB2002B14BF01230023AC
:10300000DBB2002B16D0FB6800221A63FB6820227B
:1030100083F83D20FB68002283F83E20FB681B6C90
:1030200043F02002FB681A64FB68002283F83C200E
:10303000012321E0BB681B0CDBB2012B0CD1FB6828
:103040001B685B69DA43BB6813409BB2002B14BF5B
:1030500001230023DBB20BE0FB681B689B69DA43AA
:10306000BB6813409BB2002B14BF01230023DBB2CB
:10307000002B7FF46DAF002318461037BD4680BD8E
:1030800080B584B000AFF860B9607A6034E0F86869
:1030900000F0E3F80346002B01D0012334E0BB68C5
:1030A000B3F1FF3F28D0FEF73FFE02467B68D31AFC
:1030B000BA689A4202D3BB68002B1DD1FB681B681B
:1030C0005B6903F08003802B16D0FB6800221A6333
:1030D000FB68202283F83D20FB68002283F83E2015
:1030E000FB681B6C43F02002FB681A64FB6800223B
:1030F00083F83C20012307E0FB681B685B6903F051
:103100008003802BC3D1002318461037BD4680BDF5
:1031100080B584B000AFF860B9607A6034E0F868D8
:1031200000F09BF80346002B01D0012334E0BB687C
:10313000B3F1FF3F28D0FEF7F7FD02467B68D31AB4
:10314000BA689A4202D3BB68002B1DD1FB681B688A
:103150005B6903F00403042B16D0FB6800221A639A
:10316000FB68202283F83D20FB68002283F83E2084
:10317000FB681B6C43F02002FB681A64FB680022AA
:1031800083F83C20012307E0FB681B685B6903F0C0
:103190000403042BC3D1002318461037BD4680BD5D
:1031A00080B584B000AFF860B9607A6049E0FB6830
:1031B0001B685B6903F01003102B19D1FB681B68B7
:1031C0006FF010025A61FB6800221A63FB6820222C
:1031D00083F83D20FB68002283F83E20FB681A6CD0
:1031E000FB681A64FB68002283F83C20012330E06E
:1031F000FEF79AFD02467B68D31ABA689A4202D358
:10320000BB68002B1DD1FB681B685B6903F04003A2
:10321000402B16D0FB6800221A63FB68202283F83B
:103220003D20FB68002283F83E20FB681B6C43F0C6
:103230002002FB681A64FB68002283F83C2001230B
:1032400007E0FB681B685B6903F04003402BAED1CD
:10325000002318461037BD4680BD80B483B000AF50
:1032600078607B681B685B6903F48063B3F5806FEB
:103270001BD17B681B686FF480625A617B680022F7
:103280001A637B68202283F83D207B68002283F844
:103290003E207B681B6C43F004027B681A647B68E9
:1032A000002283F83C20012300E0002318460C375D
:1032B000BD465DF8047B704780B586B000AF78608E
:1032C0007B68002B01D1012367E27B681B6803F058
:1032D0000103002B75D0884B9B6803F00C03042B73
:1032E0000CD0854B9B6803F00C03082B12D1824B4A
:1032F0005B6803F48003B3F5800F0BD17E4B1B6832
:1033000003F40033002B5BD07B685B68002B57D144
:10331000012342E27B685B68B3F5803F06D1764BC0
:103320001B68754A43F4803313601DE07B685B685B
:10333000B3F5A02F0CD1704B1B686F4A43F4802368
:1033400013606D4B1B686C4A43F4803313600BE0D1
:10335000694B1B68684A23F480331360664B1B6813
:10336000654A23F4802313607B685B68002B13D0CD
:10337000FEF7DAFC386108E0FEF7D6FC02463B694E
:10338000D31A642B01D9032307E25B4B1B6803F4B8
:103390000033002BF0D014E0FEF7C6FC386108E0E3
:1033A000FEF7C2FC02463B69D31A642B01D9032302
:1033B000F3E1514B1B6803F40033002BF0D100E024
:1033C00000BF7B681B6803F00203002B63D04A4BED
:1033D0009B6803F00C03002B0BD0474B9B6803F05A
:1033E0000C03082B1CD1444B5B6803F48003002BB7
:1033F00016D1414B1B6803F00203002B05D07B68FC
:10340000DB68012B01D00123C7E13B4B1B6823F094
:10341000F8027B681B69DB00374913430B603AE015
:103420007B68DB68002B20D0344B01221A60FEF74A
:103430007BFC386108E0FEF777FC02463B69D31A53
:10344000022B01D90323A8E12B4B1B6803F00203D5
:10345000002BF0D0284B1B6823F0F8027B681B6917
:10346000DB00254913430B6015E0244B00221A6052
:10347000FEF75AFC386108E0FEF756FC02463B694D
:10348000D31A022B01D9032387E11B4B1B6803F0DE
:103490000203002BF0D17B681B6803F00803002BAC
:1034A00036D07B685B69002B16D0154B01221A6061
:1034B000FEF73AFC386108E0FEF736FC02463B694D
:1034C000D31A022B01D9032367E10B4B5B6F03F087
:1034D0000203002BF0D01BE0094B00221A60FEF71C
:1034E00023FC38610EE0FEF71FFC02463B69D31A4D
:1034F000022B07D9032350E1003802400000474265
:10350000800E4742884B5B6F03F00203002BEAD129
:103510007B681B6803F00403002B00F097800023F6
:10352000FB75814B1B6C03F08053002B0FD10023E4
:10353000BB607D4B1B6C7C4A43F0805313647A4B19
:103540001B6C03F08053BB60BB680123FB75774B9A
:103550001B6803F48073002B18D1744B1B68734AEB
:1035600043F480731360FEF7DFFB386108E0FEF779
:10357000DBFB02463B69D31A022B01D903230CE182
:103580006A4B1B6803F48073002BF0D07B689B6848
:10359000012B06D1644B1B6F634A43F00103136791
:1035A0001CE07B689B68052B0CD15F4B1B6F5E4A50
:1035B00043F0040313675C4B1B6F5B4A43F001034A
:1035C00013670BE0584B1B6F574A23F00103136737
:1035D000554B1B6F544A23F0040313677B689B68A9
:1035E000002B15D0FEF7A0FB38610AE0FEF79CFB2C
:1035F00002463B69D31A41F28832934201D9032330
:10360000CBE0494B1B6F03F00203002BEED014E01C
:10361000FEF78AFB38610AE0FEF786FB02463B694B
:10362000D31A41F28832934201D90323B5E03E4BCD
:103630001B6F03F00203002BEED1FB7D012B05D1A4
:10364000394B1B6C384A23F0805313647B689B69A9
:10365000002B00F0A180344B9B6803F00C03082B77
:103660005CD07B689B69022B41D1314B00221A60F0
:10367000FEF75AFB386108E0FEF756FB02463B694D
:10368000D31A022B01D9032387E0274B1B6803F0D1
:103690000073002BF0D17B68DA697B681B6A1A43E0
:1036A0007B685B6A9B011A437B689B6A5B08013BF2
:1036B0001B041A437B68DB6A1B061B4913434B60E0
:1036C0001B4B01221A60FEF72FFB386108E0FEF762
:1036D0002BFB02463B69D31A022B01D903235CE082
:1036E000114B1B6803F00073002BF0D054E0104B1B
:1036F00000221A60FEF718FB386108E0FEF714FBA1
:1037000002463B69D31A022B01D9032345E0064B3D
:103710001B6803F00073002BF0D13DE07B689B69D0
:10372000012B07D1012338E000380240007000402F
:10373000600047421B4B5B68FB607B689B69012B09
:1037400028D0FB6803F480027B68DB699A4221D1B0
:10375000FB6803F03F027B681B6A9A421AD1FA6841
:1037600047F6C07313407A68526A9201934211D1AE
:10377000FB6803F440327B689B6A5B08013B1B04D7
:103780009A4207D1FB6803F070627B68DB6A1B0614
:103790009A4201D0012300E0002318461837BD46A5
:1037A00080BD00BF0038024080B584B000AF7860B3
:1037B00039607B68002B01D10123CCE0684B1B688A
:1037C00003F007033A689A420CD9654B3A68D2B2C3
:1037D0001A70634B1B6803F007033A689A4201D0E2
:1037E0000123B8E07B681B6803F00203002B20D0A4
:1037F0007B681B6803F00403002B05D0594B9B68C2
:10380000584A43F4E05393607B681B6803F0080355
:10381000002B05D0534B9B68524A43F4604393609E
:10382000504B9B6823F0F0027B689B684D49134323
:103830008B607B681B6803F00103002B44D07B681E
:103840005B68012B07D1474B1B6803F40033002B47
:1038500019D101237FE07B685B68022B03D07B6872
:103860005B68032B07D13F4B1B6803F00073002BF1
:1038700009D101236FE03B4B1B6803F00203002BCF
:1038800001D1012367E0374B9B6823F003027B687B
:103890005B68344913438B60FEF746FAF8600AE030
:1038A000FEF742FA0246FB68D31A41F2883293428D
:1038B00001D903234FE02B4B9B6803F00C027B687C
:1038C0005B689B009A42EBD1254B1B6803F0070312
:1038D0003A689A420CD2224B3A68D2B21A70204B04
:1038E0001B6803F007033A689A4201D0012332E0D3
:1038F0007B681B6803F00403002B08D0194B9B68FE
:1039000023F4E0527B68DB68164913438B607B68C5
:103910001B6803F00803002B09D0124B9B6823F4AB
:1039200060427B681B69DB000E4913438B6000F02B
:103930002DF802460B4B9B681B0903F00F030A4945
:10394000CB5C22FA03F3094A1360094B1B68184643
:10395000FDF768FE002318461037BD4680BD00BF46
:10396000003C02400038024084B1000824000020DE
:103970002800002080B400AF034B01221A6000BF72
:10398000BD465DF8047B70474C0047422DE9B04FBF
:1039900090B000AF00237B630023FB6300233B63F5
:1039A0000023BB63594B9B6803F00C03082B0DD01D
:1039B000082B00F2A180002B02D0042B03D09BE047
:1039C000534BBB639BE0534BBB6398E04F4B5B682F
:1039D00003F03F037B634D4B5B6803F48003002BD4
:1039E00028D04A4B5B689B0900223B627A623B6AA3
:1039F000C3F308000021474B03FB01F2002300FB47
:103A000003F31344434AA0FB0212FA620A46BA6265
:103A1000FA6A1344FB627B6B0022BB61FA61D7E94F
:103A20000623D7E90A01FDF797F802460B4613462D
:103A3000FB6353E0354B5B689B0900223B617A6175
:103A40003B69C3F3080A4FF0000B52465B464FF048
:103A500000004FF00001590141EAD26150010246D5
:103A60000B46B2EB0A0863EB0B094FF000024FF074
:103A700000034FEA891343EA98634FEA8812B2EBD6
:103A8000080463EB09054FF000024FF00003EB0060
:103A900043EA5473E20014461D4614EB0A033B60EC
:103AA00045EB0B037B604FF000024FF00003D7E9BA
:103AB000004529468B02214643EA915321468A025A
:103AC000104619467B6B0022BB60FA60D7E90223DF
:103AD000FDF742F802460B461346FB630B4B5B684F
:103AE0001B0C03F0030301335B003B63FA6B3B6B7E
:103AF000B2FBF3F3BB6302E0054BBB6300BFBB6BE0
:103B000018464037BD46BDE8B08F00BF00380240C0
:103B10000024F40040787D0180B400AF034B1B68A3
:103B20001846BD465DF8047B704700BF24000020A6
:103B300080B500AFFFF7F0FF0246054B9B689B0A7C
:103B400003F007030349CB5C22FA03F3184680BD58
:103B50000038024094B1000880B500AFFFF7DCFFE9
:103B60000246054B9B685B0B03F007030349CB5CE4
:103B700022FA03F3184680BD0038024094B10008D1
:103B800080B483B000AF786039607B680F221A6020
:103B9000124B9B6803F003027B685A600F4B9B68D3
:103BA00003F0F0027B689A600C4B9B6803F4E052D0
:103BB0007B68DA60094B9B68DB0803F4E0527B68A2
:103BC0001A61074B1B6803F007023B681A6000BFCD
:103BD0000C37BD465DF8047B704700BF00380240DB
:103BE000003C024080B500AF064BDB6803F0800369
:103BF000802B04D100F00AF8034B80221A7000BF1A
:103C000080BD00BF003802400E38024080B400AFD3
:103C100000BFBD465DF8047B704780B582B000AF41
:103C200078607B68002B01D101237BE07B685B6AB5
:103C3000002B08D17B685B68B3F5827F09D07B6875
:103C40000022DA6105E07B6800221A617B680022AD
:103C50005A617B6800229A627B6893F85130DBB22C
:103C6000002B06D17B68002283F850207868FDF78E
:103C700065FC7B68022283F851207B681B681A6808
:103C80007B681B6822F040021A607B685B6803F463
:103C900082727B689B6803F404431A437B68DB6889
:103CA00003F400631A437B681B6903F002031A43A1
:103CB0007B685B6903F001031A437B689B6903F42B
:103CC00000731A437B68DB6903F038031A437B688F
:103CD0001B6A03F0800342EA03017B689B6A03F4DA
:103CE00000527B681B680A431A607B689B691B0C47
:103CF00003F004017B685B6A03F010027B681B68B9
:103D00000A435A607B681B68DA697B681B6822F487
:103D10000062DA617B6800225A657B68012283F8C1
:103D20005120002318460837BD4680BD80B588B0B5
:103D300000AFF860B9603B601346FB80FDF7F4FF0D
:103D4000F861FB887B83FB6893F85130DBB2012B71
:103D500001D002232AE1BB68002B02D0FB88002B94
:103D600001D1012322E1FB6893F85030012B01D1EE
:103D700002231BE1FB68012283F85020FB68032229
:103D800083F85120FB6800225A65FB68BA681A6301
:103D9000FB68FA889A86FB68FA88DA86FB68002254
:103DA0009A63FB6800229A87FB680022DA87FB6827
:103DB00000225A64FB6800221A64FB689B68B3F512
:103DC000004F0FD1FB681B681A68FB681B6822F064
:103DD00040021A60FB681B681A68FB681B6842F4A3
:103DE00080421A60FB681B681B6803F04003402B8D
:103DF00007D0FB681B681A68FB681B6842F040022A
:103E00001A60FB68DB68B3F5006F52D1FB685B6832
:103E1000002B02D07B8B012B45D1FB681B6B1A88D2
:103E2000FB681B68DA60FB681B6B9A1CFB681A63F3
:103E3000FB68DB8E9BB2013B9AB2FB68DA8632E00C
:103E4000FB681B689B6803F00203022B12D1FB681E
:103E50001B6B1A88FB681B68DA60FB681B6B9A1C7B
:103E6000FB681A63FB68DB8E9BB2013B9AB2FB686E
:103E7000DA8618E0FDF758FF0246FB69D31A3A6864
:103E80009A4203D83B68B3F1FF3F02D13B68002B55
:103E900009D1FB68012283F85120FB68002283F8D6
:103EA0005020032382E0FB68DB8E9BB2002BC7D13E
:103EB00053E0FB685B68002B02D07B8B012B47D162
:103EC000FB681A6BFB681B680C3312781A70FB686E
:103ED0001B6B5A1CFB681A63FB68DB8E9BB2013BB1
:103EE0009AB2FB68DA8633E0FB681B689B6803F0D4
:103EF0000203022B13D1FB681A6BFB681B680C339F
:103F000012781A70FB681B6B5A1CFB681A63FB68FB
:103F1000DB8E9BB2013B9AB2FB68DA8618E0FDF7B4
:103F200003FF0246FB69D31A3A689A4203D83B68FA
:103F3000B3F1FF3F02D13B68002B09D1FB6801229E
:103F400083F85120FB68002283F8502003232DE0E2
:103F5000FB68DB8E9BB2002BC6D1FA693968F86822
:103F600000F0E6FB0346002B02D0FB6820225A65D6
:103F7000FB689B68002B0AD100237B61FB681B68F0
:103F8000DB687B61FB681B689B687B617B69FB6806
:103F9000012283F85120FB68002283F85020FB683F
:103FA0005B6D002B01D0012300E000231846203771
:103FB000BD4680BD80B588B002AFF860B9603B6097
:103FC0001346FB80FB6893F85130DBB2012B01D024
:103FD000022304E1FB685B68B3F5827F12D1FB68C2
:103FE0009B68002B0ED1FB68042283F85120FA88CD
:103FF0003B6800931346BA68B968F86800F0F3F8B4
:104000000346ECE0FDF790FE7861BB68002B02D020
:10401000FB88002B01D10123E1E0FB6893F85030CD
:10402000012B01D10223DAE0FB68012283F8502042
:10403000FB68042283F85120FB6800225A65FB6864
:10404000BA689A63FB68FA889A87FB68FA88DA8705
:10405000FB6800221A63FB6800229A86FB68002234
:10406000DA86FB6800221A64FB6800225A64FB6847
:104070009B68B3F5004F0FD1FB681B681A68FB689B
:104080001B6822F040021A60FB681B681A68FB6814
:104090001B6822F480421A60FB681B681B6803F0EF
:1040A0004003402B07D0FB681B681A68FB681B683D
:1040B00042F040021A60FB68DB68002B70D135E0EB
:1040C000FB681B689B6803F00103012B15D1FB689B
:1040D0001B6803F10C02FB689B6B1278D2B21A705A
:1040E000FB689B6B5A1CFB689A63FB68DB8F9BB277
:1040F000013B9AB2FB68DA8718E0FDF715FE02462D
:104100007B69D31A3A689A4203D83B68B3F1FF3F00
:1041100002D13B68002B09D1FB68012283F85120B2
:10412000FB68002283F85020032358E0FB68DB8FF4
:104130009BB2002BC4D138E0FB681B689B6803F07E
:104140000103012B13D1FB681B68DA68FB689B6BCA
:1041500092B21A80FB689B6B9A1CFB689A63FB689F
:10416000DB8F9BB2013B9AB2FB68DA8718E0FDF760
:10417000DBFD02467B69D31A3A689A4203D83B6852
:10418000B3F1FF3F02D13B68002B09D1FB6801224C
:1041900083F85120FB68002283F8502003231EE09F
:1041A000FB68DB8F9BB2002BC6D17A693968F8684F
:1041B00000F058FA0346002B02D0FB6820225A6513
:1041C000FB68012283F85120FB68002283F850200D
:1041D000FB685B6D002B01D0012300E00023184633
:1041E0001837BD4680BD80B58AB000AFF860B960B1
:1041F0007A607B8001237B62FDF796FD3862FB6865
:1042000093F85130FB77FB685B68BB617B88FB826E
:10421000FB7F012B0CD0BB69B3F5827F06D1FB6815
:104220009B68002B02D1FB7F042B01D002237FE18E
:10423000BB68002B05D07B68002B02D07B88002B4D
:1042400001D1012374E1FB6893F85030012B01D1B7
:1042500002236DE1FB68012283F85020FB6893F88C
:104260005130DBB2042B03D0FB68052283F85120C8
:10427000FB6800225A65FB687A689A63FB687A8853
:10428000DA87FB687A889A87FB68BA681A63FB68E2
:104290007A88DA86FB687A889A86FB6800221A6434
:1042A000FB6800225A64FB681B681B6803F040032C
:1042B000402B07D0FB681B681A68FB681B6842F03C
:1042C00040021A60FB68DB68B3F5006F7ED1FB68C3
:1042D0005B68002B02D0FB8A012B6CD1FB681B6B47
:1042E0001A88FB681B68DA60FB681B6B9A1CFB680A
:1042F0001A63FB68DB8E9BB2013B9AB2FB68DA86DD
:1043000059E0FB681B689B6803F00203022B1BD17A
:10431000FB68DB8E9BB2002B16D07B6A012B13D17E
:10432000FB681B6B1A88FB681B68DA60FB681B6BF9
:104330009A1CFB681A63FB68DB8E9BB2013B9AB246
:10434000FB68DA8600237B62FB681B689B6803F0CE
:104350000103012B19D1FB68DB8F9BB2002B14D01A
:10436000FB681B68DA68FB689B6B92B21A80FB687B
:104370009B6B9A1CFB689A63FB68DB8F9BB2013BCB
:104380009AB2FB68DA8701237B62FDF7CDFC024617
:104390003B6AD31A3A6B9A420DD83B6BB3F1FF3F9D
:1043A00009D0FB68012283F85120FB68002283F8C2
:1043B00050200323BCE0FB68DB8E9BB2002BA0D116
:1043C000FB68DB8F9BB2002B9BD182E0FB685B68B4
:1043D000002B02D0FB8A012B71D1FB681A6BFB68A2
:1043E0001B680C3312781A70FB681B6B5A1CFB6835
:1043F0001A63FB68DB8E9BB2013B9AB2FB68DA86DC
:104400005DE0FB681B689B6803F00203022B1CD174
:10441000FB68DB8E9BB2002B17D07B6A012B14D17B
:10442000FB681A6BFB681B680C3312781A70FB6808
:104430001B6B5A1CFB681A63FB68DB8E9BB2013B4B
:104440009AB2FB68DA8600237B62FB681B689B6874
:1044500003F00103012B19D1FB68DB8F9BB2002B0A
:1044600014D0FB681B68DA68FB689B6BD2B21A70C9
:10447000FB689B6B5A1CFB689A63FB68DB8F9BB2E3
:10448000013B9AB2FB68DA8701237B62FDF74CFCA3
:1044900002463B6AD31A3A6B9A4203D83B6BB3F19C
:1044A000FF3F02D13B6B002B09D1FB68012283F84F
:1044B0005120FB68002283F85020032338E0FB687A
:1044C000DB8E9BB2002B9CD1FB68DB8F9BB2002B59
:1044D00097D13A6A396BF86800F02AF90346002B45
:1044E00008D0FB6820225A65FB68002283F8502020
:1044F00001231DE0FB689B68002B0AD100233B6170
:10450000FB681B68DB683B61FB681B689B683B6161
:104510003B69FB68012283F85120FB68002283F885
:104520005020FB685B6D002B01D0012300E00023CD
:1045300018462837BD4680BD80B483B000AF786090
:104540007B6893F85130DBB218460C37BD465DF8F6
:10455000047B704780B588B000AFF860B9603B60FD
:104560001346FB71FDF7E0FB0246BB6A9B1A3A68F3
:104570001344FB61FDF7D8FBB861394B1B685B0145
:104580001B0DFA6902FB03F37B6154E03B68B3F156
:10459000FF3F50D0FDF7C8FB0246BB69D31AFA694A
:1045A0009A4202D9FB69002B3DD1FB681B685A680F
:1045B000FB681B6822F0E0025A60FB685B68B3F599
:1045C000827F11D1FB689B68B3F5004F04D0FB6874
:1045D0009B68B3F5806F07D1FB681B681A68FB689E
:1045E0001B6822F040021A60FB689B6AB3F5005F0B
:1045F0000FD1FB681B681A68FB681B6822F4005225
:104600001A60FB681B681A68FB681B6842F400525A
:104610001A60FB68012283F85120FB68002283F8AE
:104620005020032317E07B69002B01D10023FB619D
:104630007B69013B7B61FB681B689A68BB68134020
:10464000BA689A420CBF01230023DBB21A46FB79F9
:104650009A429BD1002318462037BD4680BD00BF3B
:104660002400002080B586B002AFF860B9607A609F
:10467000FB685B68B3F5827F11D1FB689B68B3F57B
:10468000004F04D0FB689B68B3F5806F07D1FB68CF
:104690001B681A68FB681B6822F040021A60FB68FE
:1046A0005B68B3F5827F2AD1FB689B68B3F5806FA6
:1046B00012D07B680093BB6800228021F868FFF766
:1046C00049FF0346002B2DD0FB685B6D43F02002B1
:1046D000FB685A65032326E07B680093BB680022D1
:1046E0000121F868FFF736FF0346002B1AD0FB685C
:1046F0005B6D43F02002FB685A65032313E07B687F
:104700000093BB6800220121F868FFF723FF0346EE
:10471000002B07D0FB685B6D43F02002FB685A65F5
:10472000032300E0002318461037BD4680BD00007B
:1047300080B588B002AFF860B9607A607B6800939A
:10474000BB6801220221F868FFF704FF0346002B33
:1047500007D0FB685B6D43F02002FB685A650323BA
:1047600032E01B4B1B681B4AA2FB03235B0D4FF47B
:104770007A7202FB03F37B61FB685B68B3F5827FAF
:1047800012D17B680093BB6800228021F868FFF794
:10479000E1FE0346002B16D0FB685B6D43F0200260
:1047A000FB685A6503230FE07B69002B0AD07B6905
:1047B000013B7B61FB681B689B6803F08003802BD7
:1047C000F2D000E000BF002318461837BD4680BD78
:1047D00024000020819F5E1680B582B000AF786013
:1047E0007B68002B01D101234CE07B6893F83D30BE
:1047F000DBB2002B11D17B68002283F83C20786863
:1048000000F0BEFC7B689B6C002B02D17B681F4ACA
:104810009A647B689B6C786898477B68022283F86F
:104820003D207B681A687B6804331946104600F007
:10483000FDFA7B68012283F846207B68012283F819
:104840003E207B68012283F83F207B68012283F8A9
:1048500040207B68012283F841207B68012283F895
:1048600042207B68012283F843207B68012283F881
:1048700044207B68012283F845207B68012283F86D
:104880003D20002318460837BD4680BD91480008EA
:1048900080B483B000AF786000BF0C37BD465DF8D0
:1048A000047B704780B485B000AF78607B6893F874
:1048B0003D30DBB2012B01D0012344E07B680222B2
:1048C00083F83D207B681B68DA687B681B6842F0D0
:1048D0000102DA607B681B681E4A934218D07B682D
:1048E0001B68B3F1804F13D07B681B681A4A934250
:1048F0000ED07B681B68194A934209D07B681B68FD
:10490000174A934204D07B681B68164A934211D120
:104910007B681B689B6803F00703FB60FB68062B42
:1049200010D07B681B681A687B681B6842F0010224
:104930001A6007E07B681B681A687B681B6842F096
:1049400001021A60002318461437BD465DF8047B47
:10495000704700BF00000140000400400008004014
:10496000000C00400040014080B582B000AF78608C
:104970007B68002B01D101234CE07B6893F83D302C
:10498000DBB2002B11D17B68002283F83C207868D1
:1049900000F0F6FB7B681B6D002B02D17B681F4A81
:1049A0001A657B681B6D786898477B68022283F8DC
:1049B0003D207B681A687B6804331946104600F076
:1049C00035FA7B68012283F846207B68012283F850
:1049D0003E207B68012283F83F207B68012283F818
:1049E00040207B68012283F841207B68012283F804
:1049F00042207B68012283F843207B68012283F8F0
:104A000044207B68012283F845207B68012283F8DB
:104A10003D20002318460837BD4680BDD119000847
:104A200080B584B000AF78607B681B68DB68FB6092
:104A30007B681B681B69BB60BB6803F00203002B2B
:104A400026D0FB6803F00203002B21D07B681B6893
:104A50006FF002021A617B6801221A777B681B687B
:104A60009B6903F00303002B05D07B68D3F89030DB
:104A70007868984709E07B68D3F898307868984759
:104A80007B68D3F89C30786898477B6800221A7757
:104A9000BB6803F00403002B26D0FB6803F004037B
:104AA000002B21D07B681B686FF004021A617B68C1
:104AB00002221A777B681B689B6903F44073002B02
:104AC00005D07B68D3F890307868984709E07B6818
:104AD000D3F89830786898477B68D3F89C3078682A
:104AE00098477B6800221A77BB6803F00803002B05
:104AF00026D0FB6803F00803002B21D07B681B68DD
:104B00006FF008021A617B6804221A777B681B68C1
:104B1000DB6903F00303002B05D07B68D3F89030EA
:104B20007868984709E07B68D3F8983078689847A8
:104B30007B68D3F89C30786898477B6800221A77A6
:104B4000BB6803F01003002B26D0FB6803F01003B2
:104B5000002B21D07B681B686FF010021A617B6804
:104B600008221A777B681B68DB6903F44073002B0B
:104B700005D07B68D3F890307868984709E07B6867
:104B8000D3F89830786898477B68D3F89C30786879
:104B900098477B6800221A77BB6803F00103002B5B
:104BA0000ED0FB6803F00103002B09D07B681B6863
:104BB0006FF001021A617B68D3F8803078689847FB
:104BC000BB6803F08003002B0ED0FB6803F080036A
:104BD000002B09D07B681B686FF080021A617B682C
:104BE000D3F8B03078689847BB6803F04003002BD7
:104BF0000ED0FB6803F04003002B09D07B681B68D4
:104C00006FF040021A617B68D3F888307868984763
:104C1000BB6803F02003002B0ED0FB6803F02003D9
:104C2000002B09D07B681B686FF020021A617B683B
:104C3000D3F8A8307868984700BF1037BD4680BDCC
:104C400080B586B000AFF860B9607A600023FB756C
:104C5000FB6893F83C30012B01D1022388E0FB680C
:104C6000012283F83C207B68002B1BD1FB6818686D
:104C7000BB681968BB685A68BB68DB6800F062F9FA
:104C8000FB681B689A69FB681B6822F00C029A613A
:104C9000FB681B689969BB689A68FB681B680A43D4
:104CA0009A6160E07B68042B1CD1FB681868BB68C4
:104CB0001968BB685A68BB68DB6800F0ABF9FB6831
:104CC0001B689A69FB681B6822F440629A61FB6862
:104CD0001B689969BB689B681A02FB681B680A43DA
:104CE0009A6140E07B68082B1BD1FB681868BB68A1
:104CF0001968BB685A68BB68DB6800F0C8F9FB68D4
:104D00001B68DA69FB681B6822F00C02DA61FB6839
:104D10001B68D969BB689A68FB681B680A43DA613B
:104D200021E07B680C2B1CD1FB681868BB681968F4
:104D3000BB685A68BB68DB6800F0E5F9FB681B6874
:104D4000DA69FB681B6822F44062DA61FB681B6861
:104D5000D969BB689B681A02FB681B680A43DA6161
:104D600001E00123FB75FB68002283F83C20FB7DFA
:104D700018461837BD4680BD80B483B000AF786058
:104D800000BF0C37BD465DF8047B704780B483B02C
:104D900000AF786000BF0C37BD465DF8047B7047FC
:104DA00080B483B000AF786000BF0C37BD465DF8BB
:104DB000047B704780B483B000AF786000BF0C37CD
:104DC000BD465DF8047B704780B483B000AF786067
:104DD00000BF0C37BD465DF8047B704780B483B0DC
:104DE00000AF786000BF0C37BD465DF8047B7047AC
:104DF00080B483B000AF786000BF0C37BD465DF86B
:104E0000047B704780B483B000AF786000BF0C377C
:104E1000BD465DF8047B704780B483B000AF786016
:104E200000BF0C37BD465DF8047B704780B485B089
:104E300000AF786039607B681B68FB607B683A4A2A
:104E400093420FD07B68B3F1804F0BD07B68374A19
:104E5000934207D07B68364A934203D07B68354A39
:104E6000934208D1FB6823F07003FB603B685B68EA
:104E7000FA681343FB607B682B4A93421BD07B6824
:104E8000B3F1804F17D07B68284A934213D07B68D8
:104E9000274A93420FD07B68264A93420BD07B6807
:104EA000254A934207D07B68244A934203D07B680B
:104EB000234A934208D1FB6823F44073FB603B68AC
:104EC000DB68FA681343FB60FB6823F080023B68F1
:104ED0005B691343FB607B68FA681A603B689A68F9
:104EE0007B68DA623B681A687B689A627B680E4A64
:104EF000934203D13B681A697B681A637B6801227D
:104F00005A617B681B6903F00103012B05D17B68A3
:104F10001B6923F001027B681A6100BF1437BD468C
:104F20005DF8047B704700BF0000014000040040B2
:104F300000080040000C00400040014000440140D7
:104F40000048014080B487B000AFF860B9607A6073
:104F50003B60FB681B6A3B61FB681B6A23F0010234
:104F6000FB681A62FB689B697B61FB68244A934279
:104F700013D0FB68B3F1804F0FD0FB68214A9342F6
:104F80000BD0FB68204A934207D0FB681F4A93422C
:104F900003D0FB681E4A934201D1012300E00023A5
:104FA000002B08D07B6923F003037B617A697B685F
:104FB00013437B6103E07B6943F001037B617B6901
:104FC00023F0F0037B613B681B01DBB27A6913437A
:104FD0007B613B6923F00A033B61BB6803F00A0372
:104FE0003A6913433B61FB687A699A61FB683A69E5
:104FF0001A6200BF1C37BD465DF8047B704700BFD6
:10500000000001400004004000080040000C004087
:105010000040014080B487B000AFF860B9607A60AA
:105020003B60FB681B6A7B61FB681B6A23F0100214
:10503000FB681A62FB689B693B613B6923F4407320
:105040003B617B681B023A6913433B613B6923F474
:1050500070433B613B681B039BB23A6913433B615E
:105060007B6923F0A0037B61BB681B0103F0A003F5
:105070007A6913437B61FB683A699A61FB687A69D4
:105080001A6200BF1C37BD465DF8047B704780B4D0
:1050900087B000AFF860B9607A603B60FB681B6A5C
:1050A0007B61FB681B6A23F48072FB681A62FB68F1
:1050B000DB693B613B6923F003033B613A697B6831
:1050C00013433B613B6923F0F0033B613B681B01E9
:1050D000DBB23A6913433B617B6923F420637B6154
:1050E000BB681B0203F420637A6913437B61FB688E
:1050F0003A69DA61FB687A691A6200BF1C37BD46FB
:105100005DF8047B704780B487B000AFF860B96089
:105110007A603B60FB681B6A7B61FB681B6A23F457
:105120008052FB681A62FB68DB693B613B6923F4D0
:1051300040733B617B681B023A6913433B613B69E7
:1051400023F470433B613B681B039BB23A691343F2
:105150003B617B6923F420437B61BB681B0303F441
:1051600020437A6913437B61FB683A69DA61FB6823
:105170007A691A6200BF1C37BD465DF8047B704730
:1051800080B483B000AF78607B681C4AC3F880208D
:105190007B681B4AC3F884207B681A4AC3F88820BE
:1051A0007B68194AC3F88C207B68184AC3F89020A2
:1051B0007B68174AC3F894207B68164AC3F8982086
:1051C0007B68154AC3F89C207B68144AC3F8A0206A
:1051D0007B68134AC3F8A4207B68124AC3F8A8204E
:1051E0007B68114AC3F8AC207B68104AC3F8B02032
:1051F00000BF0C37BD465DF8047B7047A114000862
:10520000794D0008F14D0008054E0008A14D000839
:10521000B54D00088D4D0008C94D0008DD4D000852
:10522000194E00080D53000821530008355300089B
:1052300080B485B000AF786039607B6893F83C300B
:10524000012B01D1022350E07B68012283F83C202E
:105250007B68022283F83D207B681B685B68FB60EB
:105260007B681B689B68BB60FB6823F07003FB6076
:105270003B681B68FA681343FB607B681B68FA682D
:105280005A607B681B681C4A934218D07B681B6875
:10529000B3F1804F13D07B681B68184A93420ED03D
:1052A0007B681B68164A934209D07B681B68154AC5
:1052B000934204D07B681B68134A93420CD1BB68AD
:1052C00023F08003BB603B685B68BA681343BB6034
:1052D0007B681B68BA689A607B68012283F83D206E
:1052E0007B68002283F83C20002318461437BD4613
:1052F0005DF8047B704700BF0000014000040040DF
:1053000000080040000C00400040014080B483B021
:1053100000AF786000BF0C37BD465DF8047B704776
:1053200080B483B000AF786000BF0C37BD465DF835
:10533000047B704780B483B000AF786000BF0C3747
:10534000BD465DF8047B704780B582B000AF7860E1
:105350007B68002B01D101234DE07B6893F841303D
:10536000DBB2002B11D17B68002283F840207868E3
:1053700000F0A4F87B681B6F002B02D17B68204AE9
:105380001A677B681B6F786898477B68242283F8CC
:1053900041207B681B68DA687B681B6822F4005236
:1053A000DA60786800F0C2F87B681B681A697B686D
:1053B0001B6822F490421A617B681B685A697B68FB
:1053C0001B6822F02A025A617B681B68DA687B68D6
:1053D0001B6842F40052DA607B6800225A647B68E2
:1053E000202283F841207B68202283F842207B68BA
:1053F00000225A63002318460837BD4680BD00BF0F
:10540000711B000880B483B000AF786000BF0C3718
:10541000BD465DF8047B704780B483B000AF786010
:1054200000BF0C37BD465DF8047B704780B483B085
:1054300000AF786000BF0C37BD465DF8047B704755
:1054400080B483B000AF786000BF0C37BD465DF814
:10545000047B704780B483B000AF786000BF0C3726
:10546000BD465DF8047B704780B483B000AF7860C0
:1054700000BF0C37BD465DF8047B704780B483B035
:1054800000AF786000BF0C37BD465DF8047B704705
:1054900080B483B000AF786000BF0C37BD465DF8C4
:1054A000047B704780B483B000AF78600B467B808C
:1054B00000BF0C37BD465DF8047B704780B483B0F5
:1054C00000AF78607B68104A9A647B680F4ADA64A0
:1054D0007B680F4A1A657B680E4A5A657B680E4ADC
:1054E0009A657B680D4ADA657B680D4A1A667B68A7
:1054F0000C4A5A667B680C4ADA6600BF0C37BD4618
:105500005DF8047B704700BF19540008055400087B
:10551000415400082D5400085554000869540008EF
:105520007D54000891540008A55400082DE9B04F9F
:10553000C0B000AFC7F8F400D7F8F4301B681B699F
:1055400023F44050D7F8F430D968D7F8F4301A680B
:1055500040EA01031361D7F8F4309A68D7F8F430C1
:105560001B691A43D7F8F4305B691A43D7F8F43053
:10557000DB691343C7F8F830D7F8F4301B68DB68F1
:1055800023F4164121F00C01D7F8F4301A68D7F84B
:10559000F8300B43D360D7F8F4301B685B6923F411
:1055A0004070D7F8F4309969D7F8F4301A6840EAB7
:1055B00001035361D7F8F4301A688F4B9A4205D033
:1055C000D7F8F4301A688D4B9A4204D1FEF7C4FA2A
:1055D000C7F8FC0003E0FEF7ABFAC7F8FC00D7F809
:1055E000F430DB69B3F5004F40F00C81D7F8FC30A4
:1055F0000022C7F8E830C7F8EC20D7E93A45224640
:105600002B469118B9655B41FB65D7E91623214606
:1056100012EB0108294643EB01094FF000024FF05D
:1056200000034FEAC90343EA58734FEAC8029046A1
:105630009946234618EB0303C7F8E0302B4649EBA5
:105640000303C7F8E430D7F8F4305B680022C7F8EA
:10565000D830C7F8DC20D7E936120B46DB183B659B
:10566000134642EB03037B65D7E91423D7E93801DE
:10567000FBF772FA02460B46614BA3FB02235B0960
:105680001C01D7F8FC300022C7F8D030C7F8D4206E
:10569000D7E9348942464B469118B9645B41FB64B3
:1056A000D7E91223414612EB010A494643EB010BAD
:1056B0004FF000024FF000034FEACB0343EA5A7366
:1056C0004FEACA0292469B4643461AEB0303C7F8C9
:1056D000C8304B464BEB0303C7F8CC30D7F8F43057
:1056E0005B680022C7F8C030C7F8C420D7E9301281
:1056F0000B46DB183B64134642EB03037B64D7E99C
:105700001023D7E93201FBF727FA02460B46114670
:105710003B4BA3FB01235B09642202FB03F3CB1A7F
:10572000DB0003F13202364BA3FB02235B095B0073
:1057300003F4F8731C44D7F8FC300022C7F8B830E3
:10574000C7F8BC20D7E92E8942464B469118B96369
:105750005B41FB63D7E90E23414651183963494643
:105760004B417B634FF000024FF00003D7E90CABD5
:105770005946CB00514643EA51735146CA00104680
:105780001946034642469B18C7F8B0304B460A46B6
:1057900042EB0303C7F8B430D7F8F4305B6800225B
:1057A000C7F8A830C7F8AC20D7E92A120B46DB1897
:1057B000BB62134642EB0303FB62D7E90A23D7E936
:1057C0002C01FBF7C9F902460B460D4BA3FB021354
:1057D0005B09642101FB03F3D31ADB003233084A6F
:1057E000A2FB03235B0903F00702D7F8F4301B6820
:1057F00022449A6006E100BF0010014000140140FD
:105800001F85EB51D7F8FC300022C7F8A030C7F84D
:10581000A420D7E9288942464B46911839625B415A
:105820007B62D7E9082341465418494643EB0105FA
:105830004FF000024FF00003EB0043EA5473E20024
:1058400014461D464346E318C7F898304B4645EBCF
:105850000303C7F89C30D7F8F4305B680022C7F820
:105860009030C7F894204FF000024FF00003D7E9C2
:10587000244529468B00214643EA917321468A003C
:10588000D7E92601FBF768F902460B46604BA3FBFC
:1058900002235B091C01D7F8FC300022C7F88830CE
:1058A000C7F88C20D7E9228942464B469118B96146
:1058B0005B41FB61D7E906234146511839614946EE
:1058C0004B417B614FF000024FF00003D7E904AB7E
:1058D0005946CB00514643EA51735146CA0010461F
:1058E0001946034642469B18C7F880304B460A4685
:1058F00042EB0303C7F88430D7F8F4305B6800222A
:10590000BB67FA674FF000024FF00003D7E91E892A
:1059100049468B00414643EA917341468A00D7E9E4
:105920002001FBF719F902460B461146384BA3FB41
:1059300001235B09642202FB03F3CB1A1B01323300
:10594000334AA2FB03235B0903F0F0031C44D7F89E
:10595000FC3000223B677A67D7E91C8942464B46F8
:105960009118B9605B41FB60D7E9022341465118A9
:10597000396049464B417B604FF000024FF0000315
:10598000D7E900AB5946CB00514643EA5173514623
:10599000CA0010461946034642469B18BB664B4652
:1059A0000A4642EB0303FB66D7F8F4305B6800223B
:1059B0003B667A664FF000024FF00003D7E9188982
:1059C00049468B00414643EA917341468A00D7E934
:1059D0001A01FBF7C1F802460B460D4BA3FB02135D
:1059E0005B09642101FB03F3D31A1B013233084A1C
:1059F000A2FB03235B0903F00F02D7F8F4301B6806
:105A000022449A6000BF07F58077BD46BDE8B08F9D
:105A10001F85EB5180B58CB000AF7860002387F80C
:105A20002F307B68002B03D1012387F82F309BE1B7
:105A300000233B7400237B740023BB740023FB749E
:105A400000233B7300237B730023BB730023FB7392
:105A5000002387F82830002387F82930002387F8AF
:105A60002A30002387F82B30002387F824300823BE
:105A700087F82530002387F82630002387F8273061
:105A8000002387F82030002387F82130002387F88F
:105A90002230002387F8233000233B7700237B77D5
:105AA0000023BB770023FB7700233B7600237B7624
:105AB0000023BB760023FB7600233B7508237B7510
:105AC0000023BB750023FB757B681B68184600F03C
:105AD0006FFA03461A4697F82F30134387F82F3092
