:020000040800F2
:10000000000001209521000845170008511700083D
:100010005917000861170008691700080000000060
:1000200000000000000000000000000091A3000894
:100030007117000800000000E1A5000831750008F4
:10004000E5210008E5210008E5210008E521000878
:10005000E5210008E5210008E5210008E521000868
:10006000E5210008E5210008E5210008E521000858
:10007000E5210008E5210008E5210008E521000848
:10008000E5210008E5210008E52100080000000046
:10009000000000000000000000000000E521000852
:1000A000E521000881170008E5210008E521000886
:1000B000E5210008E5210008E5210008E521000808
:1000C000E5210008E5210008E5210008E5210008F8
:1000D000E5210008E5210008E521000800000000F6
:1000E0009D170008E5210008E52100080000000038
:1000F000000000000000000000000000E5210008F2
:1001000000000000E5210008E5210008E5210008C5
:1001100000000000000000000000000000000000DF
:10012000E5210008E5210008E5210008E521000897
:10013000E5210008000000000000000000000000B1
:10014000000000000000000000000000E5210008A1
:10015000E5210008E5210008E5210008E521000867
:10016000E5210008E5210008000000000000000073
:10017000000000000000000000000000000000007F
:1001800000000000E5210008000000000000000061
:04019000E52100085D
:1001A00010B5054C237833B9044B13B10448AFF3B1
:1001B00000800123237010BD6002002000000000B9
:1001C000C8C1000808B5034B1BB103490348AFF38E
:1001D000008008BD0000000064020020C8C10008C3
:1001E00081F0004102E000BF83F0004330B54FEAE8
:1001F00041044FEA430594EA050F08BF90EA020F55
:100200001FBF54EA000C55EA020C7FEA645C7FEAE7
:10021000655C00F0E2804FEA5454D4EB5555B8BF0A
:100220006D420CDD2C4480EA020281EA030382EA7B
:10023000000083EA010180EA020281EA0303362D0D
:1002400088BF30BD11F0004F4FEA01314FF4801CE0
:100250004CEA113102D0404261EB410113F0004FF2
:100260004FEA03334CEA133302D0524263EB4303A9
:1002700094EA050F00F0A780A4F10104D5F1200E47
:100280000DDB02FA0EFC22FA05F2801841F10001A2
:1002900003FA0EF2801843FA05F359410EE0A5F176
:1002A00020050EF1200E012A03FA0EFC28BF4CF0A7
:1002B000020C43FA05F3C01851EBE37101F000455D
:1002C00007D54FF0000EDCF1000C7EEB00006EEB6A
:1002D0000101B1F5801F1BD3B1F5001F0CD34908F4
:1002E0005FEA30004FEA3C0C04F101044FEA44524B
:1002F00012F5800F80F09A80BCF1004F08BF5FEAD2
:10030000500C50F1000041EB045141EA050130BDB1
:100310005FEA4C0C404141EB0101013C28BFB1F5C3
:10032000801FE9D291F0000F04BF01460020B1FA0E
:1003300081F308BF2033A3F10B03B3F120020CDAE1
:100340000C3208DD02F1140CC2F10C0201FA0CF0BF
:1003500021FA02F10CE002F11402D8BFC2F1200C24
:1003600001FA02F120FA0CFCDCBF41EA0C019040DA
:10037000E41AA2BF01EB0451294330BD6FEA040423
:100380001F3C1CDA0C340EDC04F11404C4F120020E
:1003900020FA04F001FA02F340EA030021FA04F320
:1003A00045EA030130BDC4F10C04C4F1200220FA77
:1003B00002F001FA04F340EA0300294630BD21FAB5
:1003C00004F0294630BD94F0000F83F4801306BF7B
:1003D00081F480110134013D4EE77FEA645C18BF6F
:1003E0007FEA655C29D094EA050F08BF90EA020F06
:1003F00005D054EA000C04BF1946104630BD91EAFE
:10040000030F1EBF0021002030BD5FEA545C05D100
:100410004000494128BF41F0004130BD14F580043F
:100420003CBF01F5801130BD01F0004545F0FE41B3
:1004300041F470014FF0000030BD7FEA645C1ABFE8
:10044000194610467FEA655C1CBF0B46024650EA1F
:10045000013406BF52EA033591EA030F41F400214B
:1004600030BD00BF90F0000F04BF0021704730B5D1
:100470004FF4806404F132044FF000054FF00001A6
:1004800050E700BF90F0000F04BF0021704730B567
:100490004FF4806404F1320410F0004548BF40423C
:1004A0004FF000013EE700BF42004FEAE2014FEA91
:1004B00031014FEA02701FBF12F07F4393F07F4F6C
:1004C00081F06051704732F07F4208BF704793F06F
:1004D0007F4F04BF41F40021704730B54FF4607482
:1004E00001F0004521F000411CE700BF50EA010285
:1004F00008BF704730B54FF000050AE050EA01022E
:1005000008BF704730B511F0004502D5404261EB9D
:1005100041014FF4806404F132045FEA915C3FF4DE
:10052000D8AE4FF003025FEADC0C18BF03325FEA7B
:10053000DC0C18BF033202EBDC02C2F1200300FA2C
:1005400003FC20FA02F001FA03FE40EA0E0021FA51
:1005500002F11444BDE600BF70B54FF0FF0C4CF43F
:10056000E06C1CEA11541DBF1CEA135594EA0C0FF1
:1005700095EA0C0F00F0DEF82C4481EA030621EA2C
:100580004C5123EA4C5350EA013518BF52EA033567
:1005900041F4801143F4801338D0A0FB02CE4FF019
:1005A0000005E1FB02E506F00042E0FB03E54FF049
:1005B0000006E1FB03569CF0000F18BF4EF0010E41
:1005C000A4F1FF04B6F5007F64F5407404D25FEA3D
:1005D0004E0E6D4146EB060642EAC62141EA5551F0
:1005E0004FEAC52040EA5E504FEACE2EB4F1FD0C32
:1005F00088BFBCF5E06F1ED8BEF1004F08BF5FEAB0
:10060000500E50F1000041EB045170BD06F0004661
:1006100046EA010140EA020081EA0301B4EB5C040E
:10062000C2BFD4EB0C0541EA045170BD41F4801106
:100630004FF0000E013C00F3AB8014F1360FDEBF2B
:10064000002001F0004170BDC4F10004203C35DA07
:100650000C341BDC04F11404C4F1200500FA05F38A
:1006600020FA04F001FA05F240EA020001F000422B
:1006700021F0004110EBD37021FA04F642EB0601A1
:100680005EEA430E08BF20EAD37070BDC4F10C04CB
:10069000C4F1200500FA04F320FA05F001FA04F28F
:1006A00040EA020001F0004110EBD37041F100017B
:1006B0005EEA430E08BF20EAD37070BDC4F1200586
:1006C00000FA05F24EEA020E20FA04F301FA05F2EE
:1006D00043EA020321FA04F001F0004121FA04F296
:1006E00020EA020000EBD3705EEA430E08BF20EA66
:1006F000D37070BD94F0000F0FD101F000464000A0
:1007000041EB010111F4801F08BF013CF7D041EA21
:10071000060195F0000F18BF704703F00046520025
:1007200043EB030313F4801F08BF013DF7D043EAF6
:100730000603704794EA0C0F0CEA135518BF95EAAC
:100740000C0F0CD050EA410618BF52EA4306D1D133
:1007500081EA030101F000414FF0000070BD50EA52
:10076000410606BF1046194652EA430619D094EADC
:100770000C0F02D150EA013613D195EA0C0F05D1C6
:1007800052EA03361CBF104619460AD181EA03011A
:1007900001F0004141F0FE4141F470014FF00000D2
:1007A00070BD41F0FE4141F4780170BD70B54FF06D
:1007B000FF0C4CF4E06C1CEA11541DBF1CEA1355ED
:1007C00094EA0C0F95EA0C0F00F0A7F8A4EB0504CF
:1007D00081EA030E52EA03354FEA013100F08880C6
:1007E0004FEA03334FF0805545EA131343EA12638F
:1007F0004FEA022245EA111545EA10654FEA002644
:100800000EF000419D4208BF964244F1FD0404F5FC
:10081000407402D25B084FEA3202B61A65EB030558
:100820005B084FEA32024FF480104FF4002CB6EB15
:10083000020E75EB030E22BFB61A754640EA0C0095
:100840005B084FEA3202B6EB020E75EB030E22BFD5
:10085000B61A754640EA5C005B084FEA3202B6EB16
:10086000020E75EB030E22BFB61A754640EA9C00D5
:100870005B084FEA3202B6EB020E75EB030E22BFA5
:10088000B61A754640EADC0055EA060E18D04FEA63
:10089000051545EA16754FEA06164FEAC30343EA03
:1008A00052734FEAC2025FEA1C1CC0D111F4801FD0
:1008B0000BD141EA00014FF000004FF0004CB6E7C9
:1008C00011F4801F04BF01430020B4F1FD0C88BF68
:1008D000BCF5E06F3FF6AFAEB5EB030C04BFB6EB73
:1008E000020C5FEA500C50F1000041EB045170BD66
:1008F0000EF0004E4EEA113114EB5C04C2BFD4EB93
:100900000C0541EA045170BD41F480114FF0000E16
:10091000013C90E645EA060E8DE60CEA135594EA92
:100920000C0F08BF95EA0C0F3FF43BAF94EA0C0F95
:100930000AD150EA01347FF434AF95EA0C0F7FF40A
:1009400025AF104619462CE795EA0C0F06D152EA5E
:1009500003353FF4FDAE1046194622E750EA410642
:1009600018BF52EA43067FF4C5AE50EA41047FF453
:100970000DAF52EA43057FF4EBAE12E74FF0FF3CB8
:1009800006E000BF4FF0010C02E000BF4FF0010C89
:100990004DF804CD4FEA410C7FEA6C5C4FEA430C02
:1009A00018BF7FEA6C5C1BD001B050EA410C0CBF51
:1009B00052EA430C91EA030F02BF90EA020F0020B3
:1009C000704710F1000F91EA030F58BF994208BF1A
:1009D00090422CBFD8176FEAE37040F001007047D7
:1009E0004FEA410C7FEA6C5C02D150EA013C07D12E
:1009F0004FEA430C7FEA6C5CD6D152EA033CD3D079
:100A00005DF8040B704700BF8446104662468C4672
:100A10001946634600E000BF01B5FFF7B7FF0028A5
:100A200048BF10F1000F01BD4DF808EDFFF7F4FFCE
:100A30000CBF012000205DF808FB00BF4DF808ED59
:100A4000FFF7EAFF34BF012000205DF808FB00BF7C
:100A50004DF808EDFFF7E0FF94BF012000205DF89E
:100A600008FB00BF4DF808EDFFF7CEFF94BF012053
:100A700000205DF808FB00BF4DF808EDFFF7C4FF4C
:100A800034BF012000205DF808FB00BF4FEA41029F
:100A900012F5001215D211D56FF47873B3EB6252D0
:100AA00012D94FEAC12343F0004343EA505311F0F7
:100AB000004F23FA02F018BF404270474FF0000089
:100AC000704750EA013005D111F0004008BF6FF0C7
:100AD000004070474FF00000704700BF4FEA4102EE
:100AE000B2F1E04324BFB3F5001CDCF1FE5C0DD98C
:100AF00001F0004C4FEAC0024CEA5070B2F1004FD6
:100B000040EB830008BF20F00100704711F0804FD8
:100B100021D113F13872BCBF01F00040704741F49D
:100B200080114FEA5252C2F11802C2F1200C10FAA1
:100B30000CF320FA02F018BF40F001004FEAC12385
:100B40004FEAD32303FA0CFC40EA0C0023FA02F329
:100B50004FEA4303CCE77FEA625307D150EA0133FF
:100B60001EBF4FF0FE4040F44000704701F00040CF
:100B700040F0FE4040F40000704700BF53B94AB94E
:100B8000002908BF00281CBF4FF0FF314FF0FF3095
:100B900000F06AB9ADF1080C6DE904CE00F006F87A
:100BA000DDF804E0DDE9022304B070472DE9F047E9
:100BB000089D0C46002B4ED194468C458646B2FAD1
:100BC00082F262D94AB1C2F12003914020FA03F3C4
:100BD0000CFA02FC194300FA02FE4FEA1C471FFA06
:100BE0008CF6B1FBF7F44FEA1E4307FB141143EAFE
:100BF000014304FB06F199420AD91CEB030304F1FB
:100C0000FF3080F01281994240F20F81023C634430
:100C1000591A1FFA8EF3B1FBF7F007FB101143EAE4
:100C2000014300FB06F69E420AD91CEB030300F1C8
:100C3000FF3180F0FC809E4240F2F980634402382C
:100C40009B1B40EA044000211DB1D3400022C5E9AE
:100C50000032BDE8F0878B4205D90DB1C5E900012E
:100C600000210846F5E7B3FA83F1002946D1A342F3
:100C700002D39042C0F0F080861A64EB0303012097
:100C8000002DE6D0C5E90063E3E7002A40F090803C
:100C9000A1EB0C044FEA1C481FFA8CF70121B4FBAE
:100CA000F8F64FEA1E4308FB164443EA044307FBE9
:100CB00006F0984208D91CEB030306F1FF3402D278
:100CC000984200F2CD8026461C1A1FFA8EF3B4FB20
:100CD000F8F008FB104443EA044300FB07F79F4287
:100CE00008D91CEB030300F1FF3402D29F4200F24B
:100CF000B0802046DB1B40EA0640A5E7C1F1200694
:100D00008B4022FA06F71F4320FA06FC04FA01F38F
:100D100043EA0C03F44000FA01F8380C4FEA134997
:100D2000B4FBF0FE1FFA87FC00FB1E4449EA0444B2
:100D30000EFB0CF9A14502FA01F20AD93C190EF199
:100D4000FF3A80F08480A14540F28180AEF1020E2E
:100D50003C44A4EB09041FFA83F9B4FBF0F300FB55
:100D6000134449EA044403FB0CFCA44507D93C198D
:100D700003F1FF3067D2A44565D9023B3C4443EA06
:100D80000E40A0FB0293A4EB0C049C42CE469C4672
:100D900051D34ED055B1B8EB0E0364EB0C0404FAFA
:100DA00006F6CB401E43CC40C5E90064002150E765
:100DB000C2F1200320FA03F10CFA02FC24FA03F337
:100DC00094400C434FEA1C4800FA02FE1FFA8CF7CD
:100DD000B3FBF8F008FB1031230C43EA014300FB9E
:100DE00007F1994208D91CEB030300F1FF362CD21E
:100DF00099422AD9023863445B1AA4B2B3FBF8F1D2
:100E000008FB113344EA034401FB07F3A34208D96A
:100E10001CEB040401F1FF3613D2A34211D90239AD
:100E20006444E41A41EA004139E70446F0E6084622
:100E300006E7C845AED2B9EB020E63EB070C0138EA
:100E4000A8E73146EDE7034699E73046D4E7D646B2
:100E50007FE7634402384DE70646234608460FE71E
:100E6000023E634430E700BF704700BF80B584B0E6
:100E700000AF78600023FB730023BB737B68002BFB
:100E800002D10123FB7317E07B681B68184604F04E
:100E9000DDF903461A46BB7B1343BB7309F066FFBB
:100EA00002467B685A60BB7B002B03D17B685B6882
:100EB000002B01D10123FB73FB7B18461037BD4685
:100EC00080BD80B584B000AF786039600023FB73CB
:100ED0007B68002B02D03B68002B02D10123FB73FF
:100EE00005E07B685B683968184609F05BFFFB7BAF
:100EF00018461037BD4680BD80B58AB000AF786017
:100F0000002387F82730002387F826307B68002BE2
:100F100003D1012387F827302CE000233B627B6854
:100F20001B6807F10C021146184604F041FB03460A
:100F30001A4697F82630134387F8263097F826305C
:100F4000002B17D17B685B6807F10C010C4A18462F
:100F500009F060FF38623B6A002B0BD03B6A07F157
:100F60000C01142218460AF079F83B6A9B693A6A28
:100F70001046984797F8273018462837BD4680BD59
:100F8000850F000880B485B000AF78603960002319
:100F9000FB607B685A693B685B689A4201D1012318
:100FA000FB60FB6818461437BD465DF8047B70474C
:100FB00080B582B000AF0023FB7114491448FFF7DD
:100FC00080FF03461A46FB791343FB711149104811
:100FD000FFF777FF03461A46FB791343FB710E496F
:100FE0000B48FFF76EFF03461A46FB791343FB716C
:100FF0000A490748FFF765FF03461A46FB79134382
:10100000FB71FB7918460837BD4680BD08000020FB
:101010000000002024000020400000205C00002090
:1010200080B586B000AF786007F1080300221A602F
:101030005A607B6803F1090207F1080310685168E0
:1010400003C3BB687B61FB683B61D7ED050A97ED85
:10105000040A034805F098FA00BF1837BD4680BD62
:101060008400002080B586B000AF786007F10803E7
:1010700000221A605A607B6803F1090207F1080335
:101080001068516803C3BB687B61BB683B61D7EDE7
:10109000050A97ED040A034805F0DAFC00BF18378B
:1010A000BD4680BD8400002080B584B000AF78606C
:1010B0007B685B7AFB73FB7BFF2B02D1034805F057
:1010C000F7FE00BF1037BD4680BD00BF8400002082
:1010D00080B584B000AF78604FF00003BB607B68E0
:1010E00009331B68BB60BB68FB60094BD3ED587AC2
:1010F000074B93ED597A97ED031AF0EE470AB0EEDD
:10110000670A034805F048F800BF1037BD4680BDA8
:101110008400002080B400AF00BFBD465DF8047BB2
:10112000704780B400AF00231846BD465DF8047BCD
:101130007047000080B500AF104A0021012006F082
:1011400008FB03460E4A13600E4A0021022006F0F7
:1011500000FB03460C4A13600C4A00210C4806F0C1
:101160004BFA03460B4A13600B4A00210B4806F06A
:1011700043FA03460A4A136000BF80BDA0C20008BC
:1011800084020020B0C200088802002058C2000873
:10119000A51100087C0200207CC20008F1110008A3
:1011A0008002002080B584B000AF78609FED0D0A0A
:1011B0000D4805F0EBFE0346FB730C4B1B6818460D
:1011C00006F0A2FB9FED070A074806F019F8034650
:1011D0001A46FB7B1343FB73322006F09FFA00BFD5
:1011E000F0E700BF00004842840000208402002095
:1011F00080B584B000AF78600E48FFF737FE034635
:10120000FB73FFF7D5FE03461A46FB7B1343FB73C4
:10121000094B1B684FF0FF31184606F023FB0548C9
:10122000FFF76AFE03461A46FB7B1343FB7300BFBE
:10123000EEE700BF000000208802002080B582B0E9
:1012400000AF0346FB80FB88B3F5806F04D1044BED
:101250001B68184606F058FB00BF0837BD4680BD26
:101260008802002080B58AB000AF07F11403002285
:101270001A605A609A60DA601A6100233B614D4B34
:101280001B6B4C4A43F0800313634A4B1B6B03F008
:1012900080033B613B690023FB60464B1B6B454A67
:1012A00043F001031363434B1B6B03F00103FB602B
:1012B000FB680023BB603F4B1B6B3E4A43F00203BD
:1012C00013633C4B1B6B03F00203BB60BB68002342
:1012D0007B60384B1B6B374A43F004031363354B79
:1012E0001B6B03F004037B607B68002230213248D3
:1012F00001F022FA002240F23741304801F01CFA96
:1013000001224FF480512D4801F016FA30237B6101
:101310000123BB610223FB6100233B6207F114033D
:101320001946254801F084F833237B610123BB6112
:101330000223FB6100233B6207F1140319461F4897
:1013400001F076F840F204437B610123BB61002386
:10135000FB6100233B6207F114031946174801F0B3
:1013600067F84FF480537B610123BB610123FB616C
:1013700000233B6207F114031946104801F058F8A6
:101380004FF480637B614FF40413BB610123FB6165
:1013900007F114031946084801F04AF80022052114
:1013A000282001F01BF8282001F034F800BF28376E
:1013B000BD4680BD003802400000024000040240EB
:1013C00080B500AF00F010FF00F01CF8FFF74AFFF7
:1013D00000F034FA00F032FB00F088FA00F0DAFA9C
:1013E00000F080FB00F092F800F062FE00F024FCB8
:1013F00000F0DCFB06F0B6F8FFF79CFE06F0D6F82E
:1014000000BFFDE780B594B000AF07F120033022A4
:101410000021184609F0DEFD07F10C0300221A60D6
:101420005A609A60DA601A610023BB60294B1B6C1A
:10143000284A43F080531364264B1B6C03F08053FF
:10144000BB60BB6800237B60234B1B6823F44043D5
:10145000214A43F4004313601F4B1B6803F44043CD
:101460007B607B6801233B624FF480337B62022305
:10147000BB634FF48003FB6319233B64A8237B64A5
:101480000223BB640423FB6407F12003184601F028
:1014900085F90346002B01D000F032F80F23FB60E2
:1014A00002233B6100237B614FF48053BB61002327
:1014B000FB6107F10C030221184601F0E7FB03462C
:1014C000002B01D000F01CF801F0C6FC00BF503723
:1014D000BD4680BD003802400070004080B582B03B
:1014E00000AF78607B681B68044A934201D100F02A
:1014F0009DFE00BF0837BD4680BD00BF00440140CF
:1015000080B400AF72B600BF00BFFDE780B500AF8A
:10151000174B184A1A60164B4FF482725A60144BDC
:1015200000229A60124B0022DA60114B00221A61ED
:101530000F4B00225A610E4B4FF400729A610C4B14
:101540001022DA610A4B00221A62094B00225A6209
:10155000074B00229A62064B0A22DA62044801F025
:10156000CFFD0346002B01D0FFF7CAFF00BF80BDAF
:101570008C0200200038004080B58AB000AF78604F
:1015800007F1140300221A605A609A60DA601A6147
:101590007B681B68194A93422CD100233B61184B8E
:1015A0001B6C174A43F480431364154B1B6C03F404
:1015B00080433B613B690023FB60114B1B6B104A6E
:1015C00043F0020313630E4B1B6B03F00203FB603B
:1015D000FB684FF460437B610223BB610023FB6126
:1015E00003233B6205237B6207F114031946054878
:1015F00000F01EFF00BF2837BD4680BD0038004008
:10160000003802400004024080B582B000AF0023E1
:101610007B60124B5B6C114A43F4804353640F4B65
:101620005B6C03F480437B607B6800233B600B4B67
:101630001B6C0A4A43F080531364084B1B6C03F085
:1016400080533B603B6800220F216FF0010000F0E7
:10165000C5FE00BF0837BD4680BD00BF0038024050
:1016600080B58CB000AF78600023BB6200237B6242
:101670000023BB602E4B5B6C2D4A43F40033536454
:101680002B4B5B6C03F40033BB60BB6807F10C02AF
:1016900007F110031146184601F0E4FC01F0CEFCFE
:1016A000B862BB6A234AA2FB03239B0C013B7B620B
:1016B000214B224A1A60204B40F2E732DA601E4A80
:1016C0007B6A53601C4B00221A611B4B00229A60FC
:1016D000194B00229A61184802F074FB034687F800
:1016E0002F3097F82F30002B1BD1134802F0BAFB94
:1016F000034687F82F3097F82F30002B11D119208F
:1017000000F088FE7B680F2B08D80022796819202A
:1017100000F064FE0A4A7B68136002E0012387F848
:101720002F3097F82F3018463037BD4680BD00BFA8
:101730000038024083DE1B430C03002000440140BC
:101740007C00002080B500AF01F0BEFC00BFFDE7CB
:1017500080B400AF00BFFDE780B400AF00BFFDE77D
:1017600080B400AF00BFFDE780B400AF00BFFDE76D
:1017700080B400AF00BFBD465DF8047B7047000039
:1017800080B500AF034802F003FE034802F000FEFC
:1017900000BF80BD580300200C03002080B500AFBF
:1017A0004FF4806000F0E2FF00BF80BD80B586B0DE
:1017B00000AF7860144A154BD31A7B617B693B619B
:1017C000134B1B68002B02D1114B124A1A60104BAD
:1017D0001A687B6813443A699A4207D209F012FCEE
:1017E00003460C221A604FF0FF3309E0084B1B68D8
:1017F000FB60074B1A687B681344054A1360FB685B
:1018000018461837BD4680BD0000012000040000C6
:101810005403002070DC002080B400AF064BD3F8E6
:101820008830054A43F47003C2F8883000BFBD46D3
:101830005DF8047B704700BF00ED00E080B58CB020
:1018400000AF07F10C0324220021184609F0C2FB67
:101850003B1D00221A605A60224B234A1A60214B1A
:1018600003225A601F4B00229A601E4B4AF6E03258
:10187000DA601C4B00221A611A4B00225A61194B84
:1018800000229A610323FB6000233B6101237B61FB
:101890000023BB610023FB6100233B6201237B62C9
:1018A0000023BB620023FB6207F10C0319460D48BD
:1018B00002F03AFC0346002B01D0FFF721FE002383
:1018C0007B600023BB603B1D1946064803F078F996
:1018D0000346002B01D0FFF713FE00BF3037BD4693
:1018E00080BD00BF580300200000014080B58CB0CF
:1018F00000AF07F10C0324220021184609F06AFB0F
:101900003B1D00221A605A60214B4FF080421A6042
:101910001F4B03225A601E4B00229A601C4B4AF652
:10192000E032DA601A4B00221A61194B00229A61E8
:101930000323FB6000233B6101237B610023BB6128
:101940000023FB6100233B6201237B620023BB6217
:101950000023FB6207F10C0319460D4802F0E4FB7B
:101960000346002B01D0FFF7CBFD00237B60002353
:10197000BB603B1D1946064803F022F90346002BC5
:1019800001D0FFF7BDFD00BF3037BD4680BD00BFB1
:10199000A003002080B58CB000AF07F10C03242217
:1019A0000021184609F016FB3B1D00221A605A6000
:1019B000204B214A1A601F4B03225A601D4B002204
:1019C0009A601C4B4AF6E032DA601A4B00221A6128
:1019D000184B00229A610323FB6000233B61012323
:1019E0007B610023BB610023FB6100233B62012379
:1019F0007B620023BB620023FB6207F10C031946E4
:101A00000C4802F091FB0346002B01D0FFF778FD54
:101A100000237B600023BB603B1D1946054803F093
:101A2000CFF80346002B01D0FFF76AFD00BF303727
:101A3000BD4680BDE80300200004004080B58CB0A6
:101A400000AF07F10C0324220021184609F0C2FA66
:101A50003B1D00221A605A60204B214A1A601F4B1E
:101A600003225A601D4B00229A601C4B4AF6E0325A
:101A7000DA601A4B00221A61184B00229A61032384
:101A8000FB6000233B6101237B610023BB610023DA
:101A9000FB6100233B6201237B620023BB620023C6
:101AA000FB6207F10C0319460C4802F03DFB0346AC
:101AB000002B01D0FFF724FD00237B600023BB60D7
:101AC0003B1D1946054803F07BF80346002B01D067
:101AD000FFF716FD00BF3037BD4680BD3004002043
:101AE0000008004080B58AB000AF07F12003002253
:101AF0001A605A603B1D00221A605A609A60DA60D0
:101B00001A615A619A61274B274A1A60254B0022B5
:101B10005A60244B00229A60224B41F26702DA603D
:101B2000204B00221A611F4B00229A611D4802F0CF
:101B3000FBF90346002B01D0FFF7E2FC00233B62D8
:101B400000237B6207F120031946164803F038F89A
:101B50000346002B01D0FFF7D3FC60237B600023FA
:101B6000BB600023FB6000237B613B1D0422194600
:101B70000C4802F0FDFC0346002B01D0FFF7C0FC2F
:101B80003B1D08221946074802F0F2FC0346002BD1
:101B900001D0FFF7B5FC034800F002FA00BF283778
:101BA000BD4680BD78040020000C004080B588B0A0
:101BB00000AF3B1D00221A605A609A60DA601A6119
:101BC0005A619A611A4B1B4A1A60194B00225A60DB
:101BD000174B00229A60164B41F26702DA60144BF1
:101BE00000221A61124B00229A61114802F09CF9FE
:101BF0000346002B01D0FFF783FC60237B600023AA
:101C0000BB600023FB6000237B613B1D042219465F
:101C1000074802F0ADFC0346002B01D0FFF770FC33
:101C2000034800F0BDF900BF2037BD4680BD00BFAE
:101C3000C00400200040014080B588B000AF3B1DCB
:101C400000221A605A609A60DA601A615A619A61D9
:101C50001E4B1F4A1A601D4B00225A601B4B00226C
:101C60009A601A4B41F26702DA60184B00221A613F
:101C7000164B00229A61154802F0A4F80346002B87
:101C800001D0FFF73DFC114802F04EF90346002B4E
:101C900001D0FFF735FC60237B600023BB6000238D
:101CA000FB6000237B613B1D00221946074802F0C0
:101CB0005FFC0346002B01D0FFF722FC034800F035
:101CC0006FF900BF2037BD4680BD00BF080500206A
:101CD0000048014080B590B000AF786007F12C0358
:101CE00000221A605A609A60DA601A617B681B6889
:101CF000784A934235D10023BB62774B5B6C764ABE
:101D000043F001035364744B5B6C03F00103BB624B
:101D1000BB6A00237B62704B1B6B6F4A43F001036D
:101D200013636D4B1B6B03F001037B627B6A4FF403
:101D30004073FB6202233B6302237B630023BB638C
:101D40000123FB6307F12C031946644800F070FB84
:101D500000220F21192000F041FB192000F05AFB4E
:101D6000B3E07B681B68B3F1804F4BD100233B622B
:101D7000594B1B6C584A43F001031364564B1B6CC0
:101D800003F001033B623B6A0023FB61524B1B6B78
:101D9000514A43F0010313634F4B1B6B03F00103E4
:101DA000FB61FB690023BB614B4B1B6B4A4A43F051
:101DB00002031363484B1B6B03F00203BB61BB6957
:101DC0004FF40043FB6202233B6302237B63002347
:101DD000BB630123FB6307F12C0319463F4800F066
:101DE00027FB0823FB6202233B6302237B63002360
:101DF000BB630123FB6307F12C031946384800F04D
:101E000017FB62E07B681B68364A93422CD10023A3
:101E10007B61314B1B6C304A43F0020313642E4B41
:101E20001B6C03F002037B617B6900233B612A4B3F
:101E30001B6B294A43F001031363274B1B6B03F011
:101E400001033B613B69C023FB6202233B63022326
:101E50007B630023BB630223FB6307F12C0319465A
:101E60001E4800F0E5FA30E07B681B681E4A93428A
:101E70002BD10023FB60184B1B6C174A43F0040363
:101E80001364154B1B6C03F00403FB60FB68002319
:101E9000BB60114B1B6B104A43F0020313630E4BE4
:101EA0001B6B03F00203BB60BB68C023FB62022311
:101EB0003B6302237B630023BB630223FB6307F1C5
:101EC0002C031946064800F0B3FA00BF4037BD4660
:101ED00080BD00BF00000140003802400000024009
:101EE00000040240000400400008004080B485B0B7
:101EF00000AF78607B681B68154A93420ED10023BF
:101F0000FB60144B1B6C134A43F008031364114B22
:101F10001B6C03F00803FB60FB6812E07B681B6826
:101F20000D4A93420DD10023BB600A4B5B6C094AFA
:101F300043F480335364074B5B6C03F48033BB6022
:101F4000BB6800BF1437BD465DF8047B704700BF17
:101F5000000C0040003802400040014080B485B0D1
:101F600000AF78607B681B680B4A93420DD1002359
:101F7000FB600A4B5B6C094A43F480235364074BB4
:101F80005B6C03F48023FB60FB6800BF1437BD4625
:101F90005DF8047B704700BF0048014000380240F4
:101FA00080B58AB000AF786007F1140300221A6090
:101FB0005A609A60DA601A617B681B68364A9342FD
:101FC0001ED100233B61354B1B6B344A43F00103A8
:101FD0001363324B1B6B03F001033B613B69062328
:101FE0007B610223BB610223FB6101233B6202236D
:101FF0007B6207F114031946294800F019FA47E0FB
:102000007B681B68274A93421ED10023FB60234B49
:102010001B6B224A43F001031363204B1B6B03F03D
:102020000103FB60FB6808237B610223BB61002383
:10203000FB6100233B6203237B6207F11403194613
:10204000174800F0F5F923E07B681B68164A9342B5
:102050001ED10023BB60114B1B6B104A43F00203DF
:1020600013630E4B1B6B03F00203BB60BB684FF4A2
:1020700000737B610223BB610223FB6101233B628E
:1020800003237B6207F114031946084800F0D0F9D6
:1020900000BF2837BD4680BD000C0040003802401C
:1020A000000002400040014000480140000402409E
:1020B00080B500AF114B124A1A60104B4FF4E13259
:1020C0005A600E4B00229A600C4B0022DA600B4BD8
:1020D00000221A61094B0C225A61084B00229A61B6
:1020E000064B0022DA61054802F0ECFD0346002BA6
:1020F00001D0FFF705FA00BF80BD00BF50050020EA
:102100000014014080B58AB000AF786007F1140375
:1021100000221A605A609A60DA601A617B681B6854
:10212000194A93422BD100233B61184B5B6C174A31
:1021300043F020035364154B5B6C03F020033B61B9
:102140003B690023FB60114B1B6B104A43F00403F7
:1021500013630E4B1B6B03F00403FB60FB68C0238F
:102160007B610223BB610023FB6103233B620823E5
:102170007B6207F114031946054800F059F900BFC6
:102180002837BD4680BD00BF001401400038024022
:1021900000080240DFF834D0FFF73EFB0C480D4941
:1021A0000D4A002302E0D458C4500433C4188C42B2
:1021B000F9D30A4A0A4C002301E013600432A24218
:1021C000FBD308F025FFFFF7FBF870470000012064
:1021D0000000002060020020C0C40008600200204F
:1021E0006CDC0020FEE7000080B500AF0E4B1B68E2
:1021F0000D4A43F4007313600B4B1B680A4A43F407
:1022000080631360084B1B68074A43F480731360B4
:10221000032000F0D8F80F20FFF722FAFFF7F4F9B7
:102220000023184680BD00BF003C024080B400AFD0
:10223000064B1B781A46064B1B681344044A13606E
:1022400000BFBD465DF8047B704700BF80000020E2
:102250009805002080B400AF034B1B681846BD46AC
:102260005DF8047B704700BF9805002080B485B0FE
:1022700000AF78607B6803F00703FB600C4BDB6802
:10228000BB60BA684FF6FF031340BB60FB681A02DD
:10229000BB68134343F0BF6343F40033BB60044A9D
:1022A000BB68D36000BF1437BD465DF8047B704740
:1022B00000ED00E080B400AF044BDB681B0A03F0C4
:1022C00007031846BD465DF8047B704700ED00E04B
:1022D00080B483B000AF0346FB7197F90730002B41
:1022E0000BDBFB7903F01F02074997F907305B0905
:1022F000012000FA02F241F8232000BF0C37BD464E
:102300005DF8047B704700BF00E100E080B483B05B
:1023100000AF03463960FB7197F90730002B0ADBE9
:102320003B68DAB20C4997F907301201D2B20B447C
:1023300083F800230AE03B68DAB20849FB7903F02E
:102340000F03043B1201D2B20B441A7600BF0C37C4
:10235000BD465DF8047B704700E100E000ED00E061
:1023600080B489B000AFF860B9607A60FB6803F0B0
:102370000703FB61FB69C3F10703042B28BF042398
:10238000BB61FB690433062B02D9FB69033B00E008
:1023900000237B614FF0FF32BB6902FA03F3DA439B
:1023A000BB681A407B699A404FF0FF317B6901FAA4
:1023B00003F3D9437B680B40134318462437BD46CB
:1023C0005DF8047B704780B582B000AF78607868B4
:1023D000FFF74CFF00BF0837BD4680BD80B586B013
:1023E00000AF0346B9607A60FB7300237B61FFF79F
:1023F00061FF78617A68B9687869FFF7B1FF0246D2
:1024000097F90F3011461846FFF780FF00BF1837C5
:10241000BD4680BD80B582B000AF0346FB7197F921
:1024200007301846FFF754FF00BF0837BD4680BD90
:1024300080B489B000AF7860396000237B610023ED
:102440003B610023BB610023FB6159E10122FB6971
:1024500002FA03F37B613B681B687A6913403B61B6
:102460003A697B699A4240F048813B685B6803F0B7
:102470000303012B05D03B685B6803F00303022BC9
:1024800030D17B689B68BB61FB695B00032202FA69
:1024900003F3DB43BA691340BB613B68DA68FB694D
:1024A0005B0002FA03F3BA691343BB617B68BA6944
:1024B0009A607B685B68BB610122FB6902FA03F3E7
:1024C000DB43BA691340BB613B685B681B0903F0DF
:1024D0000102FB6902FA03F3BA691343BB617B682B
:1024E000BA695A603B685B6803F00303032B17D09B
:1024F0007B68DB68BB61FB695B00032202FA03F3C4
:10250000DB43BA691340BB613B689A68FB695B00B7
:1025100002FA03F3BA691343BB617B68BA69DA60F4
:102520003B685B6803F00303022B23D1FB69DA08E5
:102530007B68083253F82230BB61FB6903F0070364
:102540009B000F2202FA03F3DB43BA691340BB611D
:102550003B681A69FB6903F007039B0002FA03F367
:10256000BA691343BB61FB69DA087B680832B96951
:1025700043F822107B681B68BB61FB695B00032288
:1025800002FA03F3DB43BA691340BB613B685B6843
:1025900003F00302FB695B0002FA03F3BA69134319
:1025A000BB617B68BA691A603B685B6803F44033BF
:1025B000002B00F0A2800023FB60574B5B6C564A57
:1025C00043F480435364544B5B6C03F48043FB60DF
:1025D000FB68524AFB699B08023352F82330BB6107
:1025E000FB6903F003039B000F2202FA03F3DB43B2
:1025F000BA691340BB617B68494A934219D07B6832
:10260000484A934213D07B68474A93420DD07B6877
:10261000464A934207D07B68454A934201D104233E
:1026200008E0072306E0032304E0022302E001237D
:1026300000E00023FA6902F0030292009340BA69B5
:102640001343BB613549FB699B080233BA6941F802
:102650002320384B9B68BB613B69DB43BA6913405D
:10266000BB613B685B6803F48013002B03D0BA693D
:102670003B691343BB612F4ABB6993602D4BDB68F9
:10268000BB613B69DB43BA691340BB613B685B6874
:1026900003F40013002B03D0BA693B691343BB61F9
:1026A000244ABB69D360234B5B68BB613B69DB4356
:1026B000BA691340BB613B685B6803F40033002BCD
:1026C00003D0BA693B691343BB611A4ABB695360C3
:1026D000184B1B68BB613B69DB43BA691340BB61A4
:1026E0003B685B6803F48033002B03D0BA693B6915
:1026F0001343BB610F4ABB691360FB690133FB6184
:10270000FB690F2B7FF6A2AE00BF00BF2437BD468A
:102710005DF8047B704700BF00380240003801407C
:10272000000002400004024000080240000C024089
:1027300000100240003C014080B483B000AF7860DC
:102740000B467B8013467B707B78002B03D07A8806
:102750007B689A6103E07B881A047B689A6100BFFA
:102760000C37BD465DF8047B7047000080B582B031
:1027700000AF0346FB80084B5A69FB881340002BCF
:1027800006D0054AFB885361FB881846FEF756FDC4
:1027900000BF0837BD4680BD003C014080B586B013
:1027A00000AF78607B68002B01D1012367E27B6872
:1027B0001B6803F00103002B75D0884B9B6803F066
:1027C0000C03042B0CD0854B9B6803F00C03082BE7
:1027D00012D1824B5B6803F48003B3F5800F0BD1F9
:1027E0007E4B1B6803F40033002B5BD07B685B6877
:1027F000002B57D1012342E27B685B68B3F5803F31
:1028000006D1764B1B68754A43F4803313601DE094
:102810007B685B68B3F5A02F0CD1704B1B686F4AC7
:1028200043F4802313606D4B1B686C4A43F4803380
:1028300013600BE0694B1B68684A23F48033136014
:10284000664B1B68654A23F4802313607B685B68D2
:10285000002B13D0FFF7FEFC386108E0FFF7FAFC0D
:1028600002463B69D31A642B01D9032307E25B4B71
:102870001B6803F40033002BF0D014E0FFF7EAFCF0
:10288000386108E0FFF7E6FC02463B69D31A642B87
:1028900001D90323F3E1514B1B6803F40033002BF0
:1028A000F0D100E000BF7B681B6803F00203002B3F
:1028B00063D04A4B9B6803F00C03002B0BD0474BB3
:1028C0009B6803F00C03082B1CD1444B5B6803F49A
:1028D0008003002B16D1414B1B6803F00203002B31
:1028E00005D07B68DB68012B01D00123C7E13B4B9E
:1028F0001B6823F0F8027B681B69DB003749134330
:102900000B603AE07B68DB68002B20D0344B01225F
:102910001A60FFF79FFC386108E0FFF79BFC024656
:102920003B69D31A022B01D90323A8E12B4B1B6867
:1029300003F00203002BF0D0284B1B6823F0F802B1
:102940007B681B69DB00254913430B6015E0244BB2
:1029500000221A60FFF77EFC386108E0FFF77AFC7E
:1029600002463B69D31A022B01D9032387E11B4B93
:102970001B6803F00203002BF0D17B681B6803F097
:102980000803002B36D07B685B69002B16D0154BF3
:1029900001221A60FFF75EFC386108E0FFF75AFC7D
:1029A00002463B69D31A022B01D9032367E10B4B83
:1029B0005B6F03F00203002BF0D01BE0094B0022F9
:1029C0001A60FFF747FC38610EE0FFF743FC024650
:1029D0003B69D31A022B07D9032350E10038024088
:1029E00000004742800E4742884B5B6F03F00203B2
:1029F000002BEAD17B681B6803F00403002B00F076
:102A000097800023FB75814B1B6C03F08053002BD8
:102A10000FD10023BB607D4B1B6C7C4A43F080537D
:102A200013647A4B1B6C03F08053BB60BB680123BB
:102A3000FB75774B1B6803F48073002B18D1744B24
:102A40001B68734A43F480731360FFF703FC38611B
:102A500008E0FFF7FFFB02463B69D31A022B01D9BE
:102A600003230CE16A4B1B6803F48073002BF0D046
:102A70007B689B68012B06D1644B1B6F634A43F054
:102A8000010313671CE07B689B68052B0CD15F4B2F
:102A90001B6F5E4A43F0040313675C4B1B6F5B4A7A
:102AA00043F0010313670BE0584B1B6F574A23F0A9
:102AB00001031367554B1B6F544A23F0040313673C
:102AC0007B689B68002B15D0FFF7C4FB38610AE0D8
:102AD000FFF7C0FB02463B69D31A41F288329342AA
:102AE00001D90323CBE0494B1B6F03F00203002BFA
:102AF000EED014E0FFF7AEFB38610AE0FFF7AAFB67
:102B000002463B69D31A41F28832934201D903232A
:102B1000B5E03E4B1B6F03F00203002BEED1FB7DB3
:102B2000012B05D1394B1B6C384A23F080531364B9
:102B30007B689B69002B00F0A180344B9B6803F0FD
:102B40000C03082B5CD07B689B69022B41D1314B75
:102B500000221A60FFF77EFB386108E0FFF77AFB7E
:102B600002463B69D31A022B01D9032387E0274B86
:102B70001B6803F00073002BF0D17B68DA697B6877
:102B80001B6A1A437B685B6A9B011A437B689B6ADA
:102B90005B08013B1B041A437B68DB6A1B061B496D
:102BA00013434B601B4B01221A60FFF753FB386144
:102BB00008E0FFF74FFB02463B69D31A022B01D90D
:102BC00003235CE0114B1B6803F00073002BF0D073
:102BD00054E0104B00221A60FFF73CFB386108E01C
:102BE000FFF738FB02463B69D31A022B01D90323B6
:102BF00045E0064B1B6803F00073002BF0D13DE06D
:102C00007B689B69012B07D1012338E00038024023
:102C100000700040600047421B4B5B68FB607B68B4
:102C20009B69012B28D0FB6803F480027B68DB6979
:102C30009A4221D1FB6803F03F027B681B6A9A42EB
:102C40001AD1FA6847F6C07313407A68526A920143
:102C5000934211D1FB6803F440327B689B6A5B08A6
:102C6000013B1B049A4207D1FB6803F070627B684A
:102C7000DB6A1B069A4201D0012300E000231846BC
:102C80001837BD4680BD00BF0038024080B584B013
:102C900000AF786039607B68002B01D10123CCE064
:102CA000684B1B6803F007033A689A420CD9654BDE
:102CB0003A68D2B21A70634B1B6803F007033A6894
:102CC0009A4201D00123B8E07B681B6803F002033D
:102CD000002B20D07B681B6803F00403002B05D079
:102CE000594B9B68584A43F4E05393607B681B68D8
:102CF00003F00803002B05D0534B9B68524A43F462
:102D000060439360504B9B6823F0F0027B689B68A4
:102D10004D4913438B607B681B6803F00103002B54
:102D200044D07B685B68012B07D1474B1B6803F4D9
:102D30000033002B19D101237FE07B685B68022BF5
:102D400003D07B685B68032B07D13F4B1B6803F004
:102D50000073002B09D101236FE03B4B1B6803F08C
:102D60000203002B01D1012367E0374B9B6823F05E
:102D700003027B685B68344913438B60FFF76AFA90
:102D8000F8600AE0FFF766FA0246FB68D31A41F2E0
:102D90008832934201D903234FE02B4B9B6803F009
:102DA0000C027B685B689B009A42EBD1254B1B6849
:102DB00003F007033A689A420CD2224B3A68D2B227
:102DC0001A70204B1B6803F007033A689A4201D03F
:102DD000012332E07B681B6803F00403002B08D05A
:102DE000194B9B6823F4E0527B68DB681649134358
:102DF0008B607B681B6803F00803002B09D0124B23
:102E00009B6823F460427B681B69DB000E49134317
:102E10008B6000F02DF802460B4B9B681B0903F0FA
:102E20000F030A49CB5C22FA03F3094A1360094BEA
:102E30001B681846FEF714FC002318461037BD46E1
:102E400080BD00BF003C024000380240C0C2000804
:102E5000780000207C00002080B400AF034B0122EA
:102E60001A6000BFBD465DF8047B70474C004742C6
:102E70002DE9B04F90B000AF00237B630023FB63CC
:102E800000233B630023BB63594B9B6803F00C0397
:102E9000082B0DD0082B00F2A180002B02D0042BB0
:102EA00003D09BE0534BBB639BE0534BBB6398E069
:102EB0004F4B5B6803F03F037B634D4B5B6803F450
:102EC0008003002B28D04A4B5B689B0900223B62A1
:102ED0007A623B6AC3F308000021474B03FB01F20F
:102EE000002300FB03F31344434AA0FB0212FA62DF
:102EF0000A46BA62FA6A1344FB627B6B0022BB612A
:102F0000FA61D7E90623D7E90A01FDF737FE024641
:102F10000B461346FB6353E0354B5B689B0900226D
:102F20003B617A613B69C3F3080A4FF0000B5246DC
:102F30005B464FF000004FF00001590141EAD261B9
:102F4000500102460B46B2EB0A0863EB0B094FF047
:102F500000024FF000034FEA891343EA98634FEAF7
:102F60008812B2EB080463EB09054FF000024FF042
:102F70000003EB0043EA5473E20014461D4614EBD1
:102F80000A033B6045EB0B037B604FF000024FF000
:102F90000003D7E9004529468B02214643EA9153B5
:102FA00021468A02104619467B6B0022BB60FA60FC
:102FB000D7E90223FDF7E2FD02460B461346FB6309
:102FC0000B4B5B681B0C03F0030301335B003B639B
:102FD000FA6B3B6BB2FBF3F3BB6302E0054BBB63E5
:102FE00000BFBB6B18464037BD46BDE8B08F00BF81
:102FF000003802400024F40040787D0180B400AF26
:10300000034B1B681846BD465DF8047B704700BF44
:103010007800002080B500AFFFF7F0FF0246054BB7
:103020009B689B0A03F007030349CB5C22FA03F376
:10303000184680BD00380240D0C2000880B500AFFD
:10304000FFF7DCFF0246054B9B685B0B03F00703B1
:103050000349CB5C22FA03F3184680BD00380240D6
:10306000D0C2000880B483B000AF786039607B685C
:103070000F221A60124B9B6803F003027B685A60B0
:103080000F4B9B6803F0F0027B689A600C4B9B68C7
:1030900003F4E0527B68DA60094B9B68DB0803F4B9
:1030A000E0527B681A61074B1B6803F007023B681C
:1030B0001A6000BF0C37BD465DF8047B704700BF47
:1030C00000380240003C024080B500AF064BDB6890
:1030D00003F08003802B04D100F00AF8034B802218
:1030E0001A7000BF80BD00BF003802400E38024099
:1030F00080B400AF00BFBD465DF8047B70470000A0
:1031000080B582B000AF78607B68002B01D10123CD
:103110009BE07B685B6A002B08D17B685B68B3F53A
:10312000827F09D07B680022DA6105E07B6800229B
:103130001A617B6800225A617B6800229A627B6870
:1031400093F85130DBB2002B26D17B68002283F844
:1031500050207B683F4A9A657B683F4ADA657B6806
:103160003E4A1A667B683E4A5A667B683D4A9A66C2
:103170007B683D4ADA667B683C4A1A677B683C4A52
:103180005A677B689B6F002B02D17B68394A9A672C
:103190007B689B6F786898477B68022283F8512090
:1031A0007B681B681A687B681B6822F040021A6003
:1031B0007B685B6803F482727B689B6803F404435A
:1031C0001A437B68DB6803F400631A437B681B695E
:1031D00003F002031A437B685B6903F001031A439F
:1031E0007B689B6903F400731A437B68DB6903F017
:1031F00038031A437B681B6A03F0800342EA030129
:103200007B689B6A03F400527B681B680A431A6060
:103210007B689B691B0C03F004017B685B6A03F00D
:1032200010027B681B680A435A607B681B68DA6976
:103230007B681B6822F40062DA617B6800225A65B1
:103240007B68012283F85120002318460837BD46C9
:1032500080BD00BF853A0008993A0008AD3A0008E1
:10326000C13A0008D53A0008E93A0008FD3A0008DA
:10327000113B00087915000880B588B000AFF860F0
:10328000B9603B601346FB80FEF7E4FFF861FB8802
:103290007B83FB6893F85130DBB2012B01D0022312
:1032A0002AE1BB68002B02D0FB88002B01D101234F
:1032B00022E1FB6893F85030012B01D102231BE17E
:1032C000FB68012283F85020FB68032283F8512019
:1032D000FB6800225A65FB68BA681A63FB68FA88C3
:1032E0009A86FB68FA88DA86FB6800229A63FB6894
:1032F00000229A87FB680022DA87FB6800225A6462
:10330000FB6800221A64FB689B68B3F5004F0FD17D
:10331000FB681B681A68FB681B6822F040021A6091
:10332000FB681B681A68FB681B6842F480421A60DD
:10333000FB681B681B6803F04003402B07D0FB6849
:103340001B681A68FB681B6842F040021A60FB6841
:10335000DB68B3F5006F52D1FB685B68002B02D0CD
:103360007B8B012B45D1FB681B6B1A88FB681B68A4
:10337000DA60FB681B6B9A1CFB681A63FB68DB8EC8
:103380009BB2013B9AB2FB68DA8632E0FB681B68AD
:103390009B6803F00203022B12D1FB681B6B1A8897
:1033A000FB681B68DA60FB681B6B9A1CFB681A637E
:1033B000FB68DB8E9BB2013B9AB2FB68DA8618E0B1
:1033C000FEF748FF0246FB69D31A3A689A4203D8CF
:1033D0003B68B3F1FF3F02D13B68002B09D1FB688A
:1033E000012283F85120FB68002283F85020032338
:1033F00082E0FB68DB8E9BB2002BC7D153E0FB68F9
:103400005B68002B02D07B8B012B47D1FB681A6BCA
:10341000FB681B680C3312781A70FB681B6B5A1C14
:10342000FB681A63FB68DB8E9BB2013B9AB2FB68B8
:10343000DA8633E0FB681B689B6803F00203022B0B
:1034400013D1FB681A6BFB681B680C3312781A7077
:10345000FB681B6B5A1CFB681A63FB68DB8E9BB214
:10346000013B9AB2FB68DA8618E0FEF7F3FE0246EB
:10347000FB69D31A3A689A4203D83B68B3F1FF3F1D
:1034800002D13B68002B09D1FB68012283F851204F
:10349000FB68002283F8502003232DE0FB68DB8EBD
:1034A0009BB2002BC6D1FA693968F86800F036FC87
:1034B0000346002B02D0FB6820225A65FB689B68FC
:1034C000002B0AD100237B61FB681B68DB687B61F2
:1034D000FB681B689B687B617B69FB68012283F842
:1034E0005120FB68002283F85020FB685B6D002BA5
:1034F00001D0012300E0002318462037BD4680BDDF
:1035000080B588B002AFF860B9603B601346FB80BD
:10351000FB6893F85130DBB2012B01D0022304E1A8
:10352000FB685B68B3F5827F12D1FB689B68002B58
:103530000ED1FB68042283F85120FA883B6800937F
:103540001346BA68B968F86800F0F3F80346ECE08F
:10355000FEF780FE7861BB68002B02D0FB88002B51
:1035600001D10123E1E0FB6893F85030012B01D138
:103570000223DAE0FB68012283F85020FB68042272
:1035800083F85120FB6800225A65FB68BA689A6389
:10359000FB68FA889A87FB68FA88DA87FB6800225A
:1035A0001A63FB6800229A86FB680022DA86FB68B1
:1035B00000221A64FB6800225A64FB689B68B3F51A
:1035C000004F0FD1FB681B681A68FB681B6822F06C
:1035D00040021A60FB681B681A68FB681B6822F4CB
:1035E00080421A60FB681B681B6803F04003402B95
:1035F00007D0FB681B681A68FB681B6842F0400232
:103600001A60FB68DB68002B70D135E0FB681B6833
:103610009B6803F00103012B15D1FB681B6803F1C4
:103620000C02FB689B6B1278D2B21A70FB689B6B22
:103630005A1CFB689A63FB68DB8F9BB2013B9AB212
:10364000FB68DA8718E0FEF705FE02467B69D31AAD
:103650003A689A4203D83B68B3F1FF3F02D13B6816
:10366000002B09D1FB68012283F85120FB6800225E
:1036700083F85020032358E0FB68DB8F9BB2002BBC
:10368000C4D138E0FB681B689B6803F00103012B81
:1036900013D1FB681B68DA68FB689B6B92B21A80D7
:1036A000FB689B6B9A1CFB689A63FB68DB8F9BB281
:1036B000013B9AB2FB68DA8718E0FEF7CBFD0246C1
:1036C0007B69D31A3A689A4203D83B68B3F1FF3F4B
:1036D00002D13B68002B09D1FB68012283F85120FD
:1036E000FB68002283F8502003231EE0FB68DB8F79
:1036F0009BB2002BC6D17A693968F86800F0A8FA45
:103700000346002B02D0FB6820225A65FB68012289
:1037100083F85120FB68002283F85020FB685B6D22
:10372000002B01D0012300E0002318461837BD46C6
:1037300080BD80B58AB000AFF860B9607A607B80E8
:1037400001237B62FEF786FD3862FB6893F85130F7
:10375000FB77FB685B68BB617B88FB82FB7F012B8F
:103760000CD0BB69B3F5827F06D1FB689B68002B48
:1037700002D1FB7F042B01D002237FE1BB68002B29
:1037800005D07B68002B02D07B88002B01D1012360
:1037900074E1FB6893F85030012B01D102236DE1F5
:1037A000FB68012283F85020FB6893F85130DBB2AC
:1037B000042B03D0FB68052283F85120FB6800220C
:1037C0005A65FB687A689A63FB687A88DA87FB68CF
:1037D0007A889A87FB68BA681A63FB687A88DA86FF
:1037E000FB687A889A86FB6800221A64FB680022CC
:1037F0005A64FB681B681B6803F04003402B07D02A
:10380000FB681B681A68FB681B6842F040021A607C
:10381000FB68DB68B3F5006F7ED1FB685B68002B4B
:1038200002D0FB8A012B6CD1FB681B6B1A88FB68EA
:103830001B68DA60FB681B6B9A1CFB681A63FB68E9
:10384000DB8E9BB2013B9AB2FB68DA8659E0FB68DB
:103850001B689B6803F00203022B1BD1FB68DB8E05
:103860009BB2002B16D07B6A012B13D1FB681B6B1C
:103870001A88FB681B68DA60FB681B6B9A1CFB6884
:103880001A63FB68DB8E9BB2013B9AB2FB68DA8657
:1038900000237B62FB681B689B6803F00103012B1C
:1038A00019D1FB68DB8F9BB2002B14D0FB681B681F
:1038B000DA68FB689B6B92B21A80FB689B6B9A1C60
:1038C000FB689A63FB68DB8F9BB2013B9AB2FB6893
:1038D000DA8701237B62FEF7BDFC02463B6AD31AFE
:1038E0003A6B9A420DD83B6BB3F1FF3F09D0FB68AE
:1038F000012283F85120FB68002283F85020032323
:10390000BCE0FB68DB8E9BB2002BA0D1FB68DB8F99
:103910009BB2002B9BD182E0FB685B68002B02D03E
:10392000FB8A012B71D1FB681A6BFB681B680C3397
:1039300012781A70FB681B6B5A1CFB681A63FB68D1
:10394000DB8E9BB2013B9AB2FB68DA865DE0FB68D6
:103950001B689B6803F00203022B1CD1FB68DB8E03
:103960009BB2002B17D07B6A012B14D1FB681A6B1A
:10397000FB681B680C3312781A70FB681B6B5A1CAF
:10398000FB681A63FB68DB8E9BB2013B9AB2FB6853
:10399000DA8600237B62FB681B689B6803F00103E7
:1039A000012B19D1FB68DB8F9BB2002B14D0FB6875
:1039B0001B68DA68FB689B6BD2B21A70FB689B6B62
:1039C0005A1CFB689A63FB68DB8F9BB2013B9AB27F
:1039D000FB68DA8701237B62FEF73CFC02463B6A08
:1039E000D31A3A6B9A4203D83B6BB3F1FF3F02D133
:1039F0003B6B002B09D1FB68012283F85120FB6847
:103A0000002283F85020032338E0FB68DB8E9BB252
:103A1000002B9CD1FB68DB8F9BB2002B97D13A6ABD
:103A2000396BF86800F07AF90346002B08D0FB6880
:103A300020225A65FB68002283F8502001231DE0F4
:103A4000FB689B68002B0AD100233B61FB681B6865
:103A5000DB683B61FB681B689B683B613B69FB68FB
:103A6000012283F85120FB68002283F85020FB6874
:103A70005B6D002B01D0012300E00023184628379E
:103A8000BD4680BD80B483B000AF786000BF0C3706
:103A9000BD465DF8047B704780B483B000AF7860AA
:103AA00000BF0C37BD465DF8047B704780B483B01F
:103AB00000AF786000BF0C37BD465DF8047B7047EF
:103AC00080B483B000AF786000BF0C37BD465DF8AE
:103AD000047B704780B483B000AF786000BF0C37C0
:103AE000BD465DF8047B704780B483B000AF78605A
:103AF00000BF0C37BD465DF8047B704780B483B0CF
:103B000000AF786000BF0C37BD465DF8047B70479E
:103B100080B483B000AF786000BF0C37BD465DF85D
:103B2000047B704780B483B000AF78607B6893F803
:103B30005130DBB218460C37BD465DF8047B704748
:103B400080B588B000AFF860B9603B601346FB7188
:103B5000FEF780FB0246BB6A9B1A3A681344FB617E
:103B6000FEF778FBB861394B1B685B011B0DFA69E6
:103B700002FB03F37B6154E03B68B3F1FF3F50D09D
:103B8000FEF768FB0246BB69D31AFA699A4202D96A
:103B9000FB69002B3DD1FB681B685A68FB681B68FA
:103BA00022F0E0025A60FB685B68B3F5827F11D1B6
:103BB000FB689B68B3F5004F04D0FB689B68B3F5C6
:103BC000806F07D1FB681B681A68FB681B6822F0CE
:103BD00040021A60FB689B6AB3F5005F0FD1FB6877
:103BE0001B681A68FB681B6822F400521A60FB68A5
:103BF0001B681A68FB681B6842F400521A60FB6875
:103C0000012283F85120FB68002283F8502003230F
:103C100017E07B69002B01D10023FB617B69013B2D
:103C20007B61FB681B689A68BB681340BA689A425C
:103C30000CBF01230023DBB21A46FB799A429BD1C9
:103C4000002318462037BD4680BD00BF7800002005
:103C500080B586B002AFF860B9607A60FB685B68D7
:103C6000B3F5827F11D1FB689B68B3F5004F04D098
:103C7000FB689B68B3F5806F07D1FB681B681A6807
:103C8000FB681B6822F040021A60FB685B68B3F5B2
:103C9000827F2AD1FB689B68B3F5806F12D07B6866
:103CA0000093BB6800228021F868FFF749FF0346B4
:103CB000002B2DD0FB685B6D43F02002FB685A653A
:103CC000032326E07B680093BB6800220121F8688B
:103CD000FFF736FF0346002B1AD0FB685B6D43F0FD
:103CE0002002FB685A65032313E07B680093BB68DE
:103CF00000220121F868FFF723FF0346002B07D0BD
:103D0000FB685B6D43F02002FB685A65032300E00B
:103D1000002318461037BD4680BD000080B588B02E
:103D200002AFF860B9607A607B680093BB680122DB
:103D30000221F868FFF704FF0346002B07D0FB6859
:103D40005B6D43F02002FB685A65032332E01B4B96
:103D50001B681B4AA2FB03235B0D4FF47A7202FB24
:103D600003F37B61FB685B68B3F5827F12D17B68EC
:103D70000093BB6800228021F868FFF7E1FE03464C
:103D8000002B16D0FB685B6D43F02002FB685A6580
:103D900003230FE07B69002B0AD07B69013B7B6129
:103DA000FB681B689B6803F08003802BF2D000E067
:103DB00000BF002318461837BD4680BD780000209C
:103DC000819F5E1680B582B000AF78607B68002B63
:103DD00001D1012341E07B6893F83D30DBB2002B39
:103DE00006D17B68002283F83C207868FEF7B6F89D
:103DF0007B68022283F83D207B681A687B68043365
:103E00001946104600F09EFC7B68012283F846208C
:103E10007B68012283F83E207B68012283F83F20E3
:103E20007B68012283F840207B68012283F84120CF
:103E30007B68012283F842207B68012283F84320BB
:103E40007B68012283F844207B68012283F84520A7
:103E50007B68012283F83D20002318460837BD46C1
:103E600080BD000080B485B000AF78607B6893F8B7
:103E70003D30DBB2012B01D0012344E07B680222FC
:103E800083F83D207B681B68DA687B681B6842F01A
:103E90000102DA607B681B681E4A934218D07B6877
:103EA0001B68B3F1804F13D07B681B681A4A93429A
:103EB0000ED07B681B68194A934209D07B681B6847
:103EC000174A934204D07B681B68164A934211D16B
:103ED0007B681B689B6803F00703FB60FB68062B8D
:103EE00010D07B681B681A687B681B6842F001026F
:103EF0001A6007E07B681B681A687B681B6842F0E1
:103F000001021A60002318461437BD465DF8047B91
:103F1000704700BF0000014000040040000800405E
:103F2000000C00400040014080B582B000AF7860D6
:103F30007B68002B01D1012341E07B6893F83D3081
:103F4000DBB2002B06D17B68002283F83C20786826
:103F5000FDF7CCFF7B68022283F83D207B681A685E
:103F60007B6804331946104600F0ECFB7B680122A5
:103F700083F846207B68012283F83E207B6801227B
:103F800083F83F207B68012283F840207B68012270
:103F900083F841207B68012283F842207B6801225C
:103FA00083F843207B68012283F844207B68012248
:103FB00083F845207B68012283F83D2000231846C2
:103FC0000837BD4680BD000080B584B000AF786082
:103FD00039603B68002B09D17B6893F83E30DBB237
:103FE000012B14BF01230023DBB222E03B68042B2A
:103FF00009D17B6893F83F30DBB2012B14BF01235A
:104000000023DBB215E03B68082B09D17B6893F8ED
:104010004030DBB2012B14BF01230023DBB208E0E8
:104020007B6893F84130DBB2012B14BF01230023DE
:10403000DBB2002B01D0012368E03B68002B04D1E8
:104040007B68022283F83E2013E03B68042B04D1F6
:104050007B68022283F83F200BE03B68082B04D1E9
:104060007B68022283F8402003E07B68022283F809
:1040700041207B681B6801223968184600F07AFDF0
:104080007B681B68234A934207D17B681B685A6C84
:104090007B681B6842F400425A647B681B681D4AB7
:1040A000934218D07B681B68B3F1804F13D07B68B4
:1040B0001B68194A93420ED07B681B68174A9342CB
:1040C00009D07B681B68164A934204D07B681B6842
:1040D000144A934211D17B681B689B6803F0070365
:1040E000FB60FB68062B10D07B681B681A687B6836
:1040F0001B6842F001021A6007E07B681B681A68BF
:104100007B681B6842F001021A60002318461037D2
:10411000BD4680BD00000140000400400008004092
:10412000000C00400040014080B586B000AF7860D0
:1041300039607B68002B01D1012397E07B6893F8FD
:104140003D30DBB2002B06D17B68002283F83C2097
:104150007868FDF7BFFD7B68022283F83D207B680D
:104160001B689B687A68126823F4804323F0070376
:1041700093607B681A687B6804331946104600F028
:10418000E1FA7B681B689B687B617B681B689B69A5
:104190003B617B681B681B6AFB603B681B687A6934
:1041A00013437B613B6923F4407323F003033B61BA
:1041B0003B689A683B689B691B0213433A69134347
:1041C0003B613B6923F4406323F00C033B613B6993
:1041D00023F4704323F0F0033B613B68DA683B68EB
:1041E000DB691B0213433A6913433B613B681B695C
:1041F0001A013B681B6A1B0313433A6913433B6173
:10420000FB6823F02203FB60FB6823F08803FB605C
:104210003B685A683B685B691B011343FA681343A8
:10422000FB607B681B687A699A607B681B683A69E7
:104230009A617B681B68FA681A627B68012283F8BE
:1042400046207B68012283F83E207B68012283F8A8
:104250003F207B68012283F842207B68012283F89B
:1042600043207B68012283F83D200023184618373D
:10427000BD4680BD80B584B000AF786039607B6892
:1042800093F83E30FB737B6893F83F30BB737B68D9
:1042900093F842307B737B6893F843303B733B6801
:1042A000002B10D1FB7B012B02D17B7B012B01D09A
:1042B000012369E07B68022283F83E207B680222AA
:1042C00083F8422031E03B68042B10D1BB7B012BEB
:1042D00002D13B7B012B01D0012355E07B680222F8
:1042E00083F83F207B68022283F843201DE0FB7B9C
:1042F000012B08D1BB7B012B05D17B7B012B02D18C
:104300003B7B012B01D001233EE07B68022283F836
:104310003E207B68022283F83F207B68022283F8DC
:1043200042207B68022283F843203B68002B03D0A5
:104330003B68042B08D00FE07B681B68012200213A
:10434000184600F017FC16E07B681B680122042168
:10435000184600F00FFC0EE07B681B68012200216C
:10436000184600F007FC7B681B68012204211846F0
:1043700000F000FC00BF7B681B681A687B681B6844
:1043800042F001021A60002318461037BD4680BD76
:1043900080B584B000AF78607B681B68DB68FB6029
:1043A0007B681B681B69BB60BB6803F00203002BC2
:1043B00020D0FB6803F00203002B1BD07B681B6836
:1043C0006FF002021A617B6801221A777B681B6812
:1043D0009B6903F00303002B03D0786800F094F985
:1043E00005E0786800F086F9786800F097F97B6856
:1043F00000221A77BB6803F00403002B20D0FB686F
:1044000003F00403002B1BD07B681B686FF00402D1
:104410001A617B6802221A777B681B689B6903F428
:104420004073002B03D0786800F06EF905E07868DF
:1044300000F060F9786800F071F97B6800221A7763
:10444000BB6803F00803002B20D0FB6803F00803CF
:10445000002B1BD07B681B686FF008021A617B6819
:1044600004221A777B681B68DB6903F00303002BC7
:1044700003D0786800F048F905E0786800F03AF970
:10448000786800F04BF97B6800221A77BB6803F06C
:104490001003002B20D0FB6803F01003002B1BD06F
:1044A0007B681B686FF010021A617B6808221A771C
:1044B0007B681B68DB6903F44073002B03D07868CA
:1044C00000F022F905E0786800F014F9786800F04F
:1044D00025F97B6800221A77BB6803F00103002BE3
:1044E0000CD0FB6803F00103002B07D07B681B682E
:1044F0006FF001021A617868FCF7F0FFBB6803F007
:104500008003002B0CD0FB6803F08003002B07D046
:104510007B681B686FF080021A61786800F0C8FB46
:10452000BB6803F04003002B0CD0FB6803F0400392
:10453000002B07D07B681B686FF040021A61786817
:1045400000F0F6F8BB6803F02003002B0CD0FB68EA
:1045500003F02003002B07D07B681B686FF020025C
:104560001A61786800F09AFB00BF1037BD4680BD25
:1045700080B586B000AFF860B9607A600023FB7543
:10458000FB6893F83C30012B01D10223AEE0FB68BD
:10459000012283F83C207B680C2B00F29F8001A253
:1045A00052F823F0D9450008DD460008DD46000832
:1045B000DD46000819460008DD460008DD46000813
:1045C000DD4600085B460008DD460008DD460008C1
:1045D000DD4600089B460008FB681B68B968184662
:1045E00000F03CF9FB681B689A69FB681B6842F0A5
:1045F00008029A61FB681B689A69FB681B6822F0D5
:1046000004029A61FB681B689969BB681A69FB68B8
:104610001B680A439A6164E0FB681B68B968184626
:1046200000F082F9FB681B689A69FB681B6842F41A
:1046300000629A61FB681B689A69FB681B6822F438
:1046400080629A61FB681B689969BB681B691A02E2
:10465000FB681B680A439A6143E0FB681B68B96802
:10466000184600F0CDF9FB681B68DA69FB681B6827
:1046700042F00802DA61FB681B68DA69FB681B68B4
:1046800022F00402DA61FB681B68D969BB681A6909
:10469000FB681B680A43DA6123E0FB681B68B968A2
:1046A000184600F017FAFB681B68DA69FB681B689C
:1046B00042F40062DA61FB681B68DA69FB681B6818
:1046C00022F48062DA61FB681B68D969BB681B69E8
:1046D0001A02FB681B680A43DA6102E00123FB75DA
:1046E00000BFFB68002283F83C20FB7D184618378A
:1046F000BD4680BD80B483B000AF786000BF0C378A
:10470000BD465DF8047B704780B483B000AF78602D
:1047100000BF0C37BD465DF8047B704780B483B0A2
:1047200000AF786000BF0C37BD465DF8047B704772
:1047300080B483B000AF786000BF0C37BD465DF831
:10474000047B704780B485B000AF786039607B68C7
:104750001B68FB607B683A4A93420FD07B68B3F1D9
:10476000804F0BD07B68374A934207D07B68364A2C
:10477000934203D07B68354A934208D1FB6823F00B
:104780007003FB603B685B68FA681343FB607B68FF
:104790002B4A93421BD07B68B3F1804F17D07B68C4
:1047A000284A934213D07B68274A93420FD07B68F4
:1047B000264A93420BD07B68254A934207D07B68F8
:1047C000244A934203D07B68234A934208D1FB6872
:1047D00023F44073FB603B68DB68FA681343FB60BB
:1047E000FB6823F080023B685B691343FB607B68D6
:1047F000FA681A603B689A687B68DA623B681A68F4
:104800007B689A627B680E4A934203D13B681A69BF
:104810007B681A637B6801225A617B681B6903F01D
:104820000103012B05D17B681B6923F001027B6822
:104830001A6100BF1437BD465DF8047B704700BFA6
:10484000000001400004004000080040000C00404F
:1048500000400140004401400048014080B487B05E
:1048600000AF786039607B681B6A7B617B681B6A7C
:1048700023F001027B681A627B685B683B617B689E
:104880009B69FB60FB6823F07003FB60FB6823F00F
:104890000303FB603B681B68FA681343FB607B699A
:1048A00023F002037B613B689B687A6913437B6159
:1048B0007B681C4A93420CD17B6923F008037B611F
:1048C0003B68DB687A6913437B617B6923F00403EF
:1048D0007B617B68134A934211D13B6923F4807357
:1048E0003B613B6923F400733B613B685B693A6958
:1048F00013433B613B689B693A6913433B617B68A7
:104900003A695A607B68FA689A613B685A687B68C2
:104910005A637B687A691A6200BF1C37BD465DF82E
:10492000047B70470000014080B487B000AF78601E
:1049300039607B681B6A7B617B681B6A23F010020D
:104940007B681A627B685B683B617B689B69FB6084
:10495000FB6823F4E043FB60FB6823F44073FB60D7
:104960003B681B681B02FA681343FB607B6923F0FA
:1049700020037B613B689B681B017A6913437B6161
:104980007B681E4A93420DD17B6923F080037B61D3
:104990003B68DB681B017A6913437B617B6923F009
:1049A00040037B617B68154A934213D13B6923F432
:1049B00080633B613B6923F400633B613B685B6957
:1049C0009B003A6913433B613B689B699B003A69D2
:1049D00013433B617B683A695A607B68FA689A6165
:1049E0003B685A687B689A637B687A691A6200BF81
:1049F0001C37BD465DF8047B704700BF00000140D6
:104A000080B487B000AF786039607B681B6A7B61D7
:104A10007B681B6A23F480727B681A627B685B6820
:104A20003B617B68DB69FB60FB6823F07003FB6024
:104A3000FB6823F00303FB603B681B68FA681343C1
:104A4000FB607B6923F400737B613B689B681B02FE
:104A50007A6913437B617B681D4A93420DD17B6960
:104A600023F400637B613B68DB681B027A691343B4
:104A70007B617B6923F480637B617B68144A93428A
:104A800013D13B6923F480533B613B6923F400530A
:104A90003B613B685B691B013A6913433B613B68BF
:104AA0009B691B013A6913433B617B683A695A6011
:104AB0007B68FA68DA613B685A687B68DA637B680E
:104AC0007A691A6200BF1C37BD465DF8047B7047E7
:104AD0000000014080B487B000AF786039607B6827
:104AE0001B6A3B617B681B6A23F480527B681A62F5
:104AF0007B685B687B617B68DB69FB60FB6823F438
:104B0000E043FB60FB6823F44073FB603B681B6879
:104B10001B02FA681343FB603B6923F400533B61BB
:104B20003B689B681B033A6913433B617B68104AEF
:104B3000934209D17B6923F480437B613B685B69C5
:104B40009B017A6913437B617B687A695A607B6851
:104B5000FA68DA613B685A687B681A647B683A696C
:104B60001A6200BF1C37BD465DF8047B704700BF6A
:104B70000000014080B487B000AFF860B9607A608F
:104B8000BB6803F01F03012202FA03F37B61FB6899
:104B90001A6A7B69DB431A40FB681A62FB681A6A6F
:104BA000BB6803F01F03796801FA03F31A43FB683B
:104BB0001A6200BF1C37BD465DF8047B70470000D9
:104BC00080B485B000AF786039607B6893F83C3082
:104BD000012B01D1022350E07B68012283F83C20A5
:104BE0007B68022283F83D207B681B685B68FB6062
:104BF0007B681B689B68BB60FB6823F07003FB60ED
:104C00003B681B68FA681343FB607B681B68FA68A3
:104C10005A607B681B681C4A934218D07B681B68EB
:104C2000B3F1804F13D07B681B68184A93420ED0B3
:104C30007B681B68164A934209D07B681B68154A3B
:104C4000934204D07B681B68134A93420CD1BB6823
:104C500023F08003BB603B685B68BA681343BB60AA
:104C60007B681B68BA689A607B68012283F83D20E4
:104C70007B68002283F83C20002318461437BD4689
:104C80005DF8047B704700BF000001400004004055
:104C900000080040000C00400040014080B483B098
:104CA00000AF786000BF0C37BD465DF8047B7047ED
:104CB00080B483B000AF786000BF0C37BD465DF8AC
:104CC000047B704780B582B000AF78607B68002BB2
:104CD00001D1012342E07B6893F84130DBB2002B25
:104CE00006D17B68002283F840207868FDF70AFA35
:104CF0007B68242283F841207B681B68DA687B6824
:104D00001B6822F40052DA60786800F02BF87B68A8
:104D10001B681A697B681B6822F490421A617B68E1
:104D20001B685A697B681B6822F02A025A617B68FB
:104D30001B68DA687B681B6842F40052DA607B68A3
:104D400000225A647B68202283F841207B6820225D
:104D500083F842207B6800225A63002318460837F4
:104D6000BD4680BD2DE9B04FC0B000AFC7F8F4001C
:104D7000D7F8F4301B681B6923F44050D7F8F4309F
:104D8000D968D7F8F4301A6840EA01031361D7F8FC
:104D9000F4309A68D7F8F4301B691A43D7F8F43026
:104DA0005B691A43D7F8F430DB691343C7F8F8306E
:104DB000D7F8F4301B68DB6823F4164121F00C01AE
:104DC000D7F8F4301A68D7F8F8300B43D360D7F827
:104DD000F4301B685B6923F44070D7F8F4309969AC
:104DE000D7F8F4301A6840EA01035361D7F8F43079
:104DF0001A688F4B9A4205D0D7F8F4301A688D4B59
:104E00009A4204D1FEF71AF9C7F8FC0003E0FEF756
:104E100001F9C7F8FC00D7F8F430DB69B3F5004FAF
:104E200040F00C81D7F8FC300022C7F8E830C7F812
:104E3000EC20D7E93A4522462B469118B9655B41EB
:104E4000FB65D7E91623214612EB0108294643EBFF
:104E500001094FF000024FF000034FEAC90343EA93
:104E600058734FEAC80290469946234618EB03034D
:104E7000C7F8E0302B4649EB0303C7F8E430D7F816
:104E8000F4305B680022C7F8D830C7F8DC20D7E9D7
:104E900036120B46DB183B65134642EB03037B657A
:104EA000D7E91423D7E93801FBF768FE02460B4621
:104EB000614BA3FB02235B091C01D7F8FC300022E5
:104EC000C7F8D030C7F8D420D7E9348942464B46DA
:104ED0009118B9645B41FB64D7E91223414612EB98
:104EE000010A494643EB010B4FF000024FF000036B
:104EF0004FEACB0343EA5A734FEACA0292469B46F3
:104F000043461AEB0303C7F8C8304B464BEB030389
:104F1000C7F8CC30D7F8F4305B680022C7F8C0304F
:104F2000C7F8C420D7E930120B46DB183B641346A0
:104F300042EB03037B64D7E91023D7E93201FBF787
:104F40001DFE02460B4611463B4BA3FB01235B09AA
:104F5000642202FB03F3CB1ADB0003F13202364B6F
:104F6000A3FB02235B095B0003F4F8731C44D7F82E
:104F7000FC300022C7F8B830C7F8BC20D7E92E892A
:104F800042464B469118B9635B41FB63D7E90E2358
:104F900041465118396349464B417B634FF000024B
:104FA0004FF00003D7E90CAB5946CB00514643EA1A
:104FB00051735146CA0010461946034642469B1893
:104FC000C7F8B0304B460A4642EB0303C7F8B4308B
:104FD000D7F8F4305B680022C7F8A830C7F8AC20D7
:104FE000D7E92A120B46DB18BB62134642EB0303D8
:104FF000FB62D7E90A23D7E92C01FBF7BFFD024684
:105000000B460D4BA3FB02135B09642101FB03F369
:10501000D31ADB003233084AA2FB03235B0903F0F7
:105020000702D7F8F4301B6822449A6006E100BFFB
:1050300000100140001401401F85EB51D7F8FC30EF
:105040000022C7F8A030C7F8A420D7E92889424633
:105050004B46911839625B417B62D7E90823414690
:105060005418494643EB01054FF000024FF000038E
:10507000EB0043EA5473E20014461D464346E3182E
:10508000C7F898304B4645EB0303C7F89C30D7F878
:10509000F4305B680022C7F89030C7F894204FF0D6
:1050A00000024FF00003D7E9244529468B00214632
:1050B00043EA917321468A00D7E92601FBF75EFD9A
:1050C00002460B46604BA3FB02235B091C01D7F889
:1050D000FC300022C7F88830C7F88C20D7E9228935
:1050E00042464B469118B9615B41FB61D7E9062303
:1050F00041465118396149464B417B614FF00002EE
:105100004FF00003D7E904AB5946CB00514643EAC0
:1051100051735146CA0010461946034642469B1831
:10512000C7F880304B460A4642EB0303C7F8843089
:10513000D7F8F4305B680022BB67FA674FF00002D3
:105140004FF00003D7E91E8949468B00414643EAE8
:10515000917341468A00D7E92001FBF70FFD024613
:105160000B461146384BA3FB01235B09642202FB6B
:1051700003F3CB1A1B013233334AA2FB03235B092F
:1051800003F0F0031C44D7F8FC3000223B677A6739
:10519000D7E91C8942464B469118B9605B41FB60D8
:1051A000D7E9022341465118396049464B417B609B
:1051B0004FF000024FF00003D7E900AB5946CB0097
:1051C000514643EA51735146CA00104619460346F8
:1051D00042469B18BB664B460A4642EB0303FB66FE
:1051E000D7F8F4305B6800223B667A664FF0000225
:1051F0004FF00003D7E9188949468B00414643EA3E
:10520000917341468A00D7E91A01FBF7B7FC0246C1
:105210000B460D4BA3FB02135B09642101FB03F357
:10522000D31A1B013233084AA2FB03235B0903F0A4
:105230000F02D7F8F4301B6822449A6000BF07F5CC
:105240008077BD46BDE8B08F1F85EB5180B58CB02F
:1052500000AF7860002387F82F307B68002B03D1E4
:10526000012387F82F309BE100233B7400237B74DC
:105270000023BB740023FB7400233B7300237B7368
:105280000023BB730023FB73002387F8283000231F
:1052900087F82930002387F82A30002387F82B303D
:1052A000002387F82430082387F82530002387F867
:1052B0002630002387F82730002387F8203000238A
:1052C00087F82130002387F82230002387F8233025
:1052D00000233B7700237B770023BB770023FB77FA
:1052E00000233B7600237B760023BB760023FB76EE
:1052F00000233B7508237B750023BB750023FB75DA
:105300007B681B68184600F06FFA03461A4697F848
:105310002F30134387F82F3097F82F30002B40F0B1
:105320003F817B681B68184600F000FB03461A4665
:1053300097F82F30134387F82F307B681B68184687
:1053400000F07EFA03461A4697F82F30134387F889
:105350002F3097F82F30002B40F022817B681B689C
:1053600003222B21184600F087FB03461A4697F8C4
:105370002F30134387F82F307B68186807F110032C
:105380002322202100F0B8FB03461A4697F82F305D
:10539000134387F82F307B68186807F10C03272226
:1053A000242100F0A9FB03461A4697F82F30134337
:1053B00087F82F307B68186807F128030322002143
:1053C00000F09AFB03461A4697F82F30134387F8EC
:1053D0002F307B68186807F124030722042100F0AE
:1053E0008BFB03461A4697F82F30134387F82F306C
:1053F0007B68186807F120030B22082100F07CFB72
:1054000003461A4697F82F30134387F82F307B68EE
:10541000186807F11C031322102100F06DFB0346EE
:105420001A4697F82F30134387F82F307B68186897
:1054300007F118031722142100F05EFB03461A46F9
:1054400097F82F30134387F82F307B68186807F1DF
:1054500014031B22182100F04FFB03461A4697F84D
:105460002F30134387F82F307B681B68042260219C
:10547000184600F001FB03461A4697F82F301343F5
:1054800087F82F307B681B6801227021184600F0D6
:10549000F3FA03461A4697F82F30134387F82F3054
:1054A000424A07F108031268114619800233120CB0
:1054B0001A707B681B79052B38D801A252F823F0AB
:1054C000D9540008E7540008F554000803550008B3
:1054D000115500081F55000800233B72C0237B7242
:1054E0008023BB7226E000233B72D1237B72812391
:1054F000BB721FE080233B72E5237B728323BB7268
:1055000018E080233B72F6237B728423BB7211E088
:1055100081233B72E5237B728323BB720AE08123E4
:105520003B72F6237B728423BB7203E0012387F86E
:105530002F3000BF7B681B683A7A2A21184600F09A
:105540009BFA03461A4697F82F30134387F82F30FB
:105550007B681B687A7A2921184600F08DFA034689
:105560001A4697F82F30134387F82F307B681B6853
:10557000BA7A2821184600F07FFA03461A4697F8AF
:105580002F30134387F82F307B681B68184600F0D4
:1055900092F903461A4697F82F30134387F82F30B5
:1055A00097F82F3018463037BD4680BD14C200082A
:1055B00090B58BB002AF786039600023FB777B68D1
:1055C000002B02D03B68002B02D10123FB77A8E01F
:1055D0007B681B6807F10C021146184600F0D4FAEC
:1055E00003461A46FB7F1343FB773B7B23F03F03C5
:1055F000DBB2002B00F093803B7B23F03F03DBB258
:10560000402B0CBF01230023DAB23B7B23F03F0386
:10561000DBB2C02B0CBF01230023DBB21343DBB290
:10562000002B19D07B68186807F110020D23902118
:1056300000F0E8F903461A46FB7F1343FB777B68CB
:1056400018680023FF222C2100F0D6FA03461A46E0
:10565000FB7F1343FB771EE03B7B23F03F03DBB272
:10566000802B18D17B68186807F110020D23942154
:1056700000F0C8F903461A46FB7F1343FB777B68AB
:1056800018680023FF222C2100F0B6FA03461A46C0
:10569000FB7F1343FB773B7B03F01803DBB2102B3C
:1056A00012D13B6802221A70B87CF97C3A7C7C7C6F
:1056B0003B6804330093234600F038F803461A464B
:1056C000FB7F1343FB770EE03B6801221A70387CA6
:1056D000797C3B6804331A4600F067F803461A46A3
:1056E000FB7F1343FB773A7D3B681A727A7D3B68F8
:1056F0005A72BA7D3B689A72FA7D3B68DA723A7EDA
:105700003B681A737A7E3B685A73BA7E3B689A7319
:10571000FA7E3B68DA733A7F3B681A7401E0012332
:10572000FB77FB7F18462437BD4690BD90B486B00A
:1057300000AF0446084611461A462346FB7103464D
:10574000BB710B467B7113463B7100237B610023C9
:105750003B613B7903F00303FB733B795B09BB734C
:105760007B79DB003B61BB7B3A6913443B613B695E
:105770009B003B61FB7B3A6913443B613B691B0225
:105780003B61FB793A6913443B613B691B023B6116
:10579000BB793A6913443B613B697B617B69DBB24E
:1057A00018461837BD4690BC704780B485B000AF2E
:1057B00003463A60FB710B46BB710023FB73FB7918
:1057C000DB00BB60BB795B09DBB21A46BB681344E4
:1057D000BB603B68BA681A60FB7B18461437BD464D
:1057E0005DF8047B7047000080B584B000AF78603E
:1057F0000023FB737B68002B02D10123FB7318E0AD
:1058000001224FF480510D48FCF796FF0A23BB7329
:105810007868FEF787F90346012B02D10023FB735A
:1058200007E0BB7B013BBB730123FB73BB7B002BFE
:10583000EED1FB7B18461037BD4680BD0004024008
:1058400080B584B000AF78600023FB737B68002BC9
:1058500002D10123FB7329E080220F21786800F038
:105860000BF903461A46FB7B1343FB730A23BB73F6
:1058700000237B7307F10D031A460E21786800F0B0
:105880007DF803461A46FB7B1343FB737B7B03F0D7
:10589000E003802B02D10023FB7301E00123FB73A3
:1058A000BB7B013BBB73BB7B002BE1D1FB7B184671
:1058B0001037BD4680BD80B584B000AF786000234E
:1058C000FB737B68002B02D10123FB7329E00022CC
:1058D0000F21786800F0D0F803461A46FB7B13438B
:1058E000FB730A23BB7300237B7307F10D031A4676
:1058F0000E21786800F042F803461A46FB7B1343FA
:10590000FB737B7B03F0E003002B02D10023FB73CE
:1059100001E00123FB73BB7B013BBB73BB7B002B13
:10592000E1D1FB7B18461037BD4680BD80B584B001
:1059300000AF78600023FB737B68002B02D101234A
:10594000FB7314E000224FF480510B48FCF7F4FE87
:10595000C021786800F0A0F903461A46FB7B134388
:10596000FB7301224FF480510348FCF7E5FEFB7BFB
:1059700018461037BD4680BD0004024080B586B091
:1059800000AFF8600B467A60FB720023FB75FB6882
:10599000002B02D10123FB752CE000224FF4805133
:1059A0001748FCF7C9FE0321F86800F075F90346B3
:1059B0001A46FB7D1343FB75FB7A1946F86800F025
:1059C0006BF903461A46FB7D1343FB7507F116037B
:1059D0001946F86800F0A0F903461A46FB7D134308
:1059E000FB7501224FF480510548FCF7A5FEBA7DF6
:1059F0007B681A70FB7D18461837BD4680BD00BF16
:105A00000004024080B586B000AFF8607A601A46A4
:105A10000B46FB721346BB720023FB75FB68002B21
:105A200002D10123FB7520E000224FF48051114880
:105A3000FCF782FEFB7A1946F86800F02DF9034660
:105A40001A46FB7D1343FB75BB7A1A467968F868E2
:105A500000F087F903461A46FB7D1343FB750122CC
:105A60004FF480510348FCF767FEFB7D184618375A
:105A7000BD4680BD0004024080B584B000AF7860B0
:105A80000B46FB701346BB700023FB737B68002B37
:105A900002D10123FB7328E000224FF48051154806
:105AA000FCF74AFE0221786800F0F6F803461A4631
:105AB000FB7B1343FB73FB781946786800F0ECF826
:105AC00003461A46FB7B1343FB73BB781946786881
:105AD00000F0E2F803461A46FB7B1343FB730122F6
