:020000040800F2
:100000000000012031130008E10F0008ED0F000887
:10001000F50F0008FD0F00080510000800000000A3
:100020000000000000000000000000000D100008AB
:100030001B100008000000002910000837100008FD
:100040008113000881130008811300088113000840
:100050008113000881130008811300088113000830
:100060008113000881130008811300088113000820
:100070008113000881130008811300088113000810
:10008000811300088113000881130008000000009C
:1000900000000000000000000000000081130008C4
:1000A00081130008811300088113000881130008E0
:1000B00081130008811300088113000881130008D0
:1000C00081130008811300088113000881130008C0
:1000D000811300088113000881130008000000004C
:1000E000811300088113000881130008000000003C
:1000F0000000000000000000000000008113000864
:10010000000000008113000881130008811300081B
:1001100000000000000000000000000000000000DF
:10012000811300088113000881130008811300085F
:100130008113000800000000000000000000000023
:100140000000000000000000000000008113000813
:10015000811300088113000881130008811300082F
:100160008113000881130008000000000000000057
:10017000000000000000000000000000000000007F
:1001800000000000811300080000000000000000D3
:0401900081130008CF
:1001980010B5054C237833B9044B13B10448AFF3B9
:1001A80000800123237010BD8000002000000000A3
:1001B8008043000808B5034B1BB103490348AFF35C
:1001C800008008BD00000000840000208043000873
:1001D80070B54FF0FF0C4CF4E06C1CEA11541DBFD5
:1001E8001CEA135594EA0C0F95EA0C0F00F0DEF8A0
:1001F8002C4481EA030621EA4C5123EA4C5350EA85
:10020800013518BF52EA033541F4801143F48013D5
:1002180038D0A0FB02CE4FF00005E1FB02E506F066
:100228000042E0FB03E54FF00006E1FB03569CF0BB
:10023800000F18BF4EF0010EA4F1FF04B6F5007FC1
:1002480064F5407404D25FEA4E0E6D4146EB060633
:1002580042EAC62141EA55514FEAC52040EA5E50BC
:100268004FEACE2EB4F1FD0C88BFBCF5E06F1ED866
:10027800BEF1004F08BF5FEA500E50F1000041EB9D
:10028800045170BD06F0004646EA010140EA02004A
:1002980081EA0301B4EB5C04C2BFD4EB0C0541EA6C
:1002A800045170BD41F480114FF0000E013C00F381
:1002B800AB8014F1360FDEBF002001F0004170BDA5
:1002C800C4F10004203C35DA0C341BDC04F11404BE
:1002D800C4F1200500FA05F320FA04F001FA05F24A
:1002E80040EA020001F0004221F0004110EBD37017
:1002F80021FA04F642EB06015EEA430E08BF20EA43
:10030800D37070BDC4F10C04C4F1200500FA04F3E5
:1003180020FA05F001FA04F240EA020001F0004177
:1003280010EBD37041F100015EEA430E08BF20EAEA
:10033800D37070BDC4F1200500FA05F24EEA020E32
:1003480020FA04F301FA05F243EA020321FA04F061
:1003580001F0004121FA04F220EA020000EBD37018
:100368005EEA430E08BF20EAD37070BD94F0000F18
:100378000FD101F00046400041EB010111F4801F4C
:1003880008BF013CF7D041EA060195F0000F18BFFD
:10039800704703F00046520043EB030313F4801F39
:1003A80008BF013DF7D043EA0603704794EA0C0FF3
:1003B8000CEA135518BF95EA0C0F0CD050EA410609
:1003C80018BF52EA4306D1D181EA030101F0004186
:1003D8004FF0000070BD50EA410606BF10461946AE
:1003E80052EA430619D094EA0C0F02D150EA0136BA
:1003F80013D195EA0C0F05D152EA03361CBF1046FB
:1004080019460AD181EA030101F0004141F0FE4199
:1004180041F470014FF0000070BD41F0FE4141F41D
:10042800780170BD81F0004102E000BF83F0004315
:1004380030B54FEA41044FEA430594EA050F08BF77
:1004480090EA020F1FBF54EA000C55EA020C7FEA3B
:10045800645C7FEA655C00F0E2804FEA5454D4EBB8
:100468005555B8BF6D420CDD2C4480EA020281EA82
:10047800030382EA000083EA010180EA020281EABA
:100488000303362D88BF30BD11F0004F4FEA01310C
:100498004FF4801C4CEA113102D0404261EB41011B
:1004A80013F0004F4FEA03334CEA133302D05242A1
:1004B80063EB430394EA050F00F0A780A4F101045D
:1004C800D5F1200E0DDB02FA0EFC22FA05F2801897
:1004D80041F1000103FA0EF2801843FA05F359417D
:1004E8000EE0A5F120050EF1200E012A03FA0EFCFC
:1004F80028BF4CF0020C43FA05F3C01851EBE37126
:1005080001F0004507D54FF0000EDCF1000C7EEB42
:1005180000006EEB0101B1F5801F1BD3B1F5001F80
:100528000CD349085FEA30004FEA3C0C04F101049F
:100538004FEA445212F5800F80F09A80BCF1004FC8
:1005480008BF5FEA500C50F1000041EB045141EA4A
:10055800050130BD5FEA4C0C404141EB0101013C13
:1005680028BFB1F5801FE9D291F0000F04BF014602
:100578000020B1FA81F308BF2033A3F10B03B3F1D4
:1005880020020CDA0C3208DD02F1140CC2F10C0264
:1005980001FA0CF021FA02F10CE002F11402D8BFC2
:1005A800C2F1200C01FA02F120FA0CFCDCBF41EA8E
:1005B8000C019040E41AA2BF01EB0451294330BD5D
:1005C8006FEA04041F3C1CDA0C340EDC04F114043A
:1005D800C4F1200220FA04F001FA02F340EA030011
:1005E80021FA04F345EA030130BDC4F10C04C4F157
:1005F800200220FA02F001FA04F340EA0300294637
:1006080030BD21FA04F0294630BD94F0000F83F480
:10061800801306BF81F480110134013D4EE77FEA63
:10062800645C18BF7FEA655C29D094EA050F08BFAF
:1006380090EA020F05D054EA000C04BF1946104690
:1006480030BD91EA030F1EBF0021002030BD5FEAD4
:10065800545C05D14000494128BF41F0004130BDFC
:1006680014F580043CBF01F5801130BD01F0004550
:1006780045F0FE4141F470014FF0000030BD7FEAC3
:10068800645C1ABF194610467FEA655C1CBF0B46BE
:10069800024650EA013406BF52EA033591EA030FD5
:1006A80041F4002130BD00BF90F0000F04BF0021CD
:1006B800704730B54FF4806404F132044FF0000500
:1006C8004FF0000150E700BF90F0000F04BF002179
:1006D800704730B54FF4806404F1320410F00045DF
:1006E80048BF40424FF000013EE700BF42004FEADA
:1006F800E2014FEA31014FEA02701FBF12F07F4357
:1007080093F07F4F81F06051704732F07F4208BF0D
:10071800704793F07F4F04BF41F40021704730B514
:100728004FF4607401F0004521F000411CE700BF60
:1007380050EA010208BF704730B54FF000050AE0E3
:1007480050EA010208BF704730B511F0004502D5E4
:10075800404261EB41014FF4806404F132045FEAE6
:10076800915C3FF4D8AE4FF003025FEADC0C18BF8F
:1007780003325FEADC0C18BF033202EBDC02C2F181
:10078800200300FA03FC20FA02F001FA03FE40EA13
:100798000E0021FA02F11444BDE600BF4FF0FF3C01
:1007A80006E000BF4FF0010C02E000BF4FF0010C63
:1007B8004DF804CD4FEA410C7FEA6C5C4FEA430CDC
:1007C80018BF7FEA6C5C1BD001B050EA410C0CBF2B
:1007D80052EA430C91EA030F02BF90EA020F00208D
:1007E800704710F1000F91EA030F58BF994208BFF4
:1007F80090422CBFD8176FEAE37040F001007047B1
:100808004FEA410C7FEA6C5C02D150EA013C07D107
:100818004FEA430C7FEA6C5CD6D152EA033CD3D052
:100828005DF8040B704700BF8446104662468C464C
:100838001946634600E000BF01B5FFF7B7FF00287F
:1008480048BF10F1000F01BD4DF808EDFFF7F4FFA8
:100858000CBF012000205DF808FB00BF4DF808ED33
:10086800FFF7EAFF34BF012000205DF808FB00BF56
:100878004DF808EDFFF7E0FF94BF012000205DF878
:1008880008FB00BF4DF808EDFFF7CEFF94BF01202D
:1008980000205DF808FB00BF4DF808EDFFF7C4FF26
:1008A80034BF012000205DF808FB00BF4FEA410279
:1008B80012F5001215D211D56FF47873B3EB6252AA
:1008C80012D94FEAC12343F0004343EA505311F0D1
:1008D800004F23FA02F018BF404270474FF0000063
:1008E800704750EA013005D111F0004008BF6FF0A1
:1008F800004070474FF00000704700BF4FEA4102C8
:10090800B2F1E04324BFB3F5001CDCF1FE5C0DD965
:1009180001F0004C4FEAC0024CEA5070B2F1004FAF
:1009280040EB830008BF20F00100704711F0804FB2
:1009380021D113F13872BCBF01F00040704741F477
:1009480080114FEA5252C2F11802C2F1200C10FA7B
:100958000CF320FA02F018BF40F001004FEAC1235F
:100968004FEAD32303FA0CFC40EA0C0023FA02F303
:100978004FEA4303CCE77FEA625307D150EA0133D9
:100988001EBF4FF0FE4040F44000704701F00040A9
:1009980040F0FE4040F40000704700BF53B94AB928
:1009A800002908BF00281CBF4FF0FF314FF0FF306F
:1009B80000F06AB9ADF1080C6DE904CE00F006F854
:1009C800DDF804E0DDE9022304B070472DE9F047C3
:1009D800089D0C46002B4ED194468C458646B2FAAB
:1009E80082F262D94AB1C2F12003914020FA03F39E
:1009F8000CFA02FC194300FA02FE4FEA1C471FFAE0
:100A08008CF6B1FBF7F44FEA1E4307FB141143EAD7
:100A1800014304FB06F199420AD91CEB030304F1D4
:100A2800FF3080F01281994240F20F81023C63440A
:100A3800591A1FFA8EF3B1FBF7F007FB101143EABE
:100A4800014300FB06F69E420AD91CEB030300F1A2
:100A5800FF3180F0FC809E4240F2F9806344023806
:100A68009B1B40EA044000211DB1D3400022C5E988
:100A78000032BDE8F0878B4205D90DB1C5E9000108
:100A880000210846F5E7B3FA83F1002946D1A342CD
:100A980002D39042C0F0F080861A64EB0303012071
:100AA800002DE6D0C5E90063E3E7002A40F0908016
:100AB800A1EB0C044FEA1C481FFA8CF70121B4FB88
:100AC800F8F64FEA1E4308FB164443EA044307FBC3
:100AD80006F0984208D91CEB030306F1FF3402D252
:100AE800984200F2CD8026461C1A1FFA8EF3B4FBFA
:100AF800F8F008FB104443EA044300FB07F79F4261
:100B080008D91CEB030300F1FF3402D29F4200F224
:100B1800B0802046DB1B40EA0640A5E7C1F120066D
:100B28008B4022FA06F71F4320FA06FC04FA01F369
:100B380043EA0C03F44000FA01F8380C4FEA134971
:100B4800B4FBF0FE1FFA87FC00FB1E4449EA04448C
:100B58000EFB0CF9A14502FA01F20AD93C190EF173
:100B6800FF3A80F08480A14540F28180AEF1020E08
:100B78003C44A4EB09041FFA83F9B4FBF0F300FB2F
:100B8800134449EA044403FB0CFCA44507D93C1967
:100B980003F1FF3067D2A44565D9023B3C4443EAE0
:100BA8000E40A0FB0293A4EB0C049C42CE469C464C
:100BB80051D34ED055B1B8EB0E0364EB0C0404FAD4
:100BC80006F6CB401E43CC40C5E90064002150E73F
:100BD800C2F1200320FA03F10CFA02FC24FA03F311
:100BE80094400C434FEA1C4800FA02FE1FFA8CF7A7
:100BF800B3FBF8F008FB1031230C43EA014300FB78
:100C080007F1994208D91CEB030300F1FF362CD2F7
:100C180099422AD9023863445B1AA4B2B3FBF8F1AB
:100C280008FB113344EA034401FB07F3A34208D944
:100C38001CEB040401F1FF3613D2A34211D9023987
:100C48006444E41A41EA004139E70446F0E60846FC
:100C580006E7C845AED2B9EB020E63EB070C0138C4
:100C6800A8E73146EDE7034699E73046D4E7D6468C
:100C78007FE7634402384DE70646234608460FE7F8
:100C8800023E634430E700BF704700BF80B588B0BC
:100C980000AF07F10C0300221A605A609A60DA600C
:100CA8001A610023BB602A4B1B6B294A43F080035F
:100CB8001363274B1B6B03F08003BB60BB680023E7
:100CC8007B60234B1B6B224A43F001031363204BC9
:100CD8001B6B03F001037B607B6800233B601C4BAC
:100CE8001B6B1B4A43F002031363194B1B6B03F086
:100CF80002033B603B6800223C21164800F03EFEA0
:100D0800002241F23041144800F038FE3C23FB60D9
:100D180001233B6100237B610023BB6107F10C03C6
:100D280019460C4800F0A6FC41F23043FB60012351
:100D38003B6100237B610023BB6107F10C0319466B
:100D4800054800F097FC00BF2037BD4680BD00BFB6
:100D580000380240000002400004024080B582B022
:100D680000AF00F00BFB00F09DF8FFF78FFF00F0DD
:100D7800D1F900F075F90023FB71474802F0DCF95E
:100D880003461A46FB791343FB71444801F006FFFA
:100D980003461A46FB791343FB714FF000033B608F
:100DA800B3EE0E0A00213C4801F0DAFF03461A466A
:100DB800FB791343FB7140F6B83000F051FB9FED0F
:100DC800380A0021344801F0CBFF03461A46FB7964
:100DD8001343FB714FF47A7000F042FBB3EE0E0A36
:100DE8005A212D4801F0BCFF03461A46FB791343EC
:100DF800FB7140F6B83000F033FB9FED290A002163
:100E0800254801F0ADFF03461A46FB791343FB71F1
:100E18004FF47A7000F024FBB3EE0E0AB4211E489A
:100E280001F09EFF03461A46FB791343FB7140F617
:100E3800B83000F015FB9FED1A0A0021164801F0A2
:100E48008FFF03461A46FB791343FB714FF47A7000
:100E580000F006FBB3EE0E0A4FF487710E4801F05E
:100E68007FFF03461A46FB791343FB7140F6B830FF
:100E780000F0F6FA9FED0A0A0021074801F070FF1A
:100E880003461A46FB791343FB714FF47A7000F05E
:100E9800E7FA00BF84E700BF0C000020280000200C
:100EA8000000000080B594B000AF07F120033022A5
:100EB8000021184602F0B0F907F10C0300221A606D
:100EC8005A609A60DA601A610023BB60294B1B6C78
:100ED800284A43F080531364264B1B6C03F080535D
:100EE800BB60BB6800237B60234B1B6823F4404333
:100EF800214A43F4004313601F4B1B6803F440432B
:100F08007B607B6801233B624FF480337B62022362
:100F1800BB634FF48003FB6308233B6454237B6467
:100F28000223BB640423FB6407F12003184600F086
:100F38003FFD0346002B01D000F020F80F23FB6093
:100F480002233B6100237B614FF48053BB61002384
:100F5800FB6107F10C030221184600F0A1FF0346CC
:100F6800002B01D000F00AF801F080F800BF5037DC
:100F7800BD4680BD003802400070004080B400AF1C
:100F880072B600BF00BFFDE780B483B000AF002396
:100F98007B60104B5B6C0F4A43F4804353640D4BEA
:100FA8005B6C03F480437B607B6800233B60094BE8
:100FB8001B6C084A43F080531364064B1B6C03F008
:100FC80080533B603B6800BF0C37BD465DF8047B2F
:100FD800704700BF0038024080B500AF01F056F9F5
:100FE80000BFFDE780B400AF00BFFDE780B400AFED
:100FF80000BFFDE780B400AF00BFFDE780B400AFDD
:1010080000BFFDE780B400AF00BFBD465DF8047BBC
:10101800704780B400AF00BFBD465DF8047B7047E1
:1010280080B400AF00BFBD465DF8047B704780B553
:1010380000AF00F0F5F900BF80BD000080B400AF3C
:10104800064BD3F88830054A43F47003C2F8883059
:1010580000BFBD465DF8047B704700BF00ED00E0AF
:1010680080B58AB000AF07F1200300221A605A60E9
:101078003B1D00221A605A609A60DA601A615A6150
:101088009A61224B224A1A60204B00225A601F4B59
:1010980000229A601D4B41F26702DA601B4B002266
:1010A8001A611A4B00229A61184801F00AF903469E
:1010B800002B01D0FFF762FF00233B6200237B6215
:1010C80007F120031946114801F0FAFC0346002BEA
:1010D80001D0FFF753FF60237B600023BB60002330
:1010E800FB6000237B613B1D00221946074801F085
:1010F800E7F90346002B01D0FFF740FF034800F053
:10110800B1F800BF2837BD4680BD00BF9C00002055
:101118000004004080B58AB000AF07F12003002228
:101128001A605A603B1D00221A605A609A60DA60A1
:101138001A615A619A612D4B2D4A1A602B4B002275
:101148005A602A4B00229A60284B41F26702DA6003
:10115800264B00221A61254B00229A61234801F090
:10116800B0F80346002B01D0FFF708FF00233B62CD
:1011780000237B6207F1200319461C4801F0A0FCFC
:101188000346002B01D0FFF7F9FE60237B600023A4
:10119800BB600023FB6000237B613B1D00221946D6
:1011A800124801F08DF90346002B01D0FFF7E6FE47
:1011B8003B1D082219460D4801F082F90346002B11
:1011C80001D0FFF7DBFE3B1D0C221946074801F052
:1011D80077F90346002B01D0FFF7D0FE034800F053
:1011E80041F800BF2837BD4680BD00BFE40000209D
:1011F8000008004080B485B000AF78607B681B6849
:10120800154A93420ED10023FB60144B1B6C134A02
:1012180043F002031364114B1B6C03F00203FB60E1
:10122800FB6812E07B681B680D4A93420DD10023CE
:10123800BB600A4B1B6C094A43F004031364074B59
:101248001B6C03F00403BB60BB6800BF1437BD46CA
:101258005DF8047B704700BF00040040003802407E
:101268000008004080B58AB000AF786007F1140329
:1012780000221A605A609A60DA601A617B681B68FB
:10128800244A93421ED100233B61234B1B6B224A05
:1012980043F001031363204B1B6B03F001033B6115
:1012A8003B6940237B610223BB610023FB61002370
:1012B8003B6202237B6207F114031946174800F0CA
:1012C800D9F923E07B681B68154A93421ED1002395
:1012D800FB60114B1B6B104A43F0020313630E4B68
:1012E8001B6B03F00203FB60FB684FF450737B61D8
:1012F8000223BB610023FB6100233B6202237B6264
:1013080007F114031946074800F0B4F900BF28375D
:10131800BD4680BD00040040003802400000024085
:101328000008004000040240DFF834D0FFF786FED2
:101338000C480D490D4A002302E0D458C450043328
:10134800C4188C42F9D30A4A0A4C002301E01360FE
:101358000432A242FBD301F067FFFFF7FFFC70479E
:1013680000000120000000208000002090450008B7
:10137800800000203C010020FEE7000080B500AF9F
:101388000E4B1B680D4A43F4007313600B4B1B682C
:101398000A4A43F480631360084B1B68074A43F406
:1013A80080731360032000F031F90F2000F008F873
:1013B800FFF7EAFD0023184680BD00BF003C02404D
:1013C80080B582B000AF7860124B1A68124B1B7858
:1013D80019464FF47A73B3FBF1F3B2FBF3F31846F3
:1013E80000F03BF90346002B01D001230EE07B6897
:1013F8000F2B0AD8002279684FF0FF3000F011F95E
:10140800064A7B681360002300E00123184608376A
:10141800BD4680BD00000020080000200400002018
:1014280080B400AF064B1B781A46064B1B68134462
:10143800044A136000BFBD465DF8047B704700BFD7
:10144800080000202C01002080B400AF034B1B686B
:101458001846BD465DF8047B704700BF2C0100208C
:1014680080B584B000AF7860FFF7EEFFB8607B68A6
:10147800FB60FB68B3F1FF3F05D00A4B1B781A46A7
:10148800FB681344FB6000BFFFF7DEFF0246BB6842
:10149800D31AFA689A42F7D800BF00BF1037BD4682
:1014A80080BD00BF0800002080B485B000AF786020
:1014B8007B6803F00703FB600C4BDB68BB60BA6812
:1014C8004FF6FF031340BB60FB681A02BB68134367
:1014D80043F0BF6343F40033BB60044ABB68D36086
:1014E80000BF1437BD465DF8047B704700ED00E08F
:1014F80080B400AF044BDB681B0A03F007031846EF
:10150800BD465DF8047B704700ED00E080B483B011
:1015180000AF03463960FB7197F90730002B0ADBEF
:101528003B68DAB20C4997F907301201D2B20B4482
:1015380083F800230AE03B68DAB20849FB7903F034
:101548000F03043B1201D2B20B441A7600BF0C37CA
:10155800BD465DF8047B704700E100E000ED00E067
:1015680080B489B000AFF860B9607A60FB6803F0B6
:101578000703FB61FB69C3F10703042B28BF04239E
:10158800BB61FB690433062B02D9FB69033B00E00E
:1015980000237B614FF0FF32BB6902FA03F3DA43A1
:1015A800BB681A407B699A404FF0FF317B6901FAAA
:1015B80003F3D9437B680B40134318462437BD46D1
:1015C8005DF8047B7047000080B582B000AF78609A
:1015D8007B68013BB3F1807F01D301230FE00A4A06
:1015E8007B68013B53600F214FF0FF30FFF78EFF00
:1015F800054B00229A60044B07221A600023184604
:101608000837BD4680BD00BF10E000E080B582B05D
:1016180000AF78607868FFF747FF00BF0837BD461E
:1016280080BD80B586B000AF0346B9607A60FB73B1
:1016380000237B61FFF75CFF78617A68B968786995
:10164800FFF78EFF024697F90F3011461846FFF74D
:101658005DFF00BF1837BD4680BD80B582B000AFC2
:1016680078607868FFF7B0FF034618460837BD462C
:1016780080BD000080B489B000AF78603960002375
:101688007B6100233B610023BB610023FB6159E1BF
:101698000122FB6902FA03F37B613B681B687A69E4
:1016A80013403B613A697B699A4240F048813B6844
:1016B8005B6803F00303012B05D03B685B6803F00C
:1016C8000303022B30D17B689B68BB61FB695B001D
:1016D800032202FA03F3DB43BA691340BB613B6898
:1016E800DA68FB695B0002FA03F3BA691343BB616A
:1016F8007B68BA699A607B685B68BB610122FB6999
:1017080002FA03F3DB43BA691340BB613B685B68C9
:101718001B0903F00102FB6902FA03F3BA691343D8
:10172800BB617B68BA695A603B685B6803F0030376
:10173800032B17D07B68DB68BB61FB695B00032266
:1017480002FA03F3DB43BA691340BB613B689A684A
:10175800FB695B0002FA03F3BA691343BB617B6858
:10176800BA69DA603B685B6803F00303022B23D194
:10177800FB69DA087B68083253F82230BB61FB69E1
:1017880003F007039B000F2202FA03F3DB43BA6955
:101798001340BB613B681A69FB6903F007039B00B0
:1017A80002FA03F3BA691343BB61FB69DA087B6881
:1017B8000832B96943F822107B681B68BB61FB6972
:1017C8005B00032202FA03F3DB43BA691340BB61EF
:1017D8003B685B6803F00302FB695B0002FA03F3F2
:1017E800BA691343BB617B68BA691A603B685B6876
:1017F80003F44033002B00F0A2800023FB60574B1A
:101808005B6C564A43F480435364544B5B6C03F45B
:101818008043FB60FB68524AFB699B08023352F81D
:101828002330BB61FB6903F003039B000F2202FA1C
:1018380003F3DB43BA691340BB617B68494A9342AF
:1018480019D07B68484A934213D07B68474A934231
:101858000DD07B68464A934207D07B68454A93423D
:1018680001D1042308E0072306E0032304E0022350
:1018780002E0012300E00023FA6902F0030292006B
:101888009340BA691343BB613549FB699B0802332E
:10189800BA6941F82320384B9B68BB613B69DB433D
:1018A800BA691340BB613B685B6803F48013002B83
:1018B80003D0BA693B691343BB612F4ABB69936084
:1018C8002D4BDB68BB613B69DB43BA691340BB61E5
:1018D8003B685B6803F40013002B03D0BA693B69CB
:1018E8001343BB61244ABB69D360234B5B68BB616C
:1018F8003B69DB43BA691340BB613B685B6803F42F
:101908000033002B03D0BA693B691343BB611A4A01
:10191800BB695360184B1B68BB613B69DB43BA6901
:101928001340BB613B685B6803F48033002B03D032
:10193800BA693B691343BB610F4ABB691360FB6912
:101948000133FB61FB690F2B7FF6A2AE00BF00BF1E
:101958002437BD465DF8047B704700BF003802405D
:101968000038014000000240000402400008024024
:10197800000C024000100240003C014080B483B0DB
:1019880000AF78600B467B8013467B707B78002B1A
:1019980003D07A887B689A6103E07B881A047B68A5
:1019A8009A6100BF0C37BD465DF8047B70470000A4
:1019B80080B586B000AF78607B68002B01D1012329
:1019C80067E27B681B6803F00103002B75D0884B26
:1019D8009B6803F00C03042B0CD0854B9B6803F029
:1019E8000C03082B12D1824B5B6803F48003B3F518
:1019F800800F0BD17E4B1B6803F40033002B5BD0A8
:101A08007B685B68002B57D1012342E27B685B68E7
:101A1800B3F5803F06D1764B1B68754A43F4803393
:101A280013601DE07B685B68B3F5A02F0CD1704B89
:101A38001B686F4A43F4802313606D4B1B686C4A24
:101A480043F4803313600BE0694B1B68684A23F446
:101A580080331360664B1B68654A23F48023136048
:101A68007B685B68002B13D0FFF7EEFC386108E059
:101A7800FFF7EAFC02463B69D31A642B01D903231A
:101A880007E25B4B1B6803F40033002BF0D014E033
:101A9800FFF7DAFC386108E0FFF7D6FC02463B693D
:101AA800D31A642B01D90323F3E1514B1B6803F4C8
:101AB8000033002BF0D100E000BF7B681B6803F007
:101AC8000203002B63D04A4B9B6803F00C03002BE6
:101AD8000BD0474B9B6803F00C03082B1CD1444BDD
:101AE8005B6803F48003002B16D1414B1B6803F09D
:101AF8000203002B05D07B68DB68012B01D0012392
:101B0800C7E13B4B1B6823F0F8027B681B69DB00CD
:101B1800374913430B603AE07B68DB68002B20D021
:101B2800344B01221A60FFF78FFC386108E0FFF799
:101B38008BFC02463B69D31A022B01D90323A8E187
:101B48002B4B1B6803F00203002BF0D0284B1B68BB
:101B580023F0F8027B681B69DB00254913430B60FF
:101B680015E0244B00221A60FFF76EFC386108E08C
:101B7800FFF76AFC02463B69D31A022B01D90323FB
:101B880087E11B4B1B6803F00203002BF0D17B6835
:101B98001B6803F00803002B36D07B685B69002BB9
:101BA80016D0154B01221A60FFF74EFC386108E089
:101BB800FFF74AFC02463B69D31A022B01D90323DB
:101BC80067E10B4B5B6F03F00203002BF0D01BE0C7
:101BD800094B00221A60FFF737FC38610EE0FFF767
:101BE80033FC02463B69D31A022B07D9032350E181
:101BF8000038024000004742800E4742884B5B6F26
:101C080003F00203002BEAD17B681B6803F004038E
:101C1800002B00F097800023FB75814B1B6C03F0B1
:101C28008053002B0FD10023BB607D4B1B6C7C4A7B
:101C380043F0805313647A4B1B6C03F08053BB60F2
:101C4800BB680123FB75774B1B6803F48073002B7B
:101C580018D1744B1B68734A43F480731360FFF701
:101C6800F3FB386108E0FFF7EFFB02463B69D31A44
:101C7800022B01D903230CE16A4B1B6803F4807320
:101C8800002BF0D07B689B68012B06D1644B1B6F3F
:101C9800634A43F0010313671CE07B689B68052BCC
:101CA8000CD15F4B1B6F5E4A43F0040313675C4B18
:101CB8001B6F5B4A43F0010313670BE0584B1B6F24
:101CC800574A23F001031367554B1B6F544A23F0FF
:101CD800040313677B689B68002B15D0FFF7B4FBE0
:101CE80038610AE0FFF7B0FB02463B69D31A41F2BC
:101CF8008832934201D90323CBE0494B1B6F03F091
:101D08000203002BEED014E0FFF79EFB38610AE0D7
:101D1800FFF79AFB02463B69D31A41F28832934295
:101D280001D90323B5E03E4B1B6F03F00203002BE0
:101D3800EED1FB7D012B05D1394B1B6C384A23F0C2
:101D4800805313647B689B69002B00F0A180344B9F
:101D58009B6803F00C03082B5CD07B689B69022B03
:101D680041D1314B00221A60FFF76EFB386108E061
:101D7800FFF76AFB02463B69D31A022B01D90323FA
:101D880087E0274B1B6803F00073002BF0D17B68BA
:101D9800DA697B681B6A1A437B685B6A9B011A4392
:101DA8007B689B6A5B08013B1B041A437B68DB6A00
:101DB8001B061B4913434B601B4B01221A60FFF79C
:101DC80043FB386108E0FFF73FFB02463B69D31A43
:101DD800022B01D903235CE0114B1B6803F000734D
:101DE800002BF0D054E0104B00221A60FFF72CFBB8
:101DF800386108E0FFF728FB02463B69D31A022B3B
:101E080001D9032345E0064B1B6803F00073002B40
:101E1800F0D13DE07B689B69012B07D1012338E0B5
:101E28000038024000700040600047421B4B5B686E
:101E3800FB607B689B69012B28D0FB6803F4800258
:101E48007B68DB699A4221D1FB6803F03F027B681B
:101E58001B6A9A421AD1FA6847F6C07313407A6827
:101E6800526A9201934211D1FB6803F440327B68B5
:101E78009B6A5B08013B1B049A4207D1FB6803F08D
:101E880070627B68DB6A1B069A4201D0012300E07E
:101E9800002318461837BD4680BD00BF00380240F1
:101EA80080B584B000AF786039607B68002B01D1C1
:101EB8000123CCE0684B1B6803F007033A689A4299
:101EC8000CD9654B3A68D2B21A70634B1B6803F0A1
:101ED80007033A689A4201D00123B8E07B681B687F
:101EE80003F00203002B20D07B681B6803F0040377
:101EF800002B05D0594B9B68584A43F4E053936034
:101F08007B681B6803F00803002B05D0534B9B68C4
:101F1800524A43F460439360504B9B6823F0F002AD
:101F28007B689B684D4913438B607B681B6803F093
:101F38000103002B44D07B685B68012B07D1474B1A
:101F48001B6803F40033002B19D101237FE07B6861
:101F58005B68022B03D07B685B68032B07D13F4B80
:101F68001B6803F00073002B09D101236FE03B4B82
:101F78001B6803F00203002B01D1012367E0374BF4
:101F88009B6823F003027B685B68344913438B60CA
:101F9800FFF75AFAF8600AE0FFF756FA0246FB68BC
:101FA800D31A41F28832934201D903234FE02B4BD5
:101FB8009B6803F00C027B685B689B009A42EBD13C
:101FC800254B1B6803F007033A689A420CD2224B50
:101FD8003A68D2B21A70204B1B6803F007033A68BC
:101FE8009A4201D0012332E07B681B6803F00403A6
:101FF800002B08D0194B9B6823F4E0527B68DB6800
:10200800164913438B607B681B6803F00803002B99
:1020180009D0124B9B6823F460427B681B69DB0084
:102028000E4913438B6000F02DF802460B4B9B685A
:102038001B0903F00F030A49CB5C22FA03F3094A90
:102048001360094B1B681846FFF7BAF900231846B6
:102058001037BD4680BD00BF003C0240003802403A
:1020680098430008000000200400002080B400AF5E
:10207800034B01221A6000BFBD465DF8047B704720
:102088004C0047422DE9B04F94B000AF00237B6469
:102098000023FB6400233B640023BB64794B9B68EB
:1020A80003F00C03082B0DD0082B00F2E180002B65
:1020B80002D0042B03D0DBE0734BBB64DBE0724B34
:1020C800BB64D8E06F4B5B6803F03F037B646D4BE8
:1020D8005B6803F48003002B63D06A4B5B689B0941
:1020E8000022BB63FA63BB6BC3F308033B630023A3
:1020F8007B63D7E90C4522462B464FF000004FF092
:102108000001590141EAD261500102460B462146BD
:10211800511A3961294663EB01037B614FF00002D4
:102128004FF00003D7E904AB59468B01514643EA07
:10213800916351468A015146B2EB0108594663EB57
:1021480001094FF000024FF000034FEAC90343EAC8
:1021580058734FEAC80290469946234618EB030382
:10216800BB602B4649EB0303FB604FF000024FF0C6
:102178000003D7E9024529468B02214643EA9153D9
:1021880021468A02104619467B6C0022BB62FA621D
:10219800D7E90A23FEF702FC02460B461346FB6406
:1021A80058E0384B5B689B09002218461146C0F37B
:1021B80008033B6200237B62D7E9088942464B4605
:1021C8004FF000004FF00001590141EAD26150017F
:1021D80002460B464146B2EB010A494663EB010B46
:1021E8004FF000024FF000034FEA8B1343EA9A6363
:1021F8004FEA8A12B2EB0A0463EB0B054FF00002B8
:102208004FF00003EB0043EA5473E20014461D4606
:102218004346E3183B604B4645EB03037B604FF0B6
:1022280000024FF00003D7E9004529468B022146FA
:1022380043EA915321468A02104619467B6C0022D4
:10224800BB61FA61D7E90623FEF7A8FB02460B46F5
:102258001346FB640B4B5B681B0C03F00303013351
:102268005B003B64FA6C3B6CB2FBF3F3BB6402E0CB
:10227800054BBB6400BFBB6C18465037BD46BDE874
:10228800B08F00BF003802400024F40080B500AFD2
:10229800064BDB6803F08003802B04D100F00AF8BA
:1022A800034B80221A7000BF80BD00BF0038024077
:1022B8000E38024080B400AF00BFBD465DF8047B15
:1022C800704780B582B000AF78607B68002B01D181
:1022D800012341E07B6893F83D30DBB2002B06D147
:1022E8007B68002283F83C207868FEF783FF7B68D0
:1022F800022283F83D207B681A687B6804331946FC
:10230800104600F09FF97B68012283F846207B681D
:10231800012283F83E207B68012283F83F207B68F6
:10232800012283F840207B68012283F841207B68E2
:10233800012283F842207B68012283F843207B68CE
:10234800012283F844207B68012283F845207B68BA
:10235800012283F83D20002318460837BD4680BD7A
:1023680080B584B000AF786039603B68002B09D134
:102378007B6893F83E30DBB2012B14BF01230023A6
:10238800DBB222E03B68042B09D17B6893F83F302D
:10239800DBB2012B14BF01230023DBB215E03B683D
:1023A800082B09D17B6893F84030DBB2012B14BFAE
:1023B80001230023DBB208E07B6893F84130DBB2ED
:1023C800012B14BF01230023DBB2002B01D0012312
:1023D80068E03B68002B04D17B68022283F83E202A
:1023E80013E03B68042B04D17B68022283F83F206A
:1023F8000BE03B68082B04D17B68022283F840205D
:1024080003E07B68022283F841207B681B68012275
:102418003968184600F02EFB7B681B68234A9342F4
:1024280007D17B681B685A6C7B681B6842F40042C2
:102438005A647B681B681D4A934218D07B681B68E6
:10244800B3F1804F13D07B681B68194A93420ED0B2
:102458007B681B68174A934209D07B681B68164A39
:10246800934204D07B681B68144A934211D17B685D
:102478001B689B6803F00703FB60FB68062B10D002
:102488007B681B681A687B681B6842F001021A6047
:1024980007E07B681B681A687B681B6842F00102CA
:1024A8001A60002318461037BD4680BD0000014061
:1024B8000004004000080040000C004000400140BB
:1024C80080B586B000AFF860B9607A600023FB750C
:1024D800FB6893F83C30012B01D10223AEE0FB6886
:1024E800012283F83C207B680C2B00F29F8001A21C
:1024F80052F823F031250008352600083526000853
:1025080035260008712500083526000835260008FC
:1025180035260008B32500083526000835260008AA
:1025280035260008F3250008FB681B68B9681846BB
:1025380000F014F9FB681B689A69FB681B6842F095
:1025480008029A61FB681B689A69FB681B6822F09D
:1025580004029A61FB681B689969BB681A69FB6881
:102568001B680A439A6164E0FB681B68B9681846EF
:1025780000F05AF9FB681B689A69FB681B6842F40B
:1025880000629A61FB681B689A69FB681B6822F401
:1025980080629A61FB681B689969BB681B691A02AB
:1025A800FB681B680A439A6143E0FB681B68B968CB
:1025B800184600F0A5F9FB681B68DA69FB681B6818
:1025C80042F00802DA61FB681B68DA69FB681B687D
:1025D80022F00402DA61FB681B68D969BB681A69D2
:1025E800FB681B680A43DA6123E0FB681B68B9686B
:1025F800184600F0EFF9FB681B68DA69FB681B688E
:1026080042F40062DA61FB681B68DA69FB681B68E0
:1026180022F48062DA61FB681B68D969BB681B69B0
:102628001A02FB681B680A43DA6102E00123FB75A2
:1026380000BFFB68002283F83C20FB7D1846183752
:10264800BD4680BD80B485B000AF786039607B68D6
:102658001B68FB607B683A4A93420FD07B68B3F1F2
:10266800804F0BD07B68374A934207D07B68364A45
:10267800934203D07B68354A934208D1FB6823F024
:102688007003FB603B685B68FA681343FB607B6818
:102698002B4A93421BD07B68B3F1804F17D07B68DD
:1026A800284A934213D07B68274A93420FD07B680D
:1026B800264A93420BD07B68254A934207D07B6811
:1026C800244A934203D07B68234A934208D1FB688B
:1026D80023F44073FB603B68DB68FA681343FB60D4
:1026E800FB6823F080023B685B691343FB607B68EF
:1026F800FA681A603B689A687B68DA623B681A680D
:102708007B689A627B680E4A934203D13B681A69D8
:102718007B681A637B6801225A617B681B6903F036
:102728000103012B05D17B681B6923F001027B683B
:102738001A6100BF1437BD465DF8047B704700BFBF
:10274800000001400004004000080040000C004068
:1027580000400140004401400048014080B487B077
:1027680000AF786039607B681B6A7B617B681B6A95
:1027780023F001027B681A627B685B683B617B68B7
:102788009B69FB60FB6823F07003FB60FB6823F028
:102798000303FB603B681B68FA681343FB607B69B3
:1027A80023F002037B613B689B687A6913437B6172
:1027B8007B681C4A93420CD17B6923F008037B6138
:1027C8003B68DB687A6913437B617B6923F0040308
:1027D8007B617B68134A934211D13B6923F4807370
:1027E8003B613B6923F400733B613B685B693A6971
:1027F80013433B613B689B693A6913433B617B68C0
:102808003A695A607B68FA689A613B685A687B68DB
:102818005A637B687A691A6200BF1C37BD465DF847
:10282800047B70470000014080B487B000AF786037
:1028380039607B681B6A7B617B681B6A23F0100226
:102848007B681A627B685B683B617B689B69FB609D
:10285800FB6823F4E043FB60FB6823F44073FB60F0
:102868003B681B681B02FA681343FB607B6923F013
:1028780020037B613B689B681B017A6913437B617A
:102888007B681E4A93420DD17B6923F080037B61EC
:102898003B68DB681B017A6913437B617B6923F022
:1028A80040037B617B68154A934213D13B6923F44B
:1028B80080633B613B6923F400633B613B685B6970
:1028C8009B003A6913433B613B689B699B003A69EB
:1028D80013433B617B683A695A607B68FA689A617E
:1028E8003B685A687B689A637B687A691A6200BF9A
:1028F8001C37BD465DF8047B704700BF00000140EF
:1029080080B487B000AF786039607B681B6A7B61F0
:102918007B681B6A23F480727B681A627B685B6839
:102928003B617B68DB69FB60FB6823F07003FB603D
:10293800FB6823F00303FB603B681B68FA681343DA
:10294800FB607B6923F400737B613B689B681B0217
:102958007A6913437B617B681D4A93420DD17B6979
:1029680023F400637B613B68DB681B027A691343CD
:102978007B617B6923F480637B617B68144A9342A3
:1029880013D13B6923F480533B613B6923F4005323
:102998003B613B685B691B013A6913433B613B68D8
:1029A8009B691B013A6913433B617B683A695A602A
:1029B8007B68FA68DA613B685A687B68DA637B6827
:1029C8007A691A6200BF1C37BD465DF8047B704700
:1029D8000000014080B487B000AF786039607B6840
:1029E8001B6A3B617B681B6A23F480527B681A620E
:1029F8007B685B687B617B68DB69FB60FB6823F451
:102A0800E043FB60FB6823F44073FB603B681B6892
:102A18001B02FA681343FB603B6923F400533B61D4
:102A28003B689B681B033A6913433B617B68104A08
:102A3800934209D17B6923F480437B613B685B69DE
:102A48009B017A6913437B617B687A695A607B686A
:102A5800FA68DA613B685A687B681A647B683A6985
:102A68001A6200BF1C37BD465DF8047B704700BF83
:102A78000000014080B487B000AFF860B9607A60A8
:102A8800BB6803F01F03012202FA03F37B61FB68B2
:102A98001A6A7B69DB431A40FB681A62FB681A6A88
:102AA800BB6803F01F03796801FA03F31A43FB6854
:102AB8001A6200BF1C37BD465DF8047B70470000F2
:102AC80080B485B000AF786039607B6893F83C309B
:102AD800012B01D1022350E07B68012283F83C20BE
:102AE8007B68022283F83D207B681B685B68FB607B
:102AF8007B681B689B68BB60FB6823F07003FB6006
:102B08003B681B68FA681343FB607B681B68FA68BC
:102B18005A607B681B681C4A934218D07B681B6804
:102B2800B3F1804F13D07B681B68184A93420ED0CC
:102B38007B681B68164A934209D07B681B68154A54
:102B4800934204D07B681B68134A93420CD1BB683C
:102B580023F08003BB603B685B68BA681343BB60C3
:102B68007B681B68BA689A607B68012283F83D20FD
:102B78007B68002283F83C20002318461437BD46A2
:102B88005DF8047B704700BF00000140000400406E
:102B980000080040000C00400040014080B584B0AF
:102BA80000AF78600023FB737B68002B02D1012300
:102BB800FB732AE07B681B7C002B05D17B68DB68F4
:102BC8001B6800225A6318E07B681B7C042B05D124
:102BD8007B68DB681A68002393630EE07B681B7CC4
:102BE800082B05D17B68DB681A680023D36304E0EF
:102BF8007B68DB681A68002313647B68DA687B6883
:102C08001B7C19461046FFF7ABFBFB7B18461037B9
:102C1800BD4680BD80B584B000AF786087ED000AFE
:102C28000023FB737B68002B02D10123FB7316E0A2
:102C380097ED000A786800F041F80346FB737B685B
:102C480018687B681B8901221946FEF797FE7B6886
:102C580058687B685B8900221946FEF78FFEFB7B6C
:102C680018461037BD4680BD80B584B000AF786087
:102C780087ED000A0023FB737B68002B02D1012338
:102C8800FB7316E097ED000A786800F017F8034622
:102C9800FB737B6818687B681B8900221946FEF75E
:102CA8006DFE7B6858687B685B8901221946FEF7D0
:102CB80065FEFB7B18461037BD4680BD80B487B0E3
:102CC80000AF786087ED000A0023FB757B68002B56
:102CD80002D10123FB7536E01E4B93ED007AD7ED48
:102CE800006AC6EE877AC7ED047AD7ED047A9FEDBD
:102CF8001A7A67EE877AFCEEE77A17EE903AFB606D
:102D08007B681B7C002B05D17B68DB681B68FA6835
:102D18005A6318E07B681B7C042B05D17B68DB6851
:102D28001A68FB6893630EE07B681B7C082B05D14F
:102D38007B68DB681A68FB68D36304E07B68DB6840
:102D48001A68FB681364FB7D18461C37BD465DF89E
:102D5800047B70477C000020004083450000000091
:102D6800B0B58CB000AFF8600B4687ED010A7B81E7
:102D7800002387F82F30FB68002B03D1012387F845
:102D88002F30C8E14FF00003BB624FF000037B62B5
:102D98004FF000033B624FF00003FB614FF000036C
:102DA800BB614FF000037B614FF000033B61786823
:102DB800FDF79CFC04460D467B891846FDF774FC1C
:102DC80002460B4643EC102B00F052FA53EC102B42
:102DD80020462946FDF7FCF902460B4610461946DF
:102DE800FDF78CFD0346BB617868FDF77FFC044660
:102DF8000D467B891846FDF757FC02460B4643EC07
:102E0800102B00F089FA53EC102B20462946FDF7C9
:102E1800DFF902460B4610461946FDF76FFD0346DB
:102E28007B6197ED067AD7ED057A37EE677AD7EDAD
:102E3800047AF3EE046A67EEA67A77EE677A17EEFD
:102E4800900AFDF753FCB8A3D3E90023FDF7C0F9B6
:102E580002460B4610461946FDF750FD0346BB6275
:102E680097ED067AD7ED057A37EE277AD7ED047A0B
:102E7800F3EE046A67EEA67A77EE277A17EE900AE1
:102E8800FDF734FCA8A3D3E90023FDF7A1F9024616
:102E98000B4610461946FDF731FD03467B6297ED58
:102EA800067AD7ED057A37EE277AD7ED047AF3EE6E
:102EB800046A67EEA67A77EE677A17EE900AFDF74E
:102EC80015FC99A3D3E90023FDF782F902460B46C6
:102ED80010461946FDF712FD03463B6297ED067A48
:102EE800D7ED057A37EE677AD7ED047AF3EE046A00
:102EF80067EEA67A77EE277A17EE900AFDF7F6FBCB
:102F080089A3D3E90023FDF763F902460B4610466F
:102F18001946FDF7F3FC0346FB61B86AFDF7E6FBCB
:102F280083A3D3E90023FDF753F902460B46104665
:102F38001946FDF7E3FC07EE900AF0EEE77AFB6826
:102F4800C3ED057A786AFDF7D1FB79A3D3E90023AD
:102F5800FDF73EF902460B4610461946FDF7CEFC32
:102F680007EE900AF0EEE77AFB68C3ED0C7A386A50
:102F7800FDF7BCFB6EA3D3E90023FDF729F9024650
:102F88000B4610461946FDF7B9FC07EE900AF0EE1D
:102F9800E77AFB68C3ED137AF869FDF7A7FB64A32A
:102FA800D3E90023FDF714F902460B4610461946EB
:102FB800FDF7A4FC07EE900AF0EEE77AFB68C3ED94
:102FC8001A7AD7ED0A7AF5EEC07AF1EE10FA0FD533
:102FD800FB6801221A76FA68FB68D3ED057AB0EE31
:102FE800670A1046FFF740FE034687F82F300EE0C9
:102FF800FB6800221A76FA68FB68D3ED057AB0EE12
:10300800670A1046FFF706FE034687F82F30D7ED0C
:10301800097AF5EEC07AF1EE10FA12D5FB680122B2
:1030280083F83420FB6803F11C02FB68D3ED0C7AAB
:10303800B0EE670A1046FFF717FE034687F82F30F1
:1030480011E0FB68002283F83420FB6803F11C02BE
:10305800FB68D3ED0C7AB0EE670A1046FFF7DAFD8D
:10306800034687F82F30D7ED087AF5EEC07AF1EEEF
:1030780010FA12D5FB68012283F85020FB6803F18F
:103088003802FB68D3ED137AB0EE670A1046FFF7F3
:10309800EBFD034687F82F3011E0FB68002283F828
:1030A8005020FB6803F13802FB68D3ED137AB0EEC9
:1030B800670A1046FFF7AEFD034687F82F30D7EDB5
:1030C800077AF5EEC07AF1EE10FA12D5FB68012204
:1030D80083F86C20FB6803F15402FB68D3ED1A7A7D
:1030E800B0EE670A1046FFF7BFFD034687F82F309A
:1030F80011E0FB68002283F86C20FB6803F154029E
:10310800FB68D3ED1A7AB0EE670A1046FFF782FD26
:10311800034687F82F3097F82F3018463037BD46CA
:10312800B0BD00BFAFF30080ABAAAAAAAAAA4040CC
:10313800FB2BED663D19234080B584B000AF786065
:103148000023FB737B68002B02D10123FB7351E042
:103158007B681846FFF722FD03461A46FB7B13439C
:10316800FB737B684FF000025A617B6802221A7673
:103178007B681C331846FFF711FD03461A46FB7B94
:103188001343FB737B684FF000021A637B680222CB
:1031980083F834207B6838331846FFF7FFFC034672
:1031A8001A46FB7B1343FB737B684FF00002DA641B
:1031B8007B68022283F850207B6854331846FFF757
:1031C800EDFC03461A46FB7B1343FB737B684FF009
:1031D80000029A667B68022283F86C20084B1B6801
:1031E800084A1360084B1B68084A1360084B1B68A1
:1031F800084A1360FB7B18461037BD4680BD00BFE8
:10320800F4FF030830010020F0FF03083401002018
:10321800ECFF03083801002002440346934200D122
:10322800704703F8011BF9E770B50D4D0D4C641B91
:10323800A4100026A64209D10B4D0C4C01F09CF8B5
:10324800641BA4100026A64205D170BD55F8043BA6
:1032580098470136EEE755F8043B98470136F2E700
:103268008845000888450008884500088C450008FE
:103278001FB553EC102B264823F00041814206D895
:103288009FED211B05B05DF804EB00F099B82148CB
:10329800814208D910461946FDF7C8F841EC100BD1
:1032A80005B05DF804FB684600F00EFA00F0030074
:1032B80001280BD0022815D0D8B99DED021B9DED31
:1032C800000B00F07DF851EC100BE7E79DED021BB9
:1032D8009DED000B00F03CF953EC102B104603F168
:1032E8000041DBE79DED021B9DED000B00F068F847
:1032F800F2E79DED021B9DED000B012000F028F97F
:10330800E1E700BFAFF3008000000000000000000C
:10331800FB21E93FFFFFEF7F1FB553EC102B264839
:1033280023F00041814207D89FED211B002005B002
:103338005DF804EB00F00CB92048814208D910462A
:103348001946FDF773F841EC100B05B05DF804FB66
:10335800684600F0B9F900F0030001280CD00228F3
:1033680011D0E8B99DED021B9DED000B012000F086
:10337800EFF851EC100BE6E79DED021B9DED000BFD
:1033880000F01EF8F5E79DED021B9DED000B0120F6
:1033980000F0DEF853EC102B104603F10041D2E7A1
:1033A8009DED021B9DED000B00F00AF8F2E700BF4F
:1033B8000000000000000000FB21E93FFFFFEF7F55
:1033C8002DE9F74F57EC106B27F00048B8F1795FFB
:1033D8008DED001B06D230463946FDF767FA002806
:1033E80000F0888032463B4630463946FCF7F0FE0E
:1033F800514B002204460D46FCF7EAFE40A3D3E9F0
:10340800002382468B4620462946FCF7E1FE3EA370
:10341800D3E90023FDF70CF822462B46FCF7D8FE2B
:103428003BA3D3E90023FDF701F822462B46FCF71E
:10343800CFFE39A3D3E90023FCF7FAFF22462B4637
:10344800FCF7C6FE36A3D3E90023FCF7EFFF2246BC
:103458002B46FCF7BDFE34A3D3E90023FCF7E8FFB5
:1034680022462B46FCF7B4FE22462B46FCF7B0FE5C
:10347800DDE9002304460D4630463946FCF7A8FE30
:103488000B46024629462046FCF7D0FF2B4B9845B1
:1034980006460F4610D802460B4650465946FCF7DA
:1034A800C5FF0B46264902460020FCF7BFFF41EC4A
:1034B800100B03B0BDE8F08F224B214998458CBF13
:1034C800214DA8F50015002422462B460020FCF7C4
:1034D800ADFF2246804689462B4650465946FCF7A2
:1034E800A5FF32463B46FCF7A1FF02460B46404685
:1034F8004946DAE79FED0E0BDBE700BFAFF300802C
:10350800D43888BEE9FAA8BDC4B1B4BD9EEE213E48
:10351800AD529C804F7E923E9015CB19A001FA3E89
:103528007751C1166CC1563F4C5555555555A53F59
:10353800000000000000F03F0000E03F3233D33FBE
:103548000000F03F0000E93F0000D23F000000000B
:103558002DE9F04F55EC104B25F0004385B0B3F141
:10356800795F8DED021B804605D220462946FDF77E
:103578009DF9002852D022462B4620462946FCF7C2
:1035880027FE82468B4602460B4620462946FCF714
:103598001FFE42A3D3E90023CDE900015046594656
:1035A800FCF716FE3FA3D3E90023FCF73FFF524682
:1035B8005B46FCF70DFE3DA3D3E90023FCF738FF7B
:1035C80052465B46FCF704FE3AA3D3E90023FCF716
:1035D8002DFF52465B46FCF7FBFD38A3D3E90023D9
:1035E800FCF726FF06460F46B8F1000F1BD102462E
:1035F8000B4650465946FCF7EBFD25A3D3E90023BB
:10360800FCF714FFDDE90023FCF7E2FD02460B4658
:1036180020462946FCF70CFF04460D4645EC104BA6
:1036280005B0BDE8F08FDDE902011B4B0022FCF775
:10363800CFFD3246804689463B46DDE90001FCF76E
:10364800C7FD02460B4640464946FCF7EFFE524688
:103658005B46FCF7BDFDDDE90223FCF7E7FE0CA3A2
:10366800D3E9002306460F46DDE90001FCF7B0FD6B
:1036780002460B4630463946FCF7DAFE02460B4650
:1036880020462946FCF7D2FEC6E700BFAFF300800C
:10369800495555555555C53F0000E03F7CD5CF5A93
:1036A8003AD9E53DEB9C2B8AE6E55A3E7DFEB157BB
:1036B800E31DC73ED561C119A0012A3FA6F8101124
:1036C8001111813F000000002DE9F04F57EC106BFD
:1036D800C54B8DB027F0004898450446049707D895
:1036E8000022002380ED000BC0E90223002528E01A
:1036F800BE4B984578D8049BBD4D002B3046ACA3F3
:10370800D3E90023394638DDFCF790FEA845064684
:103718000F461AD0A8A3D3E90023FCF787FE024678
:103728000B468046894630463946FCF77FFEA2A301
:10373800D3E90023FCF77AFEC4E90089C4E9020151
:10374800012528460DB0BDE8F08F9DA3D3E90023DD
:10375800FCF76CFE9CA3D3E9002306460F46FCF752
:1037680065FE02460B468046894630463946FCF7D8
:103778005DFE95A3D3E90023DCE7FCF759FEA845D5
:1037880006460F4618D08CA3D3E90023FCF750FE59
:1037980002460B468046894630463946FCF746FEC7
:1037A80085A3D3E90023FCF743FE4FF0FF35C4E9B6
:1037B8000089C4E90201C4E781A3D3E90023FCF727
:1037C80037FE81A3D3E9002306460F46FCF730FEF7
:1037D80002460B468046894630463946FCF726FEA7
:1037E80079A3D3E90023DEE7824B984500F2D18024
:1037F80000F066F957EC106B75A3D3E90023304647
:103808003946FCF7E5FC7C4B0022FCF711FEFDF77E
:103818004DF80546FCF758FF02460B46CDE9022352
:1038280063A3D3E90023FCF7D3FC02460B463046DA
:103838003946FCF7FBFD60A3D3E9002382468B469B
:10384800DDE90201FCF7C4FC1F2D06460F460CDC1F
:103858006A4B6A1E53F82230434506D032463B462F
:1038680050465946FCF7E2FD0EE03B4632465046CC
:103878005946FCF7DBFD4FEA28530593C1F30A5379
:10388800C3EB1853102B02DCC4E9000139E04CA348
:10389800D3E90023DDE90201FCF79AFC06460F464E
:1038A80002460B4650465946FCF7C0FD02460B46F9
:1038B8008046894650465946FCF7B8FD32463B4695
:1038C800FCF7B4FD40A3D3E9002306460F46DDE923
:1038D8000201FCF77DFC32463B46FCF7A7FD024699
:1038E8000B4606460F4640464946FCF79FFD059A9B
:1038F800C1F30A53D31A312B20DCC4E90001C246B4
:10390800CB46D4E90089504642464B465946FCF717
:103918008DFD3B463246FCF789FD049B002BC4E92C
:103928000201BFF60EAF09F10043636001F10043E5
:10393800C4F80080A060E3606D4202E726A3D3E9E3
:103948000023DDE90201FCF743FC06460F46024668
:103958000B4640464946FCF769FD02460B4682463F
:103968008B4640464946FCF761FD32463B46FCF72C
:103978005DFD1BA3D3E9002306460F46DDE90201DE
:10398800FCF726FC32463B46FCF750FD06460F4640
:1039980064E71B4B984535D932463B463046394695
:1039A800FCF744FDC4E90201C4E900019EE600BF3A
:1039B80000004054FB21F93F3163621A61B4D03DE5
:1039C8000000601A61B4D03D7370032E8A19A33BBE
:1039D80083C8C96D305FE43F0000002E8A19A33BFD
:1039E800C14920259A837B39FB21E93F7BD90240D5
:1039F800FB21F93FFB2139410000E03FA8430008C3
:103A0800FFFFEF7F4FEA2855A5F21645A8EB0551B1
:103A180030460F46FCF74AFFFCF756FE02460B46B7
:103A280030463946CDE90623FCF700FD224B00223B
:103A3800FCF7CEFB0F460646FCF738FFFCF744FEC2
:103A480002460B4630463946CDE90823FCF7EEFC22
:103A5800194B0022FCF7BCFBCDE90A010DF1300936
:103A68004FF003080026002779E9020132463B4659
:103A7800C24608F1FF38FCF7E7FE0028F4D10F4BE7
:103A88000193022300932A465346214606A800F0D4
:103A98001FF8049B002B0546BFF653AED4E900215E
:103AA80001F10043C4E90023D4E9022101F10043F4
:103AB800C4E9022340E700BF000070412844000821
:103AC80051EC100B024621F0004343EC102B7047D9
:103AD8002DE9F04F2DED028BADF5197D12F1140F84
:103AE80006930491BE4BA499089053F82130009393
:103AF800069B03F1FF33A8BFD41E0593B2BF002471
:103B0800182394FBF3F46FF0170304FB033303EB60
:103B1800020B009B059A9FEDAE8B03EB0208A59B59
:103B2800A71A20AE03EB87090025454513DD069B40
:103B380020AA02EBC3050DF5E07A4FF00008009BC0
:103B4800984531DC9FEDA27BDDF820908DED027B5E
:103B58002F4600261BE0EF4207D459F82500FCF752
:103B6800B3FDE6E802010135DFE751EC180BF8E791
:103B7800D7E90023F9E80201FCF72AFB02460B46C5
:103B8800DDE90201FCF754FCCDE902010136059B91
:103B98009E42A7F10807EBDD9DED027B08F10108C5
:103BA800AAEC027B0835CAE7009BDDF800800CAA66
:103BB80002EB83030A93A59B03EB840309934FEA63
:103BC800C8030B9398AB03EBC80313ED287B8DED6B
:103BD800027B0CAC70AB03EBC805A146C246BAF138
:103BE800000FA5F1080577DC58469DED020B00F0A3
:103BF800C7FA57EC106B00224FF07F533046394616
:103C0800FCF7E6FA41EC100B00F03AFB754B51EC6F
:103C1800100B0022FCF7DCFA02460B463046394608
:103C2800FCF704FC0F460646FCF740FE0290FCF742
:103C38004BFD02460B4630463946FCF7F7FBBBF115
:103C4800000F06460F466CDD08F1FF310CAB029DF4
:103C580053F82130CBF1180043FA00F215448240A2
:103C68009B1A0CAA029542F82130CBF1170243FAAD
:103C780002F9B9F1000F64DD029B002201330293BF
:103C880015466FF07F41904500F3B880BBF1000FF7
:103C980007DDBBF1010F00F0BF80BBF1020F00F0A0
:103CA800C680B9F1020F4CD132463B464E4900203E
:103CB800FCF7BCFB06460F46002D42D058469FED48
:103CC800460B00F05DFA3046394653EC102BFCF7F2
:103CD800ADFB06460F4634E0444B0022DDE9020105
:103CE800FCF776FAFCF7E2FDFCF7EEFC404B00220D
:103CF80006460F46FCF76CFA02460B46DDE9020160
:103D0800FCF794FBFCF7D2FDD5E9002349F8040B36
:103D180039463046FCF78CFB0AF1FF3ACDE902013F
:103D28005DE707D108F1FF330CAA52F823304FEAB8
:103D3800E3599EE72F4B0022FCF7A4FD002843D14E
:103D480081460022002330463946FCF77DFD0028D5
:103D580000F0BF8008F1FF33002200998B426EDA31
:103D6800002A00F0898008F1FF380CABABF1180B82
:103D780053F82830002BF6D058469FED170B00F06B
:103D8800FFF908F10103DA00059255EC104B70AA0F
:103D9800DFF858B002EBC30746464FF0000A002E82
:103DA80080F2CF804446002CC0F2FD80124B1F46A3
:103DB80070AB03EBC40306934FF0000A4FF0000BFF
:103DC8000026A8EB0405E2E04FF0020954E700BF23
:103DD8000000000000000000000000000000F03FAC
:103DE80070450008000020400000F03F0000703ED1
:103DF800000070410000E03F3045000854F8043BE3
:103E080045B923B1C3F1807344F8043C012301325E
:103E18001D4638E7CB1AF7E708F1FF320CAB53F829
:103E28002230C3F316030CA941F8223039E708F110
:103E3800FF320CAB53F82230C3F31503F3E70CA998
:103E480051F82310013B0A4387E7013453F8042D46
:103E5800002AFAD00B9B03F518730DEB0305069B9C
:103E680020AA434408F10107983D02EBC3064444E5
:103E7800BC4204DAA046A2E60A9B0124E6E7099BB5
:103E880053F82700FCF720FC9FEDB17BE6E8020120
:103E98008DED027BDDF82090B2464FF00008059BBF
:103EA800984505DD9DED027B0137A5EC027BDFE738
:103EB8007AE90223F9E80201FCF78AF902460B467F
:103EC800DDE90201FCF7B4FA08F10108CDE90201C5
:103ED800E5E7CBF1000047EC106B00F051F955EC29
:103EE800104B9D4B002220462946FCF7CBFC00B323
:103EF8009A4B002220462946FCF76AF9FCF7D6FCC3
:103F08000646FCF7E1FB944B0022FCF761F90B46EF
:103F1800024629462046FCF789FAFCF7C7FC0CAB99
:103F28000BF1180B43F8280008F1010843F8286042
:103F380022E720462946FCF7B9FC0CAB43F82800D9
:103F48001AE70CAB53F82600FCF7BEFB22462B46BB
:103F5800FCF73EF9524667E902015B4620462946CE
:103F6800FCF736F9013E04460D4618E70699F1E8D4
:103F780002230691F7E80201FCF72AF902460B46EC
:103F880050465946FCF754FA013682468B46009B48
:103F98009E4201DCB542E9DA48AB03EBC505C5E949
:103FA80000AB013CFFE6A49B022B0BDC002B39DCA9
:103FB8005DD0029B03F007000DF5197DBDEC028B67
:103FC800BDE8F08FA49B032BF3D1059B03F5187371
:103FD8000DEB0304A4F5A4742546C246BAF1000FFC
:103FE800A5F108056BDC4546012DA4F1080400F392
:103FF8008780059C48AB1C4400200021B8F1010FC4
:1040080000F39C80DDE94878DDE94A56B9F1000FF4
:1040180040F0A680049BC3E90078C3E90256C3E9CF
:104028000401C6E7059D48AB1D4444460020002115
:10403800002C35DAB9F1000F38D0024601F10043FF
:10404800049CC4E9002302460B46DDE94801FCF75D
:10405800EDF94AAD0124A0452BDAB9F1000F02D0E1
:1040680001F100431946049BC3E90201A1E7059C3D
:1040780048AB1C4400200021B8F1000F09DAB9F15F
:10408800000F02D001F100431946049BC3E9000167
:104098008FE774E90223FCF7CBF908F1FF38EBE767
:1040A80075E90223FCF7C4F9013CC1E702460B4657
:1040B800C6E7F5E80223FCF7BBF90134CBE795ED39
:1040C800007B8DED007B95ED027BDDE9000153EC73
:1040D800172B8DED067BFCF7ABF902460B4606461F
:1040E8000F46DDE90001FCF7A1F9DDE90623FCF73D
:1040F8009FF90AF1FF3AC5E90201C5E900676DE7D2
:1041080094ED007BD4E902AB51EC170B52465B46A9
:104118008DED007BFCF78CF902460B4606460F46F0
:10412800DDE90001FCF782F952465B46FCF780F9AD
:10413800013DC4E90201C4E9006755E774E90223B7
:10414800FCF776F908F1FF3858E700BFAFF30080B5
:104158000000000000000000000070410000703EF8
:10416800049B049A1F6008F100445C609D6006F19E
:104178000043D36001F100431061536119E700BFA8
:1041880070B555EC104BC5F30A5106462B4691B94C
:1041980025F0004323433DD0354B204629460022D5
:1041A800FCF716F8334B9E4204460D460FDA28A357
:1041B800D3E900231EE040F2FF7291420BD1224660
:1041C80020462946FCF734F904460D4622E00B4602
:1041D800C1F30A5136394CF2503296420DDD002DAA
:1041E8001DA1D1E9000102DA1DA1D1E900011AA33C
:1041F800D3E90023FBF7ECFFE6E7721840F2FE7103
:104208008A42ECDC002A08DD23F0FF4323F4E003B4
:1042180043EA025545EC104B70BD12F1350F08DA30
:10422800002D0BA1D1E90001C1DA0FA1D1E90001EC
:10423800BDE723F0FF43363223F4E00343EA025597
:1042480020460D4B29460022D4E700BFAFF300807B
:1042580059F3F8C21F6EA5019C7500883CE4377EAF
:104268009C7500883CE437FE59F3F8C21F6EA5819F
:1042780000005043B03CFFFF0000903C00000000ED
:1042880051EC100BC1F30A532DE9F041A3F2FF36AC
:10429800132E0C460546804634DC002E17DA32A36E
:1042A800D3E90023FCF7C4F800220023FCF7F4FA52
:1042B80050B1002C55DA24F000442C430025AC42C0
:1042C8002B4C08BF4FF000442146284623E0294FD5
:1042D800374101EA070303431DD023A3D3E9002391
:1042E800FCF7A6F800220023FCF7D6FA0028EBD04A
:1042F800002CBEBF4FF480133341E41824EA0704AE
:104308000025E1E7332E0ADDB6F5806F03D10246BA
:104318000B46FCF78DF841EC100BBDE8F081A3F2D9
:1043280013434FF0FF37DF400742F4D00EA3D3E921
:104338000023FCF77DF800220023FCF7ADFA0028E3
:10434800C2D0002C0ADA142E01D1013406E0C6F1DD
:1043580034060123B3401D444545F6D325EA070535
:10436800B2E700252C46AFE79C7500883CE4377E11
:104378000000F0BFFFFF0F00F8B500BFF8BC08BC95
:104388009E467047F8B500BFF8BC08BC9E4670470B
:1043980000000000000000000102030406070809ED
:1043A800FB21F93FFB2109407CD91240FB21194030
:1043B8007A6A1F407CD92240BBFD2540FB21294059
:1043C8003A462C407A6A2F405C4731407CD93240CB
:1043D8009C6B3440BBFD3540DB8F3740FB213940B7
:1043E8001BB43A403A463C405AD83D407A6A3F406E
:1043F8004C7E40405C4741406C1042407CD9424072
:104408008CA243409C6B4440AC344540BBFD4540C6
:10441800CBC64640DB8F4740EB584840FB2149401C
:1044280083F9A200444E6E00FC291500D1572700DD
:10443800DD34F50062DBC0003C99950041904300F3
:104448006351FE00BBDEAB00B761C5003A6E2400C5
:10445800D24D42004906E00009EA2E001C92D10024
:10446800EB1DFE0029B11C00E83EA700F5358200CF
:1044780044BB2E009CE98400B4267000417E5F0096
:10448800D6913900538339009CF439008B5F84003E
:1044980028F9BD00F81F3B00DEFF97000F980500C4
:1044A800112FEF000A5A8B006D1F6D00CF7E36006A
:1044B80009CB2700464FB7009E663F002DEA5F00F4
:1044C800BA277500E5EBC7003D7BF100F739070017
:1044D80092528A00FB6BEA001FB15F00085D8D00F5
:1044E800300356007BFC4600F0AB6B0020BCCF00CD
:1044F80036F49A00E3A91D005E619100081BE600EE
:1045080085996500A0145F008D40680080D8FF0081
:1045180027734D0006063100CA561500C9A8730056
:104528007BE260006B8CC00000000040FB21F93F7B
:10453800000000002D44743E000000809846F83CBE
:104548000000006051CC783B00000080831BF039EC
:104558000000004020257A38000000802282E336DF
:10456800000000001DF36935020000000300000090
:08457800040000000600000031
:0845800054C4FF7F010000009C
:04458800BD01000869
:04458C009901000889
:104590000024F400100000000100000000040240AC
:1045A0000004024020001000E40000200000000091
:1045B000000000000000000000040240000402406F
:1045C000000400109C00002000000000000000001B
:1045D000000000000000024000000240040008004B
:1045E000E4000020080000000000000000000000BF
:1045F000000002400000024010002000E400002003
:104600000C00000000000000000000000000C84294
:0400000508001331AB
:00000001FF
