:020000040800F2
:10000000000001201D08000895070008A10700084E
:10001000A9070008B1070008B907000800000000A0
:10002000000000000000000000000000C107000800
:10003000CF07000800000000DD070008EB070008FC
:100040006D0800086D0800086D0800086D080008BC
:100050006D0800086D0800086D0800086D080008AC
:100060006D0800086D0800086D0800086D0800089C
:100070006D0800086D0800086D0800086D0800088C
:100080006D0800086D0800086D08000800000000F9
:100090000000000000000000000000006D080008E3
:1000A0006D0800086D0800086D0800086D0800085C
:1000B0006D0800086D0800086D0800086D0800084C
:1000C0006D0800086D0800086D0800086D0800083C
:1000D0006D0800086D0800086D08000800000000A9
:1000E0006D0800086D0800086D0800080000000099
:1000F0000000000000000000000000006D08000883
:10010000000000006D0800086D0800086D08000878
:1001100000000000000000000000000000000000DF
:100120006D0800086D0800086D0800086D080008DB
:100130006D08000800000000000000000000000042
:100140000000000000000000000000006D08000832
:100150006D0800086D0800086D0800086D080008AB
:100160006D0800086D080008000000000000000095
:10017000000000000000000000000000000000007F
:10018000000000006D0800080000000000000000F2
:040190006D080008EE
:1001940010B5054C237833B9044B13B10448AFF3BD
:1001A40000800123237010BD2800002000000000FF
:1001B400D030000808B5034B1BB103490348AFF323
:1001C400008008BD000000002C000020D030000892
:1001D40053B94AB9002908BF00281CBF4FF0FF31AA
:1001E4004FF0FF3000F06AB9ADF1080C6DE904CEB0
:1001F40000F006F8DDF804E0DDE9022304B07047FE
:100204002DE9F047089D0C46002B4ED194468C45B1
:100214008646B2FA82F262D94AB1C2F12003914011
:1002240020FA03F30CFA02FC194300FA02FE4FEA27
:100234001C471FFA8CF6B1FBF7F44FEA1E4307FB89
:10024400141143EA014304FB06F199420AD91CEB59
:10025400030304F1FF3080F01281994240F20F81D0
:10026400023C6344591A1FFA8EF3B1FBF7F007FB03
:10027400101143EA014300FB06F69E420AD91CEB27
:10028400030300F1FF3180F0FC809E4240F2F980CC
:10029400634402389B1B40EA044000211DB1D34053
:1002A4000022C5E90032BDE8F0878B4205D90DB1C3
:1002B400C5E9000100210846F5E7B3FA83F10029F6
:1002C40046D1A34202D39042C0F0F080861A64EB78
:1002D40003030120002DE6D0C5E90063E3E7002A0B
:1002E40040F09080A1EB0C044FEA1C481FFA8CF7F5
:1002F4000121B4FBF8F64FEA1E4308FB164443EA17
:10030400044307FB06F0984208D91CEB030306F1EB
:10031400FF3402D2984200F2CD8026461C1A1FFAFE
:100324008EF3B4FBF8F008FB104443EA044300FBEB
:1003340007F79F4208D91CEB030300F1FF3402D2F4
:100344009F4200F2B0802046DB1B40EA0640A5E74E
:10035400C1F120068B4022FA06F71F4320FA06FC5F
:1003640004FA01F343EA0C03F44000FA01F8380CF0
:100374004FEA1349B4FBF0FE1FFA87FC00FB1E444E
:1003840049EA04440EFB0CF9A14502FA01F20AD928
:100394003C190EF1FF3A80F08480A14540F281803F
:1003A400AEF1020E3C44A4EB09041FFA83F9B4FB3A
:1003B400F0F300FB134449EA044403FB0CFCA4459A
:1003C40007D93C1903F1FF3067D2A44565D9023B34
:1003D4003C4443EA0E40A0FB0293A4EB0C049C4271
:1003E400CE469C4651D34ED055B1B8EB0E0364EBC8
:1003F4000C0404FA06F6CB401E43CC40C5E9006465
:10040400002150E7C2F1200320FA03F10CFA02FCA8
:1004140024FA03F394400C434FEA1C4800FA02FE0A
:100424001FFA8CF7B3FBF8F008FB1031230C43EAF6
:10043400014300FB07F1994208D91CEB030300F1C7
:10044400FF362CD299422AD9023863445B1AA4B2EB
:10045400B3FBF8F108FB113344EA034401FB07F34F
:10046400A34208D91CEB040401F1FF3613D2A342C2
:1004740011D902396444E41A41EA004139E70446D7
:10048400F0E6084606E7C845AED2B9EB020E63EBC8
:10049400070C0138A8E73146EDE7034699E73046F3
:1004A400D4E7D6467FE7634402384DE70646234641
:1004B40008460FE7023E634430E700BF704700BFC1
:1004C40080B588B000AF07F10C0300221A605A60AF
:1004D4009A60DA601A610023BB60184B1B6B174AE1
:1004E40043F080031363154B1B6B03F08003BB6065
:1004F400BB6800237B60114B1B6B104A43F0020363
:1005040013630E4B1B6B03F002037B607B680022BA
:1005140010210B4800F086FC1023FB6001233B6193
:1005240000237B610023BB6107F10C0319460448D7
:1005340000F0F4FA00BF2037BD4680BD0038024009
:100544000004024080B500AF124B134A1A60114BED
:10055400124A5A600F4B00229A600E4B0022DA6056
:100564000C4B4FF480421A610A4B00225A61094B2A
:1005740000229A61074B0022DA61064B00221A62BC
:10058400044800F069FC0346002B01D000F0D2F8C7
:1005940000BF80BD4400002000540040801A0600C3
:1005A40080B58AB000AF786007F1140300221A60A6
:1005B4005A609A60DA601A617B681B68194A934230
:1005C4002BD100233B61184B1B6B174A43F00203EA
:1005D4001363154B1B6B03F002033B613B69C023A0
:1005E4007B611223BB610023FB6103233B62042371
:1005F4007B6207F1140319460C4800F08FFA0023BC
:10060400FB60094B1B6C084A43F400131364064B4C
:100614001B6C03F40013FB60FB6800BF2837BD4666
:1006240080BD00BF00540040003802400004024076
:1006340080B582B000AF00F019F900F00FF8FFF7B1
:100644003FFFFFF77FFF00220021034802F027FB52
:100654000346FB7100BFFDE70C00002080B594B099
:1006640000AF07F1200330220021184602F001FDFB
:1006740007F10C0300221A605A609A60DA601A616A
:100684000023BB60294B1B6C284A43F0805313643E
:10069400264B1B6C03F08053BB60BB6800237B605C
:1006A400234B1B6823F44043214A43F40043136063
:1006B4001F4B1B6803F440437B607B6801233B6250
:1006C4004FF4A0237B620223BB634FF48003FB63DC
:1006D40019233B64A8237B640223BB640423FB64C7
:1006E40007F12003184601F06FFE0346002B01D0EA
:1006F40000F020F80F23FB6002233B6100237B61A1
:100704004FF48053BB610023FB6107F10C0302210A
:10071400184602F0D1F80346002B01D000F00AF885
:1007240002F0B0F900BF5037BD4680BD003802402A
:100734000070004080B400AF72B600BF00BFFDE798
:1007440080B483B000AF00237B60104B5B6C0F4A16
:1007540043F4804353640D4B5B6C03F480437B6030
:100764007B6800233B60094B1B6C084A43F08053B1
:100774001364064B1B6C03F080533B603B6800BF63
:100784000C37BD465DF8047B704700BF003802405B
:1007940080B500AF02F068FA00BFFDE780B400AF97
:1007A40000BFFDE780B400AF00BFFDE780B400AF39
:1007B40000BFFDE780B400AF00BFFDE780B400AF29
:1007C40000BFBD465DF8047B704780B400AF00BF36
:1007D400BD465DF8047B704780B400AF00BFBD46E2
:1007E4005DF8047B704780B500AF00F091F800BF5E
:1007F40080BD000080B400AF064BD3F88830054AB2
:1008040043F47003C2F8883000BFBD465DF8047B32
:10081400704700BF00ED00E0DFF834D0FFF7EAFFD7
:100824000C480D490D4A002302E0D458C450043347
:10083400C4188C42F9D30A4A0A4C002301E013601D
:100844000432A242FBD302F01DFCFFF7F1FE704715
:1008540000000120000000202800002010310008C2
:10086400280000209C000020FEE7000080B500AFB7
:100874000E4B1B680D4A43F4007313600B4B1B684B
:100884000A4A43F480631360084B1B68074A43F425
:1008940080731360032000F00DF90F2000F008F8B6
:1008A400FFF74EFF0023184680BD00BF003C024006
:1008B40080B582B000AF7860124B1A68124B1B7877
:1008C40019464FF47A73B3FBF1F3B2FBF3F3184612
:1008D40000F017F90346002B01D001230EE07B68DA
:1008E4000F2B0AD8002279684FF0FF3000F0EDF8A2
:1008F400064A7B681360002300E00123184608378A
:10090400BD4680BD00000020080000200400002037
:1009140080B400AF064B1B781A46064B1B68134481
:10092400044A136000BFBD465DF8047B704700BFF6
:10093400080000209800002080B400AF034B1B681F
:100944001846BD465DF8047B704700BF9800002040
:1009540080B485B000AF78607B6803F00703FB6068
:100964000C4BDB68BB60BA684FF6FF031340BB60F7
:10097400FB681A02BB68134343F0BF6343F40033BC
:10098400BB60044ABB68D36000BF1437BD465DF842
:10099400047B704700ED00E080B400AF044BDB68DB
:1009A4001B0A03F007031846BD465DF8047B704735
:1009B40000ED00E080B483B000AF03463960FB7102
:1009C40097F90730002B0ADB3B68DAB20C4997F938
:1009D40007301201D2B20B4483F800230AE03B68CB
:1009E400DAB20849FB7903F00F03043B1201D2B2D7
:1009F4000B441A7600BF0C37BD465DF8047B704784
:100A040000E100E000ED00E080B489B000AFF860E0
:100A1400B9607A60FB6803F00703FB61FB69C3F10B
:100A24000703042B28BF0423BB61FB690433062B93
:100A340002D9FB69033B00E000237B614FF0FF32E6
:100A4400BB6902FA03F3DA43BB681A407B699A4034
:100A54004FF0FF317B6901FA03F3D9437B680B4004
:100A6400134318462437BD465DF8047B70470000E5
:100A740080B582B000AF78607B68013BB3F1807FC2
:100A840001D301230FE00A4A7B68013B53600F2125
:100A94004FF0FF30FFF78EFF054B00229A60044BA6
:100AA40007221A60002318460837BD4680BD00BFE0
:100AB40010E000E080B582B000AF78607868FFF79E
:100AC40047FF00BF0837BD4680BD80B586B000AF84
:100AD4000346B9607A60FB7300237B61FFF75CFF18
:100AE40078617A68B9687869FFF78EFF024697F9EA
:100AF4000F3011461846FFF75DFF00BF1837BD469B
:100B040080BD80B582B000AF78607868FFF7B0FF31
:100B1400034618460837BD4680BD000080B489B03E
:100B240000AF7860396000237B6100233B610023C0
:100B3400BB610023FB6159E10122FB6902FA03F363
:100B44007B613B681B687A6913403B613A697B6946
:100B54009A4240F048813B685B6803F00303012B31
:100B640005D03B685B6803F00303022B30D17B683C
:100B74009B68BB61FB695B00032202FA03F3DB435E
:100B8400BA691340BB613B68DA68FB695B0002FA2F
:100B940003F3BA691343BB617B68BA699A607B68E3
:100BA4005B68BB610122FB6902FA03F3DB43BA69A8
:100BB4001340BB613B685B681B0903F00102FB69DE
:100BC40002FA03F3BA691343BB617B68BA695A60DA
:100BD4003B685B6803F00303032B17D07B68DB6877
:100BE400BB61FB695B00032202FA03F3DB43BA69CE
:100BF4001340BB613B689A68FB695B0002FA03F32C
:100C0400BA691343BB617B68BA69DA603B685B68A5
:100C140003F00303022B23D1FB69DA087B68083253
:100C240053F82230BB61FB6903F007039B000F22DA
:100C340002FA03F3DB43BA691340BB613B681A69E8
:100C4400FB6903F007039B0002FA03F3BA69134339
:100C5400BB61FB69DA087B680832B96943F8221082
:100C64007B681B68BB61FB695B00032202FA03F328
:100C7400DB43BA691340BB613B685B6803F0030262
:100C8400FB695B0002FA03F3BA691343BB617B6837
:100C9400BA691A603B685B6803F44033002B00F0C8
:100CA400A2800023FB60574B5B6C564A43F480439D
:100CB4005364544B5B6C03F48043FB60FB68524AFF
:100CC400FB699B08023352F82330BB61FB6903F0D4
:100CD40003039B000F2202FA03F3DB43BA691340B8
:100CE400BB617B68494A934219D07B68484A934266
:100CF40013D07B68474A93420DD07B68464A93429F
:100D040007D07B68454A934201D1042308E00723B6
:100D140006E0032304E0022302E0012300E00023B1
:100D2400FA6902F0030292009340BA691343BB616B
:100D34003549FB699B080233BA6941F82320384BD3
:100D44009B68BB613B69DB43BA691340BB613B6889
:100D54005B6803F48013002B03D0BA693B69134327
:100D6400BB612F4ABB6993602D4BDB68BB613B6958
:100D7400DB43BA691340BB613B685B6803F400134F
:100D8400002B03D0BA693B691343BB61244ABB6996
:100D9400D360234B5B68BB613B69DB43BA69134097
:100DA400BB613B685B6803F40033002B03D0BA6972
:100DB4003B691343BB611A4ABB695360184B1B68F8
:100DC400BB613B69DB43BA691340BB613B685B6849
:100DD40003F48033002B03D0BA693B691343BB612E
:100DE4000F4ABB691360FB690133FB61FB690F2B7D
:100DF4007FF6A2AE00BF00BF2437BD465DF8047B7A
:100E0400704700BF00380240003801400000024033
:100E14000004024000080240000C0240001002409E
:100E2400003C014080B483B000AF78600B467B8007
:100E340013467B707B78002B03D07A887B689A6199
:100E440003E07B881A047B689A6100BF0C37BD46B7
:100E54005DF8047B7047000080B584B000AF786013
:100E64007B68002B01D101232BE17B6893F83D3093
:100E7400DBB2002B06D17B68002283F83C20786823
:100E8400FFF78EFB7B68242283F83D207B681B6878
:100E94001A687B681B6822F001021A607B681B6871
:100EA4001A687B681B6842F400421A607B681B68FE
:100EB4001A687B681B6822F400421A6001F0C0FEC5
:100EC400F8607B685B68814A934207D8FB68804A74
:100ED400934294BF01230023DBB206E0FB687D4A02
:100EE400934294BF01230023DBB2002B01D00123E2
:100EF400E7E0FB68784AA2FB03239B0CBB607B689A
:100F04001B685B6823F03F017B681B68BA680A436F
:100F14005A607B681B681B6A23F03F017B685B682F
:100F24006A4A934202D8BB68013309E0BB684FF4B4
:100F3400967202FB03F3694AA2FB03239B09013364
:100F44007A6812680B4313627B681B68DB6923F4BD
:100F54004F4222F0FF027B685B685C498B4219D8E0
:100F6400FB68591E7B685B685B00B1FBF3F3591C9B
:100F740040F6FC730B40002B0AD0FB68591E7B68BB
:100F84005B685B00B1FBF3F30133C3F30B0351E084
:100F940004234FE07B689B68002B11D1FB68581E2B
:100FA4007B6859680B465B000B44B0FBF3F30133D9
:100FB400C3F30B03002B0CBF01230023DBB212E0AD
:100FC400FB68581E7B6859680B469B000B449900CC
:100FD4000B44B0FBF3F30133C3F30B03002B0CBF3F
:100FE40001230023DBB2002B01D0012322E07B6824
:100FF4009B68002B0ED1FB68581E7B6859680B4612
:101004005B000B44B0FBF3F30133C3F30B0343F472
:1010140000430FE0FB68581E7B6859680B469B0031
:101024000B4499000B44B0FBF3F30133C3F30B03FC
:1010340043F44043796809681343CB617B681B68B8
:101044001B6823F0C0017B68DA697B681B6A1A435A
:101054007B681B680A431A607B681B689B6823F4DF
:10106400034323F0FF037A6811697A68D268114355
:101074007A6812680B4393607B681B68DB6823F013
:10108400FF017B685A697B689B691A437B681B680C
:101094000A43DA607B681B681A687B681B6842F045
:1010A40001021A607B6800221A647B68202283F89C
:1010B4003D207B6800221A637B68002283F83E206F
:1010C400002318461037BD4680BD00BFA08601002E
:1010D4007F841E00FF083D0083DE1B43D34D621056
:1010E40080B588B002AFF8607A601A460B467B81FF
:1010F40013463B81FFF720FC7861FB6893F83D3091
:10110400DBB2202B40F0E0807B690093192301229D
:101114007049F86800F022FF0346002B01D0022337
:10112400D3E0FB6893F83C30012B01D10223CCE0DF
:10113400FB68012283F83C20FB681B681B6803F0F2
:101144000103012B07D0FB681B681A68FB681B6846
:1011540042F001021A60FB681B681A68FB681B688E
:1011640022F400621A60FB68212283F83D20FB68A8
:10117400102283F83E20FB6800221A64FB687A6818
:101184005A62FB683A895A85FB685B8D9AB2FB68A0
:101194001A85FB68504ADA6279897B693A6AF86889
:1011A40000F0F6FC0346002B01D001238DE0002360
:1011B4003B61FB681B685B693B61FB681B689B695F
:1011C4003B613B6966E07A69396AF86800F0E0FFE0
:1011D4000346002B0DD0FB681B6C042B07D1FB6866
:1011E4001B681A68FB681B6842F400721A600123CA
:1011F4006BE0FB685B6A1A78FB681B681A61FB6822
:101204005B6A5A1CFB685A62FB685B8D9BB2013BAC
:101214009AB2FB685A85FB681B8D013B9AB2FB6846
:101224001A85FB681B685B6903F00403042B1BD15C
:10123400FB681B8D002B17D0FB685B6A1A78FB6870
:101244001B681A61FB685B6A5A1CFB685A62FB687C
:101254005B8D9BB2013B9AB2FB685A85FB681B8D80
:10126400013B9AB2FB681A857A69396AF86800F01A
:10127400D7FF0346002B0DD0FB681B6C042B07D152
:10128400FB681B681A68FB681B6842F400721A60EA
:1012940001231AE0FB681B8D002B94D1FB681B68AB
:1012A4001A68FB681B6842F400721A60FB6820220B
:1012B40083F83D20FB68002283F83E20FB6800226F
:1012C40083F83C20002300E0022318461837BD466B
:1012D40080BD00BF020010000000FFFF80B58CB08D
:1012E40002AFF8607A601A460B467B8113463B8155
:1012F400FFF722FB7862FB6893F83D30DBB2202BCA
:1013040040F017827B6A0093192301227C49F86814
:1013140000F024FE0346002B01D002230AE2FB68FE
:1013240093F83C30012B01D1022303E2FB68012234
:1013340083F83C20FB681B681B6803F00103012B46
:1013440007D0FB681B681A68FB681B6842F001023F
:101354001A60FB681B681A68FB681B6822F4006249
:101364001A60FB68222283F83D20FB68102283F870
:101374003E20FB6800221A64FB687A685A62FB68A4
:101384003A895A85FB685B8D9AB2FB681A85FB68BB
:101394005C4ADA6279897B6A3A6BF86800F07AFC15
:1013A4000346002B01D00123C4E1FB681B8D002BF5
:1013B40013D100233B62FB681B685B693B62FB68DB
:1013C4001B689B693B623B6AFB681B681A68FB6885
:1013D4001B6842F400721A6098E1FB681B8D012BB4
:1013E4001BD1FB681B681A68FB681B6822F48062C7
:1013F4001A600023FB61FB681B685B69FB61FB6887
:101404001B689B69FB61FB69FB681B681A68FB68C6
:101414001B6842F400721A6078E1FB681B8D022B92
:101424001BD1FB681B681A68FB681B6822F4806286
:101434001A60FB681B681A68FB681B6842F4006248
:101444001A600023BB61FB681B685B69BB61FB68B6
:101454001B689B69BB61BB6958E1FB681B681A6820
:10146400FB681B6842F480621A6000237B61FB689E
:101474001B685B697B61FB681B689B697B617B699B
:1014840044E1FB681B8D032B00F2F180FB681B8D8C
:10149400012B23D17A6A396BF86800F009FF0346FF
:1014A400002B01D0012345E1FB681B681A69FB6826
:1014B4005B6AD2B21A70FB685B6A5A1CFB685A6298
:1014C400FB681B8D013B9AB2FB681A85FB685B8D38
:1014D4009BB2013B9AB2FB685A8517E1FB681B8DEE
:1014E400022B4ED17B6A00933B6B00220649F868BD
:1014F40000F034FD0346002B08D001231AE100BF9D
:10150400020010000000FFFF04000100FB681B68DC
:101514001A68FB681B6842F400721A60FB681B6857
:101524001A69FB685B6AD2B21A70FB685B6A5A1C60
:10153400FB685A62FB681B8D013B9AB2FB681A85F3
:10154400FB685B8D9BB2013B9AB2FB685A85FB68D2
:101554001B681A69FB685B6AD2B21A70FB685B6A23
:101564005A1CFB685A62FB681B8D013B9AB2FB68EC
:101574001A85FB685B8D9BB2013B9AB2FB685A8566
:10158400C4E07B6A00933B6B00226C49F86800F06E
:10159400E5FC0346002B01D00123CBE0FB681B686C
:1015A4001A68FB681B6822F480621A60FB681B6877
:1015B4001A69FB685B6AD2B21A70FB685B6A5A1CD0
:1015C400FB685A62FB681B8D013B9AB2FB681A8563
:1015D400FB685B8D9BB2013B9AB2FB685A857B6AC0
:1015E40000933B6B00225549F86800F0B7FC0346B2
:1015F400002B01D001239DE0FB681B681A68FB687F
:101604001B6842F400721A60FB681B681A69FB6865
:101614005B6AD2B21A70FB685B6A5A1CFB685A6236
:10162400FB681B8D013B9AB2FB681A85FB685B8DD6
:101634009BB2013B9AB2FB685A85FB681B681A6926
:10164400FB685B6AD2B21A70FB685B6A5A1CFB685F
:101654005A62FB681B8D013B9AB2FB681A85FB68D2
:101664005B8D9BB2013B9AB2FB685A854EE07A6A65
:10167400396BF86800F01CFE0346002B01D00123EF
:1016840058E0FB681B681A69FB685B6AD2B21A707F
:10169400FB685B6A5A1CFB685A62FB681B8D013B42
:1016A4009AB2FB681A85FB685B8D9BB2013B9AB2C8
:1016B400FB685A85FB681B685B6903F00403042B11
:1016C40024D1FB681B8D032B07D1FB681B681A68A8
:1016D400FB681B6822F480621A60FB681B681A6945
:1016E400FB685B6AD2B21A70FB685B6A5A1CFB68BF
:1016F4005A62FB681B8D013B9AB2FB681A85FB6832
:101704005B8D9BB2013B9AB2FB685A85FB681B8DCB
:10171400002B7FF4B6AEFB68202283F83D20FB68E3
:10172400002283F83E20FB68002283F83C2000233B
:1017340000E0022318462837BD4680BD040001009E
:1017440080B588B002AFF860084611461A460346D1
:101754007B810B463B811346FB80FFF7EDF87861F4
:10176400FB6893F83D30DBB2202B40F0D9807B69D5
:101774000093192301226D49F86800F0EFFB03463A
:10178400002B01D00223CCE0FB6893F83C30012B02
:1017940001D10223C5E0FB68012283F83C20FB68E9
:1017A4001B681B6803F00103012B07D0FB681B684F
:1017B4001A68FB681B6842F001021A60FB681B6828
:1017C4001A68FB681B6822F400621A60FB68212215
:1017D40083F83D20FB68402283F83E20FB6800220A
:1017E4001A64FB683A6A5A62FB68BA8C5A85FB68C9
:1017F4005B8D9AB2FB681A85FB684D4ADA62F888F9
:101804003A8979897B690193BB6A00930346F86836
:1018140000F00EFB0346002B52D0012381E07A69CD
:10182400B96AF86800F0B4FC0346002B0DD0FB68DD
:101834001B6C042B07D1FB681B681A68FB681B68C8
:1018440042F400721A6001236BE0FB685B6A1A7849
:10185400FB681B681A61FB685B6A5A1CFB685A6266
:10186400FB681B8D013B9AB2FB681A85FB685B8D94
:101874009BB2013B9AB2FB685A85FB681B685B69A3
:1018840003F00403042B1BD1FB681B8D002B17D022
:10189400FB685B6A1A78FB681B681A61FB685B6A01
:1018A4005A1CFB685A62FB681B8D013B9AB2FB68A9
:1018B4001A85FB685B8D9BB2013B9AB2FB685A8523
:1018C400FB681B8D002BAAD17A69B96AF86800F00D
:1018D400A7FC0346002B0DD0FB681B6C042B07D11F
:1018E400FB681B681A68FB681B6842F400721A6084
:1018F400012316E0FB681B681A68FB681B6842F446
:1019040000721A60FB68202283F83D20FB680022E5
:1019140083F83E20FB68002283F83C20002300E08B
:10192400022318461837BD4680BD00BF02001000D0
:101934000000FFFF80B58AB002AFF8607A603B60B8
:101944000B467B81FEF7F8FFF8610023BB61FB685F
:1019540093F83D30DBB2202B40F01181FB690093FA
:10196400192301228849F86800F0F8FA0346002B8D
:1019740001D0022304E1FB6893F83C30012B01D130
:101984000223FDE0FB68012283F83C20FB681B680E
:101994001B6803F00103012B07D0FB681B681A685E
:1019A400FB681B6842F001021A60FB681B681A6836
:1019B400FB681B6822F400621A60FB68242283F827
:1019C4003D20FB6800221A64FB68704ADA62FB68F7
:1019D4001B681A68FB681B6842F480721A60FB6912
:1019E40000933B6800224FF00111F86800F0B6FA4A
:1019F4000346002B0DD0FB681B681B6803F480733F
:101A0400B3F5807F03D1FB684FF400721A6403239B
:101A1400B6E07B89DBB21A46FB681B6802F0FE0263
:101A24001A61FEF789FFF861FB681B685B6903F0C4
:101A34000203022B0CBF01230023DBB2FB75FB68FE
:101A44001B685B6903F48063B3F5806F0CBF0123EB
:101A54000023DBB2BB7525E0FEF76EFF0246FB698F
:101A6400D31A3A689A4202D33B68002B03D1FB682D
:101A7400A02283F83D20FB681B685B6903F0020326
:101A8400022B0CBF01230023DBB2FB75FB681B6830
:101A94005B6903F48063B3F5806F0CBF01230023FB
:101AA400DBB2BB75FB6893F83D30DBB2A02B05D0ED
:101AB400FB7D002B02D1BB7D002BCDD0FB68202207
:101AC40083F83D20FB681B685B6903F00203022B6B
:101AD40029D1FB681B681A68FB681B6842F4007212
:101AE4001A6000233B61FB681B685B693B61FB6810
:101AF4001B689B693B613B69FB69009319230122C5
:101B04002149F86800F02AFA0346002B01D001238A
:101B140036E0FB68202283F83D20FB68002283F82E
:101B24003C2000232CE0FB681B681A68FB681B68D8
:101B340042F400721A60FB681B686FF480625A6199
:101B4400FB690093192301220F49F86800F006FA93
:101B54000346002B01D0012312E0BB690133BB61B2
:101B6400BA697B689A42FFF432AFFB68202283F89B
:101B74003D20FB68002283F83C20012300E002237F
:101B840018462037BD4680BD020010000000FFFF4C
:101B940080B588B002AFF8607A603B600B467B8109
:101BA400FB68DB6A7B617B69082B06D07B69012BB0
:101BB40003D07B6913F5803F08D1FB681B681A6862
:101BC400FB681B6842F480721A600BE0FB681B6BB5
:101BD400122B07D1FB681B681A68FB681B6842F468
:101BE40080721A603B6800937B6800224FF00111F9
:101BF400F86800F0B3F90346002B0DD0FB681B68AE
:101C04001B6803F48073B3F5807F03D1FB684FF442
:101C140000721A64032335E0FB681B69B3F5804F37
:101C240008D17B89DBB21A46FB681B6802F0FE020E
:101C34001A611BE07B89DB11DBB203F00603DBB224
:101C440063F00F03DAB2FB681B681A613B687A68B9
:101C54000E49F86800F0FCF90346002B01D001237B
:101C640010E07B89DAB2FB681B681A613B687A680A
:101C74000749F86800F0ECF90346002B01D0012372
:101C840000E0002318461837BD4680BD0800010057
:101C94000200010080B588B002AFF8607A603B6052
:101CA4000B467B81FB68DB6A7B61FB681B681A68F7
:101CB400FB681B6842F480621A607B69082B06D0BB
:101CC4007B69012B03D07B6913F5803F08D1FB6846
:101CD4001B681A68FB681B6842F480721A600BE088
:101CE400FB681B6B112B07D1FB681B681A68FB6828
:101CF4001B6842F480721A603B6800937B68002280
:101D04004FF00111F86800F029F90346002B0DD0BB
:101D1400FB681B681B6803F48073B3F5807F03D1F1
:101D2400FB684FF400721A64032379E0FB681B69B3
:101D3400B3F5804F08D17B89DBB243F00103DAB2FB
:101D4400FB681B681A615FE07B89DB11DBB203F07F
:101D54000603DBB263F00F03DAB2FB681B681A6197
:101D64003B687A683049F86800F072F90346002B42
:101D740001D0012354E07B89DAB2FB681B681A6145
:101D84003B687A682949F86800F062F90346002B39
:101D940001D0012344E000233B61FB681B685B69BD
:101DA4003B61FB681B689B693B613B69FB681B6883
:101DB4001A68FB681B6842F480721A603B680093DF
:101DC4007B6800224FF00111F86800F0C7F8034661
:101DD400002B0DD0FB681B681B6803F48073B3F5FC
:101DE400807F03D1FB684FF400721A64032317E069
:101DF4007B89DB11DBB203F00603DBB263F00E0375
:101E0400DAB2FB681B681A613B687A680749F868AC
:101E140000F01EF90346002B01D0012300E000234B
:101E240018461837BD4680BD0800010002000100B5
:101E340080B588B002AFF860084611461A460346DA
:101E44007B810B463B811346FB80FB681B681A6849
:101E5400FB681B6842F480721A607B6A00933B6AD9
:101E640000224FF00111F86800F078F80346002BC7
:101E74000DD0FB681B681B6803F48073B3F5807F87
:101E840003D1FB684FF400721A6403235FE07B897B
:101E9400DBB21A46FB681B6802F0FE021A617B6A19
:101EA4003A6A2D49F86800F0D3F80346002B01D0B4
:101EB40001234CE000237B61FB681B685B697B6149
:101EC400FB681B689B697B617B697A6A396AF8687D
:101ED40000F05EF90346002B0DD0FB681B6C042B4D
:101EE40007D1FB681B681A68FB681B6842F4007220
:101EF4001A6001232BE0FB88012B05D13B89DAB260
:101F0400FB681B681A6121E03B891B0A9BB2DAB2A9
:101F1400FB681B681A617A6A396AF86800F038F954
:101F24000346002B0DD0FB681B6C042B07D1FB6808
:101F34001B681A68FB681B6842F400721A6001236C
:101F440005E03B89DAB2FB681B681A610023184676
:101F54001837BD4680BD00BF0200010080B584B0C3
:101F640000AFF860B9603B601346FB7148E03B6822
:101F7400B3F1FF3F44D0FEF7DFFC0246BB69D31A3E
:101F84003A689A4202D33B68002B39D1BB681B0CD8
:101F9400DBB2012B0DD1FB681B685B69DA43BB68BC
:101FA40013409BB2002B0CBF01230023DBB21A4663
:101FB4000CE0FB681B689B69DA43BB6813409BB267
:101FC400002B0CBF01230023DBB21A46FB799A4293
:101FD40016D1FB6800221A63FB68202283F83D2097
:101FE400FB68002283F83E20FB681B6C43F0200250
:101FF400FB681A64FB68002283F83C20012323E079
:10200400BB681B0CDBB2012B0DD1FB681B685B6941
:10201400DA43BB6813409BB2002B0CBF012300239F
:10202400DBB21A460CE0FB681B689B69DA43BB68A9
:1020340013409BB2002B0CBF01230023DBB21A46D2
:10204400FB799A4293D0002318461037BD4680BDD1
:1020540080B584B000AFF860B9607A603B6071E02D
:10206400FB681B685B6903F48063B3F5806F23D15D
:10207400FB681B681A68FB681B6842F400721A60EC
:10208400FB681B686FF480625A61FB6800221A6364
:10209400FB68202283F83D20FB68002283F83E2061
:1020A400FB681B6C43F00402FB681A64FB680022A3
:1020B40083F83C20012367E07B68B3F1FF3F41D004
:1020C400FEF73AFC02463B68D31A7A689A4202D376
:1020D4007B68002B36D1BB681B0CDBB2012B0CD107
:1020E400FB681B685B69DA43BB6813409BB2002B37
:1020F40014BF01230023DBB20BE0FB681B689B6960
:10210400DA43BB6813409BB2002B14BF01230023A6
:10211400DBB2002B16D0FB6800221A63FB68202276
:1021240083F83D20FB68002283F83E20FB681B6C8B
:1021340043F02002FB681A64FB68002283F83C2009
:10214400012321E0BB681B0CDBB2012B0CD1FB6823
:102154001B685B69DA43BB6813409BB2002B14BF56
:1021640001230023DBB20BE0FB681B689B69DA43A5
:10217400BB6813409BB2002B14BF01230023DBB2C6
:10218400002B7FF46DAF002318461037BD4680BD89
:1021940080B584B000AFF860B9607A6034E0F86864
:1021A40000F0E3F80346002B01D0012334E0BB68C0
:1021B400B3F1FF3F28D0FEF7BFFB02467B68D31A7A
:1021C400BA689A4202D3BB68002B1DD1FB681B6816
:1021D4005B6903F08003802B16D0FB6800221A632E
:1021E400FB68202283F83D20FB68002283F83E2010
:1021F400FB681B6C43F02002FB681A64FB68002236
:1022040083F83C20012307E0FB681B685B6903F04B
:102214008003802BC3D1002318461037BD4680BDF0
:1022240080B584B000AFF860B9607A6034E0F868D3
:1022340000F09BF80346002B01D0012334E0BB6877
:10224400B3F1FF3F28D0FEF777FB02467B68D31A31
:10225400BA689A4202D3BB68002B1DD1FB681B6885
:102264005B6903F00403042B16D0FB6800221A6395
:10227400FB68202283F83D20FB68002283F83E207F
:10228400FB681B6C43F02002FB681A64FB680022A5
:1022940083F83C20012307E0FB681B685B6903F0BB
:1022A4000403042BC3D1002318461037BD4680BD58
:1022B40080B584B000AFF860B9607A6049E0FB682B
:1022C4001B685B6903F01003102B19D1FB681B68B2
:1022D4006FF010025A61FB6800221A63FB68202227
:1022E40083F83D20FB68002283F83E20FB681A6CCB
:1022F400FB681A64FB68002283F83C20012330E069
:10230400FEF71AFB02467B68D31ABA689A4202D3D4
:10231400BB68002B1DD1FB681B685B6903F040039D
:10232400402B16D0FB6800221A63FB68202283F836
:102334003D20FB68002283F83E20FB681B6C43F0C1
:102344002002FB681A64FB68002283F83C20012306
:1023540007E0FB681B685B6903F04003402BAED1C8
:10236400002318461037BD4680BD80B483B000AF4B
:1023740078607B681B685B6903F48063B3F5806FE6
:102384001BD17B681B686FF480625A617B680022F2
:102394001A637B68202283F83D207B68002283F83F
:1023A4003E207B681B6C43F004027B681A647B68E4
:1023B400002283F83C20012300E0002318460C3758
:1023C400BD465DF8047B704780B586B000AF786089
:1023D4007B68002B01D1012367E27B681B6803F053
:1023E4000103002B75D0884B9B6803F00C03042B6E
:1023F4000CD0854B9B6803F00C03082B12D1824B45
:102404005B6803F48003B3F5800F0BD17E4B1B682C
:1024140003F40033002B5BD07B685B68002B57D13F
:10242400012342E27B685B68B3F5803F06D1764BBB
:102434001B68754A43F4803313601DE07B685B6856
:10244400B3F5A02F0CD1704B1B686F4A43F4802363
:1024540013606D4B1B686C4A43F4803313600BE0CC
:10246400694B1B68684A23F480331360664B1B680E
:10247400654A23F4802313607B685B68002B13D0C8
:10248400FEF75AFA386108E0FEF756FA02463B694D
:10249400D31A642B01D9032307E25B4B1B6803F4B3
:1024A4000033002BF0D014E0FEF746FA386108E060
:1024B400FEF742FA02463B69D31A642B01D903237F
:1024C400F3E1514B1B6803F40033002BF0D100E01F
:1024D40000BF7B681B6803F00203002B63D04A4BE8
:1024E4009B6803F00C03002B0BD0474B9B6803F055
:1024F4000C03082B1CD1444B5B6803F48003002BB2
:1025040016D1414B1B6803F00203002B05D07B68F6
:10251400DB68012B01D00123C7E13B4B1B6823F08F
:10252400F8027B681B69DB00374913430B603AE010
:102534007B68DB68002B20D0344B01221A60FEF745
:10254400FBF9386108E0FEF7F7F902463B69D31A54
:10255400022B01D90323A8E12B4B1B6803F00203D0
:10256400002BF0D0284B1B6823F0F8027B681B6912
:10257400DB00254913430B6015E0244B00221A604D
:10258400FEF7DAF9386108E0FEF7D6F902463B694E
:10259400D31A022B01D9032387E11B4B1B6803F0D9
:1025A4000203002BF0D17B681B6803F00803002BA7
:1025B40036D07B685B69002B16D0154B01221A605C
:1025C400FEF7BAF9386108E0FEF7B6F902463B694E
:1025D400D31A022B01D9032367E10B4B5B6F03F082
:1025E4000203002BF0D01BE0094B00221A60FEF717
:1025F400A3F938610EE0FEF79FF902463B69D31A4E
:10260400022B07D9032350E100380240000047425F
:10261400800E4742884B5B6F03F00203002BEAD124
:102624007B681B6803F00403002B00F097800023F1
:10263400FB75814B1B6C03F08053002B0FD10023DF
:10264400BB607D4B1B6C7C4A43F0805313647A4B14
:102654001B6C03F08053BB60BB680123FB75774B95
:102664001B6803F48073002B18D1744B1B68734AE6
:1026740043F480731360FEF75FF9386108E0FEF7F6
:102684005BF902463B69D31A022B01D903230CE1FF
:102694006A4B1B6803F48073002BF0D07B689B6843
:1026A400012B06D1644B1B6F634A43F0010313678C
:1026B4001CE07B689B68052B0CD15F4B1B6F5E4A4B
:1026C40043F0040313675C4B1B6F5B4A43F0010345
:1026D40013670BE0584B1B6F574A23F00103136732
:1026E400554B1B6F544A23F0040313677B689B68A4
:1026F400002B15D0FEF720F938610AE0FEF71CF92B
:1027040002463B69D31A41F28832934201D903232A
:10271400CBE0494B1B6F03F00203002BEED014E017
:10272400FEF70AF938610AE0FEF706F902463B694A
:10273400D31A41F28832934201D90323B5E03E4BC8
:102744001B6F03F00203002BEED1FB7D012B05D19F
:10275400394B1B6C384A23F0805313647B689B69A4
:10276400002B00F0A180344B9B6803F00C03082B72
:102774005CD07B689B69022B41D1314B00221A60EB
:10278400FEF7DAF8386108E0FEF7D6F802463B694E
:10279400D31A022B01D9032387E0274B1B6803F0CC
:1027A4000073002BF0D17B68DA697B681B6A1A43DB
:1027B4007B685B6A9B011A437B689B6A5B08013BED
:1027C4001B041A437B68DB6A1B061B4913434B60DB
:1027D4001B4B01221A60FEF7AFF8386108E0FEF7E0
:1027E400ABF802463B69D31A022B01D903235CE000
:1027F400114B1B6803F00073002BF0D054E0104B16
:1028040000221A60FEF798F8386108E0FEF794F8A1
:1028140002463B69D31A022B01D9032345E0064B38
:102824001B6803F00073002BF0D13DE07B689B69CB
:10283400012B07D1012338E000380240007000402A
:10284400600047421B4B5B68FB607B689B69012B04
:1028540028D0FB6803F480027B68DB699A4221D1AB
:10286400FB6803F03F027B681B6A9A421AD1FA683C
:1028740047F6C07313407A68526A9201934211D1A9
:10288400FB6803F440327B689B6A5B08013B1B04D2
:102894009A4207D1FB6803F070627B68DB6A1B060F
:1028A4009A4201D0012300E0002318461837BD46A0
:1028B40080BD00BF0038024080B584B000AF7860AE
:1028C40039607B68002B01D10123CCE0684B1B6885
:1028D40003F007033A689A420CD9654B3A68D2B2BE
:1028E4001A70634B1B6803F007033A689A4201D0DD
:1028F4000123B8E07B681B6803F00203002B20D09F
:102904007B681B6803F00403002B05D0594B9B68BC
:10291400584A43F4E05393607B681B6803F0080350
:10292400002B05D0534B9B68524A43F46043936099
:10293400504B9B6823F0F0027B689B684D4913431E
:102944008B607B681B6803F00103002B44D07B6819
:102954005B68012B07D1474B1B6803F40033002B42
:1029640019D101237FE07B685B68022B03D07B686D
:102974005B68032B07D13F4B1B6803F00073002BEC
:1029840009D101236FE03B4B1B6803F00203002BCA
:1029940001D1012367E0374B9B6823F003027B6876
:1029A4005B68344913438B60FDF7C6FFF8600AE0A7
:1029B400FDF7C2FF0246FB68D31A41F28832934204
:1029C40001D903234FE02B4B9B6803F00C027B6877
:1029D4005B689B009A42EBD1254B1B6803F007030D
:1029E4003A689A420CD2224B3A68D2B21A70204BFF
:1029F4001B6803F007033A689A4201D0012332E0CE
:102A04007B681B6803F00403002B08D0194B9B68F8
:102A140023F4E0527B68DB68164913438B607B68C0
:102A24001B6803F00803002B09D0124B9B6823F4A6
:102A340060427B681B69DB000E4913438B6000F026
:102A44002DF802460B4B9B681B0903F00F030A4940
:102A5400CB5C22FA03F3094A1360094B1B6818463E
:102A6400FDF726FF002318461037BD4680BD00BF82
:102A7400003C024000380240E8300008000000201A
:102A84000400002080B400AF034B01221A6000BF91
:102A9400BD465DF8047B70474C0047422DE9B04FBA
:102AA40090B000AF00237B630023FB6300233B63F0
:102AB4000023BB63594B9B6803F00C03082B0DD018
:102AC400082B00F2A180002B02D0042B03D09BE042
:102AD400534BBB639BE0534BBB6398E04F4B5B682A
:102AE40003F03F037B634D4B5B6803F48003002BCF
:102AF40028D04A4B5B689B0900223B627A623B6A9E
:102B0400C3F308000021474B03FB01F2002300FB41
:102B140003F31344434AA0FB0212FA620A46BA6260
:102B2400FA6A1344FB627B6B0022BB61FA61D7E94A
:102B34000623D7E90A01FDF74BFB02460B46134671
:102B4400FB6353E0354B5B689B0900223B617A6170
:102B54003B69C3F3080A4FF0000B52465B464FF043
:102B640000004FF00001590141EAD26150010246D0
:102B74000B46B2EB0A0863EB0B094FF000024FF06F
:102B840000034FEA891343EA98634FEA8812B2EBD1
:102B9400080463EB09054FF000024FF00003EB005B
:102BA40043EA5473E20014461D4614EB0A033B60E7
:102BB40045EB0B037B604FF000024FF00003D7E9B5
:102BC400004529468B02214643EA915321468A0255
:102BD400104619467B6B0022BB60FA60D7E90223DA
:102BE400FDF7F6FA02460B461346FB630B4B5B6894
:102BF4001B0C03F0030301335B003B63FA6B3B6B79
:102C0400B2FBF3F3BB6302E0054BBB6300BFBB6BDA
:102C140018464037BD46BDE8B08F00BF00380240BB
:102C24000024F40040787D0180B400AF034B1B689E
:102C34001846BD465DF8047B704700BF00000020C5
:102C440080B500AFFFF7F0FF0246054B9B689B0A77
:102C540003F007030349CB5C22FA03F3184680BD53
:102C640000380240F830000880B500AF064BDB683E
:102C740003F08003802B04D100F00AF8034B802278
:102C84001A7000BF80BD00BF003802400E380240F9
:102C940080B400AF00BFBD465DF8047B704780B5CB
:102CA40086B002AF78600B46FB701346BB700023FE
:102CB400FB730023FB727B68002B02D10123FB739F
:102CC40062E07523BB727B6858687B681B78194681
:102CD40005230222FEF72EFE0346002B01D001231A
:102CE40053E07B6858687B681B78194607F10A0231
:102CF4004FF47A7300930123FEF7F2F90346002B95
:102D040001D0012341E07B6858687B681B78194631
:102D140007F10B024FF47A7300930123FEF7DEFAF6
:102D24000346002B03D001232FE001232DE000BF35
:102D3400FB7A682BF9D16B233B7300237B737B688D
:102D440058687B681B78194607F10C024FF47A73B4
:102D540000930223FEF7C4F90346002B01D001239C
:102D640013E00021786800F01DF9FB7819467868B3
:102D740000F096F8BB781946786800F00BF878688C
:102D840000F03CF90023FB73FB7B18461037BD466B
:102D940080BD000080B586B002AF78600B46FB7042
:102DA4000023FB731B23BB7300237B737B68002B03
:102DB40004D10123FB7366E0012365E000BF7B6857
:102DC40058687B681B78194607F10E024FF47A7332
:102DD40000930123FEF784F90346002BECD101E0B4
:102DE400012351E07B6858687B681B78194607F11A
:102DF4000D024FF47A7300930123FEF76FFA034632
:102E0400002BEDD17B7B5BB223F018035AB2FB7825
:102E1400DB005BB213435BB2DBB27B7300BF7B6846
:102E240058687B681B78194607F10D024FF47A73D2
:102E340000930123FEF754F90346002B01D001232C
:102E440022E0FB78032B1BD801A252F823F000BF29
:102E5400652E00086D2E0008752E00087D2E0008D2
:102E64007B680B4A9A600CE07B680A4A9A6008E027
:102E74007B68094A9A6004E07B68084A9A6000E02B
:102E840000BF0023FB73FB7B18461037BD4680BD93
:102E94002D23FA3B2D237A3C90C1F93C90C1793D16
:102EA40080B586B002AF78600B46FB700023FB73DD
:102EB4001C23BB7300237B737B68002B04D1012389
:102EC400FB736AE0012369E000BF7B6858687B6894
:102ED4001B78194607F10E024FF47A73009301230D
:102EE400FEF7FEF80346002BECD101E0012355E088
:102EF4007B6858687B681B78194607F10D024FF40C
:102F04007A7300930123FEF7E9F90346002BEDD110
:102F14007B7B5BB223F018035AB2FB78DB005BB215
:102F240013435BB2DBB27B7300BF7B6858687B687A
:102F34001B78194607F10D024FF47A7300930123AD
:102F4400FEF7CEF80346002B01D0012326E0FB78E0
:102F5400032B1FD801A252F823F000BF712F0008E1
:102F64007B2F0008852F00088F2F00087B684FF007
:102F74006252DA600FE07B684FF06452DA600AE074
:102F84007B684FF06652DA6005E07B684FF0685268
:102F9400DA6000E000BF0023FB73FB7B18461037A8
:102FA400BD4680BD80B586B002AF78600B46FB702D
:102FB4000023FB7319233B73FB787B737B68002B23
:102FC40004D10123FB7314E0012313E000BF7B68E9
:102FD40058687B681B78194607F10C024FF47A7322
:102FE40000930223FEF77CF80346002BECD1002368
:102FF400FB73FB7B18461037BD4680BD80B588B097
:1030040004AF78600023FB730023BB737B68002B41
:1030140002D10123FB7327E09023BB737B685868BC
:103024007B681B7819464FF47A730293012301934A
:1030340007F10E03009301233722FEF781FB0123DE
:10304400BB737B6858687B681B7819464FF47A73A6
:1030540002930123019307F10E0300930123382205
:10306400FEF76EFB0023FB73FB7B18461037BD464F
:1030740080BD02440346934200D1704703F8011B0C
:10308400F9E7000070B50D4D0D4C641BA41000262B
:10309400A64209D10B4D0C4C00F018F8641BA41087
:1030A4000026A64205D170BD55F8043B9847013669
:1030B400EEE755F8043B98470136F2E7083100087B
:1030C40008310008083100080C310008F8B500BFC9
:1030D400F8BC08BC9E467047F8B500BFF8BC08BCF5
:0430E4009E4670474D
:1030E80000000000000000000102030406070809B0
:0830F8000000000001020304C6
:0831000004D1FF7F0100000073
:04310800B901000801
:04310C009501000821
:103110000024F4001000000001000000D0000000B6
:10312000440000200000000000000000000000003B
:08313000000000000000000097
:040000050800081DCA
:00000001FF
