:020000040800F2
:1000000000000120D93200080D2D0008192D00082C
:10001000212D0008292D0008312D000800000000C6
:1000200000000000000000000000000041D10008B6
:10003000392D00080000000091D3000821A300081A
:100040002933000829330008293300082933000820
:100050002933000829330008293300082933000810
:100060002933000829330008293300082933000800
:1000700029330008293300082933000829330008F0
:100080002933000829330008293300080000000044
:1000900000000000000000000000000029330008FC
:1000A00029330008492D00082933000829330008A6
:1000B000293300085D2D0008712D00082933000840
:1000C00029330008293300082933000829330008A0
:1000D00029330008852D000829330008000000009E
:1000E000992D00082933000829330008000000007A
:1000F000000000000000000000000000293300089C
:1001000000000000293300082933000829330008C3
:1001100000000000000000000000000000000000DF
:10012000293300082933000829330008293300083F
:10013000293300080000000000000000000000005B
:10014000000000000000000000000000293300084B
:10015000293300082933000829330008293300080F
:1001600029330008293300080000000000000000C7
:10017000000000000000000000000000000000007F
:10018000000000002933000800000000000000000B
:040190002933000807
:1001A00010B5054C237833B9044B13B10448AFF3B1
:1001B00000800123237010BD5804002000000000BF
:1001C0008CE6000808B5034B1BB103490348AFF3A5
:1001D000008008BD000000005C0400208CE60008E0
:1001E00081F0004102E000BF83F0004330B54FEAE8
:1001F00041044FEA430594EA050F08BF90EA020F55
:100200001FBF54EA000C55EA020C7FEA645C7FEAE7
:10021000655C00F0E2804FEA5454D4EB5555B8BF0A
:100220006D420CDD2C4480EA020281EA030382EA7B
:10023000000083EA010180EA020281EA0303362D0D
:1002400088BF30BD11F0004F4FEA01314FF4801CE0
:100250004CEA113102D0404261EB410113F0004FF2
:100260004FEA03334CEA133302D0524263EB4303A9
:1002700094EA050F00F0A780A4F10104D5F1200E47
:100280000DDB02FA0EFC22FA05F2801841F10001A2
:1002900003FA0EF2801843FA05F359410EE0A5F176
:1002A00020050EF1200E012A03FA0EFC28BF4CF0A7
:1002B000020C43FA05F3C01851EBE37101F000455D
:1002C00007D54FF0000EDCF1000C7EEB00006EEB6A
:1002D0000101B1F5801F1BD3B1F5001F0CD34908F4
:1002E0005FEA30004FEA3C0C04F101044FEA44524B
:1002F00012F5800F80F09A80BCF1004F08BF5FEAD2
:10030000500C50F1000041EB045141EA050130BDB1
:100310005FEA4C0C404141EB0101013C28BFB1F5C3
:10032000801FE9D291F0000F04BF01460020B1FA0E
:1003300081F308BF2033A3F10B03B3F120020CDAE1
:100340000C3208DD02F1140CC2F10C0201FA0CF0BF
:1003500021FA02F10CE002F11402D8BFC2F1200C24
:1003600001FA02F120FA0CFCDCBF41EA0C019040DA
:10037000E41AA2BF01EB0451294330BD6FEA040423
:100380001F3C1CDA0C340EDC04F11404C4F120020E
:1003900020FA04F001FA02F340EA030021FA04F320
:1003A00045EA030130BDC4F10C04C4F1200220FA77
:1003B00002F001FA04F340EA0300294630BD21FAB5
:1003C00004F0294630BD94F0000F83F4801306BF7B
:1003D00081F480110134013D4EE77FEA645C18BF6F
:1003E0007FEA655C29D094EA050F08BF90EA020F06
:1003F00005D054EA000C04BF1946104630BD91EAFE
:10040000030F1EBF0021002030BD5FEA545C05D100
:100410004000494128BF41F0004130BD14F580043F
:100420003CBF01F5801130BD01F0004545F0FE41B3
:1004300041F470014FF0000030BD7FEA645C1ABFE8
:10044000194610467FEA655C1CBF0B46024650EA1F
:10045000013406BF52EA033591EA030F41F400214B
:1004600030BD00BF90F0000F04BF0021704730B5D1
:100470004FF4806404F132044FF000054FF00001A6
:1004800050E700BF90F0000F04BF0021704730B567
:100490004FF4806404F1320410F0004548BF40423C
:1004A0004FF000013EE700BF42004FEAE2014FEA91
:1004B00031014FEA02701FBF12F07F4393F07F4F6C
:1004C00081F06051704732F07F4208BF704793F06F
:1004D0007F4F04BF41F40021704730B54FF4607482
:1004E00001F0004521F000411CE700BF50EA010285
:1004F00008BF704730B54FF000050AE050EA01022E
:1005000008BF704730B511F0004502D5404261EB9D
:1005100041014FF4806404F132045FEA915C3FF4DE
:10052000D8AE4FF003025FEADC0C18BF03325FEA7B
:10053000DC0C18BF033202EBDC02C2F1200300FA2C
:1005400003FC20FA02F001FA03FE40EA0E0021FA51
:1005500002F11444BDE600BF70B54FF0FF0C4CF43F
:10056000E06C1CEA11541DBF1CEA135594EA0C0FF1
:1005700095EA0C0F00F0DEF82C4481EA030621EA2C
:100580004C5123EA4C5350EA013518BF52EA033567
:1005900041F4801143F4801338D0A0FB02CE4FF019
:1005A0000005E1FB02E506F00042E0FB03E54FF049
:1005B0000006E1FB03569CF0000F18BF4EF0010E41
:1005C000A4F1FF04B6F5007F64F5407404D25FEA3D
:1005D0004E0E6D4146EB060642EAC62141EA5551F0
:1005E0004FEAC52040EA5E504FEACE2EB4F1FD0C32
:1005F00088BFBCF5E06F1ED8BEF1004F08BF5FEAB0
:10060000500E50F1000041EB045170BD06F0004661
:1006100046EA010140EA020081EA0301B4EB5C040E
:10062000C2BFD4EB0C0541EA045170BD41F4801106
:100630004FF0000E013C00F3AB8014F1360FDEBF2B
:10064000002001F0004170BDC4F10004203C35DA07
:100650000C341BDC04F11404C4F1200500FA05F38A
:1006600020FA04F001FA05F240EA020001F000422B
:1006700021F0004110EBD37021FA04F642EB0601A1
:100680005EEA430E08BF20EAD37070BDC4F10C04CB
:10069000C4F1200500FA04F320FA05F001FA04F28F
:1006A00040EA020001F0004110EBD37041F100017B
:1006B0005EEA430E08BF20EAD37070BDC4F1200586
:1006C00000FA05F24EEA020E20FA04F301FA05F2EE
:1006D00043EA020321FA04F001F0004121FA04F296
:1006E00020EA020000EBD3705EEA430E08BF20EA66
:1006F000D37070BD94F0000F0FD101F000464000A0
:1007000041EB010111F4801F08BF013CF7D041EA21
:10071000060195F0000F18BF704703F00046520025
:1007200043EB030313F4801F08BF013DF7D043EAF6
:100730000603704794EA0C0F0CEA135518BF95EAAC
:100740000C0F0CD050EA410618BF52EA4306D1D133
:1007500081EA030101F000414FF0000070BD50EA52
:10076000410606BF1046194652EA430619D094EADC
:100770000C0F02D150EA013613D195EA0C0F05D1C6
:1007800052EA03361CBF104619460AD181EA03011A
:1007900001F0004141F0FE4141F470014FF00000D2
:1007A00070BD41F0FE4141F4780170BD70B54FF06D
:1007B000FF0C4CF4E06C1CEA11541DBF1CEA1355ED
:1007C00094EA0C0F95EA0C0F00F0A7F8A4EB0504CF
:1007D00081EA030E52EA03354FEA013100F08880C6
:1007E0004FEA03334FF0805545EA131343EA12638F
:1007F0004FEA022245EA111545EA10654FEA002644
:100800000EF000419D4208BF964244F1FD0404F5FC
:10081000407402D25B084FEA3202B61A65EB030558
:100820005B084FEA32024FF480104FF4002CB6EB15
:10083000020E75EB030E22BFB61A754640EA0C0095
:100840005B084FEA3202B6EB020E75EB030E22BFD5
:10085000B61A754640EA5C005B084FEA3202B6EB16
:10086000020E75EB030E22BFB61A754640EA9C00D5
:100870005B084FEA3202B6EB020E75EB030E22BFA5
:10088000B61A754640EADC0055EA060E18D04FEA63
:10089000051545EA16754FEA06164FEAC30343EA03
:1008A00052734FEAC2025FEA1C1CC0D111F4801FD0
:1008B0000BD141EA00014FF000004FF0004CB6E7C9
:1008C00011F4801F04BF01430020B4F1FD0C88BF68
:1008D000BCF5E06F3FF6AFAEB5EB030C04BFB6EB73
:1008E000020C5FEA500C50F1000041EB045170BD66
:1008F0000EF0004E4EEA113114EB5C04C2BFD4EB93
:100900000C0541EA045170BD41F480114FF0000E16
:10091000013C90E645EA060E8DE60CEA135594EA92
:100920000C0F08BF95EA0C0F3FF43BAF94EA0C0F95
:100930000AD150EA01347FF434AF95EA0C0F7FF40A
:1009400025AF104619462CE795EA0C0F06D152EA5E
:1009500003353FF4FDAE1046194622E750EA410642
:1009600018BF52EA43067FF4C5AE50EA41047FF453
:100970000DAF52EA43057FF4EBAE12E74FF0FF3CB8
:1009800006E000BF4FF0010C02E000BF4FF0010C89
:100990004DF804CD4FEA410C7FEA6C5C4FEA430C02
:1009A00018BF7FEA6C5C1BD001B050EA410C0CBF51
:1009B00052EA430C91EA030F02BF90EA020F0020B3
:1009C000704710F1000F91EA030F58BF994208BF1A
:1009D00090422CBFD8176FEAE37040F001007047D7
:1009E0004FEA410C7FEA6C5C02D150EA013C07D12E
:1009F0004FEA430C7FEA6C5CD6D152EA033CD3D079
:100A00005DF8040B704700BF8446104662468C4672
:100A10001946634600E000BF01B5FFF7B7FF0028A5
:100A200048BF10F1000F01BD4DF808EDFFF7F4FFCE
:100A30000CBF012000205DF808FB00BF4DF808ED59
:100A4000FFF7EAFF34BF012000205DF808FB00BF7C
:100A50004DF808EDFFF7E0FF94BF012000205DF89E
:100A600008FB00BF4DF808EDFFF7CEFF94BF012053
:100A700000205DF808FB00BF4DF808EDFFF7C4FF4C
:100A800034BF012000205DF808FB00BF4FEA410C95
:100A90007FEA6C5C02D150EA013C0AD14FEA430C78
:100AA0007FEA6C5C02D152EA033C02D14FF00000B5
:100AB00070474FF0010070474FEA410212F50012F3
:100AC00015D211D56FF47873B3EB625212D94FEA95
:100AD000C12343F0004343EA505311F0004F23FA7F
:100AE00002F018BF404270474FF00000704750EAD4
:100AF000013005D111F0004008BF6FF00040704791
:100B00004FF00000704700BF4FEA4102B2F1E043EE
:100B100024BFB3F5001CDCF1FE5C0DD901F0004CE4
:100B20004FEAC0024CEA5070B2F1004F40EB830034
:100B300008BF20F00100704711F0804F21D113F160
:100B40003872BCBF01F00040704741F480114FEA99
:100B50005252C2F11802C2F1200C10FA0CF320FA22
:100B600002F018BF40F001004FEAC1234FEAD3233F
:100B700003FA0CFC40EA0C0023FA02F34FEA4303A9
:100B8000CCE77FEA625307D150EA01331EBF4FF032
:100B9000FE4040F44000704701F0004040F0FE404D
:100BA00040F40000704700BF53B94AB9002908BF9C
:100BB00000281CBF4FF0FF314FF0FF3000F06AB942
:100BC000ADF1080C6DE904CE00F006F8DDF804E0A4
:100BD000DDE9022304B070472DE9F047089D0C467B
:100BE000002B4ED194468C458646B2FA82F262D9E9
:100BF0004AB1C2F12003914020FA03F30CFA02FC3F
:100C0000194300FA02FE4FEA1C471FFA8CF6B1FBAB
:100C1000F7F44FEA1E4307FB141143EA014304FBB8
:100C200006F199420AD91CEB030304F1FF3080F06E
:100C30001281994240F20F81023C6344591A1FFA13
:100C40008EF3B1FBF7F007FB101143EA014300FB01
:100C500006F69E420AD91CEB030300F1FF3180F037
:100C6000FC809E4240F2F980634402389B1B40EABC
:100C7000044000211DB1D3400022C5E90032BDE887
:100C8000F0878B4205D90DB1C5E900010021084666
:100C9000F5E7B3FA83F1002946D1A34202D390428B
:100CA000C0F0F080861A64EB03030120002DE6D02B
:100CB000C5E90063E3E7002A40F09080A1EB0C0453
:100CC0004FEA1C481FFA8CF70121B4FBF8F64FEAF3
:100CD0001E4308FB164443EA044307FB06F0984210
:100CE00008D91CEB030306F1FF3402D2984200F24C
:100CF000CD8026461C1A1FFA8EF3B4FBF8F008FBD1
:100D0000104443EA044300FB07F79F4208D91CEB59
:100D1000030300F1FF3402D29F4200F2B08020466C
:100D2000DB1B40EA0640A5E7C1F120068B4022FA12
:100D300006F71F4320FA06FC04FA01F343EA0C030A
:100D4000F44000FA01F8380C4FEA1349B4FBF0FE06
:100D50001FFA87FC00FB1E4449EA04440EFB0CF911
:100D6000A14502FA01F20AD93C190EF1FF3A80F0CE
:100D70008480A14540F28180AEF1020E3C44A4EB98
:100D800009041FFA83F9B4FBF0F300FB134449EAAA
:100D9000044403FB0CFCA44507D93C1903F1FF30C4
:100DA00067D2A44565D9023B3C4443EA0E40A0FB10
:100DB0000293A4EB0C049C42CE469C4651D34ED0E9
:100DC00055B1B8EB0E0364EB0C0404FA06F6CB4005
:100DD0001E43CC40C5E90064002150E7C2F1200366
:100DE00020FA03F10CFA02FC24FA03F394400C43BA
:100DF0004FEA1C4800FA02FE1FFA8CF7B3FBF8F02A
:100E000008FB1031230C43EA014300FB07F1994230
:100E100008D91CEB030300F1FF362CD299422AD9E2
:100E2000023863445B1AA4B2B3FBF8F108FB113338
:100E300044EA034401FB07F3A34208D91CEB040472
:100E400001F1FF3613D2A34211D902396444E41AE6
:100E500041EA004139E70446F0E6084606E7C8459E
:100E6000AED2B9EB020E63EB070C0138A8E73146AE
:100E7000EDE7034699E73046D4E7D6467FE763447B
:100E800002384DE70646234608460FE7023E634414
:100E900030E700BF704700BF80B584B000AF786016
:100EA0000023FB730023BB737B68002B02D101235B
:100EB000FB7317E07B681B68184607F0EDF90346E3
:100EC0001A46BB7B1343BB730CF028FE02467B68BB
:100ED0005A60BB7B002B03D17B685B68002B01D180
:100EE0000123FB73FB7B18461037BD4680BD000015
:100EF00080B58AB000AF7860002387F827300023E0
:100F000087F826307B68002B03D1012387F8273030
:100F10002CE000233B627B681B6807F10C02114642
:100F2000184607F031FC03461A4697F8263013435B
:100F300087F8263097F82630002B17D17B685B683E
:100F400007F10C010C4A18460CF004FE38623B6AAB
:100F5000002B0BD03B6A07F10C01142218460CF051
:100F60001DFF3B6A9B693A6A1046984797F82730FD
:100F700018462837BD4680BD3310000880B584B0C0
:100F800000AF786039600023FB730023BB737B687C
:100F9000002B02D03B68002B02D10123FB7343E0FE
:100FA0003B689B693A68104698473B685A693B68BA
:100FB0005A607B681B68184607F0A4FC0346BB73A5
:100FC000BB7B002B1DD17B681B683A681146184615
:100FD00007F014FB03461A46BB7B1343BB73BB7B72
:100FE000002B21D00123FB73BB7B012B1CD17B6821
:100FF0001B68184607F050F90346BB730123FB73C7
:1010000012E07B681B68184607F0A4FC0346BB731C
:10101000BB7B012B08D17B681B68184607F03CF9A5
:101020000346BB730123FB73FB7B18461037BD4699
:1010300080BD80B485B000AF786039600023FB606C
:101040007B685A693B685B689A4201D10123FB6067
:10105000FB6818461437BD465DF8047B70470000F6
:1010600080B487B000AFF8600B467A60FB72002353
:10107000FB75FB68002B02D07B68002B02D101239B
:10108000FB7538E0FB7A072B32D801A252F823F027
:10109000B1100008B9100008C1100008C9100008FC
:1010A000D1100008D9100008E1100008E91000086C
:1010B000FB687A685A601EE0FB687A689A601AE0FA
:1010C000FB687A68DA6016E0FB687A681A6112E0F9
:1010D000FB687A685A610EE0FB687A689A610AE0F8
:1010E000FB687A68DA6106E0FB687A681A6202E0F7
:1010F0000123FB7500BFFB7D18461C37BD465DF81C
:10110000047B704780B584B000AF78600023FB7328
:101110007B68002B02D10123FB730BE07B681B680B
:10112000184607F0F4FC0346BB73BB7B002B01D0D1
:101130000123FB73FB7B18461037BD4680BD0000C2
:1011400080B58AB000AF7860002387F827307B68CD
:10115000002B03D1012387F8273003E17B681B684C
:101160001B79AC2B00F09180AC2B00F3F680AA2BFE
:1011700002D0AB2B28D0F0E07B681B685A1D07F12A
:1011800008031068516803C3D7ED027A9FED787A9F
:1011900027EE877ADFED776AC7EE267A764BC3EDC6
:1011A000007AFB68754A1360754B9B68754A13603B
:1011B00075497648FFF7E2FE03461A4697F827304E
:1011C000134387F82730CDE07B681B685A1D07F171
:1011D00008031068516803C3AB2387F82630D7EDA6
:1011E000027AB2EE047A27EE877ADFED626AC7EE02
:1011F000267A674BC3ED007A614B9B68614A1360A6
:10120000D7ED037A9FED637AF4EEC77AF1EE10FA28
:1012100019DDD7ED037A9FED607A77EE677AB1EE4C
:10122000047A27EE877ADFED5B6AC7EE267A5B4B9E
:10123000C3ED007A564BD3ED007AF1EE677A544B4A
:10124000C3ED007A15E0D7ED037A9FED527AF4EE04
:10125000C77AF1EE10FA0CD5D7ED037AB1EE047A25
:1012600027EE877ADFED4B6AC7EE267A4B4BC3ED4C
:10127000007A4B494548FFF781FE03461A4697F826
:101280002730134387F827306CE07B681B681A1DF2
:1012900007F11C031068516803C3127A1A707B7F30
:1012A000012B07D17B685B68002B03D07B685B68F0
:1012B00000209847BB7F012B07D17B689B68002BE0
:1012C00003D07B689B6800209847FB7F012B07D1E8
:1012D0007B68DB68002B03D07B68DB6800209847C5
:1012E00097F82030012B07D17B681B69002B03D0B6
:1012F0007B681B690020984797F82130012B07D1A4
:101300007B685B69002B03D07B685B690020984792
:1013100097F82230012B07D17B689B69002B03D003
:101320007B689B690020984797F82330012B07D1F1
:101330007B68DB69002B03D07B68DB690020984762
:1013400097F82430012B0CD17B681B6A002B08D046
:101350007B681B6A0020984703E0012387F8273049
:1013600000E000BF97F8273018462837BD4680BDFB
:10137000CDCC0C3F0000C842780400207C04002043
:101380002800002074040020C80000200000002075
:1013900080040020000034430000B4438404002093
:1013A000E400002080B584B000AF78600023FB73B8
:1013B0007B68002B02D10123FB7321E07B680C3397
:1013C000B2EE043AFAEE042A9FED102ADFED101A6D
:1013D0009FED0F1ADFED0E0A9FED0D0A18460CF077
:1013E0008BFA7B681A687B685B681946104607F0C1
:1013F00055FF0346BB73BB7B002B01D00123FB735E
:10140000FB7B18461037BD4680BD00BF0000C842B8
:101410000000000080B584B000AF78600023FB734B
:101420007B68002B02D10123FB731AE07B681A68EA
:101430007B685B681946104607F0BAFF0346BB732A
:10144000BB7B002B02D00123FB730AE07B685B6847
:10145000D3E9122310461946FFF756FB02467B6874
:101460009A60FB7B18461037BD4680BDB0B586B08C
:1014700000AFF860B96087ED010A0023FB75FB68D7
:10148000002B02D0BB68002B02D10123FB7563E067
:101490004FF000033B61FB6803F10C02FB68D3EDE6
:1014A000027AF0EE670A97ED010A10460CF05DFA39
:1014B00087ED040AD7ED047A9FED2A7A67EE877AE2
:1014C000C7ED047A3869FEF7EFFF04460D46386928
:1014D000FEF7EAFF02460B4643EC102B0CF094FF9C
:1014E00051EC100B4FF000021F4BFEF77FFE02463F
:1014F0000B4620462946FFF7BFFA0346002B0DD0C6
:101500003869FEF7D1FF02460B4643EC102B0CF076
:10151000FFFEB0EE407AF0EE607A0CE03869FEF73C
:10152000C3FF02460B4643EC102B0CF06DFFB0EEF0
:10153000407AF0EE607A51EC170BFFF7E5FA0346BC
:101540003B6197ED047ADFED076AC7EE267AC7EDB7
:10155000047ABB683A691A60FB7D18461837BD46A5
:10156000B0BD00BF0000C8420000E03F80B485B0BD
:1015700000AF78607B6801221A707B6808221A72BB
:10158000094B1B68BB60094B1B68FB607B68093318
:101590001A4607F1080303CB1060516000BF1437EF
:1015A000BD465DF8047B7047780400207C04002071
:1015B00080B485B000AF78607B6801221A707B68C8
:1015C00008221A72094B1B68BB60094B1B68FB6041
:1015D0007B6809331A4607F1080303CB106051609A
:1015E00000BF1437BD465DF8047B704780040020BF
:1015F0008404002080B485B000AF78607B6801224D
:101600001A707B6801221A72FF23FB737B6809330F
:10161000FA7B1A7000BF1437BD465DF8047B704733
:1016200080B485B000AF78607B6801221A707B6857
:1016300004221A72064B1B68FB607B680933FA6848
:101640001A6000BF1437BD465DF8047B704700BFC9
:101650008804002080B485B000AF78600023FB735D
:101660007B68002B02D10123FB73A3E07B685B68DE
:1016700004221A737B681B6804221A737B689B68B8
:1016800028221A737B68DB6804221A737B681B6943
:1016900004221A737B685B6904221A737B689B6956
:1016A00004221A737B68DB6904221A737B681B6A45
:1016B00004221A737B685B6A04221A737B689B6A34
:1016C00004221A737B68DB6A04221A737B681B6B23
:1016D00004221A737B685B6B04221A737B689B6B12
:1016E00004221A737B68DB6B04221A737B681B6C01
:1016F00004221A737B685B6C04221A737B685B6834
:10170000304A9A607B681B682F4A9A607B689B68A6
:101710002E4A9A607B68DB682D4A9A602D4B1A68C6
:101720007B681B6912699A602A4B5A687B685B69FF
:1017300012699A60274B9A687B689B6912699A6064
:10174000244BDA687B68DB6912699A60214B1A695D
:101750007B681B6A12699A601E4B5A697B685B6AD8
:1017600012699A601B4B9A697B689B6A12699A603E
:10177000184BDA697B68DB6A12699A607B681B6BBD
:10178000154A9A607B685B6B144A9A607B689B6B16
:10179000134A9A607B68DB6B124A9A607B681B6C09
:1017A000114A9A607B685B6C104A9A607B689B6800
:1017B0000F4A5A60FB7B18461437BD465DF8047B20
:1017C000704700BF38010020F00400208C04002086
:1017D0003000002008000020880400203400002091
:1017E000380000203C00002040000020740400204D
:1017F000E519000880B584B000AF78600023FB7362
:101800007B68002B02D10123FB73DFE07B68DB6880
:101810009B681B681A46704B1A607B681B699B6843
:101820001B681A466C4B5A607B685B699B681B6837
:101830001A46694B9A607B689B699B681B681A46CD
:10184000654BDA607B68DB699B681B681A46624BF4
:101850001A617B681B6A9B681B681A465E4B5A615B
:101860007B685B6A9B681B681A465B4B9A617B6866
:101870009B6A9B681B681A46574BDA617B68DB6A78
:101880009B681B681A46544B1A627B685B6C9B68AA
:101890001B681A46504B5A62504B1B689A684F4B54
:1018A0001B6842F001029A600023BB730EE0BB7B11
:1018B0009B00494A13440A221946484801F076FE23
:1018C0000346474A1360BB7B0133BB73BB7B002BD2
:1018D000EDD06422002140480CF01CFA7B685B6864
:1018E000184607F0AFFC03461A46FB7B1343FB7315
:1018F0007B68DB68184607F0A5FC03461A46FB7BAD
:101900001343FB737B681B69184607F09BFC034677
:101910001A46FB7B1343FB737B685B69184607F031
:1019200091FC03461A46FB7B1343FB737B689B6960
:10193000184607F087FC03461A46FB7B1343FB73EC
:101940007B68DB69184607F07DFC03461A46FB7B83
:101950001343FB737B681B6A184607F073FC03464E
:101960001A46FB7B1343FB737B685B6A184607F0E0
:1019700069FC03461A46FB7B1343FB737B689B6A37
:10198000184607F05FFC03461A46FB7B1343FB73C4
:101990007B68DB6A184607F055FC03461A46FB7B5A
:1019A0001343FB737B685B6C184607F04BFC0346E4
:1019B0001A46FB7B1343FB737B681B68184607F0D2
:1019C00041FC03461A46FB7B1343FB73FB7B184623
:1019D0001037BD4680BD00BF8C0400209405002058
:1019E000F004002080B483B000AF214B9B687B6083
:1019F0007B68204A1360204B1B687B607B681D4A14
:101A000053601E4B1B687B607B681A4A93601C4BBB
:101A10001B687B607B68174AD3601A4B1B687B602E
:101A20007B68144A1361184B1B687B607B68114A02
:101A30005361164B1B687B607B680E4A9361144BA5
:101A40001B687B607B680B4AD361124B1B687B6011
:101A50007B68084A5362104B1B687B607B68054AB1
:101A6000936200BF0C37BD465DF8047B704700BF32
:101A7000280000208C040020F8090020FC09002028
:101A8000000A0020040A0020080A00200C0A002096
:101A9000100A0020140A002088040020F0B58BB042
:101AA00006AF78600023FB737B68002B02D1012313
:101AB000FB7322E07B681D687B681E697B689B68FE
:101AC0003B607B689B697A68526879684969786885
:101AD000C0687C68E46904940390029101920093C9
:101AE0003B6832462946082008F078F90346BB7364
:101AF000BB7B002B01D00123FB73FB7B1846143703
:101B0000BD46F0BD80B584B000AF78600023FB73A4
:101B10007B68002B02D10123FB730EE07B681A68FF
:101B20007B681B690121022008F0A6F90346BB73FC
:101B3000BB7B002B01D00123FB73FB7B18461037C6
:101B4000BD4680BD80B584B000AF78600023FB73D4
:101B50007B68002B02D10123FB730EE07B685A687F
:101B60007B685B690521022008F086F90346BB7398
:101B7000BB7B002B01D00123FB73FB7B1846103786
:101B8000BD4680BD80B584B000AF78600023FB7394
:101B90007B68002B02D10123FB730EE07B689A68FF
:101BA0007B689B690321022008F066F90346BB733A
:101BB000BB7B002B01D00123FB73FB7B1846103746
:101BC000BD4680BD80B584B000AF78600023FB7354
:101BD0007B68002B02D10123FB730EE07B68DA687F
:101BE0007B68DB690721022008F046F90346BB73D6
:101BF000BB7B002B01D00123FB73FB7B1846103706
:101C0000BD4680BD80B584B000AF78600023FB7313
:101C10007B68002B02D10123FB732EE04FF0000301
:101C2000BB607B681B681B69D3ED007AB0EE670A66
:101C3000144800F01FF987ED020A97ED020A1148D7
:101C400000F0F2F87B681B681B69BA681A607B6851
:101C50001B691B69D3ED007AB0EE670A0A4800F0F1
:101C600009F987ED020A97ED020A074800F0DCF84F
:101C70007B681B691B69BA681A60FB7B18461037C2
:101C8000BD4680BDF40400204405002080B584B02A
:101C900000AF78600023FB737B68002B02D1012327
:101CA000FB732EE04FF00003BB607B685B681B6931
:101CB000D3ED007AB0EE670A144800F0DBF887ED48
:101CC000020A97ED020A114800F0AEF87B685B68E3
:101CD0001B69BA681A607B685B691B69D3ED007A7F
:101CE000B0EE670A0A4800F0C5F887ED020A97EDE2
:101CF000020A074800F098F87B685B691B69BA68BC
:101D00001A60FB7B18461037BD4680BD08050020D1
:101D10005805002080B584B000AF78600023FB73C5
:101D20007B68002B02D10123FB732EE04FF00003F0
:101D3000BB607B689B681B69D3ED007AB0EE670AD5
:101D4000144800F097F887ED020A97ED020A11484F
:101D500000F06AF87B689B681B69BA681A607B6848
:101D60009B691B69D3ED007AB0EE670A0A4800F060
:101D700081F887ED020A97ED020A084800F054F84E
:101D80007B689B691B69BA681A60FB7B1846103731
:101D9000BD4680BD1C0500206C050020800500208C
:101DA00080B584B000AF78600023FB737B68002BA4
:101DB00002D10123FB732EE04FF00003BB607B6870
:101DC000DB681B69D3ED007AB0EE670A144800F0B7
:101DD00051F887ED020A97ED020A114800F024F845
:101DE0007B68DB681B69BA681A607B68DB691B6902
:101DF000D3ED007AB0EE670A0A4800F03BF887EDB1
:101E0000020A97ED020A074800F00EF87B68DB69CA
:101E10001B69BA681A60FB7B18461037BD4680BD47
:101E2000300500208005002080B485B000AF7860C8
:101E300087ED000A0423FB730FE0FB7B03F1804373
:101E4000013B9B007A681A44FB7B9B0079680B443A
:101E500012681A60FB7B013BFB73FB7B002BECD110
:101E60007B683A681A6000BF1437BD465DF8047B92
:101E70007047000080B487B000AF786087ED000A3B
:101E80004FF000037B614FF000033B610023FB73C5
:101E90000EE0FB7B9B007A681344D3ED007A97ED4C
:101EA000047A77EE277AC7ED047AFB7B0133FB7364
:101EB000FB7B042BEDD997ED047AF1EE046AC7EEB3
:101EC000267AC7ED047AD7ED047A9FED137A77EE80
:101ED000877A97ED007AB4EEE77AF1EE10FA0CDC2F
:101EE000D7ED047A9FED0C7A77EEC77A97ED007AFA
:101EF000B4EEE77AF1EE10FA02D53B697B6101E0BE
:101F00003B687B617B6907EE903AB0EE670A1C374D
:101F1000BD465DF8047B70470000964380B500AF76
:101F2000064B074A1A60054801F024FB0346002BC4
:101F300001D000F0C9FD00BF80BD00BF94050020A6
:101F40000030024080B485B000AF78607B681B68C9
:101F50000B4A93420DD10023FB600A4B1B6B094ACD
:101F600043F480531363074B1B6B03F48053FB60F4
:101F7000FB6800BF1437BD465DF8047B704700BFA7
:101F8000003002400038024080B500AF304A0021E6
:101F9000012008F0D6FA03462E4A13602E4A00218B
:101FA000012008F0CEFA03462C4A13602C4A002187
:101FB000012008F0C6FA03462A4A13602A4A002183
:101FC000012008F0BEFA0346284A1360284A00217F
:101FD000022008F0B6FA0346264A1360264A00217A
:101FE000264808F001FA0346254A1360254A0021D5
:101FF000254808F0F9F90346244A1360244A0021D1
:10200000244808F0F1F90346234A1360234A0021CB
:10201000234808F0E9F90346224A1360224A0021C6
:10202000224808F0E1F90346214A1360214A0021C1
:10203000214808F0D9F90346204A1360204A0021BC
:10204000204808F0D1F903461F4A136000BF80BD45
:1020500070E80008B805002080E80008BC050020F2
:1020600090E80008C0050020A0E80008C405002092
:10207000B0E80008C805002074E70008CD2000087B
:102080009C05002098E7000819210008A005002001
:10209000BCE7000855210008A4050020E0E700087F
:1020A00085210008A805002004E80008E5210008B3
:1020B000AC05002028E8000899220008B00500209F
:1020C0004CE80008A1230008B405002080B584B0C6
:1020D00000AF78600D48FFF765F90346FB730C4BC2
:1020E0001B68184608F008FB0A4B1B684FF0FF31CD
:1020F000184608F0AFFA0548FFF78CF903461A4670
:10210000FB7B1343FB7300BFEEE700BF28000020FA
:10211000BC050020B805002080B584B000AF786011
:102120000A48FEF7B9FE0346FB73094B1B684FF0E4
:10213000FF31184608F08EFA0448FEF7D9FE034630
:102140001A46FB7B1343FB7300BFEEE70000002041
:10215000C805002080B584B000AF78600848FFF75C
:1021600079FA0346FB730648FFF744FB03461A4619
:10217000FB7B1343FB73642008F0C8F900BFF2E750
:102180005C00002080B584B000AF78600023FB7352
:102190000E4B1B684FF0FF31184608F05BFA0C4BF2
:1021A000D3ED007AB0EE670A0A490B48FFF75EF9F3
:1021B00003461A46FB7B1343FB7308490848FEF7A6
:1021C000DDFE642008F0A2F900BFE8E7BC050020AE
:1021D0007404002088040020280000201C01002036
:1021E0000000002080B584B000AF78602948FFF778
:1021F00055FC0346FB732748FFF784FC03461A4649
:10220000FB7B1343FB73142008F080F92148FFF790
:10221000F9FC03461A46FB7B1343FB731D48FFF78B
:10222000B1FC03461A46FB7B1343FB73142008F0F2
:102230006DF91848FFF76EFD03461A46FB7B134302
:10224000FB731448FFF77EFC03461A46FB7B1343DF
:10225000FB73142008F05AF90E48FFF717FD0346E8
:102260001A46FB7B1343FB730A48FFF7ABFC03469C
:102270001A46FB7B1343FB73142008F047F905480B
:10228000FFF78EFD03461A46FB7B1343FB7300BF2B
:10229000B1E700BF0800002080B584B000AF7860CF
:1022A0000023FB73344A00213448FEF7D9FE03466D
:1022B0001A46FB7B1343FB73314A01212F48FEF77B
:1022C000CFFE03461A46FB7B1343FB732D4A0221C4
:1022D0002A48FEF7C5FE03461A46FB7B1343FB73F1
:1022E000294A03212548FEF7BBFE03461A46FB7B1D
:1022F0001343FB73254A04212048FEF7B1FE034631
:102300001A46FB7B1343FB73214A05211B48FEF74A
:10231000A7FE03461A46FB7B1343FB731D4A0621A7
:102320001648FEF79DFE03461A46FB7B1343FB73DC
:10233000194A07211148FEF793FE03461A46FB7B14
:102340001343FB730D48FEF7DDFE03461A46FB7B85
:102350001343FB73114B1B684FF0FF31184608F015
:1023600079F90648FEF7ECFE03461A46FB7B134359
:10237000FB7300BFE6E700BF51240008A400002063
:10238000ED2400080D2500083925000889250008DE
:10239000D92500082926000879260008C005002054
:1023A00080B582B000AF78600B4B1B684FF0FF31F7
:1023B000184608F04FF9094B094A1A60094B4FF0CB
:1023C00000021A6008490948FEF7D8FD4FF47A70F8
:1023D00008F09CF800BFE7E7C4050020780400205F
:1023E000CDCC4C3E7C040020C80000200000002022
:1023F00080B582B000AF0346FB80FB88B3F5005F79
:1024000004D1094B1B68184608F076F9FB88B3F530
:10241000805F04D1054B1B68184608F06DF900BFBA
:102420000837BD4680BD00BFC8050020B8050020A4
:1024300080B582B000AF7860044B1B68184608F086
:102440005BF900BF0837BD4680BD00BFC005002056
:1024500080B582B000AF7860184B4FF000021A6070
:10246000174B4FF000021A60164B4FF000021A6033
:10247000154BD3ED007A154B93ED007A144BD3ED49
:10248000006A144B93ED006A9FED133ADFED132AB7
:102490009FED112AF0EE461AB0EE661AF0EE470AEA
:1024A000B0EE670A0E480BF027FA0E490E48FEF709
:1024B00065FD00BF0837BD4680BD00BF7804002021
:1024C0007C04002074040020CC050020D0050020EE
:1024D000D4050020D80500200000C8420000C8C272
:1024E00034000020000100200000002080B582B0F0
:1024F00000AF7860044B1B68184608F0FDF800BF79
:102500000837BD4680BD00BFC405002080B483B03D
:1025100000AF7860074BD3ED007AB2EE047A77EE25
:10252000C77A044BC3ED007A00BF0C37BD465DF897
:10253000047B70477404002080B582B000AF7860DF
:102540000F4B1B681846FDF7AFFF0BA3D3E9002321
:10255000FDF74AFE02460B4610461946FEF7D4FA2E
:102560000346074A1360064B1B68064AD36000BF48
:102570000837BD4680BD00BFFCA9F1D24D62503F77
:10258000CC0500202800002080B582B000AF786024
:102590000F4B1B681846FDF787FF0BA3D3E90023F9
:1025A000FDF722FE02460B4610461946FEF7ACFA2E
:1025B0000346074A1360064B1B68064A136100BFB7
:1025C0000837BD4680BD00BF3A8C30E28E79453E6B
:1025D000D00500202800002080B582B000AF7860D0
:1025E0000F4B1B681846FDF75FFF0BA3D3E90023D1
:1025F000FDF7FCFD02460B4610461946FEF784FA2D
:102600000346074A1360064B1B68064A536100BF26
:102610000837BD4680BD00BF7B14AE47E17A843FDA
:10262000D40500202800002080B582B000AF78607B
:102630000F4B1B681846FDF737FF0BA3D3E90023A8
:10264000FDF7D4FD02460B4610461946FEF75CFA2C
:102650000346074A1360064B1B68064A936100BF96
:102660000837BD4680BD00BF7B14AE47E17A843F8A
:10267000D80500202800002080B582B000AF786027
:10268000174B184A1A60184B4FF000021A60174B8C
:10269000174A1A60174B4FF000021A60104BD3ED27
:1026A000007A114B93ED007A104BD3ED006A114B79
:1026B00093ED006AB2EE043AFAEE042A9FED0E2A78
:1026C000F0EE461AB0EE661AF0EE470AB0EE670A70
:1026D0000A480BF011F900BF0837BD4680BD00BFA6
:1026E000CC050020CDCCCCBCD0050020D4050020EA
:1026F0008FC2F53CD80500200000C84234000020FD
:1027000080B58AB000AF07F1140300221A605A6046
:102710009A60DA601A6100233B61564B1B6B554A85
:1027200043F004031363534B1B6B03F004033B613F
:102730003B690023FB604F4B1B6B4E4A43F0800309
:1027400013634C4B1B6B03F08003FB60FB6800239F
:10275000BB60484B1B6B474A43F001031363454B77
:102760001B6B03F00103BB60BB6800237B60414B24
:102770001B6B404A43F0020313633E4B1B6B03F099
:1027800002037B607B6800224FF4C0413A4801F0AD
:102790004FF900220221394801F04AF901221021A3
:1027A000364801F045F900220421354801F040F98E
:1027B0004FF4C0437B610123BB610023FB61002315
:1027C0003B6207F1140319462B4800F0ADFF0223CA
:1027D0007B610123BB610223FB6102233B6207F1A2
:1027E00014031946254800F09FFF10237B61012345
:1027F000BB610123FB6100233B6207F1140319460F
:102800001E4800F091FF04237B610123BB6102237A
:10281000FB6102233B6207F114031946184800F0DC
:1028200083FF4FF480537B614FF48813BB61022315
:10283000FB6107F114031946114800F075FF4FF4CE
:1028400000537B614FF40413BB610123FB6107F16B
:10285000140319460A4800F067FF002205212820CA
:1028600000F05EFE282000F077FE00BF2837BD464E
:1028700080BD00BF00380240000802400000024056
:102880000004024080B500AF124B134A1A60114B8E
:10289000124A5A600F4B00229A600E4B0022DA60F7
:1028A0000C4B4FF480421A610A4B00225A61094BCB
:1028B00000229A61074B0022DA61064B00221A625D
:1028C000044801F0E7F80346002B01D000F0FCF8C3
:1028D00000BF80BDDC05002000580040801A0600C3
:1028E00080B58AB000AF786007F1140300221A6047
:1028F0005A609A60DA601A617B681B68214A9342C9
:102900003CD100233B61204B1B6B1F4A43F0020369
:1029100013631D4B1B6B03F002033B613B694FF4D8
:1029200080637B611223BB610123FB6103233B6254
:1029300004237B6207F114031946144800F0F4FEE7
:1029400008237B611223BB610123FB6103233B62EC
:1029500009237B6207F1140319460C4800F0E4FEDA
:102960000023FB60084B1B6C074A43F4800313648D
:10297000054B1B6C03F48003FB60FB6800BF28372A
:10298000BD4680BD005800400038024000040240AF
:1029900080B500AF00F0CAFC00F018F8FFF7B0FEF9
:1029A00000F0C2FA00F04CFAFFF76CFF00F092F86A
:1029B00000F0BAFB00F0E2FBFFF7B0FA07F0CAFC48
:1029C000FFF7E2FA07F0EAFC00BFFDE780B594B03C
:1029D00000AF07F120033022002118460BF09AF9CE
:1029E00007F10C0300221A605A609A60DA601A61DB
:1029F0000023BB60294B1B6C284A43F080531364AF
:102A0000264B1B6C03F08053BB60BB6800237B60CC
:102A1000234B1B6823F44043214A43F400431360D3
:102A20001F4B1B6803F440437B607B6801233B62C0
:102A30004FF480337B620223BB634FF48003FB635C
:102A400019233B64A8237B640223BB640423FB6437
:102A500007F12003184602F041F80346002B01D08D
:102A600000F032F80F23FB6002233B6100237B61FF
:102A70004FF48053BB610023FB6107F10C0302217B
:102A8000184602F0A3FA0346002B01D000F01CF810
:102A900002F082FB00BF5037BD4680BD00380240C7
:102AA0000070004080B582B000AF78607B681B6822
:102AB000044A934201D100F05BFC00BF0837BD46D9
:102AC00080BD00BF0044014080B400AF72B600BFBB
:102AD00000BFFDE780B500AF174B184A1A60164BD0
:102AE0004FF482725A60144B00229A60124B0022FB
:102AF000DA60114B00221A610F4B00225A610E4B13
:102B00004FF400729A610C4B1822DA610A4B0022D2
:102B10001A62094B00225A62074B00229A62064B46
:102B20000A22DA62044802F08AFC0346002B01D034
:102B3000FFF7CAFF00BF80BD300600200030014013
:102B400080B58AB000AF786007F1140300221A60E4
:102B50005A609A60DA601A617B681B68194A93426E
:102B60002BD100233B61184B5B6C174A43F4805315
:102B70005364154B5B6C03F480533B613B6900234A
:102B8000FB60114B1B6B104A43F0010313630E4BA8
:102B90001B6B03F00103FB60FB68E0237B610223F6
:102BA000BB610123FB6103233B6205237B6207F1C9
:102BB00014031946054800F0B7FD00BF2837BD468D
:102BC00080BD00BF003001400038024000000240DC
:102BD00080B582B000AF00237B60124B5B6C114A62
:102BE00043F4804353640F4B5B6C03F480437B607E
:102BF0007B6800233B600B4B1B6C0A4A43F08053FD
:102C00001364084B1B6C03F080533B603B6800224D
:102C10000F216FF0010000F083FC00BF0837BD46B4
:102C200080BD00BF0038024080B58CB000AF786036
:102C30000023BB6200237B620023BB602E4B5B6CD6
:102C40002D4A43F4003353642B4B5B6C03F4003385
:102C5000BB60BB6807F10C0207F110031146184670
:102C600002F0A0FB02F08AFBB862BB6A234AA2FB17
:102C700003239B0C013B7B62214B224A1A60204BB1
:102C800040F2E732DA601E4A7B6A53601C4B002236
:102C90001A611B4B00229A60194B00229A61184856
:102CA00003F0ACF9034687F82F3097F82F30002B4C
:102CB0001BD1134803F008FA034687F82F3097F822
:102CC0002F30002B11D1192000F046FC7B680F2B10
:102CD00008D800227968192000F022FC0A4A7B6893
:102CE000136002E0012387F82F3097F82F30184641
:102CF0003037BD4680BD00BF0038024083DE1B4335
:102D000088060020004401404001002080B500AF4B
:102D100002F07AFB00BFFDE780B400AF00BFFDE723
:102D200080B400AF00BFFDE780B400AF00BFFDE797
:102D300080B400AF00BFFDE780B400AF00BFBD4668
:102D40005DF8047B7047000080B500AF024803F0D7
:102D500093FB00BF80BD00BF8806002080B500AF98
:102D6000024803F089FB00BF80BD00BF4007002080
:102D700080B500AF024803F07FFB00BF80BD00BFFD
:102D8000F407002080B500AF024804F0BBFA00BF92
:102D900080BD00BFA808002080B500AF4FF4805070
:102DA00000F060FE4FF4005000F05CFE00BF80BDFC
:102DB00080B586B000AF7860144A154BD31A7B619A
:102DC0007B693B61134B1B68002B02D1114B124AEC
:102DD0001A60104B1A687B6813443A699A4207D20A
:102DE0000AF0B0FF03460C221A604FF0FF3309E0EF
:102DF000084B1B68FB60074B1A687B681344054A45
:102E00001360FB6818461837BD4680BD00000120DE
:102E1000000400003C0700207041002080B400AF97
:102E2000064BD3F88830054A43F47003C2F8883063
:102E300000BFBD465DF8047B704700BF00ED00E0B9
:102E400080B586B000AF07F1100300221A605A6007
:102E50003B4600221A605A609A60DA60304B314A71
:102E60001A602F4B53225A602D4B00229A602C4B34
:102E70004FF6FF72DA602A4B00221A61284B0022BB
:102E80009A61274803F082F90346002B01D0FFF72F
:102E90001BFE00233B6100237B6107F110031946F1
:102EA0001F4804F095F80346002B01D0FFF70CFEF5
:102EB0000A233B6001237B600023BB600023FB608F
:102EC0003B4600221946164803F0E6FB0346002B5A
:102ED00001D0FFF7F9FD3B4604221946104803F0E4
:102EE000DBFB0346002B01D0FFF7EEFD3B4608223B
:102EF00019460B4803F0D0FB0346002B01D0FFF727
:102F0000E3FD3B460C221946054803F0C5FB03468A
:102F1000002B01D0FFF7D8FD00BF1837BD4680BD9C
:102F2000400700200004004080B586B000AF07F1E4
:102F3000100300221A605A603B4600221A605A6051
:102F40009A60DA60304B314A1A602F4B53225A6034
:102F50002D4B00229A602C4B4FF6FF72DA602A4B01
:102F600000221A61284B00229A61274803F00EF9CB
:102F70000346002B01D0FFF7A7FD00233B61002390
:102F80007B6107F1100319461F4804F021F803463E
:102F9000002B01D0FFF798FD0A233B6001237B60E3
:102FA0000023BB600023FB603B4600221946164805
:102FB00003F072FB0346002B01D0FFF785FD3B4673
:102FC00004221946104803F067FB0346002B01D08A
:102FD000FFF77AFD3B46082219460B4803F05CFBDD
:102FE0000346002B01D0FFF76FFD3B460C2219462C
:102FF000054803F051FB0346002B01D0FFF764FDA9
:1030000000BF1837BD4680BDF4070020000800400F
:1030100080B58CB000AF786007F11C0300221A6005
:103020005A609A60DA601A617B681B683A4A934278
:1030300034D10023BB61394B1B6C384A43F0020387
:103040001364364B1B6C03F00203BB61BB690023A6
:103050007B61324B1B6B314A43F0020313632F4BEE
:103060001B6B03F002037B617B693323FB6102234B
:103070003B6202237B620023BB620223FB6207F1F7
:103080001C031946264800F04FFB002205211D2095
:1030900000F046FA1D2000F05FFA39E07B681B68FB
:1030A000204A934234D100233B611C4B1B6C1B4ACA
:1030B00043F004031364194B1B6C03F004033B61DE
:1030C0003B690023FB60154B1B6B144A43F0020362
:1030D0001363124B1B6B03F00203FB60FB684FF49E
:1030E0007073FB6102233B6202237B620023BB629D
:1030F0000223FB6207F11C031946094800F014FB88
:10310000002205211E2000F00BFA1E2000F024FAF8
:1031100000BF3037BD4680BD00040040003802408B
:10312000000402400008004080B500AF114B124A75
:103130001A60104B4FF4E1325A600E4B00229A6035
:103140000C4B0022DA600B4B00221A61094B0C2257
:103150005A61084B00229A61064B0022DA61054849
:1031600003F0C2FF0346002B01D0FFF7ADFC00BF08
:1031700080BD00BFA80800200010014080B500AF4E
:10318000114B124A1A60104B4FF461225A600E4BD9
:1031900000229A600C4B0022DA600B4B00221A616D
:1031A000094B0C225A61084B00229A61064B0022FF
:1031B000DA61054803F098FF0346002B01D0FFF7C2
:1031C00083FC00BF80BD00BF2009002000440040F8
:1031D00080B58CB000AF786007F11C0300221A6044
:1031E0005A609A60DA601A617B681B68364A9342BB
:1031F00035D10023BB61354B5B6C344A43F010037F
:103200005364324B5B6C03F01003BB61BB6900235A
:103210007B612E4B1B6B2D4A43F0010313632B4B39
:103220001B6B03F001037B617B694FF4C063FB619F
:1032300002233B6201237B620323BB620723FB6201
:1032400007F11C031946224800F06EFA00220521FE
:10325000252000F065F9252000F07EF930E07B683C
:103260001B681C4A93422BD100233B61174B1B6CFC
:10327000164A43F400331364144B1B6C03F40033FD
:103280003B613B690023FB60104B1B6B0F4A43F013
:10329000010313630D4B1B6B03F00103FB60FB6821
:1032A0000C23FB6102233B6201237B620323BB628D
:1032B0000723FB6207F11C031946054800F034FAA6
:1032C00000BF3037BD4680BD0010014000380240CD
:1032D0000000024000440040DFF834D0FFF79EFDBC
:1032E0000C480D490D4A002302E0D458C450043361
:1032F000C4188C42F9D30A4A0A4C002301E0136037
:103300000432A242FBD30AF023FDFFF741FB7047D2
:1033100000000120000000205804002058E90008A7
:10332000580400206C410020FEE7000080B500AF8B
:103330000E4B1B680D4A43F4007313600B4B1B6864
:103340000A4A43F480631360084B1B68074A43F43E
:1033500080731360032000F0D8F80F20FFF764FC9F
:10336000FFF736FC0023184680BD00BF003C02403A
:1033700080B400AF064B1B781A46064B1B681344FB
:10338000044A136000BFBD465DF8047B704700BF70
:10339000440100209809002080B400AF034B1B6853
:1033A0001846BD465DF8047B704700BF98090020B1
:1033B00080B485B000AF78607B6803F00703FB60E2
:1033C0000C4BDB68BB60BA684FF6FF031340BB6071
:1033D000FB681A02BB68134343F0BF6343F4003336
:1033E000BB60044ABB68D36000BF1437BD465DF8BC
:1033F000047B704700ED00E080B400AF044BDB6855
:103400001B0A03F007031846BD465DF8047B7047AE
:1034100000ED00E080B483B000AF0346FB7197F984
:103420000730002B0BDBFB7903F01F02074997F9EC
:1034300007305B09012000FA02F241F8232000BFA7
:103440000C37BD465DF8047B704700BF00E100E02B
:1034500080B483B000AF03463960FB7197F9073041
:10346000002B0ADB3B68DAB20C4997F907301201EE
:10347000D2B20B4483F800230AE03B68DAB2084971
:10348000FB7903F00F03043B1201D2B20B441A760E
:1034900000BF0C37BD465DF8047B704700E100E0DB
:1034A00000ED00E080B489B000AFF860B9607A60E8
:1034B000FB6803F00703FB61FB69C3F10703042BFF
:1034C00028BF0423BB61FB690433062B02D9FB69C7
:1034D000033B00E000237B614FF0FF32BB6902FA3F
:1034E00003F3DA43BB681A407B699A404FF0FF311F
:1034F0007B6901FA03F3D9437B680B4013431846F9
:103500002437BD465DF8047B704780B582B000AFBC
:1035100078607868FFF74CFF00BF0837BD4680BD74
:1035200080B586B000AF0346B9607A60FB730023B4
:103530007B61FFF761FF78617A68B9687869FFF7A6
:10354000B1FF024697F90F3011461846FFF780FF8A
:1035500000BF1837BD4680BD80B582B000AF0346BE
:10356000FB7197F907301846FFF754FF00BF083783
:10357000BD4680BD80B582B000AF78607B68002B0F
:1035800001D101230EE07B685B79DBB2002B05D112
:103590007B6800221A717868FEF7D4FC7B680122F0
:1035A0005A71002318460837BD4680BD80B487B0E5
:1035B00000AFF860B9607A6000233B61FB680222CB
:1035C0005A7100237B610AE07B699B00BA681A4448
:1035D000FB681B6812681A607B6901337B617A693A
:1035E0007B689A42F0D3FB681B681B683B61FB68F1
:1035F00001225A713B6918461C37BD465DF8047BB1
:10360000704780B584B000AF78607B689B6DFB60CD
:10361000FFF7C2FEB8607B6893F83530DBB2022B4F
:1036200008D07B6880225A657B68002283F83420AA
:10363000012352E07B681B681A687B681B6822F0D4
:1036400016021A607B681B685A697B681B6822F047
:1036500080025A617B681B6C002B03D17B689B6CDA
:10366000002B07D07B681B681A687B681B6822F0F8
:1036700008021A607B681B681A687B681B6822F066
:1036800001021A6013E0FFF787FE0246BB68D31AF7
:10369000052B0CD97B6820225A657B68032283F8AE
:1036A00035207B68002283F83420032315E07B68F3
:1036B0001B681B6803F00103002BE4D17B68DB6D02
:1036C0003F229A40FB689A607B68012283F835208C
:1036D0007B68002283F83420002318461037BD464B
:1036E00080BD80B483B000AF78607B6893F83530DC
:1036F000DBB2022B04D07B6880225A6501230CE0E8
:103700007B68052283F835207B681B681A687B6814
:103710001B6822F001021A60002318460C37BD46D0
:103720005DF8047B7047000080B489B000AF78601A
:10373000396000237B6100233B610023BB610023D0
:10374000FB6159E10122FB6902FA03F37B613B68EB
:103750001B687A6913403B613A697B699A4240F081
:1037600048813B685B6803F00303012B05D03B688D
:103770005B6803F00303022B30D17B689B68BB615D
:10378000FB695B00032202FA03F3DB43BA691340CF
:10379000BB613B68DA68FB695B0002FA03F3BA6954
:1037A0001343BB617B68BA699A607B685B68BB61E5
:1037B0000122FB6902FA03F3DB43BA691340BB61E0
:1037C0003B685B681B0903F00102FB6902FA03F323
:1037D000BA691343BB617B68BA695A603B685B682E
:1037E00003F00303032B17D07B68DB68BB61FB6925
:1037F0005B00032202FA03F3DB43BA691340BB61A7
:103800003B689A68FB695B0002FA03F3BA691343E9
:10381000BB617B68BA69DA603B685B6803F00303ED
:10382000022B23D1FB69DA087B68083253F8223077
:10383000BB61FB6903F007039B000F2202FA03F34D
:10384000DB43BA691340BB613B681A69FB6903F04B
:1038500007039B0002FA03F3BA691343BB61FB69D8
:10386000DA087B680832B96943F822107B681B6864
:10387000BB61FB695B00032202FA03F3DB43BA6915
:103880001340BB613B685B6803F00302FB695B00AC
:1038900002FA03F3BA691343BB617B68BA691A6021
:1038A0003B685B6803F44033002B00F0A2800023E8
:1038B000FB60574B5B6C564A43F480435364544B54
:1038C0005B6C03F48043FB60FB68524AFB699B0816
:1038D000023352F82330BB61FB6903F003039B0002
:1038E0000F2202FA03F3DB43BA691340BB617B6822
:1038F000494A934219D07B68484A934213D07B6867
:10390000474A93420DD07B68464A934207D07B6872
:10391000454A934201D1042308E0072306E003232C
:1039200004E0022302E0012300E00023FA6902F030
:10393000030292009340BA691343BB613549FB69A6
:103940009B080233BA6941F82320384B9B68BB615E
:103950003B69DB43BA691340BB613B685B6803F4B6
:103960008013002B03D0BA693B691343BB612F4A14
:10397000BB6993602D4BDB68BB613B69DB43BA6974
:103980001340BB613B685B6803F40013002B03D05A
:10399000BA693B691343BB61244ABB69D360234BBB
:1039A0005B68BB613B69DB43BA691340BB613B6841
:1039B0005B6803F40033002B03D0BA693B691343FF
:1039C000BB611A4ABB695360184B1B68BB613B69FA
:1039D000DB43BA691340BB613B685B6803F4803327
:1039E000002B03D0BA693B691343BB610F4ABB6923
:1039F0001360FB690133FB61FB690F2B7FF6A2AEFD
:103A000000BF00BF2437BD465DF8047B704700BF90
:103A1000003802400038014000000240000402402B
:103A200000080240000C024000100240003C01402F
:103A300080B483B000AF78600B467B8013467B7008
:103A40007B78002B03D07A887B689A6103E07B88BF
:103A50001A047B689A6100BF0C37BD465DF8047B91
:103A60007047000080B582B000AF0346FB80084B72
:103A70005A69FB881340002B06D0054AFB88536126
:103A8000FB881846FEF7B4FC00BF0837BD4680BD72
:103A9000003C014080B584B000AF78607B68002BAB
:103AA00001D101232BE17B6893F83D30DBB2002B81
:103AB00006D17B68002283F83C207868FEF710FF6F
:103AC0007B68242283F83D207B681B681A687B682A
:103AD0001B6822F001021A607B681B681A687B6809
:103AE0001B6842F400421A607B681B681A687B6896
:103AF0001B6822F400421A6001F02CFCF8607B681D
:103B00005B68814A934207D8FB68804A934294BF1E
:103B100001230023DBB206E0FB687D4A934294BF99
:103B200001230023DBB2002B01D00123E7E0FB6877
:103B3000784AA2FB03239B0CBB607B681B685B6815
:103B400023F03F017B681B68BA680A435A607B68B0
:103B50001B681B6A23F03F017B685B686A4A9342DB
:103B600002D8BB68013309E0BB684FF4967202FBD0
:103B700003F3694AA2FB03239B0901337A681268A5
:103B80000B4313627B681B68DB6923F44F4222F00E
:103B9000FF027B685B685C498B4219D8FB68591E41
:103BA0007B685B685B00B1FBF3F3591C40F6FC7368
:103BB0000B40002B0AD0FB68591E7B685B685B00DA
:103BC000B1FBF3F30133C3F30B0351E004234FE0E4
:103BD0007B689B68002B11D1FB68581E7B68596875
:103BE0000B465B000B44B0FBF3F30133C3F30B0351
:103BF000002B0CBF01230023DBB212E0FB68581E30
:103C00007B6859680B469B000B4499000B44B0FB42
:103C1000F3F30133C3F30B03002B0CBF0123002389
:103C2000DBB2002B01D0012322E07B689B68002BD4
:103C30000ED1FB68581E7B6859680B465B000B442D
:103C4000B0FBF3F30133C3F30B0343F400430FE082
:103C5000FB68581E7B6859680B469B000B44990013
:103C60000B44B0FBF3F30133C3F30B0343F44043C2
:103C7000796809681343CB617B681B681B6823F074
:103C8000C0017B68DA697B681B6A1A437B681B6822
:103C90000A431A607B681B689B6823F4034323F084
:103CA000FF037A6811697A68D26811437A681268EA
:103CB0000B4393607B681B68DB6823F0FF017B6824
:103CC0005A697B689B691A437B681B680A43DA6000
:103CD0007B681B681A687B681B6842F001021A60E7
:103CE0007B6800221A647B68202283F83D207B6871
:103CF00000221A637B68002283F83E2000231846C6
:103D00001037BD4680BD00BFA08601007F841E0025
:103D1000FF083D0083DE1B43D34D621080B588B0A1
:103D200002AFF860084611461A4603467B810B46EF
:103D30003B811346FB80FFF72FFB7861FB6893F80C
:103D40003D30DBB2202B40F0D9807B6900931923F2
:103D500001226D49F86800F08BFC0346002B01D06E
:103D60000223CCE0FB6893F83C30012B01D1022305
:103D7000C5E0FB68012283F83C20FB681B681B68D8
:103D800003F00103012B07D0FB681B681A68FB686E
:103D90001B6842F001021A60FB681B681A68FB6826
:103DA0001B6822F400621A60FB68212283F83D2020
:103DB000FB68402283F83E20FB6800221A64FB68FF
:103DC0003A6A5A62FB68BA8C5A85FB685B8D9AB274
:103DD000FB681A85FB684D4ADA62F8883A89798966
:103DE0007B690193BB6A00930346F86800F0C2FA4E
:103DF0000346002B52D0012381E07A69B96AF86842
:103E000000F050FD0346002B0DD0FB681B6C042B0B
:103E100007D1FB681B681A68FB681B6842F40072D4
:103E20001A6001236BE0FB685B6A1A78FB681B6809
:103E30001A61FB685B6A5A1CFB685A62FB681B8D3F
:103E4000013B9AB2FB681A85FB685B8D9BB2013B14
:103E50009AB2FB685A85FB681B685B6903F0040330
:103E6000042B1BD1FB681B8D002B17D0FB685B6AF2
:103E70001A78FB681B681A61FB685B6A5A1CFB684E
:103E80005A62FB681B8D013B9AB2FB681A85FB687E
:103E90005B8D9BB2013B9AB2FB685A85FB681B8D18
:103EA000002BAAD17A69B96AF86800F043FD03468D
:103EB000002B0DD0FB681B6C042B07D1FB681B6823
:103EC0001A68FB681B6842F400721A60012316E04E
:103ED000FB681B681A68FB681B6842F400721A6072
:103EE000FB68202283F83D20FB68002283F83E20F7
:103EF000FB68002283F83C20002300E002231846E0
:103F00001837BD4680BD00BF020010000000FFFF53
:103F100080B58CB002AFF860084611461A460346D9
:103F20007B810B463B811346FB80FFF735FA7862B5
:103F3000FB6893F83D30DBB2202B40F014827B6AA3
:103F40000093192301227B49F86800F091FB034696
:103F5000002B01D0022307E2FB6893F83C30012BD1
:103F600001D1022300E2FB68012283F83C20FB68B8
:103F70001B681B6803F00103012B07D0FB681B685B
:103F80001A68FB681B6842F001021A60FB681B6834
:103F90001A68FB681B6822F400621A60FB68222220
:103FA00083F83D20FB68402283F83E20FB68002216
:103FB0001A64FB683A6B5A62FB68BA8E5A85FB68D2
:103FC0005B8D9AB2FB681A85FB685B4ADA62F888F7
:103FD0003A8979897B6A0193BB6B00930346F86841
:103FE00000F05EFA0346002B01D00123BCE1FB6820
:103FF0001B8D002B13D100233B62FB681B685B69A0
:104000003B62FB681B689B693B623B6AFB681B6801
:104010001A68FB681B6842F400721A6090E1FB6842
:104020001B8D012B1BD1FB681B681A68FB681B6882
:1040300022F480621A600023FB61FB681B685B69E5
:10404000FB61FB681B689B69FB61FB69FB681B6884
:104050001A68FB681B6842F400721A6070E1FB6822
:104060001B8D022B1BD1FB681B681A68FB681B6841
:1040700022F480621A60FB681B681A68FB681B6880
:1040800042F400621A600023BB61FB681B685B6935
:10409000BB61FB681B689B69BB61BB6950E1002386
:1040A0007B61FB681B685B697B61FB681B689B69C4
:1040B0007B617B6944E1FB681B8D032B00F2F1807F
:1040C000FB681B8D012B23D17A6AB96BF86800F06D
:1040D00079FC0346002B01D0012345E1FB681B68F6
:1040E0001A69FB685B6AD2B21A70FB685B6A5A1C79
:1040F000FB685A62FB681B8D013B9AB2FB681A850C
:10410000FB685B8D9BB2013B9AB2FB685A8517E155
:10411000FB681B8D022B4ED17B6A0093BB6B002288
:104120000649F86800F0A4FA0346002B08D00123E2
:104130001AE100BF020010000000FFFF04000100B0
:10414000FB681B681A68FB681B6842F400721A60FF
:10415000FB681B681A69FB685B6AD2B21A70FB685D
:104160005B6A5A1CFB685A62FB681B8D013B9AB262
:10417000FB681A85FB685B8D9BB2013B9AB2FB68BA
:104180005A85FB681B681A69FB685B6AD2B21A70B1
:10419000FB685B6A5A1CFB685A62FB681B8D013B1B
:1041A0009AB2FB681A85FB685B8D9BB2013B9AB2A1
:1041B000FB685A85C4E07B6A0093BB6B00226C49A4
:1041C000F86800F055FA0346002B01D00123CBE03C
:1041D000FB681B681A68FB681B6822F480621A601F
:1041E000FB681B681A69FB685B6AD2B21A70FB68CD
:1041F0005B6A5A1CFB685A62FB681B8D013B9AB2D2
:10420000FB681A85FB685B8D9BB2013B9AB2FB6829
:104210005A857B6A0093BB6B00225549F86800F011
:1042200027FA0346002B01D001239DE0FB681B68A1
:104230001A68FB681B6842F400721A60FB681B680E
:104240001A69FB685B6AD2B21A70FB685B6A5A1C17
:10425000FB685A62FB681B8D013B9AB2FB681A85AA
:10426000FB685B8D9BB2013B9AB2FB685A85FB6889
:104270001B681A69FB685B6AD2B21A70FB685B6ADA
:104280005A1CFB685A62FB681B8D013B9AB2FB68A3
:104290001A85FB685B8D9BB2013B9AB2FB685A851D
:1042A0004EE07A6AB96BF86800F08CFB0346002B8D
:1042B00001D0012358E0FB681B681A69FB685B6A40
:1042C000D2B21A70FB685B6A5A1CFB685A62FB68C0
:1042D0001B8D013B9AB2FB681A85FB685B8D9BB214
:1042E000013B9AB2FB685A85FB681B685B6903F067
:1042F0000403042B24D1FB681B8D032B07D1FB681F
:104300001B681A68FB681B6822F480621A60FB68ED
:104310001B681A69FB685B6AD2B21A70FB685B6A39
:104320005A1CFB685A62FB681B8D013B9AB2FB6802
:104330001A85FB685B8D9BB2013B9AB2FB685A857C
:10434000FB681B8D002B7FF4B6AEFB68202283F840
:104350003D20FB68002283F83E20FB68002283F8A2
:104360003C20002300E0022318462837BD4680BDCC
:104370000400010080B588B002AFF860084611461D
:104380001A4603467B810B463B811346FB80FB6844
:104390001B681A68FB681B6842F480721A607B6AAB
:1043A00000933B6A00224FF00111F86800F060F9B9
:1043B0000346002B0DD0FB681B681B6803F4807359
:1043C000B3F5807F03D1FB684FF400721A640323B6
:1043D0005FE07B89DBB21A46FB681B6802F0FE02D5
:1043E0001A617B6A3A6A2D49F86800F0BBF9034606
:1043F000002B01D001234CE000237B61FB681B688C
:104400005B697B61FB681B689B697B617B697A6A7E
:10441000396AF86800F046FA0346002B0DD0FB68B5
:104420001B6C042B07D1FB681B681A68FB681B68B0
:1044300042F400721A6001232BE0FB88012B05D1A6
:104440003B89DAB2FB681B681A6121E03B891B0AD1
:104450009BB2DAB2FB681B681A617A6A396AF8683B
:1044600000F020FA0346002B0DD0FB681B6C042BD8
:1044700007D1FB681B681A68FB681B6842F400726E
:104480001A60012305E03B89DAB2FB681B681A61F8
:10449000002318461837BD4680BD00BF020001004A
:1044A00080B588B002AFF860084611461A46034648
:1044B0007B810B463B811346FB80FB681B681A68B7
:1044C000FB681B6842F480621A60FB681B681A680C
:1044D000FB681B6842F480721A607B6A00933B6A37
:1044E00000224FF00111F86800F0C2F80346002BDB
:1044F0000DD0FB681B681B6803F48073B3F5807FE5
:1045000003D1FB684FF400721A640323AAE07B898D
:10451000DBB21A46FB681B6802F0FE021A617B6A76
:104520003A6A5249F86800F01DF90346002B01D0A1
:10453000012397E000237B61FB681B685B697B615B
:10454000FB681B689B697B617B697A6A396AF868DA
:1045500000F0A8F90346002B0DD0FB681B6C042B60
:1045600007D1FB681B681A68FB681B6842F400727D
:104570001A60012376E0FB88012B05D13B89DAB272
:10458000FB681B681A6121E03B891B0A9BB2DAB207
:10459000FB681B681A617A6A396AF86800F082F968
:1045A0000346002B0DD0FB681B6C042B07D1FB6866
:1045B0001B681A68FB681B6842F400721A600123CA
:1045C00050E03B89DAB2FB681B681A617A6A396A83
:1045D000F86800F067F90346002B0DD0FB681B6CF0
:1045E000042B07D1FB681B681A68FB681B6842F440
:1045F00000721A60012335E0FB681B681A68FB68CB
:104600001B6842F480721A607B6A00933B6A002246
:104610004FF00111F86800F02BF80346002B0DD085
:10462000FB681B681B6803F48073B3F5807F03D1BC
:10463000FB684FF400721A64032313E07B89DBB23A
:1046400043F00103DAB2FB681B681A617B6A3A6ABD
:104650000649F86800F086F80346002B01D00123D4
:1046600000E0002318461837BD4680BD0200010057
:1046700080B584B000AFF860B9603B601346FB7151
:1046800048E03B68B3F1FF3F44D0FEF785FE0246A9
:10469000BB69D31A3A689A4202D33B68002B39D1DE
:1046A000BB681B0CDBB2012B0DD1FB681B685B697F
:1046B000DA43BB6813409BB2002B0CBF01230023DD
:1046C000DBB21A460CE0FB681B689B69DA43BB68E7
:1046D00013409BB2002B0CBF01230023DBB21A4610
:1046E000FB799A4216D1FB6800221A63FB682022EC
:1046F00083F83D20FB68002283F83E20FB681B6C9A
:1047000043F02002FB681A64FB68002283F83C2017
:10471000012323E0BB681B0CDBB2012B0DD1FB682E
:104720001B685B69DA43BB6813409BB2002B0CBF6C
:1047300001230023DBB21A460CE0FB681B689B696F
:10474000DA43BB6813409BB2002B0CBF012300234C
:10475000DBB21A46FB799A4293D0002318461037F1
:10476000BD4680BD80B584B000AFF860B9607A60A6
:104770003B6071E0FB681B685B6903F48063B3F521
:10478000806F23D1FB681B681A68FB681B6842F4C2
:1047900000721A60FB681B686FF480625A61FB68E4
:1047A00000221A63FB68202283F83D20FB68002268
:1047B00083F83E20FB681B6C43F00402FB681A641C
:1047C000FB68002283F83C20012367E07B68B3F19B
:1047D000FF3F41D0FEF7E0FD02463B68D31A7A68FE
:1047E0009A4202D37B68002B36D1BB681B0CDBB22C
:1047F000012B0CD1FB681B685B69DA43BB68134073
:104800009BB2002B14BF01230023DBB20BE0FB683B
:104810001B689B69DA43BB6813409BB2002B14BF33
:1048200001230023DBB2002B16D0FB6800221A63A1
:10483000FB68202283F83D20FB68002283F83E209D
:10484000FB681B6C43F02002FB681A64FB680022C3
:1048500083F83C20012321E0BB681B0CDBB2012B59
:104860000CD1FB681B685B69DA43BB6813409BB2E1
:10487000002B14BF01230023DBB20BE0FB681B6895
:104880009B69DA43BB6813409BB2002B14BF012322
:104890000023DBB2002B7FF46DAF002318461037E6
:1048A000BD4680BD80B584B000AFF860B9607A6065
:1048B00034E0F86800F0E3F80346002B01D0012350
:1048C00034E0BB68B3F1FF3F28D0FEF765FD024638
:1048D0007B68D31ABA689A4202D3BB68002B1DD1F9
:1048E000FB681B685B6903F08003802B16D0FB68B4
:1048F00000221A63FB68202283F83D20FB68002217
:1049000083F83E20FB681B6C43F02002FB681A64AE
:10491000FB68002283F83C20012307E0FB681B684A
:104920005B6903F08003802BC3D100231846103746
:10493000BD4680BD80B584B000AFF860B9607A60D4
:1049400034E0F86800F09BF80346002B01D0012307
:1049500034E0BB68B3F1FF3F28D0FEF71DFD0246EF
:104960007B68D31ABA689A4202D3BB68002B1DD168
:10497000FB681B685B6903F00403042B16D0FB681B
:1049800000221A63FB68202283F83D20FB68002286
:1049900083F83E20FB681B6C43F02002FB681A641E
:1049A000FB68002283F83C20012307E0FB681B68BA
:1049B0005B6903F00403042BC3D1002318461037AE
:1049C000BD4680BD80B584B000AFF860B9607A6044
:1049D00049E0FB681B685B6903F01003102B19D1D9
:1049E000FB681B686FF010025A61FB6800221A63B3
:1049F000FB68202283F83D20FB68002283F83E20DC
:104A0000FB681A6CFB681A64FB68002283F83C2080
:104A1000012330E0FEF7C0FC02467B68D31ABA6877
:104A20009A4202D3BB68002B1DD1FB681B685B69EF
:104A300003F04003402B16D0FB6800221A63FB688A
:104A4000202283F83D20FB68002283F83E20FB688B
:104A50001B6C43F02002FB681A64FB68002283F899
:104A60003C20012307E0FB681B685B6903F04003FF
:104A7000402BAED1002318461037BD4680BD80B410
:104A800083B000AF78607B681B685B6903F4806368
:104A9000B3F5806F1BD17B681B686FF480625A612D
:104AA0007B6800221A637B68202283F83D207B68A4
:104AB000002283F83E207B681B6C43F004027B6875
:104AC0001A647B68002283F83C20012300E0002365
:104AD00018460C37BD465DF8047B704780B586B03C
:104AE00000AF78607B68002B01D1012367E27B680F
:104AF0001B6803F00103002B75D0884B9B6803F003
:104B00000C03042B0CD0854B9B6803F00C03082B83
:104B100012D1824B5B6803F48003B3F5800F0BD195
:104B20007E4B1B6803F40033002B5BD07B685B6813
:104B3000002B57D1012342E27B685B68B3F5803FCD
:104B400006D1764B1B68754A43F4803313601DE031
:104B50007B685B68B3F5A02F0CD1704B1B686F4A64
:104B600043F4802313606D4B1B686C4A43F480331D
:104B700013600BE0694B1B68684A23F480331360B1
:104B8000664B1B68654A23F4802313607B685B686F
:104B9000002B13D0FEF700FC386108E0FEF7FCFBA9
:104BA00002463B69D31A642B01D9032307E25B4B0E
:104BB0001B6803F40033002BF0D014E0FEF7ECFB8D
:104BC000386108E0FEF7E8FB02463B69D31A642B24
:104BD00001D90323F3E1514B1B6803F40033002B8D
:104BE000F0D100E000BF7B681B6803F00203002BDC
:104BF00063D04A4B9B6803F00C03002B0BD0474B50
:104C00009B6803F00C03082B1CD1444B5B6803F436
:104C10008003002B16D1414B1B6803F00203002BCD
:104C200005D07B68DB68012B01D00123C7E13B4B3A
:104C30001B6823F0F8027B681B69DB0037491343CC
:104C40000B603AE07B68DB68002B20D0344B0122FC
:104C50001A60FEF7A1FB386108E0FEF79DFB0246F3
:104C60003B69D31A022B01D90323A8E12B4B1B6804
:104C700003F00203002BF0D0284B1B6823F0F8024E
:104C80007B681B69DB00254913430B6015E0244B4F
:104C900000221A60FEF780FB386108E0FEF77CFB1B
:104CA00002463B69D31A022B01D9032387E11B4B30
:104CB0001B6803F00203002BF0D17B681B6803F034
:104CC0000803002B36D07B685B69002B16D0154B90
:104CD00001221A60FEF760FB386108E0FEF75CFB1A
:104CE00002463B69D31A022B01D9032367E10B4B20
:104CF0005B6F03F00203002BF0D01BE0094B002296
:104D00001A60FEF749FB38610EE0FEF745FB0246EC
:104D10003B69D31A022B07D9032350E10038024024
:104D200000004742800E4742884B5B6F03F002034E
:104D3000002BEAD17B681B6803F00403002B00F012
:104D400097800023FB75814B1B6C03F08053002B75
:104D50000FD10023BB607D4B1B6C7C4A43F080531A
:104D600013647A4B1B6C03F08053BB60BB68012358
:104D7000FB75774B1B6803F48073002B18D1744BC1
:104D80001B68734A43F480731360FEF705FB3861B8
:104D900008E0FEF701FB02463B69D31A022B01D95A
:104DA00003230CE16A4B1B6803F48073002BF0D0E3
:104DB0007B689B68012B06D1644B1B6F634A43F0F1
:104DC000010313671CE07B689B68052B0CD15F4BCC
:104DD0001B6F5E4A43F0040313675C4B1B6F5B4A17
:104DE00043F0010313670BE0584B1B6F574A23F046
:104DF00001031367554B1B6F544A23F004031367D9
:104E00007B689B68002B15D0FEF7C6FA38610AE074
:104E1000FEF7C2FA02463B69D31A41F28832934246
:104E200001D90323CBE0494B1B6F03F00203002B96
:104E3000EED014E0FEF7B0FA38610AE0FEF7ACFA03
:104E400002463B69D31A41F28832934201D90323C7
:104E5000B5E03E4B1B6F03F00203002BEED1FB7D50
:104E6000012B05D1394B1B6C384A23F08053136456
:104E70007B689B69002B00F0A180344B9B6803F09A
:104E80000C03082B5CD07B689B69022B41D1314B12
:104E900000221A60FEF780FA386108E0FEF77CFA1B
:104EA00002463B69D31A022B01D9032387E0274B23
:104EB0001B6803F00073002BF0D17B68DA697B6814
:104EC0001B6A1A437B685B6A9B011A437B689B6A77
:104ED0005B08013B1B041A437B68DB6A1B061B490A
:104EE00013434B601B4B01221A60FEF755FA3861E1
:104EF00008E0FEF751FA02463B69D31A022B01D9AA
:104F000003235CE0114B1B6803F00073002BF0D00F
:104F100054E0104B00221A60FEF73EFA386108E0B8
:104F2000FEF73AFA02463B69D31A022B01D9032352
:104F300045E0064B1B6803F00073002BF0D13DE009
:104F40007B689B69012B07D1012338E000380240C0
:104F500000700040600047421B4B5B68FB607B6851
:104F60009B69012B28D0FB6803F480027B68DB6916
:104F70009A4221D1FB6803F03F027B681B6A9A4288
:104F80001AD1FA6847F6C07313407A68526A9201E0
:104F9000934211D1FB6803F440327B689B6A5B0843
:104FA000013B1B049A4207D1FB6803F070627B68E7
:104FB000DB6A1B069A4201D0012300E00023184659
:104FC0001837BD4680BD00BF0038024080B584B0B0
:104FD00000AF786039607B68002B01D10123CCE001
:104FE000684B1B6803F007033A689A420CD9654B7B
:104FF0003A68D2B21A70634B1B6803F007033A6831
:105000009A4201D00123B8E07B681B6803F00203D9
:10501000002B20D07B681B6803F00403002B05D015
:10502000594B9B68584A43F4E05393607B681B6874
:1050300003F00803002B05D0534B9B68524A43F4FE
:1050400060439360504B9B6823F0F0027B689B6841
:105050004D4913438B607B681B6803F00103002BF1
:1050600044D07B685B68012B07D1474B1B6803F476
:105070000033002B19D101237FE07B685B68022B92
:1050800003D07B685B68032B07D13F4B1B6803F0A1
:105090000073002B09D101236FE03B4B1B6803F029
:1050A0000203002B01D1012367E0374B9B6823F0FB
:1050B00003027B685B68344913438B60FEF76CF92D
:1050C000F8600AE0FEF768F90246FB68D31A41F27D
:1050D0008832934201D903234FE02B4B9B6803F0A6
:1050E0000C027B685B689B009A42EBD1254B1B68E6
:1050F00003F007033A689A420CD2224B3A68D2B2C4
:105100001A70204B1B6803F007033A689A4201D0DB
:10511000012332E07B681B6803F00403002B08D0F6
:10512000194B9B6823F4E0527B68DB6816491343F4
:105130008B607B681B6803F00803002B09D0124BBF
:105140009B6823F460427B681B69DB000E491343B4
:105150008B6000F02DF802460B4B9B681B0903F097
:105160000F030A49CB5C22FA03F3094A1360094B87
:105170001B681846FDF758FD002318461037BD463A
:1051800080BD00BF003C024000380240C0E800087B
:105190003C0100204001002080B400AF034B0122FD
:1051A0001A6000BFBD465DF8047B70474C00474263
:1051B0002DE9B04F90B000AF00237B630023FB6369
:1051C00000233B630023BB63594B9B6803F00C0334
:1051D000082B0DD0082B00F2A180002B02D0042B4D
:1051E00003D09BE0534BBB639BE0534BBB6398E006
:1051F0004F4B5B6803F03F037B634D4B5B6803F4ED
:105200008003002B28D04A4B5B689B0900223B623D
:105210007A623B6AC3F308000021474B03FB01F2AB
:10522000002300FB03F31344434AA0FB0212FA627B
:105230000A46BA62FA6A1344FB627B6B0022BB61C6
:10524000FA61D7E90623D7E90A01FBF7ADFC02466C
:105250000B461346FB6353E0354B5B689B0900220A
:105260003B617A613B69C3F3080A4FF0000B524679
:105270005B464FF000004FF00001590141EAD26156
:10528000500102460B46B2EB0A0863EB0B094FF0E4
:1052900000024FF000034FEA891343EA98634FEA94
:1052A0008812B2EB080463EB09054FF000024FF0DF
:1052B0000003EB0043EA5473E20014461D4614EB6E
:1052C0000A033B6045EB0B037B604FF000024FF09D
:1052D0000003D7E9004529468B02214643EA915352
:1052E00021468A02104619467B6B0022BB60FA6099
:1052F000D7E90223FBF758FC02460B461346FB6333
:105300000B4B5B681B0C03F0030301335B003B6337
:10531000FA6B3B6BB2FBF3F3BB6302E0054BBB6381
:1053200000BFBB6B18464037BD46BDE8B08F00BF1D
:10533000003802400024F40040787D0180B400AFC2
:10534000034B1B681846BD465DF8047B704700BFE1
:105350003C01002080B500AFFFF7F0FF0246054B8F
:105360009B689B0A03F007030349CB5C22FA03F313
:10537000184680BD00380240D0E8000880B500AF74
:10538000FFF7DCFF0246054B9B685B0B03F007034E
:105390000349CB5C22FA03F3184680BD0038024073
:1053A000D0E8000880B483B000AF786039607B68D3
:1053B0000F221A60124B9B6803F003027B685A604D
:1053C0000F4B9B6803F0F0027B689A600C4B9B6864
:1053D00003F4E0527B68DA60094B9B68DB0803F456
:1053E000E0527B681A61074B1B6803F007023B68B9
:1053F0001A6000BF0C37BD465DF8047B704700BFE4
:1054000000380240003C024080B500AF064BDB682C
:1054100003F08003802B04D100F00AF8034B8022B4
:105420001A7000BF80BD00BF003802400E38024035
:1054300080B400AF00BFBD465DF8047B704780B507
:1054400082B000AF78607B68002B01D101237BE044
:105450007B685B6A002B08D17B685B68B3F5827F51
:1054600009D07B680022DA6105E07B6800221A61BE
:105470007B6800225A617B6800229A627B6893F8FD
:105480005130DBB2002B06D17B68002283F850201C
:105490007868FDF755FB7B68022283F851207B6812
:1054A0001B681A687B681B6822F040021A607B68E0
:1054B0005B6803F482727B689B6803F404431A43BD
:1054C0007B68DB6803F400631A437B681B6903F0A5
:1054D00002031A437B685B6903F001031A437B688C
:1054E0009B6903F400731A437B68DB6903F038039C
:1054F0001A437B681B6A03F0800342EA03017B685E
:105500009B6A03F400527B681B680A431A607B683D
:105510009B691B0C03F004017B685B6A03F01002BB
:105520007B681B680A435A607B681B68DA697B6882
:105530001B6822F40062DA617B6800225A657B688E
:10554000012283F85120002318460837BD4680BD4C
:1055500080B588B000AFF860B9603B601346FB804F
:10556000FDF71AFFF861FB887B83FB6893F85130E5
:10557000DBB2012B01D002232AE1BB68002B02D051
:10558000FB88002B01D1012322E1FB6893F8503006
:10559000012B01D102231BE1FB68012283F850207B
:1055A000FB68032283F85120FB6800225A65FB68E0
:1055B000BA681A63FB68FA889A86FB68FA88DA8602
:1055C000FB6800229A63FB6800229A87FB6800222E
:1055D000DA87FB6800225A64FB6800221A64FB68C1
:1055E0009B68B3F5004F0FD1FB681B681A68FB6816
:1055F0001B6822F040021A60FB681B681A68FB688F
:105600001B6842F480421A60FB681B681B6803F049
:105610004003402B07D0FB681B681A68FB681B68B7
:1056200042F040021A60FB68DB68B3F5006F52D1AC
:10563000FB685B68002B02D07B8B012B45D1FB689C
:105640001B6B1A88FB681B68DA60FB681B6B9A1C73
:10565000FB681A63FB68DB8E9BB2013B9AB2FB6866
:10566000DA8632E0FB681B689B6803F00203022BBA
:1056700012D1FB681B6B1A88FB681B68DA60FB6839
:105680001B6B9A1CFB681A63FB68DB8E9BB2013BA9
:105690009AB2FB68DA8618E0FDF77EFE0246FB69E7
:1056A000D31A3A689A4203D83B68B3F1FF3F02D15C
:1056B0003B68002B09D1FB68012283F85120FB686D
:1056C000002283F85020032382E0FB68DB8E9BB22C
:1056D000002BC7D153E0FB685B68002B02D07B8BAB
:1056E000012B47D1FB681A6BFB681B680C331278DF
:1056F0001A70FB681B6B5A1CFB681A63FB68DB8E15
:105700009BB2013B9AB2FB68DA8633E0FB681B6808
:105710009B6803F00203022B13D1FB681A6BFB6832
:105720001B680C3312781A70FB681B6B5A1CFB68E1
:105730001A63FB68DB8E9BB2013B9AB2FB68DA8688
:1057400018E0FDF729FE0246FB69D31A3A689A422F
:1057500003D83B68B3F1FF3F02D13B68002B09D16E
:10576000FB68012283F85120FB68002283F8502057
:1057700003232DE0FB68DB8E9BB2002BC6D1FA69B8
:105780003968F86800F0E6FB0346002B02D0FB689E
:1057900020225A65FB689B68002B0AD100237B619D
:1057A000FB681B68DB687B61FB681B689B687B612F
:1057B0007B69FB68012283F85120FB68002283F893
:1057C0005020FB685B6D002B01D0012300E000231B
:1057D00018462037BD4680BD80B588B002AFF8605E
:1057E000B9603B601346FB80FB6893F85130DBB235
:1057F000012B01D0022304E1FB685B68B3F5827FD3
:1058000012D1FB689B68002B0ED1FB68042283F841
:105810005120FA883B6800931346BA68B968F86863
:1058200000F0F3F80346ECE0FDF7B6FD7861BB68E5
:10583000002B02D0FB88002B01D10123E1E0FB68A3
:1058400093F85030012B01D10223DAE0FB680122EA
:1058500083F85020FB68042283F85120FB68002263
:105860005A65FB68BA689A63FB68FA889A87FB688E
:10587000FA88DA87FB6800221A63FB6800229A869E
:10588000FB680022DA86FB6800221A64FB680022AB
:105890005A64FB689B68B3F5004F0FD1FB681B6827
:1058A0001A68FB681B6822F040021A60FB681B68DC
:1058B0001A68FB681B6822F480421A60FB681B6848
:1058C0001B6803F04003402B07D0FB681B681A6875
:1058D000FB681B6842F040021A60FB68DB68002B23
:1058E00070D135E0FB681B689B6803F00103012B56
:1058F00015D1FB681B6803F10C02FB689B6B1278E7
:10590000D2B21A70FB689B6B5A1CFB689A63FB68E7
:10591000DB8F9BB2013B9AB2FB68DA8718E0FDF798
:105920003BFD02467B69D31A3A689A4203D83B682A
:10593000B3F1FF3F02D13B68002B09D1FB68012284
:1059400083F85120FB68002283F85020032358E09D
:10595000FB68DB8F9BB2002BC4D138E0FB681B686F
:105960009B6803F00103012B13D1FB681B68DA6805
:10597000FB689B6B92B21A80FB689B6B9A1CFB685E
:105980009A63FB68DB8F9BB2013B9AB2FB68DA87B4
:1059900018E0FDF701FD02467B69D31A3A689A4286
:1059A00003D83B68B3F1FF3F02D13B68002B09D11C
:1059B000FB68012283F85120FB68002283F8502005
:1059C00003231EE0FB68DB8F9BB2002BC6D17A69F4
:1059D0003968F86800F058FA0346002B02D0FB68DB
:1059E00020225A65FB68012283F85120FB680022BF
:1059F00083F85020FB685B6D002B01D0012300E091
:105A0000002318461837BD4680BD80B58AB000AF68
:105A1000F860B9607A607B8001237B62FDF7BCFC93
:105A20003862FB6893F85130FB77FB685B68BB61B9
:105A30007B88FB82FB7F012B0CD0BB69B3F5827F97
:105A400006D1FB689B68002B02D1FB7F042B01D0A1
:105A500002237FE1BB68002B05D07B68002B02D0BE
:105A60007B88002B01D1012374E1FB6893F850304F
:105A7000012B01D102236DE1FB68012283F8502044
:105A8000FB6893F85130DBB2042B03D0FB6805228E
:105A900083F85120FB6800225A65FB687A689A6394
:105AA000FB687A88DA87FB687A889A87FB68BA6825
:105AB0001A63FB687A88DA86FB687A889A86FB68BC
:105AC00000221A64FB6800225A64FB681B681B688A
:105AD00003F04003402B07D0FB681B681A68FB6883
