:020000040800F2
:1000000000000120A51A0008D1120008DD12000826
:10001000E5120008ED120008F512000800000000CB
:10002000000000000000000000000000FD120008B9
:100030000B13000800000000191300082713000824
:10004000F51A0008F51A0008F51A0008F51A000854
:10005000F51A0008F51A0008F51A0008F51A000844
:10006000F51A0008F51A0008F51A0008F51A000834
:10007000F51A0008F51A0008F51A0008F51A000824
:10008000F51A0008F51A0008F51A0008000000002B
:10009000000000000000000000000000F51A000849
:1000A000F51A0008F51A0008F51A0008F51A0008F4
:1000B000F51A0008F51A0008F51A0008F51A0008E4
:1000C000F51A0008F51A0008F51A0008F51A0008D4
:1000D000F51A0008F51A0008F51A000800000000DB
:1000E000F51A0008F51A0008F51A000800000000CB
:1000F000000000000000000000000000F51A0008E9
:1001000000000000F51A0008F51A0008F51A0008AA
:1001100000000000000000000000000000000000DF
:10012000F51A0008F51A0008F51A0008F51A000873
:10013000F51A0008000000000000000000000000A8
:10014000000000000000000000000000F51A000898
:10015000F51A0008F51A0008F51A0008F51A000843
:10016000F51A0008F51A0008000000000000000061
:10017000000000000000000000000000000000007F
:1001800000000000F51A0008000000000000000058
:04019000F51A000854
:1001980010B5054C237833B9044B13B10448AFF3B9
:1001A80000800123237010BD8001002000000000A2
:1001B8008857000808B5034B1BB103490348AFF340
:1001C800008008BD00000000840100208857000856
:1001D80081F0004102E000BF83F0004330B54FEAF0
:1001E80041044FEA430594EA050F08BF90EA020F5D
:1001F8001FBF54EA000C55EA020C7FEA645C7FEAF0
:10020800655C00F0E2804FEA5454D4EB5555B8BF12
:100218006D420CDD2C4480EA020281EA030382EA83
:10022800000083EA010180EA020281EA0303362D15
:1002380088BF30BD11F0004F4FEA01314FF4801CE8
:100248004CEA113102D0404261EB410113F0004FFA
:100258004FEA03334CEA133302D0524263EB4303B1
:1002680094EA050F00F0A780A4F10104D5F1200E4F
:100278000DDB02FA0EFC22FA05F2801841F10001AA
:1002880003FA0EF2801843FA05F359410EE0A5F17E
:1002980020050EF1200E012A03FA0EFC28BF4CF0AF
:1002A800020C43FA05F3C01851EBE37101F0004565
:1002B80007D54FF0000EDCF1000C7EEB00006EEB72
:1002C8000101B1F5801F1BD3B1F5001F0CD34908FC
:1002D8005FEA30004FEA3C0C04F101044FEA445253
:1002E80012F5800F80F09A80BCF1004F08BF5FEADA
:1002F800500C50F1000041EB045141EA050130BDBA
:100308005FEA4C0C404141EB0101013C28BFB1F5CB
:10031800801FE9D291F0000F04BF01460020B1FA16
:1003280081F308BF2033A3F10B03B3F120020CDAE9
:100338000C3208DD02F1140CC2F10C0201FA0CF0C7
:1003480021FA02F10CE002F11402D8BFC2F1200C2C
:1003580001FA02F120FA0CFCDCBF41EA0C019040E2
:10036800E41AA2BF01EB0451294330BD6FEA04042B
:100378001F3C1CDA0C340EDC04F11404C4F1200216
:1003880020FA04F001FA02F340EA030021FA04F328
:1003980045EA030130BDC4F10C04C4F1200220FA7F
:1003A80002F001FA04F340EA0300294630BD21FABD
:1003B80004F0294630BD94F0000F83F4801306BF83
:1003C80081F480110134013D4EE77FEA645C18BF77
:1003D8007FEA655C29D094EA050F08BF90EA020F0E
:1003E80005D054EA000C04BF1946104630BD91EA06
:1003F800030F1EBF0021002030BD5FEA545C05D109
:100408004000494128BF41F0004130BD14F5800447
:100418003CBF01F5801130BD01F0004545F0FE41BB
:1004280041F470014FF0000030BD7FEA645C1ABFF0
:10043800194610467FEA655C1CBF0B46024650EA27
:10044800013406BF52EA033591EA030F41F4002153
:1004580030BD00BF90F0000F04BF0021704730B5D9
:100468004FF4806404F132044FF000054FF00001AE
:1004780050E700BF90F0000F04BF0021704730B56F
:100488004FF4806404F1320410F0004548BF404244
:100498004FF000013EE700BF42004FEAE2014FEA99
:1004A80031014FEA02701FBF12F07F4393F07F4F74
:1004B80081F06051704732F07F4208BF704793F077
:1004C8007F4F04BF41F40021704730B54FF460748A
:1004D80001F0004521F000411CE700BF50EA01028D
:1004E80008BF704730B54FF000050AE050EA010236
:1004F80008BF704730B511F0004502D5404261EBA6
:1005080041014FF4806404F132045FEA915C3FF4E6
:10051800D8AE4FF003025FEADC0C18BF03325FEA83
:10052800DC0C18BF033202EBDC02C2F1200300FA34
:1005380003FC20FA02F001FA03FE40EA0E0021FA59
:1005480002F11444BDE600BF70B54FF0FF0C4CF447
:10055800E06C1CEA11541DBF1CEA135594EA0C0FF9
:1005680095EA0C0F00F0DEF82C4481EA030621EA34
:100578004C5123EA4C5350EA013518BF52EA03356F
:1005880041F4801143F4801338D0A0FB02CE4FF021
:100598000005E1FB02E506F00042E0FB03E54FF051
:1005A8000006E1FB03569CF0000F18BF4EF0010E49
:1005B800A4F1FF04B6F5007F64F5407404D25FEA45
:1005C8004E0E6D4146EB060642EAC62141EA5551F8
:1005D8004FEAC52040EA5E504FEACE2EB4F1FD0C3A
:1005E80088BFBCF5E06F1ED8BEF1004F08BF5FEAB8
:1005F800500E50F1000041EB045170BD06F000466A
:1006080046EA010140EA020081EA0301B4EB5C0416
:10061800C2BFD4EB0C0541EA045170BD41F480110E
:100628004FF0000E013C00F3AB8014F1360FDEBF33
:10063800002001F0004170BDC4F10004203C35DA0F
:100648000C341BDC04F11404C4F1200500FA05F392
:1006580020FA04F001FA05F240EA020001F0004233
:1006680021F0004110EBD37021FA04F642EB0601A9
:100678005EEA430E08BF20EAD37070BDC4F10C04D3
:10068800C4F1200500FA04F320FA05F001FA04F297
:1006980040EA020001F0004110EBD37041F1000183
:1006A8005EEA430E08BF20EAD37070BDC4F120058E
:1006B80000FA05F24EEA020E20FA04F301FA05F2F6
:1006C80043EA020321FA04F001F0004121FA04F29E
:1006D80020EA020000EBD3705EEA430E08BF20EA6E
:1006E800D37070BD94F0000F0FD101F000464000A8
:1006F80041EB010111F4801F08BF013CF7D041EA2A
:10070800060195F0000F18BF704703F0004652002D
:1007180043EB030313F4801F08BF013DF7D043EAFE
:100728000603704794EA0C0F0CEA135518BF95EAB4
:100738000C0F0CD050EA410618BF52EA4306D1D13B
:1007480081EA030101F000414FF0000070BD50EA5A
:10075800410606BF1046194652EA430619D094EAE4
:100768000C0F02D150EA013613D195EA0C0F05D1CE
:1007780052EA03361CBF104619460AD181EA030122
:1007880001F0004141F0FE4141F470014FF00000DA
:1007980070BD41F0FE4141F4780170BD70B54FF075
:1007A800FF0C4CF4E06C1CEA11541DBF1CEA1355F5
:1007B80094EA0C0F95EA0C0F00F0A7F8A4EB0504D7
:1007C80081EA030E52EA03354FEA013100F08880CE
:1007D8004FEA03334FF0805545EA131343EA126397
:1007E8004FEA022245EA111545EA10654FEA00264C
:1007F8000EF000419D4208BF964244F1FD0404F505
:10080800407402D25B084FEA3202B61A65EB030560
:100818005B084FEA32024FF480104FF4002CB6EB1D
:10082800020E75EB030E22BFB61A754640EA0C009D
:100838005B084FEA3202B6EB020E75EB030E22BFDD
:10084800B61A754640EA5C005B084FEA3202B6EB1E
:10085800020E75EB030E22BFB61A754640EA9C00DD
:100868005B084FEA3202B6EB020E75EB030E22BFAD
:10087800B61A754640EADC0055EA060E18D04FEA6B
:10088800051545EA16754FEA06164FEAC30343EA0B
:1008980052734FEAC2025FEA1C1CC0D111F4801FD8
:1008A8000BD141EA00014FF000004FF0004CB6E7D1
:1008B80011F4801F04BF01430020B4F1FD0C88BF70
:1008C800BCF5E06F3FF6AFAEB5EB030C04BFB6EB7B
:1008D800020C5FEA500C50F1000041EB045170BD6E
:1008E8000EF0004E4EEA113114EB5C04C2BFD4EB9B
:1008F8000C0541EA045170BD41F480114FF0000E1F
:10090800013C90E645EA060E8DE60CEA135594EA9A
:100918000C0F08BF95EA0C0F3FF43BAF94EA0C0F9D
:100928000AD150EA01347FF434AF95EA0C0F7FF412
:1009380025AF104619462CE795EA0C0F06D152EA66
:1009480003353FF4FDAE1046194622E750EA41064A
:1009580018BF52EA43067FF4C5AE50EA41047FF45B
:100968000DAF52EA43057FF4EBAE12E74FF0FF3CC0
:1009780006E000BF4FF0010C02E000BF4FF0010C91
:100988004DF804CD4FEA410C7FEA6C5C4FEA430C0A
:1009980018BF7FEA6C5C1BD001B050EA410C0CBF59
:1009A80052EA430C91EA030F02BF90EA020F0020BB
:1009B800704710F1000F91EA030F58BF994208BF22
:1009C80090422CBFD8176FEAE37040F001007047DF
:1009D8004FEA410C7FEA6C5C02D150EA013C07D136
:1009E8004FEA430C7FEA6C5CD6D152EA033CD3D081
:1009F8005DF8040B704700BF8446104662468C467B
:100A08001946634600E000BF01B5FFF7B7FF0028AD
:100A180048BF10F1000F01BD4DF808EDFFF7F4FFD6
:100A28000CBF012000205DF808FB00BF4DF808ED61
:100A3800FFF7EAFF34BF012000205DF808FB00BF84
:100A48004DF808EDFFF7E0FF94BF012000205DF8A6
:100A580008FB00BF4DF808EDFFF7CEFF94BF01205B
:100A680000205DF808FB00BF4DF808EDFFF7C4FF54
:100A780034BF012000205DF808FB00BF4FEA4102A7
:100A880012F5001215D211D56FF47873B3EB6252D8
:100A980012D94FEAC12343F0004343EA505311F0FF
:100AA800004F23FA02F018BF404270474FF0000091
:100AB800704750EA013005D111F0004008BF6FF0CF
:100AC800004070474FF00000704700BF4FEA4102F6
:100AD800B2F1E04324BFB3F5001CDCF1FE5C0DD994
:100AE80001F0004C4FEAC0024CEA5070B2F1004FDE
:100AF80040EB830008BF20F00100704711F0804FE1
:100B080021D113F13872BCBF01F00040704741F4A5
:100B180080114FEA5252C2F11802C2F1200C10FAA9
:100B28000CF320FA02F018BF40F001004FEAC1238D
:100B38004FEAD32303FA0CFC40EA0C0023FA02F331
:100B48004FEA4303CCE77FEA625307D150EA013307
:100B58001EBF4FF0FE4040F44000704701F00040D7
:100B680040F0FE4040F40000704700BF53B94AB956
:100B7800002908BF00281CBF4FF0FF314FF0FF309D
:100B880000F06AB9ADF1080C6DE904CE00F006F882
:100B9800DDF804E0DDE9022304B070472DE9F047F1
:100BA800089D0C46002B4ED194468C458646B2FAD9
:100BB80082F262D94AB1C2F12003914020FA03F3CC
:100BC8000CFA02FC194300FA02FE4FEA1C471FFA0E
:100BD8008CF6B1FBF7F44FEA1E4307FB141143EA06
:100BE800014304FB06F199420AD91CEB030304F103
:100BF800FF3080F01281994240F20F81023C634439
:100C0800591A1FFA8EF3B1FBF7F007FB101143EAEC
:100C1800014300FB06F69E420AD91CEB030300F1D0
:100C2800FF3180F0FC809E4240F2F9806344023834
:100C38009B1B40EA044000211DB1D3400022C5E9B6
:100C48000032BDE8F0878B4205D90DB1C5E9000136
:100C580000210846F5E7B3FA83F1002946D1A342FB
:100C680002D39042C0F0F080861A64EB030301209F
:100C7800002DE6D0C5E90063E3E7002A40F0908044
:100C8800A1EB0C044FEA1C481FFA8CF70121B4FBB6
:100C9800F8F64FEA1E4308FB164443EA044307FBF1
:100CA80006F0984208D91CEB030306F1FF3402D280
:100CB800984200F2CD8026461C1A1FFA8EF3B4FB28
:100CC800F8F008FB104443EA044300FB07F79F428F
:100CD80008D91CEB030300F1FF3402D29F4200F253
:100CE800B0802046DB1B40EA0640A5E7C1F120069C
:100CF8008B4022FA06F71F4320FA06FC04FA01F398
:100D080043EA0C03F44000FA01F8380C4FEA13499F
:100D1800B4FBF0FE1FFA87FC00FB1E4449EA0444BA
:100D28000EFB0CF9A14502FA01F20AD93C190EF1A1
:100D3800FF3A80F08480A14540F28180AEF1020E36
:100D48003C44A4EB09041FFA83F9B4FBF0F300FB5D
:100D5800134449EA044403FB0CFCA44507D93C1995
:100D680003F1FF3067D2A44565D9023B3C4443EA0E
:100D78000E40A0FB0293A4EB0C049C42CE469C467A
:100D880051D34ED055B1B8EB0E0364EB0C0404FA02
:100D980006F6CB401E43CC40C5E90064002150E76D
:100DA800C2F1200320FA03F10CFA02FC24FA03F33F
:100DB80094400C434FEA1C4800FA02FE1FFA8CF7D5
:100DC800B3FBF8F008FB1031230C43EA014300FBA6
:100DD80007F1994208D91CEB030300F1FF362CD226
:100DE80099422AD9023863445B1AA4B2B3FBF8F1DA
:100DF80008FB113344EA034401FB07F3A34208D973
:100E08001CEB040401F1FF3613D2A34211D90239B5
:100E18006444E41A41EA004139E70446F0E608462A
:100E280006E7C845AED2B9EB020E63EB070C0138F2
:100E3800A8E73146EDE7034699E73046D4E7D646BA
:100E48007FE7634402384DE70646234608460FE726
:100E5800023E634430E700BF704700BF80B58AB0E8
:100E680000AF07F1140300221A605A609A60DA6032
:100E78001A6100233B613B4B1B6B3A4A43F0040366
:100E88001363384B1B6B03F004033B613B6900237E
:100E9800FB60344B1B6B334A43F080031363314BC5
:100EA8001B6B03F08003FB60FB680023BB602D4BCA
:100EB8001B6B2C4A43F0010313632A4B1B6B03F093
:100EC8000103BB60BB6800237B60264B1B6B254A74
:100ED80043F002031363234B1B6B03F002037B6095
:100EE8007B6800224FF440411F4801F001F90022BD
:100EF80033211E4801F0FCF800224FF440611C48E1
:100F080001F0F6F84FF440437B610123BB610223F3
:100F1800FB6100233B6207F114031946124800F0F5
:100F280063FF33237B610123BB610223FB61002341
:100F38003B6207F1140319460C4800F055FF4FF4C3
:100F480040637B610123BB610223FB6100233B6299
:100F580007F114031946064800F046FF00BF28377A
:100F6800BD4680BD0038024000080240000402402F
:100F78000000024080B582B000AF00F0B9FD00F07B
:100F880009F9FFF76BFF00F0E3F900F0E1FA00F070
:100F980037FA00F089FA00F03FFB00F091FB9FED73
:100FA800750A754802F05CFF03461A46734B1B78B6
:100FB8001343DAB2714B1A70DFED710A9FED710AB3
:100FC8006D4802F095FC03461A466C4B1B78134398
:100FD800DAB26A4B1A700023FB7112E09FED650AC2
:100FE800654803F077F803461A46644B1B781343A9
:100FF800DAB2624B1A70642000F0ECFDFB79013321
:10100800FB71FB79312BE9D95B4802F0CBFE034633
:101018001A465A4B1B781343DAB2584B1A704FF4DE
:10102800FA6000F0D7FDDFED560A9FED570A5248E7
:1010380002F05EFC03461A46504B1B781343DAB2A3
:101048004E4B1A700023BB7112E09FED4A0A4A48C2
:1010580003F040F803461A46484B1B781343DAB2AC
:10106800464B1A70642000F0B5FDBB790133BB71A3
:10107800BB79312BE9D9404802F094FE03461A4661
:101088003E4B1B781343DAB23C4B1A704FF4FA60AC
:1010980000F0A0FDDFED3A0A9FED3C0A364802F069
:1010A80027FC03461A46354B1B781343DAB2334BF9
:1010B8001A7000237B7112E09FED2E0A2E4803F070
:1010C80009F803461A462D4B1B781343DAB22B4B0B
:1010D8001A70642000F07EFD7B7901337B717B7987
:1010E800312BE9D9244802F05DFE03461A46234B0A
:1010F8001B781343DAB2214B1A704FF4FA6000F0F0
:1011080069FDDFED1F0A9FED220A1B4802F0F0FB84
:1011180003461A46194B1B781343DAB2174B1A7059
:1011280000233B7112E09FED130A134802F0D2FF2F
:1011380003461A46114B1B781343DAB20F4B1A7049
:10114800642000F047FD3B7901333B713B79312B3B
:10115800E9D9094802F026FE03461A46074B1B78D0
:101168001343DAB2054B1A704FF4FA6000F032FDFF
:1011780022E700BF0000C8420C0000209C010020AC
:10118800CDCC4C3E00000000000034430000B442C7
:101198000000874380B594B000AF07F120033022E8
:1011A8000021184603F016FA07F10C0300221A6012
:1011B8005A609A60DA601A610023BB60294B1B6C85
:1011C800284A43F080531364264B1B6C03F080536A
:1011D800BB60BB6800237B60234B1B6823F4404340
:1011E800214A43F4004313601F4B1B6803F4404338
:1011F8007B607B6801233B624FF480337B62022370
:10120800BB634FF48003FB6319233B64A8237B640F
:101218000223BB640423FB6407F12003184600F093
:1012280081FF0346002B01D000F020F80F23FB605C
:1012380002233B6100237B614FF48053BB61002391
:10124800FB6107F10C030221184601F0E3F903469C
:10125800002B01D000F00AF801F0C2FA00BF5037A5
:10126800BD4680BD003802400070004080B400AF29
:1012780072B600BF00BFFDE780B483B000AF0023A3
:101288007B60104B5B6C0F4A43F4804353640D4BF7
:101298005B6C03F480437B607B6800233B60094BF5
:1012A8001B6C084A43F080531364064B1B6C03F015
:1012B80080533B603B6800BF0C37BD465DF8047B3C
:1012C800704700BF0038024080B500AF01F05AFBFC
:1012D80000BFFDE780B400AF00BFFDE780B400AFFA
:1012E80000BFFDE780B400AF00BFFDE780B400AFEA
:1012F80000BFFDE780B400AF00BFBD465DF8047BCA
:10130800704780B400AF00BFBD465DF8047B7047EE
:1013180080B400AF00BFBD465DF8047B704780B560
:1013280000AF00F037FC00BF80BD000080B400AF04
:10133800064BD3F88830054A43F47003C2F8883066
:1013480000BFBD465DF8047B704700BF00ED00E0BC
:1013580080B58CB000AF07F10C0324220021184699
:1013680003F038F93B1D00221A605A60224B234AC9
:101378001A60214B03225A601F4B00229A601E4BB1
:101388004AF6E032DA601C4B00221A611A4B00223E
:101398005A61194B00229A610323FB6000233B61C9
:1013A80001237B610023BB610023FB6100233B62B7
:1013B80001237B620023BB620023FB6207F10C035D
:1013C80019460D4801F0F8FB0346002B01D0FFF742
:1013D8004DFF00237B600023BB603B1D1946064878
:1013E80002F01EF80346002B01D0FFF73FFF00BFB5
:1013F8003037BD4680BD00BFA0010020000001407D
:1014080080B58CB000AF07F10C03242200211846E8
:1014180003F0E0F83B1D00221A605A60214B4FF0A0
:1014280080421A601F4B03225A601E4B00229A60AA
:101438001C4B4AF6E032DA601A4B00221A61194B4B
:1014480000229A610323FB6000233B6101237B6137
:101458000023BB610023FB6100233B6201237B6205
:101468000023BB620023FB6207F10C0319460D48F9
:1014780001F0A2FB0346002B01D0FFF7F7FE002383
:101488007B600023BB603B1D1946064801F0C8FF7E
:101498000346002B01D0FFF7E9FE00BF3037BD46F9
:1014A80080BD00BFE801002080B58CB000AF07F117
:1014B8000C0324220021184603F08CF83B1D00225F
:1014C8001A605A60204B214A1A601F4B03225A6047
:1014D8001D4B00229A601C4B4AF6E032DA601A4B28
:1014E80000221A61184B00229A610323FB60002333
:1014F8003B6101237B610023BB610023FB61002367
:101508003B6201237B620023BB620023FB6207F17D
:101518000C0319460C4801F04FFB0346002B01D081
:10152800FFF7A4FE00237B600023BB603B1D194628
:10153800054801F075FF0346002B01D0FFF796FE22
:1015480000BF3037BD4680BD300200200004004097
:1015580080B58AB000AF07F1200300221A605A60F4
:101568003B1D00221A605A609A60DA601A615A615B
:101578009A61274B274A1A60254B00225A60244B50
:1015880000229A60224B41F26702DA60204B002267
:101598001A611F4B00229A611D4801F00EFA03469A
:1015A800002B01D0FFF762FE00233B6200237B6221
:1015B80007F120031946164801F032FF0346002BB5
:1015C80001D0FFF753FE60237B600023BB6000233C
:1015D800FB6000237B613B1D082219460C4801F083
:1015E8001FFC0346002B01D0FFF740FE3B1D0C22D9
:1015F8001946074801F014FC0346002B01D0FFF7F9
:1016080035FE034800F0E8F900BF2837BD4680BD25
:10161800780200200008004080B58CB000AF07F1C8
:101628000C0324220021184602F0D4FF3B1D00229F
:101638001A605A60204B214A1A601F4B03225A60D5
:101648001D4B00229A601C4B4AF6E032DA601A4BB6
:1016580000221A61184B00229A610323FB600023C1
:101668003B6101237B610023BB610023FB610023F5
:101678003B6201237B620023BB620023FB6207F10C
:101688000C0319460C4801F097FA0346002B01D0C9
:10169800FFF7ECFD00237B600023BB603B1D194670
:1016A800054801F0BDFE0346002B01D0FFF7DEFD23
:1016B80000BF3037BD4680BDC0020020000C00408E
:1016C80080B588B000AF3B1D00221A605A609A604E
:1016D800DA601A615A619A611F4B204A1A601E4BE0
:1016E80000225A601C4B00229A601B4B41F2670291
:1016F800DA60194B00221A61174B00229A611648CA
:1017080001F05BF90346002B01D0FFF7AFFD602322
:101718007B600023BB600023FB6000237B613B1DD3
:10172800002219460C4801F07BFB0346002B01D030
:10173800FFF79CFD3B1D04221946074801F070FB8A
:101748000346002B01D0FFF791FD034800F044F950
:1017580000BF2037BD4680BD08030020004001407F
:1017680080B590B000AF786007F12C0300221A60B2
:101778005A609A60DA601A617B681B68744A9342FF
:101788002DD10023BB62734B5B6C724A43F001039B
:101798005364704B5B6C03F00103BB62BB6A0023AC
:1017A8007B626C4B1B6B6B4A43F001031363694B01
:1017B8001B6B03F001037B627B6A4FF44073FB628F
:1017C80002233B6302237B630223BB630123FB6386
:1017D80007F12C031946604800F006FBB3E07B686C
:1017E8001B68B3F1804F4BD100233B62594B1B6CF4
:1017F800584A43F001031364564B1B6C03F0010372
:101808003B623B6A0023FB61524B1B6B514A43F01E
:10181800010313634F4B1B6B03F00103FB61FB696F
:101828000023BB614B4B1B6B4A4A43F00203136313
:10183800484B1B6B03F00203BB61BB694FF40043C9
:10184800FB6202233B6302237B630223BB63012306
:10185800FB6307F12C0319463F4800F0C5FA08233B
:10186800FB6202233B6302237B630223BB630123E6
:10187800FB6307F12C031946384800F0B5FA62E01B
:101888007B681B68364A93422CD100237B61314B1D
:101898001B6C304A43F0020313642E4B1B6C03F09D
:1018A80002037B617B6900233B612A4B1B6B294A3E
:1018B80043F001031363274B1B6B03F001033B61E8
:1018C8003B69C023FB6202233B6302237B63022341
:1018D800BB630223FB6307F12C0319461E4800F083
:1018E80083FA30E07B681B681E4A93422BD10023A1
:1018F800FB60184B1B6C174A43F008031364154B25
:101908001B6C03F00803FB60FB680023BB60114BF2
:101918001B6B104A43F0010313630E4B1B6B03F060
:101928000103BB60BB680323FB6202233B63022302
:101938007B630223BB630223FB6307F12C03194675
:10194800054800F051FA00BF4037BD4680BD00BFD2
:10195800000001400038024000000240000402403C
:1019680000040040000C004080B485B000AF7860EF
:101978007B681B68154A93420ED10023FB60144B09
:101988001B6C134A43F004031364114B1B6C03F0E4
:101998000403FB60FB6812E07B681B680D4A9342F6
:1019A8000DD10023BB600A4B5B6C094A43F48033BA
:1019B8005364074B5B6C03F48033BB60BB6800BFA8
:1019C8001437BD465DF8047B704700BF000800402F
:1019D800003802400040014080B58AB000AF78600E
:1019E80007F1140300221A605A609A60DA601A61DB
:1019F8007B681B68244A93421FD100233B61234B19
:101A08001B6B224A43F002031363204B1B6B03F04A
:101A180002033B613B694FF440737B610223BB6166
:101A28000223FB6102233B6202237B6207F114035A
:101A38001946174800F0D8F922E07B681B68154A58
:101A480093421DD10023FB60104B1B6B0F4A43F0E0
:101A5800010313630D4B1B6B03F00103FB60FB6871
:101A68000C237B610223BB610223FB6102233B62DF
:101A780003237B6207F114031946074800F0B4F901
:101A880000BF2837BD4680BD00080040003802402E
:101A9800000402400040014000000240DFF834D05A
:101AA800FFF744FC0C480D490D4A002302E0D458C6
:101AB800C4500433C4188C42F9D30A4A0A4C002390
:101AC80001E013600432A242FBD302F08BFDFFF762
:101AD80051FA70470000012000000020800100201A
:101AE800985900088001002074030020FEE70000D8
:101AF80080B500AF0E4B1B680D4A43F400731360AA
:101B08000B4B1B680A4A43F480631360084B1B683D
:101B1800074A43F480731360032000F031F90F2063
:101B280000F008F8FFF7A8FB0023184680BD00BFA7
:101B3800003C024080B582B000AF7860124B1A6852
:101B4800124B1B7819464FF47A73B3FBF1F3B2FBCF
:101B5800F3F3184600F03BF90346002B01D00123AC
:101B68000EE07B680F2B0AD8002279684FF0FF300F
:101B780000F011F9064A7B681360002300E0012396
:101B880018460837BD4680BD000000200800002028
:101B98000400002080B400AF064B1B781A46064BA1
:101BA8001B681344044A136000BFBD465DF8047BFC
:101BB800704700BF080000205003002080B400AF29
:101BC800034B1B681846BD465DF8047B704700BF91
:101BD8005003002080B584B000AF7860FFF7EEFFB7
:101BE800B8607B68FB60FB68B3F1FF3F05D00A4B28
:101BF8001B781A46FB681344FB6000BFFFF7DEFF43
:101C08000246BB68D31AFA689A42F7D800BF00BFE9
:101C18001037BD4680BD00BF0800002080B485B0E5
:101C280000AF78607B6803F00703FB600C4BDB6850
:101C3800BB60BA684FF6FF031340BB60FB681A022B
:101C4800BB68134343F0BF6343F40033BB60044AEB
:101C5800BB68D36000BF1437BD465DF8047B70478E
:101C680000ED00E080B400AF044BDB681B0A03F012
:101C780007031846BD465DF8047B704700ED00E099
:101C880080B483B000AF03463960FB7197F9073021
:101C9800002B0ADB3B68DAB20C4997F907301201CE
:101CA800D2B20B4483F800230AE03B68DAB2084951
:101CB800FB7903F00F03043B1201D2B20B441A76EE
:101CC80000BF0C37BD465DF8047B704700E100E0BB
:101CD80000ED00E080B489B000AFF860B9607A60C8
:101CE800FB6803F00703FB61FB69C3F10703042BDF
:101CF80028BF0423BB61FB690433062B02D9FB69A7
:101D0800033B00E000237B614FF0FF32BB6902FA1E
:101D180003F3DA43BB681A407B699A404FF0FF31FE
:101D28007B6901FA03F3D9437B680B4013431846D8
:101D38002437BD465DF8047B7047000080B582B04B
:101D480000AF78607B68013BB3F1807F01D301234A
:101D58000FE00A4A7B68013B53600F214FF0FF30C8
:101D6800FFF78EFF054B00229A60044B07221A608A
:101D7800002318460837BD4680BD00BF10E000E0CC
:101D880080B582B000AF78607868FFF747FF00BF82
:101D98000837BD4680BD80B586B000AF0346B96040
:101DA8007A60FB7300237B61FFF75CFF78617A68D8
:101DB800B9687869FFF78EFF024697F90F30114628
:101DC8001846FFF75DFF00BF1837BD4680BD80B5D8
:101DD80082B000AF78607868FFF7B0FF0346184616
:101DE8000837BD4680BD000080B489B000AF786078
:101DF800396000237B6100233B610023BB61002322
:101E0800FB6159E10122FB6902FA03F37B613B683C
:101E18001B687A6913403B613A697B699A4240F0D2
:101E280048813B685B6803F00303012B05D03B68DE
:101E38005B6803F00303022B30D17B689B68BB61AE
:101E4800FB695B00032202FA03F3DB43BA69134020
:101E5800BB613B68DA68FB695B0002FA03F3BA69A5
:101E68001343BB617B68BA699A607B685B68BB6136
:101E78000122FB6902FA03F3DB43BA691340BB6131
:101E88003B685B681B0903F00102FB6902FA03F374
:101E9800BA691343BB617B68BA695A603B685B687F
:101EA80003F00303032B17D07B68DB68BB61FB6976
:101EB8005B00032202FA03F3DB43BA691340BB61F8
:101EC8003B689A68FB695B0002FA03F3BA6913433B
:101ED800BB617B68BA69DA603B685B6803F003033F
:101EE800022B23D1FB69DA087B68083253F82230C9
:101EF800BB61FB6903F007039B000F2202FA03F39F
:101F0800DB43BA691340BB613B681A69FB6903F09C
:101F180007039B0002FA03F3BA691343BB61FB6929
:101F2800DA087B680832B96943F822107B681B68B5
:101F3800BB61FB695B00032202FA03F3DB43BA6966
:101F48001340BB613B685B6803F00302FB695B00FD
:101F580002FA03F3BA691343BB617B68BA691A6072
:101F68003B685B6803F44033002B00F0A280002339
:101F7800FB60574B5B6C564A43F480435364544BA5
:101F88005B6C03F48043FB60FB68524AFB699B0867
:101F9800023352F82330BB61FB6903F003039B0053
:101FA8000F2202FA03F3DB43BA691340BB617B6873
:101FB800494A934219D07B68484A934213D07B68B8
:101FC800474A93420DD07B68464A934207D07B68C4
:101FD800454A934201D1042308E0072306E003237E
:101FE80004E0022302E0012300E00023FA6902F082
:101FF800030292009340BA691343BB613549FB69F8
:102008009B080233BA6941F82320384B9B68BB61AF
:102018003B69DB43BA691340BB613B685B6803F407
:102028008013002B03D0BA693B691343BB612F4A65
:10203800BB6993602D4BDB68BB613B69DB43BA69C5
:102048001340BB613B685B6803F40013002B03D0AB
:10205800BA693B691343BB61244ABB69D360234B0C
:102068005B68BB613B69DB43BA691340BB613B6892
:102078005B6803F40033002B03D0BA693B69134350
:10208800BB611A4ABB695360184B1B68BB613B694B
:10209800DB43BA691340BB613B685B6803F4803378
:1020A800002B03D0BA693B691343BB610F4ABB6974
:1020B8001360FB690133FB61FB690F2B7FF6A2AE4E
:1020C80000BF00BF2437BD465DF8047B704700BFE2
:1020D800003802400038014000000240000402407D
:1020E80000080240000C024000100240003C014081
:1020F80080B483B000AF78600B467B8013467B705A
:102108007B78002B03D07A887B689A6103E07B8810
:102118001A047B689A6100BF0C37BD465DF8047BE2
:102128007047000080B586B000AF78607B68002BF0
:1021380001D1012367E27B681B6803F00103002BD0
:1021480075D0884B9B6803F00C03042B0CD0854B8F
:102158009B6803F00C03082B12D1824B5B6803F4D5
:102168008003B3F5800F0BD17E4B1B6803F400335B
:10217800002B5BD07B685B68002B57D1012342E2C0
:102188007B685B68B3F5803F06D1764B1B68754A60
:1021980043F4803313601DE07B685B68B3F5A02FC0
:1021A8000CD1704B1B686F4A43F4802313606D4B4E
:1021B8001B686C4A43F4803313600BE0694B1B685F
:1021C800684A23F480331360664B1B68654A23F41E
:1021D800802313607B685B68002B13D0FFF7EEFC4D
:1021E800386108E0FFF7EAFC02463B69D31A642B22
:1021F80001D9032307E25B4B1B6803F40033002B70
:10220800F0D014E0FFF7DAFC386108E0FFF7D6FCFD
:1022180002463B69D31A642B01D90323F3E1514BDE
:102228001B6803F40033002BF0D100E000BF7B688B
:102238001B6803F00203002B63D04A4B9B6803F032
:102248000C03002B0BD0474B9B6803F00C03082BA7
:102258001CD1444B5B6803F48003002B16D1414B1F
:102268001B6803F00203002B05D07B68DB68012B99
:1022780001D00123C7E13B4B1B6823F0F8027B68C0
:102288001B69DB00374913430B603AE07B68DB6866
:10229800002B20D0344B01221A60FFF78FFC3861E5
:1022A80008E0FFF78BFC02463B69D31A022B01D9E1
:1022B8000323A8E12B4B1B6803F00203002BF0D08B
:1022C800284B1B6823F0F8027B681B69DB00254953
:1022D80013430B6015E0244B00221A60FFF76EFCD5
:1022E800386108E0FFF76AFC02463B69D31A022B03
:1022F80001D9032387E11B4B1B6803F00203002B62
:10230800F0D17B681B6803F00803002B36D07B688C
:102318005B69002B16D0154B01221A60FFF74EFCA3
:10232800386108E0FFF74AFC02463B69D31A022BE2
:1023380001D9032367E10B4B5B6F03F00203002B0A
:10234800F0D01BE0094B00221A60FFF737FC386118
:102358000EE0FFF733FC02463B69D31A022B07D97C
:10236800032350E10038024000004742800E4742F4
:10237800884B5B6F03F00203002BEAD17B681B6874
:1023880003F00403002B00F097800023FB75814BBA
:102398001B6C03F08053002B0FD10023BB607D4BD7
:1023A8001B6C7C4A43F0805313647A4B1B6C03F01C
:1023B8008053BB60BB680123FB75774B1B6803F434
:1023C8008073002B18D1744B1B68734A43F48073D5
:1023D8001360FFF7F3FB386108E0FFF7EFFB0246F5
:1023E8003B69D31A022B01D903230CE16A4B1B6802
:1023F80003F48073002BF0D07B689B68012B06D117
:10240800644B1B6F634A43F0010313671CE07B684E
:102418009B68052B0CD15F4B1B6F5E4A43F004038E
:1024280013675C4B1B6F5B4A43F0010313670BE0B8
:10243800584B1B6F574A23F001031367554B1B6F0B
:10244800544A23F0040313677B689B68002B15D05C
:10245800FFF7B4FB38610AE0FFF7B0FB02463B69BF
:10246800D31A41F28832934201D90323CBE0494B76
:102478001B6F03F00203002BEED014E0FFF79EFB66
:1024880038610AE0FFF79AFB02463B69D31A41F22A
:102498008832934201D90323B5E03E4B1B6F03F00A
:1024A8000203002BEED1FB7D012B05D1394B1B6CB0
:1024B800384A23F0805313647B689B69002B00F033
:1024C800A180344B9B6803F00C03082B5CD07B681D
:1024D8009B69022B41D1314B00221A60FFF76EFB3A
:1024E800386108E0FFF76AFB02463B69D31A022B02
:1024F80001D9032387E0274B1B6803F00073002BE7
:10250800F0D17B68DA697B681B6A1A437B685B6A6F
:102518009B011A437B689B6A5B08013B1B041A43B7
:102528007B68DB6A1B061B4913434B601B4B01226C
:102538001A60FFF743FB386108E0FFF73FFB0246EC
:102548003B69D31A022B01D903235CE0114B1B68AA
:1025580003F00073002BF0D054E0104B00221A60F7
:10256800FFF72CFB386108E0FFF728FB02463B69C0
:10257800D31A022B01D9032345E0064B1B6803F04D
:102588000073002BF0D13DE07B689B69012B07D1DC
:10259800012338E0003802400070004060004742E4
:1025A8001B4B5B68FB607B689B69012B28D0FB6831
:1025B80003F480027B68DB699A4221D1FB6803F04F
:1025C8003F027B681B6A9A421AD1FA6847F6C073C1
:1025D80013407A68526A9201934211D1FB6803F45E
:1025E80040327B689B6A5B08013B1B049A4207D117
:1025F800FB6803F070627B68DB6A1B069A4201D0B5
:10260800012300E0002318461837BD4680BD00BFEF
:102618000038024080B584B000AF786039607B68CC
:10262800002B01D10123CCE0684B1B6803F00703A2
:102638003A689A420CD9654B3A68D2B21A70634B21
:102648001B6803F007033A689A4201D00123B8E0F7
:102658007B681B6803F00203002B20D07B681B6893
:1026680003F00403002B05D0594B9B68584A43F4E8
:10267800E05393607B681B6803F00803002B05D0C8
:10268800534B9B68524A43F460439360504B9B689A
:1026980023F0F0027B689B684D4913438B607B688D
:1026A8001B6803F00103002B44D07B685B68012B97
:1026B80007D1474B1B6803F40033002B19D10123C2
:1026C8007FE07B685B68022B03D07B685B68032B29
:1026D80007D13F4B1B6803F00073002B09D101237E
:1026E8006FE03B4B1B6803F00203002B01D1012371
:1026F80067E0374B9B6823F003027B685B683449CB
:1027080013438B60FFF75AFAF8600AE0FFF756FAAE
:102718000246FB68D31A41F28832934201D9032357
:102728004FE02B4B9B6803F00C027B685B689B00B7
:102738009A42EBD1254B1B6803F007033A689A428B
:102748000CD2224B3A68D2B21A70204B1B6803F0A5
:1027580007033A689A4201D0012332E07B681B687C
:1027680003F00403002B08D0194B9B6823F4E052B4
:102778007B68DB68164913438B607B681B6803F032
:102788000803002B09D0124B9B6823F460427B6836
:102798001B69DB000E4913438B6000F02DF80246DD
:1027A8000B4B9B681B0903F00F030A49CB5C22FA09
:1027B80003F3094A1360094B1B681846FFF7BAF977
:1027C800002318461037BD4680BD00BF003C0240BC
:1027D80000380240A0570008000000200400002034
:1027E80080B400AF034B01221A6000BFBD465DF8FC
:1027F800047B70474C0047422DE9B04F90B000AFC2
:1028080000237B630023FB6300233B630023BB633C
:10281800594B9B6803F00C03082B0DD0082B00F2D2
:10282800A180002B02D0042B03D09BE0534BBB6349
:102838009BE0534BBB6398E04F4B5B6803F03F034F
:102848007B634D4B5B6803F48003002B28D04A4B15
:102858005B689B0900223B627A623B6AC3F308000B
:102868000021474B03FB01F2002300FB03F3134451
:10287800434AA0FB0212FA620A46BA62FA6A134491
:10288800FB627B6B0022BB61FA61D7E90623D7E9BB
:102898000A01FEF76BF902460B461346FB6353E049
:1028A800354B5B689B0900223B617A613B69C3F346
:1028B800080A4FF0000B52465B464FF000004FF0FD
:1028C8000001590141EAD261500102460B46B2EBC0
:1028D8000A0863EB0B094FF000024FF000034FEAC0
:1028E800891343EA98634FEA8812B2EB080463EB52
:1028F80009054FF000024FF00003EB0043EA547360
:10290800E20014461D4614EB0A033B6045EB0B033B
:102918007B604FF000024FF00003D7E900452946DD
:102928008B02214643EA915321468A0210461946F2
:102938007B6B0022BB60FA60D7E90223FEF716F929
:1029480002460B461346FB630B4B5B681B0C03F0FC
:10295800030301335B003B63FA6B3B6BB2FBF3F39E
:10296800BB6302E0054BBB6300BFBB6B1846403737
:10297800BD46BDE8B08F00BF003802400024F40017
:1029880040787D0180B500AF064BDB6803F080031B
:10299800802B04D100F00AF8034B80221A7000BF84
:1029A80080BD00BF003802400E38024080B400AF3E
:1029B80000BFBD465DF8047B704780B582B000AFAC
:1029C80078607B68002B01D1012341E07B6893F894
:1029D8003D30DBB2002B06D17B68002283F83C2017
:1029E8007868FEF7C1FF7B68022283F83D207B6888
:1029F8001A687B6804331946104600F0D3FA7B68DE
:102A0800012283F846207B68012283F83E207B68F8
:102A1800012283F83F207B68012283F840207B68ED
:102A2800012283F841207B68012283F842207B68D9
:102A3800012283F843207B68012283F844207B68C5
:102A4800012283F845207B68012283F83D2000237A
:102A580018460837BD4680BD80B584B000AF7860A1
:102A680039603B68002B09D17B6893F83E30DBB2B4
:102A7800012B14BF01230023DBB222E03B68042BA7
:102A880009D17B6893F83F30DBB2012B14BF0123D7
:102A98000023DBB215E03B68082B09D17B6893F86B
:102AA8004030DBB2012B14BF01230023DBB208E066
:102AB8007B6893F84130DBB2012B14BF012300235C
:102AC800DBB2002B01D0012368E03B68002B04D166
:102AD8007B68022283F83E2013E03B68042B04D174
:102AE8007B68022283F83F200BE03B68082B04D167
:102AF8007B68022283F8402003E07B68022283F887
:102B080041207B681B6801223968184600F062FC86
:102B18007B681B68234A934207D17B681B685A6C01
:102B28007B681B6842F400425A647B681B681D4A34
:102B3800934218D07B681B68B3F1804F13D07B6831
:102B48001B68194A93420ED07B681B68174A934248
:102B580009D07B681B68164A934204D07B681B68BF
:102B6800144A934211D17B681B689B6803F00703E2
:102B7800FB60FB68062B10D07B681B681A687B68B3
:102B88001B6842F001021A6007E07B681B681A683C
:102B98007B681B6842F001021A6000231846103750
:102BA800BD4680BD00000140000400400008004010
:102BB800000C00400040014080B586B000AF78604E
:102BC80039607B68002B01D1012397E07B6893F87B
:102BD8003D30DBB2002B06D17B68002283F83C2015
:102BE8007868FEF7BDFD7B68022283F83D207B688C
:102BF8001B689B687A68126823F4804323F00703F4
:102C080093607B681A687B6804331946104600F0A5
:102C1800C9F97B681B689B687B617B681B689B693B
:102C28003B617B681B681B6AFB603B681B687A69B1
:102C380013437B613B6923F4407323F003033B6137
:102C48003B689A683B689B691B0213433A691343C4
:102C58003B613B6923F4406323F00C033B613B6910
:102C680023F4704323F0F0033B613B68DA683B6868
:102C7800DB691B0213433A6913433B613B681B69D9
:102C88001A013B681B6A1B0313433A6913433B61F0
:102C9800FB6823F02203FB60FB6823F08803FB60DA
:102CA8003B685A683B685B691B011343FA68134326
:102CB800FB607B681B687A699A607B681B683A6965
:102CC8009A617B681B68FA681A627B68012283F83C
:102CD80046207B68012283F83E207B68012283F826
:102CE8003F207B68012283F842207B68012283F819
:102CF80043207B68012283F83D20002318461837BB
:102D0800BD4680BD80B584B000AF786039607B680F
:102D180093F83E30FB737B6893F83F30BB737B6856
:102D280093F842307B737B6893F843303B733B687E
:102D3800002B10D1FB7B012B02D17B7B012B01D017
:102D4800012369E07B68022283F83E207B68022227
:102D580083F8422031E03B68042B10D1BB7B012B68
:102D680002D13B7B012B01D0012355E07B68022275
:102D780083F83F207B68022283F843201DE0FB7B19
:102D8800012B08D1BB7B012B05D17B7B012B02D109
:102D98003B7B012B01D001233EE07B68022283F8B4
:102DA8003E207B68022283F83F207B68022283F85A
:102DB80042207B68022283F843203B68002B03D023
:102DC8003B68042B08D00FE07B681B6801220021B8
:102DD800184600F0FFFA16E07B681B680122042100
:102DE800184600F0F7FA0EE07B681B680122002104
:102DF800184600F0EFFA7B681B6801220421184688
:102E080000F0E8FA00BF7B681B681A687B681B68DB
:102E180042F001021A60002318461037BD4680BDF3
:102E280080B586B000AFF860B9607A600023FB75A2
:102E3800FB6893F83C30012B01D10223AEE0FB681C
:102E4800012283F83C207B680C2B00F29F8001A2B2
:102E580052F823F0912E0008952F0008952F0008AE
:102E6800952F0008D12E0008952F0008952F0008EF
:102E7800952F0008132F0008952F0008952F00089C
:102E8800952F0008532F0008FB681B68B96818467F
:102E980000F014F9FB681B689A69FB681B6842F02C
:102EA80008029A61FB681B689A69FB681B6822F034
:102EB80004029A61FB681B689969BB681A69FB6818
:102EC8001B680A439A6164E0FB681B68B968184686
:102ED80000F05AF9FB681B689A69FB681B6842F4A2
:102EE80000629A61FB681B689A69FB681B6822F498
:102EF80080629A61FB681B689969BB681B691A0242
:102F0800FB681B680A439A6143E0FB681B68B96861
:102F1800184600F0A5F9FB681B68DA69FB681B68AE
:102F280042F00802DA61FB681B68DA69FB681B6813
:102F380022F00402DA61FB681B68D969BB681A6968
:102F4800FB681B680A43DA6123E0FB681B68B96801
:102F5800184600F0EFF9FB681B68DA69FB681B6824
:102F680042F40062DA61FB681B68DA69FB681B6877
:102F780022F48062DA61FB681B68D969BB681B6947
:102F88001A02FB681B680A43DA6102E00123FB7539
:102F980000BFFB68002283F83C20FB7D18461837E9
:102FA800BD4680BD80B485B000AF786039607B686D
:102FB8001B68FB607B683A4A93420FD07B68B3F189
:102FC800804F0BD07B68374A934207D07B68364ADC
:102FD800934203D07B68354A934208D1FB6823F0BB
:102FE8007003FB603B685B68FA681343FB607B68AF
:102FF8002B4A93421BD07B68B3F1804F17D07B6874
:10300800284A934213D07B68274A93420FD07B68A3
:10301800264A93420BD07B68254A934207D07B68A7
:10302800244A934203D07B68234A934208D1FB6821
:1030380023F44073FB603B68DB68FA681343FB606A
:10304800FB6823F080023B685B691343FB607B6885
:10305800FA681A603B689A687B68DA623B681A68A3
:103068007B689A627B680E4A934203D13B681A696F
:103078007B681A637B6801225A617B681B6903F0CD
:103088000103012B05D17B681B6923F001027B68D2
:103098001A6100BF1437BD465DF8047B704700BF56
:1030A800000001400004004000080040000C0040FF
:1030B80000400140004401400048014080B487B00E
:1030C80000AF786039607B681B6A7B617B681B6A2C
:1030D80023F001027B681A627B685B683B617B684E
:1030E8009B69FB60FB6823F07003FB60FB6823F0BF
:1030F8000303FB603B681B68FA681343FB607B694A
:1031080023F002037B613B689B687A6913437B6108
:103118007B681C4A93420CD17B6923F008037B61CE
:103128003B68DB687A6913437B617B6923F004039E
:103138007B617B68134A934211D13B6923F4807306
:103148003B613B6923F400733B613B685B693A6907
:1031580013433B613B689B693A6913433B617B6856
:103168003A695A607B68FA689A613B685A687B6872
:103178005A637B687A691A6200BF1C37BD465DF8DE
:10318800047B70470000014080B487B000AF7860CE
:1031980039607B681B6A7B617B681B6A23F01002BD
:1031A8007B681A627B685B683B617B689B69FB6034
:1031B800FB6823F4E043FB60FB6823F44073FB6087
:1031C8003B681B681B02FA681343FB607B6923F0AA
:1031D80020037B613B689B681B017A6913437B6111
:1031E8007B681E4A93420DD17B6923F080037B6183
:1031F8003B68DB681B017A6913437B617B6923F0B9
:1032080040037B617B68154A934213D13B6923F4E1
:1032180080633B613B6923F400633B613B685B6906
:103228009B003A6913433B613B689B699B003A6981
:1032380013433B617B683A695A607B68FA689A6114
:103248003B685A687B689A637B687A691A6200BF30
:103258001C37BD465DF8047B704700BF0000014085
:1032680080B487B000AF786039607B681B6A7B6187
:103278007B681B6A23F480727B681A627B685B68D0
:103288003B617B68DB69FB60FB6823F07003FB60D4
:10329800FB6823F00303FB603B681B68FA68134371
:1032A800FB607B6923F400737B613B689B681B02AE
:1032B8007A6913437B617B681D4A93420DD17B6910
:1032C80023F400637B613B68DB681B027A69134364
:1032D8007B617B6923F480637B617B68144A93423A
:1032E80013D13B6923F480533B613B6923F40053BA
:1032F8003B613B685B691B013A6913433B613B686F
:103308009B691B013A6913433B617B683A695A60C0
:103318007B68FA68DA613B685A687B68DA637B68BD
:103328007A691A6200BF1C37BD465DF8047B704796
:103338000000014080B487B000AF786039607B68D6
:103348001B6A3B617B681B6A23F480527B681A62A4
:103358007B685B687B617B68DB69FB60FB6823F4E7
:10336800E043FB60FB6823F44073FB603B681B6829
:103378001B02FA681343FB603B6923F400533B616B
:103388003B689B681B033A6913433B617B68104A9F
:10339800934209D17B6923F480437B613B685B6975
:1033A8009B017A6913437B617B687A695A607B6801
:1033B800FA68DA613B685A687B681A647B683A691C
:1033C8001A6200BF1C37BD465DF8047B704700BF1A
:1033D8000000014080B487B000AFF860B9607A603F
:1033E800BB6803F01F03012202FA03F37B61FB6849
:1033F8001A6A7B69DB431A40FB681A62FB681A6A1F
:10340800BB6803F01F03796801FA03F31A43FB68EA
:103418001A6200BF1C37BD465DF8047B7047000088
:1034280080B485B000AF786039607B6893F83C3031
:10343800012B01D1022350E07B68012283F83C2054
:103448007B68022283F83D207B681B685B68FB6011
:103458007B681B689B68BB60FB6823F07003FB609C
:103468003B681B68FA681343FB607B681B68FA6853
:103478005A607B681B681C4A934218D07B681B689B
:10348800B3F1804F13D07B681B68184A93420ED063
:103498007B681B68164A934209D07B681B68154AEB
:1034A800934204D07B681B68134A93420CD1BB68D3
:1034B80023F08003BB603B685B68BA681343BB605A
:1034C8007B681B68BA689A607B68012283F83D2094
:1034D8007B68002283F83C20002318461437BD4639
:1034E8005DF8047B704700BF000001400004004005
:1034F80000080040000C00400040014080B584B046
:1035080000AF78600023FB737B68002B02D1012396
:10351800FB731BE07B684FF000025A607B684FF03A
:1035280000029A607B6800221A617B681B681B682E
:1035380045F2F0525A627B681B683C211846FFF737
:10354800E1FB0346002B01D00123FB73FB7B1846EC
:103558001037BD4680BD00002DE9B04386B000AFEE
:10356800786087ED000A0023FB757B68002B02D189
:103578000123FB7593E07B681B681B685B6A3B61F2
:103588007B681B681B6845F2F0525A624FF00003D3
:10359800FB604FF00003BB603B6907EE903AF8EE22
:1035A800677A9FED457A77EEC77AC7ED037A97ED8C
:1035B800037ADFED426AC7EE267AC7ED027AD7EDC5
:1035C800027A9FED3F7A67EE877A17EE900AFCF74A
:1035D80063FF04460D463868FCF75EFF4FF00002B3
:1035E800384BFDF7DBF802460B4620462946FDF727
:1035F800D5F802460B4610461946FDF767FA02460B
:103608007B685A607B68D3ED017AF5EEC07AF1EEFB
:1036180010FA12D57B685B681846FCF73DFF024636
:103628000B4610461946FDF751FA034607EE903A45
:10363800F1EE677A7B68C3ED017A7B689B68184670
:10364800FCF72AFF04460D46D7ED027A77EEA77AF3
:1036580017EE900AFCF720FF15A3D3E90023FCF727
:1036680073FF02460B46904699467B68DB6818460E
:10367800FCF712FF02460B4640464946FCF764FF3A
:1036880002460B4620462946FCF7A8FD02460B4693
:1036980010461946FDF71AFA02467B689A60FB7DC8
:1036A80018461837BD46BDE8B08300BFAFF30080A9
:1036B800182D4454FB21094000E0AB460000DC43D0
:1036C8000000704200408F4080B584B000AF786041
:1036D8000023FB737B68002B02D10123FB732DE0D1
:1036E8007B681B7C002B05D17B68DB681B6800228C
:1036F8005A6318E07B681B7C042B05D17B68DB6868
:103708001A68002393630EE07B681B7C082B05D1A5
:103718007B68DB681A680023D36304E07B68DB6896
:103728001A68002313647B68DA687B681B7C194677
:103738001046FFF791F9044B044A1A60FB7B1846C0
:103748001037BD4680BD00BF6C0100200000434318
:1037580080B584B000AF786087ED000A0023FB7362
:103768007B68002B02D10123FB7316E097ED000A5A
:10377800786800F06BF80346FB737B6818687B6811
:103788001B8901221946FEF7B3FC7B6858687B68E1
:103798005B8900221946FEF7ABFCFB7B1846103705
:1037A800BD4680BD80B584B000AF786087ED000A63
:1037B8000023FB737B68002B02D10123FB7316E007
:1037C80097ED000A786800F041F80346FB737B68C0
:1037D80018687B681B8900221946FEF789FC7B68FC
:1037E80058687B685B8901221946FEF781FCFB7BE0
:1037F80018461037BD4680BD80B584B000AF7860EC
:103808000023FB737B68002B02D10123FB7316E0B6
:103818009FED0D0A786800F019F80346FB737B6882
:1038280018687B681B8900221946FEF761FC7B68D3
:1038380058687B685B8900221946FEF759FCFB7BB8
:1038480018461037BD4680BD0000000080B487B020
:1038580000AF786087ED000A0023FB757B68002BBA
:1038680002D10123FB7536E01E4B93ED007AD7EDAC
:10387800006AC6EE877AC7ED047AD7ED047A9FED21
:103888001A7A67EE877AFCEEE77A17EE903AFB60D1
:103898007B681B7C002B05D17B68DB681B68FA689A
:1038A8005A6318E07B681B7C042B05D17B68DB68B6
:1038B8001A68FB6893630EE07B681B7C082B05D1B4
:1038C8007B68DB681A68FB68D36304E07B68DB68A5
:1038D8001A68FB681364FB7D18461C37BD465DF803
:1038E800047B70476C01002000388345000000000D
:1038F800B0B58CB000AFF86087ED020AC7ED010AD9
:10390800002387F82F30FB68002B03D1012387F8A9
:103918002F3041E24FF00003BB624FF000037B629F
:103928004FF000033B624FF00003FB614FF00003D0
:10393800BB614FF000037B614FF000033B61D7EDA3
:10394800017A9FEDDD7A67EE877AB0EE670A00F0BC
:1039580017FFB0EE407ADFEDD86AC7EE267AC7EDDA
:10396800017A7868FCF798FD04460D46B868FCF7BC
:1039780093FDCBA3D3E90023FCF7E6FD02460B46F3
:10398800104619464FF00002CC4BFCF707FF0246E1
:103998000B4643EC172BB0EE470AF0EE670A00F02F
:1039A80047FE53EC102B20462946FCF7CDFD024676
:1039B8000B4610461946FDF789F80346BB6178683F
:1039C800FCF76AFD04460D46B868FCF765FDB4A32C
:1039D800D3E90023FCF7B8FD02460B46104619460A
:1039E8004FF00002B54BFCF7D9FE02460B4643ECFC
:1039F800172BB0EE470AF0EE670A00F06DFE53ECA5
:103A0800102B20462946FCF79FFD02460B46104620
:103A18001946FDF75BF803467B6197ED067AD7ED0B
:103A2800057A77EE677A17EE900AFCF735FD0446BB
:103A38000D463869FCF730FD4FF00002A04BFCF74B
:103A480083FD02460B4620462946FCF7C5FB024685
:103A58000B461046194694A3D3E90023FCF774FDDE
:103A680002460B4610461946FDF730F80346BB627E
:103A780097ED067AD7ED057A77EE277A17EE900A52
:103A8800FCF70AFD04460D463869FCF705FD4FF0C2
:103A980000028B4BFCF758FD02460B462046294690
:103AA800FCF79CFB02460B46104619467EA3D3E959
:103AB8000023FCF749FD02460B4610461946FDF760
:103AC80005F803467B6297ED067AD7ED057A77EE1F
:103AD800277A17EE900AFCF7DFFC04460D46386992
:103AE800FCF7DAFC4FF00002754BFCF72DFD02469F
:103AF8000B4620462946FCF76FFB02460B4610464C
:103B0800194669A3D3E90023FCF71EFD02460B46BC
:103B180010461946FCF7DAFF03463B6297ED067A32
:103B2800D7ED057A77EE677A17EE900AFCF7B4FCC2
:103B380004460D463869FCF7AFFC4FF00002604BB5
:103B4800FCF702FD02460B4620462946FCF746FBD9
:103B580002460B461046194653A3D3E90023FCF747
:103B6800F3FC02460B4610461946FCF7AFFF034626
:103B7800FB61B86AFCF790FC4DA3D3E90023FCF77E
:103B8800E3FC02460B4610461946FCF79FFF07EE7A
:103B9800900AF0EEE77AFB68C3ED057A786AFCF7DD
:103BA8007BFC43A3D3E90023FCF7CEFC02460B467B
:103BB80010461946FCF78AFF07EE900AF0EEE77AFE
:103BC800FB68C3ED117A386AFCF766FC38A3D3E9C1
:103BD8000023FCF7B9FC02460B4610461946FCF7D1
:103BE80075FF07EE900AF0EEE77AFB68C3ED1D7AE1
:103BF800F869FCF751FC2EA3D3E90023FCF7A4FCD9
:103C080002460B4610461946FCF760FF07EE900A7D
:103C1800F0EEE77AFB68C3ED297AD7ED0A7AF5EE7C
:103C2800C07AF1EE10FA0FD5FB6801221A76FA680D
:103C3800FB68D3ED057AB0EE670A1046FFF7B2FDD0
:103C4800034687F82F300EE0FB6800221A76FA68E0
:103C5800FB68D3ED057AB0EE670A1046FFF778FDEA
:103C6800034687F82F30D7ED097AF5EEC07AF1EEE2
:103C780010FA27D5FB68012283F84820FB6803F176
:103C88003002FB68D3ED117AB0EE670A1046FFF7F1
:103C980089FD034687F82F3026E000BFAFF3008088
:103CA800182D4454FB210940ABAAAAAAAAAA40404D
:103CB800FB2BED663D1923400000C842008066409A
:103CC8000000D03FFB68002283F84820FB6803F11E
:103CD8003002FB68D3ED117AB0EE670A1046FFF7A1
:103CE80037FD034687F82F30D7ED087AF5EEC07A0E
:103CF800F1EE10FA12D5FB68012283F87820FB68F0
:103D080003F16002FB68D3ED1D7AB0EE670A104636
:103D1800FFF748FD034687F82F3011E0FB680022C3
:103D280083F87820FB6803F16002FB68D3ED1D7A05
:103D3800B0EE670A1046FFF70BFD034687F82F30F1
:103D4800D7ED077AF5EEC07AF1EE10FA12D5FB68D6
:103D5800012283F8A820FB6803F19002FB68D3EDE9
:103D6800297AB0EE670A1046FFF71CFD034687F86C
:103D78002F3011E0FB68002283F8A820FB6803F1CC
:103D88009002FB68D3ED297AB0EE670A1046FFF778
:103D9800DFFC034687F82F3097F82F301846303766
:103DA800BD46B0BD80B584B000AF78600023FB731A
:103DB8007B68002B02D10123FB734CE07B684FF03A
:103DC80000025A617B684FF000025A647B684FF02A
:103DD80000025A677B684FF00002C3F8A4207B6892
:103DE80002221A767B681846FFF706FD0346FB7326
:103DF8007B68022283F848207B6830331846FFF737
:103E0800FBFC0346FB737B68022283F878207B68FF
:103E180060331846FFF7F0FC0346FB737B68022209
:103E280083F8A8207B6890331846FFF7E5FC034623
:103E3800FB737B684FF000021A627B684FF0000248
:103E48001A657B684FF00002C3F880207B684FF04A
:103E58000002C3F8B020FB7B18461037BD4680BD72
:103E680080B584B000AF786087ED000A0023FB734B
:103E78007B68002B02D10123FB7310E17B68184695
:103E8800FFF722FC03461A46FB7B1343FB737B6850
:103E98001C331846FFF732FB03461A46FB7B1343D5
:103EA800FB737B684FF000025A617B6802221A7626
:103EB8007B6830331846FFF707FC03461A46FB7B3E
:103EC8001343FB737B684C331846FFF717FB034615
:103ED8001A46FB7B1343FB737B684FF000025A645E
:103EE8007B68022283F848207B6860331846FFF716
:103EF800EBFB03461A46FB7B1343FB737B687C335F
:103F08001846FFF7FBFA03461A46FB7B1343FB737D
:103F18007B684FF000025A677B68022283F878209A
:103F28007B6890331846FFF7CFFB03461A46FB7BA6
:103F38001343FB737B68AC331846FFF7DFFA03467D
:103F48001A46FB7B1343FB737B684FF00002C3F8F0
:103F5800A4207B68022283F8A820534B534A1A6096
:103F6800534B544A1A60544B544A1A60544B554A9E
:103F78001A607B68C0334C4A92ED007A4C4AD2ED05
:103F8800006A4D4A92ED006A4D4AD2ED005AD7EDCB
:103F9800007ADFED4D4A87EEA45A9FED4C3ADFEDEB
:103FA8004C2AB0EE452AF0EE651AB0EE461AF0EE4D
:103FB800660AB0EE470A184600F0FAF97B68E8335B
:103FC800394A92ED007A3A4AD2ED006A3A4A92EDBD
:103FD800006A3B4AD2ED005AD7ED007ADFED3A4A43
:103FE80087EEA45A9FED393ADFED392AB0EE452A1B
:103FF800F0EE651AB0EE461AF0EE660AB0EE470A21
:10400800184600F0D5F97B6803F58873264A92EDC7
:10401800007A274AD2ED006A274A92ED006A284AB8
:10402800D2ED005AD7ED007ADFED274A87EEA45A81
:104038009FED263ADFED262AB0EE452AF0EE651A06
:10404800B0EE461AF0EE660AB0EE470A184600F0DF
:10405800AFF97B6803F59C73134A92ED007A144A12
:10406800D2ED006A144A92ED006A154AD2ED005A60
:10407800D7ED007ADFED144A87EEA45A9FED133A84
:10408800DFED132AB0EE452AF0EE651AB0EE461AB7
:10409800F0EE660AB0EE470A184600F089F9FB7B95
:1040A80018461037BD4680BD700100209A99593FC7
:1040B800740100200000184178010020295C8F3D20
:1040C8007C010020CDCC4C3F00007A4400007F43A7
:1040D8000000000080B584B000AF786087ED000A6A
:1040E8000023FB737B68002B02D10123FB7346E19D
:1040F8007B681C3397ED000A1846FFF72DFA034634
:104108001A46FB7B1343FB737B684C3397ED000A1D
:104118001846FFF721FA03461A46FB7B1343FB7345
:104128007B687C3397ED000A1846FFF715FA0346BB
:104138001A46FB7B1343FB737B68AC3397ED000A8D
:104148001846FFF709FA03461A46FB7B1343FB732D
:104158007B68D3ED087AB6EE007A27EE877A8A4B29
:10416800D3ED007AF6EE006A67EEA67A77EE277A44
:10417800854BC3ED007A7B68D3ED147AB6EE007AEE
:1041880027EE877A814BD3ED007AF6EE006A67EE68
:10419800A67A77EE277A7D4BC3ED007A7B68D3ED5C
:1041A800207AB6EE007A27EE877A794BD3ED007A3B
:1041B800F6EE006A67EEA67A77EE277A744BC3EDBF
:1041C800007A7B68D3ED2C7AB6EE007A27EE877AF0
:1041D800704BD3ED007AF6EE006A67EEA67A77EEBA
:1041E800277A6C4BC3ED007A7B6803F1C0027B68C9
:1041F800D3ED057A644B93ED007AF0EE470AB0EE02
:10420800670A104600F00DF9F0EE407A624BC3EDF4
:10421800007A7B6803F1E8027B68D3ED117A5B4B87
:1042280093ED007AF0EE470AB0EE670A104600F008
:10423800F8F8F0EE407A594BC3ED007A7B6803F545
:1042480088727B68D3ED1D7A514B93ED007AF0EEBE
:10425800470AB0EE670A104600F0E3F8F0EE407A3D
:104268004F4BC3ED007A7B6803F59C727B68D3EDF6
:10427800297A484B93ED007AF0EE470AB0EE670AC8
:10428800104600F0CEF8F0EE407A464BC3ED007AC7
:10429800454BD3ED007ADFED456A87EEA67A3E4BB3
:1042A800D3ED007A67EE277A3B4BC3ED007A3E4B9D
:1042B800D3ED007ADFED3D6A87EEA67A374BD3ED72
:1042C800007A67EE277A354BC3ED007A364BD3ED8B
:1042D800007ADFED366A87EEA67A314BD3ED007AA5
:1042E80067EE277A2E4BC3ED007A2F4BD3ED007A79
:1042F800DFED2E6A87EEA67A2A4BD3ED007A67EEB9
:10430800277A284BC3ED007A7B68234AD2ED007ADE
:10431800B0EE670A1846FFF799FA03461A46FB7B80
:104328001343FB737B6830331C4AD2ED007AB0EE3E
:10433800670A1846FFF78AFA03461A46FB7B1343B7
:10434800FB737B686033164AD2ED007AB0EE670AD9
:104358001846FFF77BFA03461A46FB7B1343FB73A9
:104368007B6890330F4AD2ED007AB0EE670A1846A0
:10437800FFF76CFA03461A46FB7B1343FB73FB7B80
:1043880018461037BD4680BD54030020580300204E
:104398005C03002060030020640300206803002001
:1043A8006C030020700300206C01002000007F4394
:1043B80080B489B000AFF86187ED060AC7ED050A39
:1043C80087ED041AC7ED031A87ED022AC7ED012A03
:1043D80087ED003AFB69BA691A60FB697A695A6025
:1043E800FB693A699A60FB69FA68DA60FB694FF021
:1043F80000021A61FB694FF000025A61FB694FF035
:1044080000029A61FB69BA68DA61FB697A681A6224
:10441800FB693A685A6200BF2437BD465DF8047BE1
:10442800704780B48BB000AFF86087ED020AC7ED23
:10443800010A97ED027AD7ED017A77EE677AC7ED30
:10444800087AFB68D3ED007A97ED087A67EE277A49
:10445800C7ED077AFB6893ED057AFB68D3ED076A29
:10446800D7ED087A66EEA77A77EE277AFB68C3ED70
:10447800057AFB6893ED017AFB68D3ED057A67EE60
:10448800277AC7ED067AFB68D3ED047A97ED087AA8
:1044980077EE676AFB6893ED077AC6EE877AC7ED11
:1044A800057AFB6893ED027AFB68D3ED036AD7EDD2
:1044B800057A66EEA76AFB68D3ED067A36EEE76AF8
:1044C800FB68D3ED036AFB68D3ED077A66EEA77A3B
:1044D800F7EE006A77EEA66AC6EE267A67EE277AC6
:1044E800C7ED047AFB683A6A1A61FB683A699A610F
:1044F80097ED077AD7ED067A77EE277A97ED047A63
:1045080077EE277AC7ED097AFB68D3ED097A97ED3C
:10451800097AB4EEE77AF1EE10FA03DDFB685B6A1C
:104528007B620CE0FB68D3ED087A97ED097AB4EE6C
:10453800E77AF1EE10FA02D5FB681B6A7B62FB682A
:10454800D3ED097A97ED097AB4EE677AF1EE10FAAD
:1045580016D1D7ED087AF5EEC07AF1EE10FA0FDD34
:10456800FB6893ED057AFB68D3ED076AD7ED087A07
:1045780066EEA77A77EE677AFB68C3ED057A1FE0E7
:10458800FB68D3ED087A97ED097AB4EE677AF1EE15
:1045980010FA15D1D7ED087AF5EEC07AF1EE10FAD7
:1045A8000ED5FB6893ED057AFB68D3ED076AD7ED66
:1045B800087A66EEA77A77EE677AFB68C3ED057A24
:1045C8007B6A07EE903AB0EE670A2C37BD465DF875
:1045D800047B704702440346934200D1704703F8B6
:1045E800011BF9E770B50D4D0D4C641BA410002696
:1045F800A64209D10B4D0C4C01F0C2F8641BA41063
:104608000026A64205D170BD55F8043B98470136EF
:10461800EEE755F8043B98470136F2E79059000851
:1046280090590008905900089459000800000000AB
:104638001FB553EC102B264823F00041814206D8C1
:104648009FED211B05B05DF804EB00F0BDB82148D3
:10465800814208D910461946FBF7BEFD41EC100B04
:1046680005B05DF804FB684600F032FA00F003007C
:1046780001280BD0022815D0D8B99DED021B9DED5D
:10468800000B00F0A1F851EC100BE7E79DED021BC1
:104698009DED000B00F060F953EC102B104603F170
:1046A8000041DBE79DED021B9DED000B00F08CF84F
:1046B800F2E79DED021B9DED000B012000F04CF987
:1046C800E1E700BFAFF30080000000000000000039
:1046D800FB21E93FFFFFEF7F1FB553EC102B264866
:1046E80023F00041814207D89FED211B002005B02F
:1046F8005DF804EB00F030B92048814208D9104633
:104708001946FBF769FD41EC100B05B05DF804FB99
:10471800684600F0DDF900F0030001280CD00228FB
:1047280011D0E8B99DED021B9DED000B012000F0B2
:1047380013F951EC100BE6E79DED021B9DED000B04
:1047480000F042F8F5E79DED021B9DED000B0120FE
:1047580000F002F953EC102B104603F10041D2E7A8
:104768009DED021B9DED000B00F02EF8F2E700BF57
:104778000000000000000000FB21E93FFFFFEF7F81
:1047880010EE100AC0F3C7527F3A162A15DC002A29
:1047980008DA013200F0004301D143F07E5300EE05
:1047A800103A7047074911410142FAD04FF480038B
:1047B8001341034423EA0103F1E7802AF1D130EEE3
:1047C800000A7047FFFF7F002DE9F74F57EC106B89
:1047D80027F00048B8F1795F8DED001B06D230460E
:1047E8003946FCF74BF9002800F0888032463B46F2
:1047F80030463946FBF7A8FE514B002204460D46C9
:10480800FBF7A2FE40A3D3E9002382468B4620464D
:104818002946FBF799FE3EA3D3E90023FBF7DEFC0C
:1048280022462B46FBF790FE3BA3D3E90023FBF778
:10483800D3FC22462B46FBF787FE39A3D3E9002396
:10484800FBF7CCFC22462B46FBF77EFE36A3D3E9CA
:104858000023FBF7C1FC22462B46FBF775FE34A369
:10486800D3E90023FBF7BAFC22462B46FBF76CFE84
:1048780022462B46FBF768FEDDE9002304460D4679
:1048880030463946FBF760FE0B460246294620466D
:10489800FBF7A2FC2B4B984506460F4610D802465C
:1048A8000B4650465946FBF797FC0B4626490246ED
:1048B8000020FBF791FC41EC100B03B0BDE8F08F32
:1048C800224B214998458CBF214DA8F5001500249D
:1048D80022462B460020FBF77FFC2246804689466D
:1048E8002B4650465946FBF777FC32463B46FBF7CA
:1048F80073FC02460B4640464946DAE79FED0E0B2D
:10490800DBE700BFAFF30080D43888BEE9FAA8BD62
:10491800C4B1B4BD9EEE213EAD529C804F7E923E06
:104928009015CB19A001FA3E7751C1166CC1563FBC
:104938004C5555555555A53F000000000000F03F67
:104948000000E03F3233D33F0000F03F0000E93F72
:104958000000D23F000000002DE9F04F55EC104B4D
:1049680025F0004385B0B3F1795F8DED021B8046D9
:1049780005D220462946FCF781F8002852D0224665
:104988002B4620462946FBF7DFFD82468B4602462A
:104998000B4620462946FBF7D7FD42A3D3E900235F
:1049A800CDE9000150465946FBF7CEFD3FA3D3E9B8
:1049B8000023FBF711FC52465B46FBF7C5FD3DA300
:1049C800D3E90023FBF70AFC52465B46FBF7BCFD24
:1049D8003AA3D3E90023FBF7FFFB52465B46FBF7FC
:1049E800B3FD38A3D3E90023FBF7F8FB06460F46CF
:1049F800B8F1000F1BD102460B4650465946FBF74B
:104A0800A3FD25A3D3E90023FBF7E6FBDDE900239B
:104A1800FBF79AFD02460B4620462946FBF7DEFBCC
:104A280004460D4645EC104B05B0BDE8F08FDDE9B6
:104A380002011B4B0022FBF787FD32468046894660
:104A48003B46DDE90001FBF77FFD02460B46404689
:104A58004946FBF7C1FB52465B46FBF775FDDDE9AE
:104A68000223FBF7B9FB0CA3D3E9002306460F4644
:104A7800DDE90001FBF768FD02460B463046394682
:104A8800FBF7ACFB02460B4620462946FBF7A4FB86
:104A9800C6E700BFAFF30080495555555555C53F8A
:104AA8000000E03F7CD5CF5A3AD9E53DEB9C2B8AF4
:104AB800E6E55A3E7DFEB157E31DC73ED561C119F3
:104AC800A0012A3FA6F810111111813F0000000033
:104AD8002DE9F04F57EC106BC54B8DB027F000480F
:104AE80098450446049707D80022002380ED000B60
:104AF800C0E90223002528E0BE4B984578D8049BDE
:104B0800BD4D002B3046ACA3D3E90023394638DD30
:104B1800FBF762FBA84506460F461AD0A8A3D3E9BF
:104B28000023FBF759FB02460B4680468946304670
:104B38003946FBF751FBA2A3D3E90023FBF74CFB53
:104B4800C4E90089C4E90201012528460DB0BDE881
:104B5800F08F9DA3D3E90023FBF73EFB9CA3D3E989
:104B6800002306460F46FBF737FB02460B468046F6
:104B7800894630463946FBF72FFB95A3D3E9002336
:104B8800DCE7FBF72BFBA84506460F4618D08CA39D
:104B9800D3E90023FBF722FB02460B4680468946F1
:104BA80030463946FBF718FB85A3D3E90023FBF70A
:104BB80015FB4FF0FF35C4E90089C4E90201C4E7D9
:104BC80081A3D3E90023FBF709FB81A3D3E90023E1
:104BD80006460F46FBF702FB02460B46804689460F
:104BE80030463946FBF7F8FA79A3D3E90023DEE724
:104BF800824B984500F2D18000F066F957EC106BB3
:104C080075A3D3E9002330463946FBF79DFC7C4B5E
:104C18000022FBF7E3FAFBF731FF0546FBF72AFC16
:104C280002460B46CDE9022363A3D3E90023FBF731
:104C38008BFC02460B4630463946FBF7CDFA60A39B
:104C4800D3E9002382468B46DDE90201FBF77CFCB1
:104C58001F2D06460F460CDC6A4B6A1E53F822309D
:104C6800434506D032463B4650465946FBF7B4FA10
:104C78000EE03B46324650465946FBF7ADFA4FEA3E
:104C880028530593C1F30A53C3EB1853102B02DCC6
:104C9800C4E9000139E04CA3D3E90023DDE90201AE
:104CA800FBF752FC06460F4602460B46504659464D
:104CB800FBF792FA02460B4680468946504659460B
:104CC800FBF78AFA32463B46FBF786FA40A3D3E95C
:104CD800002306460F46DDE90201FBF735FC3246A4
:104CE8003B46FBF779FA02460B4606460F46404616
:104CF8004946FBF771FA059AC1F30A53D31A312BC7
:104D080020DCC4E90001C246CB46D4E900895046FC
:104D180042464B465946FBF75FFA3B463246FBF79D
:104D28005BFA049B002BC4E90201BFF60EAF09F140
:104D38000043636001F10043C4F80080A060E360B1
:104D48006D4202E726A3D3E90023DDE90201FBF760
:104D5800FBFB06460F4602460B4640464946FBF714
:104D68003BFA02460B4682468B4640464946FBF7CD
:104D780033FA32463B46FBF72FFA1BA3D3E900234D
:104D880006460F46DDE90201FBF7DEFB32463B46ED
:104D9800FBF722FA06460F4664E71B4B984535D9C0
:104DA80032463B4630463946FBF716FAC4E902015B
:104DB800C4E900019EE600BF00004054FB21F93F12
:104DC8003163621A61B4D03D0000601A61B4D03D0D
:104DD8007370032E8A19A33B83C8C96D305FE43F03
:104DE8000000002E8A19A33BC14920259A837B39EC
:104DF800FB21E93F7BD90240FB21F93FFB213941E7
:104E08000000E03FB0570008FFFFEF7F4FEA28554A
:104E1800A5F21645A8EB055130460F46FBF72EFEC6
:104E2800FBF728FB02460B4630463946CDE90623F8
:104E3800FBF7D2F9224B0022FBF786FB0F4606460A
:104E4800FBF71CFEFBF716FB02460B4630463946BD
:104E5800CDE90823FBF7C0F9194B0022FBF774FBD7
:104E6800CDE90A010DF130094FF0030800260027AB
:104E780079E9020132463B46C24608F1FF38FBF7A2
:104E8800CBFD0028F4D10F4B0193022300932A464F
:104E98005346214606A800F01FF8049B002B054640
:104EA800BFF653AED4E9002101F10043C4E9002361
:104EB800D4E9022101F10043C4E9022340E700BF1D
:104EC800000070413058000851EC100B024621F0E8
:104ED800004343EC102B70472DE9F04F2DED028B6A
:104EE800ADF5197D12F1140F06930491BE4BA499E8
:104EF800089053F821300093069B03F1FF33A8BFB5
:104F0800D41E0593B2BF0024182394FBF3F46FF06A
:104F1800170304FB033303EB020B009B059A9FED79
:104F2800AE8B03EB0208A59BA71A20AE03EB8709FB
:104F38000025454513DD069B20AA02EBC3050DF5A8
:104F4800E07A4FF00008009B984531DC9FEDA27B8A
:104F5800DDF820908DED027B2F4600261BE0EF4206
:104F680007D459F82500FBF785FAE6E80201013570
:104F7800DFE751EC180BF8E7D7E90023F9E802015D
:104F8800FBF7E2FA02460B46DDE90201FBF726F9D8
:104F9800CDE902010136059B9E42A7F10807EBDD2A
:104FA8009DED027B08F10108AAEC027B0835CAE7EF
:104FB800009BDDF800800CAA02EB83030A93A59BF3
:104FC80003EB840309934FEAC8030B9398AB03EBF5
:104FD800C80313ED287B8DED027B0CAC70AB03EBA3
:104FE800C805A146C246BAF1000FA5F1080577DC4D
:104FF80058469DED020B00F0C7FA57EC106B0022E3
:105008004FF07F5330463946FBF79EFA41EC100BC0
:1050180000F03AFB754B51EC100B0022FBF794FAA9
:1050280002460B4630463946FBF7D6F80F46064689
:10503800FBF724FD0290FBF71DFA02460B463046AB
:105048003946FBF7C9F8BBF1000F06460F466CDD81
:1050580008F1FF310CAB029D53F82130CBF1180059
:1050680043FA00F2154482409B1A0CAA029542F8B2
:105078002130CBF1170243FA02F9B9F1000F64DDD0
:10508800029B00220133029315466FF07F41904541
:1050980000F3B880BBF1000F07DDBBF1010F00F092
:1050A800BF80BBF1020F00F0C680B9F1020F4CD1EE
:1050B80032463B464E490020FBF78EF806460F461F
:1050C800002D42D058469FED460B00F05DFA304661
:1050D800394653EC102BFBF77FF806460F4634E0B1
:1050E800444B0022DDE90201FBF72EFAFBF7C6FC70
:1050F800FBF7C0F9404B002206460F46FBF724FA9F
:1051080002460B46DDE90201FBF766F8FBF7B6FC41
:10511800D5E9002349F8040B39463046FBF75EF819
:105128000AF1FF3ACDE902015DE707D108F1FF3343
:105138000CAA52F823304FEAE3599EE72F4B00227E
:10514800FBF788FC002843D1814600220023304623
:105158003946FBF761FC002800F0BF8008F1FF33F7
:10516800002200998B426EDA002A00F0898008F14B
:10517800FF380CABABF1180B53F82830002BF6D0E6
:1051880058469FED170B00F0FFF908F10103DA000C
:10519800059255EC104B70AADFF858B002EBC30724
:1051A80046464FF0000A002E80F2CF804446002C7D
:1051B800C0F2FD80124B1F4670AB03EBC40306938D
:1051C8004FF0000A4FF0000B0026A8EB0405E2E0C0
:1051D8004FF0020954E700BF000000000000000083
:1051E800000000000000F03F78590008000020404F
:1051F8000000F03F0000703E000070410000E03FFA
:105208003859000854F8043B45B923B1C3F18073F9
:1052180044F8043C012301321D4638E7CB1AF7E76E
:1052280008F1FF320CAB53F82230C3F316030CA974
:1052380041F8223039E708F1FF320CAB53F822303D
:10524800C3F31503F3E70CA951F82310013B0A43F4
:1052580087E7013453F8042D002AFAD00B9B03F595
:1052680018730DEB0305069B20AA434408F10107B8
:10527800983D02EBC3064444BC4204DAA046A2E6C9
:105288000A9B0124E6E7099B53F82700FBF7F2F88D
:105298009FEDB17BE6E802018DED027BDDF8209001
:1052A800B2464FF00008059B984505DD9DED027B51
:1052B8000137A5EC027BDFE77AE90223F9E802016E
:1052C800FBF742F902460B46DDE90201FAF786FFD1
:1052D80008F10108CDE90201E5E7CBF1000047EC50
:1052E800106B00F051F955EC104B9D4B00222046F5
:1052F8002946FBF7AFFB00B39A4B0022204629460C
:10530800FBF722F9FBF7BAFB0646FBF7B3F8944B19
:105318000022FBF719F90B46024629462046FAF700
:105328005BFFFBF7ABFB0CAB0BF1180B43F828004A
:1053380008F1010843F8286022E720462946FBF7D0
:105348009DFB0CAB43F828001AE70CAB53F826007A
:10535800FBF790F822462B46FBF7F6F8524667E92A
:1053680002015B4620462946FBF7EEF8013E04465B
:105378000D4618E70699F1E802230691F7E80201BD
:10538800FBF7E2F802460B4650465946FAF726FF65
:10539800013682468B46009B9E4201DCB542E9DA23
:1053A80048AB03EBC505C5E900AB013CFFE6A49B90
:1053B800022B0BDC002B39DC5DD0029B03F00700CD
:1053C8000DF5197DBDEC028BBDE8F08FA49B032B76
:1053D800F3D1059B03F518730DEB0304A4F5A4742E
:1053E8002546C246BAF1000FA5F108056BDC454613
:1053F800012DA4F1080400F38780059C48AB1C44E8
:1054080000200021B8F1010F00F39C80DDE9487805
:10541800DDE94A56B9F1000F40F0A680049BC3E9C4
:105428000078C3E90256C3E90401C6E7059D48AB05
:105438001D44444600200021002C35DAB9F1000F44
:1054480038D0024601F10043049CC4E90023024617
:105458000B46DDE94801FAF7BFFE4AAD0124A04535
:105468002BDAB9F1000F02D001F100431946049B71
:10547800C3E90201A1E7059C48AB1C4400200021B8
:10548800B8F1000F09DAB9F1000F02D001F10043B9
:105498001946049BC3E900018FE774E90223FAF770
:1054A8009DFE08F1FF38EBE775E90223FAF796FE4F
:1054B800013CC1E702460B46C6E7F5E80223FAF7C6
:1054C8008DFE0134CBE795ED007B8DED007B95EDEE
:1054D800027BDDE9000153EC172B8DED067BFAF713
:1054E8007DFE02460B4606460F46DDE90001FAF747
:1054F80073FEDDE90623FAF771FE0AF1FF3AC5E902
:105508000201C5E900676DE794ED007BD4E902ABC1
:1055180051EC170B52465B468DED007BFAF75EFEA9
:1055280002460B4606460F46DDE90001FAF754FE2F
:1055380052465B46FAF752FE013DC4E90201C4E94E
:10554800006755E774E90223FAF748FE08F1FF38C7
:1055580058E700BFAFF30080000000000000000023
:10556800000070410000703E049B049A1F6008F11F
:1055780000445C609D6006F10043D36001F1004384
:105588001061536119E700BF70B555EC104BC5F3B6
:105598000A5106462B4691B925F0004323433DD0D6
:1055A800354B204629460022FAF7CEFF334B9E4260
:1055B80004460D460FDA28A3D3E900231EE040F283
:1055C800FF7291420BD1224620462946FAF706FE81
:1055D80004460D4622E00B46C1F30A5136394CF217
:1055E800503296420DDD002D1DA1D1E9000102DAED
:1055F8001DA1D1E900011AA3D3E90023FAF7A4FFFA
:10560800E6E7721840F2FE718A42ECDC002A08DDF7
:1056180023F0FF4323F4E00343EA025545EC104B23
:1056280070BD12F1350F08DA002D0BA1D1E9000188
:10563800C1DA0FA1D1E90001BDE723F0FF433632FB
:1056480023F4E00343EA025520460D4B2946002285
:10565800D4E700BFAFF3008059F3F8C21F6EA5016D
:105668009C7500883CE4377E9C7500883CE437FED6
:1056780059F3F8C21F6EA58100005043B03CFFFFEC
:105688000000903C0000000051EC100BC1F30A53DD
:105698002DE9F041A3F2FF36132E0C46054680464D
:1056A80034DC002E17DA32A3D3E90023FAF796FD8B
:1056B80000220023FBF7D8F950B1002C55DA24F06A
:1056C80000442C430025AC422B4C08BF4FF000444B
:1056D8002146284623E0294F374101EA07030343BF
:1056E8001DD023A3D3E90023FAF778FD0022002375
:1056F800FBF7BAF90028EBD0002CBEBF4FF480139B
:105708003341E41824EA07040025E1E7332E0ADDD3
:10571800B6F5806F03D102460B46FAF75FFD41EC00
:10572800100BBDE8F081A3F213434FF0FF37DF40C1
:105738000742F4D00EA3D3E90023FAF74FFD002265
:105748000023FBF791F90028C2D0002C0ADA142EA6
:1057580001D1013406E0C6F134060123B3401D44EB
:105768004545F6D325EA0705B2E700252C46AFE7FD
:105778009C7500883CE4377E0000F0BFFFFF0F00F7
:10578800F8B500BFF8BC08BC9E467047F8B500BF26
:08579800F8BC08BC9E467047F6
:1057A00000000000000000000102030406070809D1
:1057B000FB21F93FFB2109407CD91240FB21194014
:1057C0007A6A1F407CD92240BBFD2540FB2129403D
:1057D0003A462C407A6A2F405C4731407CD93240AF
:1057E0009C6B3440BBFD3540DB8F3740FB2139409B
:1057F0001BB43A403A463C405AD83D407A6A3F4052
:105800004C7E40405C4741406C1042407CD9424055
:105810008CA243409C6B4440AC344540BBFD4540AA
:10582000CBC64640DB8F4740EB584840FB21494000
:1058300083F9A200444E6E00FC291500D1572700C1
:10584000DD34F50062DBC0003C99950041904300D7
:105850006351FE00BBDEAB00B761C5003A6E2400A9
:10586000D24D42004906E00009EA2E001C92D10008
:10587000EB1DFE0029B11C00E83EA700F5358200B3
:1058800044BB2E009CE98400B4267000417E5F007A
:10589000D6913900538339009CF439008B5F840022
:1058A00028F9BD00F81F3B00DEFF97000F980500A8
:1058B000112FEF000A5A8B006D1F6D00CF7E36004E
:1058C00009CB2700464FB7009E663F002DEA5F00D8
:1058D000BA277500E5EBC7003D7BF100F7390700FB
:1058E00092528A00FB6BEA001FB15F00085D8D00D9
:1058F000300356007BFC4600F0AB6B0020BCCF00B1
:1059000036F49A00E3A91D005E619100081BE600D1
:1059100085996500A0145F008D40680080D8FF0065
:1059200027734D0006063100CA561500C9A873003A
:105930007BE260006B8CC00000000040FB21F93F5F
:10594000000000002D44743E000000809846F83CA2
:105950000000006051CC783B00000080831BF039D0
:105960000000004020257A38000000802282E336C3
:10597000000000001DF36935020000000300000074
:08598000040000000600000015
:085988001CB2FF7F01000000CA
:04599000BD0100084D
:04599400990100086D
:105998000024F40010000000010000000000024094
:1059A80000000240000400087802002008000000FF
:1059B8000000000000000000A0010020000000001E
:1059C8000000000000004040000000000004024009
:1059D8000004024010002000780200200C000000A3
:1059E8000000000000000000E801002000000000A6
:1059F80000000000000040400000000000080240D5
:105A08000008024000400080080300200000000059
:105A1800000000000000000030020020000000002C
:105A280000000000000040400000000000040240A8
:105A380000040240010002000803002004000000E6
:105A48000000000000000000C0020020000000006C
:105A580000000000000040400000000000000000BE
:105A6800000000000000000000000000000000002E
:105A7800000000000000000000000000000000001E
:105A8800000000000000000000000000000000000E
:105A980000000000000000000000000000000000FE
:105AA80000000000000000000000000000000000EE
:105AB80000000000000000000000000000000000DE
