:020000040800F2
:1000000000000120494E00087D480008894800088A
:100010009148000899480008A14800080000000025
:1000200000000000000000000000000001F20008D5
:10003000A94800080000000051F40008A9BE00080B
:10004000994E0008994E0008994E0008994E0008F4
:10005000994E0008994E0008994E0008994E0008E4
:10006000994E0008994E0008994E0008994E0008D4
:10007000994E0008994E0008994E0008994E0008C4
:10008000994E0008994E0008994E000800000000A3
:10009000000000000000000000000000994E000871
:1000A000994E0008B9480008994E0008994E00087A
:1000B000994E0008CD480008E1480008994E000814
:1000C000994E0008994E0008994E0008994E000874
:1000D000994E0008F5480008994E000800000000FD
:1000E00009490008994E0008994E000800000000D8
:1000F000000000000000000000000000994E000811
:1001000000000000994E0008994E0008994E000822
:1001100000000000000000000000000000000000DF
:10012000994E0008994E0008994E0008994E000813
:10013000994E0008000000000000000000000000D0
:10014000000000000000000000000000994E0008C0
:10015000994E0008994E0008994E0008994E0008E3
:10016000994E0008994E00080000000000000000B1
:10017000000000000000000000000000000000007F
:1001800000000000994E0008000000000000000080
:04019000994E00087C
:1001A00010B5054C237833B9044B13B10448AFF3B1
:1001B00000800123237010BD800600200000000095
:1001C0005C0B010808B5034B1BB103490348AFF3AF
:1001D000008008BD00000000840600205C0B0108C0
:1001E00081F0004102E000BF83F0004330B54FEAE8
:1001F00041044FEA430594EA050F08BF90EA020F55
:100200001FBF54EA000C55EA020C7FEA645C7FEAE7
:10021000655C00F0E2804FEA5454D4EB5555B8BF0A
:100220006D420CDD2C4480EA020281EA030382EA7B
:10023000000083EA010180EA020281EA0303362D0D
:1002400088BF30BD11F0004F4FEA01314FF4801CE0
:100250004CEA113102D0404261EB410113F0004FF2
:100260004FEA03334CEA133302D0524263EB4303A9
:1002700094EA050F00F0A780A4F10104D5F1200E47
:100280000DDB02FA0EFC22FA05F2801841F10001A2
:1002900003FA0EF2801843FA05F359410EE0A5F176
:1002A00020050EF1200E012A03FA0EFC28BF4CF0A7
:1002B000020C43FA05F3C01851EBE37101F000455D
:1002C00007D54FF0000EDCF1000C7EEB00006EEB6A
:1002D0000101B1F5801F1BD3B1F5001F0CD34908F4
:1002E0005FEA30004FEA3C0C04F101044FEA44524B
:1002F00012F5800F80F09A80BCF1004F08BF5FEAD2
:10030000500C50F1000041EB045141EA050130BDB1
:100310005FEA4C0C404141EB0101013C28BFB1F5C3
:10032000801FE9D291F0000F04BF01460020B1FA0E
:1003300081F308BF2033A3F10B03B3F120020CDAE1
:100340000C3208DD02F1140CC2F10C0201FA0CF0BF
:1003500021FA02F10CE002F11402D8BFC2F1200C24
:1003600001FA02F120FA0CFCDCBF41EA0C019040DA
:10037000E41AA2BF01EB0451294330BD6FEA040423
:100380001F3C1CDA0C340EDC04F11404C4F120020E
:1003900020FA04F001FA02F340EA030021FA04F320
:1003A00045EA030130BDC4F10C04C4F1200220FA77
:1003B00002F001FA04F340EA0300294630BD21FAB5
:1003C00004F0294630BD94F0000F83F4801306BF7B
:1003D00081F480110134013D4EE77FEA645C18BF6F
:1003E0007FEA655C29D094EA050F08BF90EA020F06
:1003F00005D054EA000C04BF1946104630BD91EAFE
:10040000030F1EBF0021002030BD5FEA545C05D100
:100410004000494128BF41F0004130BD14F580043F
:100420003CBF01F5801130BD01F0004545F0FE41B3
:1004300041F470014FF0000030BD7FEA645C1ABFE8
:10044000194610467FEA655C1CBF0B46024650EA1F
:10045000013406BF52EA033591EA030F41F400214B
:1004600030BD00BF90F0000F04BF0021704730B5D1
:100470004FF4806404F132044FF000054FF00001A6
:1004800050E700BF90F0000F04BF0021704730B567
:100490004FF4806404F1320410F0004548BF40423C
:1004A0004FF000013EE700BF42004FEAE2014FEA91
:1004B00031014FEA02701FBF12F07F4393F07F4F6C
:1004C00081F06051704732F07F4208BF704793F06F
:1004D0007F4F04BF41F40021704730B54FF4607482
:1004E00001F0004521F000411CE700BF50EA010285
:1004F00008BF704730B54FF000050AE050EA01022E
:1005000008BF704730B511F0004502D5404261EB9D
:1005100041014FF4806404F132045FEA915C3FF4DE
:10052000D8AE4FF003025FEADC0C18BF03325FEA7B
:10053000DC0C18BF033202EBDC02C2F1200300FA2C
:1005400003FC20FA02F001FA03FE40EA0E0021FA51
:1005500002F11444BDE600BF70B54FF0FF0C4CF43F
:10056000E06C1CEA11541DBF1CEA135594EA0C0FF1
:1005700095EA0C0F00F0DEF82C4481EA030621EA2C
:100580004C5123EA4C5350EA013518BF52EA033567
:1005900041F4801143F4801338D0A0FB02CE4FF019
:1005A0000005E1FB02E506F00042E0FB03E54FF049
:1005B0000006E1FB03569CF0000F18BF4EF0010E41
:1005C000A4F1FF04B6F5007F64F5407404D25FEA3D
:1005D0004E0E6D4146EB060642EAC62141EA5551F0
:1005E0004FEAC52040EA5E504FEACE2EB4F1FD0C32
:1005F00088BFBCF5E06F1ED8BEF1004F08BF5FEAB0
:10060000500E50F1000041EB045170BD06F0004661
:1006100046EA010140EA020081EA0301B4EB5C040E
:10062000C2BFD4EB0C0541EA045170BD41F4801106
:100630004FF0000E013C00F3AB8014F1360FDEBF2B
:10064000002001F0004170BDC4F10004203C35DA07
:100650000C341BDC04F11404C4F1200500FA05F38A
:1006600020FA04F001FA05F240EA020001F000422B
:1006700021F0004110EBD37021FA04F642EB0601A1
:100680005EEA430E08BF20EAD37070BDC4F10C04CB
:10069000C4F1200500FA04F320FA05F001FA04F28F
:1006A00040EA020001F0004110EBD37041F100017B
:1006B0005EEA430E08BF20EAD37070BDC4F1200586
:1006C00000FA05F24EEA020E20FA04F301FA05F2EE
:1006D00043EA020321FA04F001F0004121FA04F296
:1006E00020EA020000EBD3705EEA430E08BF20EA66
:1006F000D37070BD94F0000F0FD101F000464000A0
:1007000041EB010111F4801F08BF013CF7D041EA21
:10071000060195F0000F18BF704703F00046520025
:1007200043EB030313F4801F08BF013DF7D043EAF6
:100730000603704794EA0C0F0CEA135518BF95EAAC
:100740000C0F0CD050EA410618BF52EA4306D1D133
:1007500081EA030101F000414FF0000070BD50EA52
:10076000410606BF1046194652EA430619D094EADC
:100770000C0F02D150EA013613D195EA0C0F05D1C6
:1007800052EA03361CBF104619460AD181EA03011A
:1007900001F0004141F0FE4141F470014FF00000D2
:1007A00070BD41F0FE4141F4780170BD70B54FF06D
:1007B000FF0C4CF4E06C1CEA11541DBF1CEA1355ED
:1007C00094EA0C0F95EA0C0F00F0A7F8A4EB0504CF
:1007D00081EA030E52EA03354FEA013100F08880C6
:1007E0004FEA03334FF0805545EA131343EA12638F
:1007F0004FEA022245EA111545EA10654FEA002644
:100800000EF000419D4208BF964244F1FD0404F5FC
:10081000407402D25B084FEA3202B61A65EB030558
:100820005B084FEA32024FF480104FF4002CB6EB15
:10083000020E75EB030E22BFB61A754640EA0C0095
:100840005B084FEA3202B6EB020E75EB030E22BFD5
:10085000B61A754640EA5C005B084FEA3202B6EB16
:10086000020E75EB030E22BFB61A754640EA9C00D5
:100870005B084FEA3202B6EB020E75EB030E22BFA5
:10088000B61A754640EADC0055EA060E18D04FEA63
:10089000051545EA16754FEA06164FEAC30343EA03
:1008A00052734FEAC2025FEA1C1CC0D111F4801FD0
:1008B0000BD141EA00014FF000004FF0004CB6E7C9
:1008C00011F4801F04BF01430020B4F1FD0C88BF68
:1008D000BCF5E06F3FF6AFAEB5EB030C04BFB6EB73
:1008E000020C5FEA500C50F1000041EB045170BD66
:1008F0000EF0004E4EEA113114EB5C04C2BFD4EB93
:100900000C0541EA045170BD41F480114FF0000E16
:10091000013C90E645EA060E8DE60CEA135594EA92
:100920000C0F08BF95EA0C0F3FF43BAF94EA0C0F95
:100930000AD150EA01347FF434AF95EA0C0F7FF40A
:1009400025AF104619462CE795EA0C0F06D152EA5E
:1009500003353FF4FDAE1046194622E750EA410642
:1009600018BF52EA43067FF4C5AE50EA41047FF453
:100970000DAF52EA43057FF4EBAE12E74FF0FF3CB8
:1009800006E000BF4FF0010C02E000BF4FF0010C89
:100990004DF804CD4FEA410C7FEA6C5C4FEA430C02
:1009A00018BF7FEA6C5C1BD001B050EA410C0CBF51
:1009B00052EA430C91EA030F02BF90EA020F0020B3
:1009C000704710F1000F91EA030F58BF994208BF1A
:1009D00090422CBFD8176FEAE37040F001007047D7
:1009E0004FEA410C7FEA6C5C02D150EA013C07D12E
:1009F0004FEA430C7FEA6C5CD6D152EA033CD3D079
:100A00005DF8040B704700BF8446104662468C4672
:100A10001946634600E000BF01B5FFF7B7FF0028A5
:100A200048BF10F1000F01BD4DF808EDFFF7F4FFCE
:100A30000CBF012000205DF808FB00BF4DF808ED59
:100A4000FFF7EAFF34BF012000205DF808FB00BF7C
:100A50004DF808EDFFF7E0FF94BF012000205DF89E
:100A600008FB00BF4DF808EDFFF7CEFF94BF012053
:100A700000205DF808FB00BF4DF808EDFFF7C4FF4C
:100A800034BF012000205DF808FB00BF4FEA410C95
:100A90007FEA6C5C02D150EA013C0AD14FEA430C78
:100AA0007FEA6C5C02D152EA033C02D14FF00000B5
:100AB00070474FF0010070474FEA4102B2F1E04346
:100AC00024BFB3F5001CDCF1FE5C0DD901F0004C35
:100AD0004FEAC0024CEA5070B2F1004F40EB830085
:100AE00008BF20F00100704711F0804F21D113F1B1
:100AF0003872BCBF01F00040704741F480114FEAEA
:100B00005252C2F11802C2F1200C10FA0CF320FA72
:100B100002F018BF40F001004FEAC1234FEAD3238F
:100B200003FA0CFC40EA0C0023FA02F34FEA4303F9
:100B3000CCE77FEA625307D150EA01331EBF4FF082
:100B4000FE4040F44000704701F0004040F0FE409D
:100B500040F40000704700BF53B94AB9002908BFEC
:100B600000281CBF4FF0FF314FF0FF3000F06AB992
:100B7000ADF1080C6DE904CE00F006F8DDF804E0F4
:100B8000DDE9022304B070472DE9F047089D0C46CB
:100B9000002B4ED194468C458646B2FA82F262D939
:100BA0004AB1C2F12003914020FA03F30CFA02FC8F
:100BB000194300FA02FE4FEA1C471FFA8CF6B1FBFC
:100BC000F7F44FEA1E4307FB141143EA014304FB09
:100BD00006F199420AD91CEB030304F1FF3080F0BF
:100BE0001281994240F20F81023C6344591A1FFA64
:100BF0008EF3B1FBF7F007FB101143EA014300FB52
:100C000006F69E420AD91CEB030300F1FF3180F087
:100C1000FC809E4240F2F980634402389B1B40EA0C
:100C2000044000211DB1D3400022C5E90032BDE8D7
:100C3000F0878B4205D90DB1C5E9000100210846B6
:100C4000F5E7B3FA83F1002946D1A34202D39042DB
:100C5000C0F0F080861A64EB03030120002DE6D07B
:100C6000C5E90063E3E7002A40F09080A1EB0C04A3
:100C70004FEA1C481FFA8CF70121B4FBF8F64FEA43
:100C80001E4308FB164443EA044307FB06F0984260
:100C900008D91CEB030306F1FF3402D2984200F29C
:100CA000CD8026461C1A1FFA8EF3B4FBF8F008FB21
:100CB000104443EA044300FB07F79F4208D91CEBAA
:100CC000030300F1FF3402D29F4200F2B0802046BD
:100CD000DB1B40EA0640A5E7C1F120068B4022FA63
:100CE00006F71F4320FA06FC04FA01F343EA0C035B
:100CF000F44000FA01F8380C4FEA1349B4FBF0FE57
:100D00001FFA87FC00FB1E4449EA04440EFB0CF961
:100D1000A14502FA01F20AD93C190EF1FF3A80F01E
:100D20008480A14540F28180AEF1020E3C44A4EBE8
:100D300009041FFA83F9B4FBF0F300FB134449EAFA
:100D4000044403FB0CFCA44507D93C1903F1FF3014
:100D500067D2A44565D9023B3C4443EA0E40A0FB60
:100D60000293A4EB0C049C42CE469C4651D34ED039
:100D700055B1B8EB0E0364EB0C0404FA06F6CB4055
:100D80001E43CC40C5E90064002150E7C2F12003B6
:100D900020FA03F10CFA02FC24FA03F394400C430A
:100DA0004FEA1C4800FA02FE1FFA8CF7B3FBF8F07A
:100DB00008FB1031230C43EA014300FB07F1994281
:100DC00008D91CEB030300F1FF362CD299422AD933
:100DD000023863445B1AA4B2B3FBF8F108FB113389
:100DE00044EA034401FB07F3A34208D91CEB0404C3
:100DF00001F1FF3613D2A34211D902396444E41A37
:100E000041EA004139E70446F0E6084606E7C845EE
:100E1000AED2B9EB020E63EB070C0138A8E73146FE
:100E2000EDE7034699E73046D4E7D6467FE76344CB
:100E300002384DE70646234608460FE7023E634464
:100E400030E700BF704700BF80B586B000AF786064
:100E50000023FB757B68002B02D10123FB7569E041
:100E60004FF00003FB60364BD3ED007A354B93ED2A
:100E7000007AF0EE470AB0EE670A0FF027F8F0EEBE
:100E8000407A9FED317A67EE877AB3EE047A77EE97
:100E9000877AC7ED047A07F10C0397ED040A194627
:100EA000786800F007F903461A46FB7D1343FB758B
:100EB000264BD3ED007A9FED261ADFED260AB0EE21
:100EC000670A0EF0DFFF0346002B0DD11F4BD3ED59
:100ED000007A9FED211ADFED210AB0EE670A0EF0CD
:100EE000D1FF0346002B22D0154BD3ED007AF5EE4F
:100EF000407AF1EE10FA1AD0124B93ED007AD7ED4A
:100F0000037A77EE677A0020B0EE670A00F078F88F
:100F1000F0EE407A0B4BC3ED007A1149114801F015
:100F20005FF803461A46FB7D1343FB7502E0054B51
:100F30000D4A1A60FB7D18461837BD4680BD00BFBC
:100F4000DC0600201400002000004842E0060020DB
:100F500000003442000000000000B44300809D43C4
:100F6000CC010020180000206666E63E80B584B003
:100F700000AF78600023FB737B68002B02D1012354
:100F8000FB732BE07A687B68D3ED1A7AB7EE003AF0
:100F9000FFEE002AB0EE672ADFED131AB3EE051A52
:100FA000DFED120AB7EE080A10460EF059FE7B6814
:100FB00003F128027B68D3ED1A7A9FED0D3ADFED3D
:100FC0000D2AB0EE672ADFED0C1A9FED0C1AF6EE33
:100FD000000A9FED090A10460EF042FEFB7B184600
:100FE0001037BD4680BD00BF6666B64100000000F8
:100FF0009A99193F9A9919BF0000C842CDCC4C3F2D
:1010000080B485B000AF87ED010A0346FB70264B24
:10101000FB60D7ED017AF5EEC07AF1EE10FA07D554
:10102000FB78224A9B0013444FF000021A6015E03F
:10103000D7ED017A9FED1E7AF4EEC77AF1EE10FA41
:1010400006DDFB78194A9B001344174A1A6005E035
:10105000FB78164A9B0013447A681A600023FB72DF
:1010600015E0FB7A114A9B001344D3ED007A97ED0B
:10107000037AB4EEE77AF1EE10FA05DBFB7A0B4A5D
:101080009B0013441B68FB60FB7A0133FB72FB7A05
:10109000042BE6D9FB6807EE903AB0EE670A1437E6
:1010A000BD465DF8047B70476666E63E00000020A2
:1010B0006666E63E80B586B000AFF860B96087ED41
:1010C000010A0023FB75FB68002B02D10123FB758D
:1010D0001DE0FA68D7ED017ADFED0F6A87EEA67A98
:1010E000FB681B6DD3ED007A9FED0B6AC7EE866A35
:1010F000F0EE660AB0EE470A10460EF0EAFD87ED04
:10110000040AFB683A69DA66BB683A691A60FB7DD3
:1011100018461837BD4680BD0000C84280B485B06F
:1011200000AF03460A46FB711346BB710023FB73F5
:10113000174ABB791370BB79053B042B20D801A259
:1011400052F823F0591100086111000879110008C4
:1011500069110008711100080E4B04221A7010E08A
:101160000C4B04221A700CE00A4AFB79137008E059
:10117000084AFB79137004E0064AFB79137000E01B
:1011800000BF00BF18461437BD465DF8047B7047AA
:101190009D0600209C06002080B582B000AF002391
:1011A000FB713A4B1B78002B48D1394B07221A7040
:1011B000384B1B78052B0BD1022000F0A5F8034615
:1011C0001A46FB791343FB71304B02221A7057E029
:1011D000304B1B78062B0BD1012000F095F803460D
:1011E0001A46FB791343FB71284B01221A7047E022
:1011F000294B1B78012B0ED1012000F085F8034606
:101200001A46FB791343FB71214B06221A701F4BC0
:1012100001221A7034E0204B1B78022B30D10220BF
:1012200000F072F803461A46FB791343FB71184B22
:1012300005221A70154B02221A7021E0154B1A78FC
:10124000134B1B789A4211D1032000F05DF803463E
:101250001A46FB791343FB710F4B03221A700B4B99
:1012600000221A700A4B07221A7009E0074B1B78FC
:10127000184600F049F803461A46FB791343FB7100
:1012800000BF18460837BD4680BD00BFA00600203D
:101290009E0600209D0600209F06002080B485B099
:1012A00000AF0346FB710023FB73154B1B78012B2A
:1012B00003D0134B1B78032B06D1FB79012B03D1F1
:1012C000104B01221A7013E00D4B1B78022B03D038
:1012D0000B4B1B78032B06D1FB79022B03D1094B57
:1012E00002221A7004E0074B04221A700123FB73D8
:1012F000FB7B18461437BD465DF8047B704700BF82
:101300009C0600209F06002080B584B000AF0346F5
:10131000FB710023FB734FF00003BB60FB79032BD1
:1013200048D0032B54DC012B02D0022B1ED04FE0FF
:101330002B4BD3ED007A9FED2B7A27EE877ADFEDEA
:101340002A6AC7EE267A9FED297A77EE877AC7ED6B
:10135000027A274ABB6813602649274800F040FEFE
:1013600003461A46FB7B1343FB7334E01C4BD3ED5F
:10137000007A9FED1C7A27EE877ADFED1B6AC7EEB5
:10138000267A9FED1A7A77EE877AC7ED027A9FED7B
:101390001B7AD7ED027A77EE677A154BC3ED007AA8
:1013A0001449154800F01CFE03461A46FB7B134304
:1013B000FB7310E00E4B4FF000021A600D490E480F
:1013C00000F00EFE03461A46FB7B1343FB7302E05C
:1013D0000123FB7300BF00BF18461037BD4680BD18
:1013E000DC060020000020C26666E63E00003442B3
:1013F000E0060020CC010020180000200000B443CB
:1014000080B487B000AF78600023FB757B68002B49
:1014100002D10123FB752FE01B4B9B681B691B68E6
:101420003B61194B9B691B691B68FB60D7ED047A14
:10143000B3EE0E7AF4EEC77AF1EE10FA05DD7B68B2
:1014400000225A700023FB7516E0D7ED037AB3EE45
:101450000E7AF4EEC77AF1EE10FA05DD7B68012210
:101460005A700023FB7507E07B6802225A707B6884
:1014700000229A700123FB75FB7D18461C37BD4680
:101480005DF8047B704700BF2000002080B586B067
:1014900000AF78600023FB757B68002B02D101232D
:1014A000FB7557E02E4B9B681B691B683B612C4BFF
:1014B0009B691B691B68FB607868FFF7A1FF034607
:1014C0001A46FB7D1343FB757B685B7807EE903A09
:1014D000F8EEE77AF5EE407AF1EE10FA12D1D7ED98
:1014E000047A9FED207AF4EEC77AF1EE10FA03DD6C
:1014F0007B6801221A7002E07B6800221A700023C8
:10150000FB7527E07B685B7807EE903AF8EEE77AA8
:10151000B7EE007AF4EE477AF1EE10FA12D1D7ED79
:10152000037A9FED107AF4EEC77AF1EE10FA03DD3C
:101530007B6801221A7002E07B6800221A70002387
:10154000FB7507E07B6802221A700123FB757B683C
:1015500000229A70FB7D18461837BD4680BD00BF3B
:10156000200000200000484280B584B000AF7860C1
:101570000023FB737B68002B02D10123FB7342E342
:10158000B24BB34A1A60B34B4FF000021A60B24B31
:101590001B78012B3FD17B6800229A70AF4B4FF034
:1015A00000021A60AE4B4FF000021A60AD4B4FF0D4
:1015B00000021A60AC4B4FF000021A60AB4B4FF0C8
:1015C00000021A60AA4B4FF000021A60A94B4FF0BC
:1015D00000021A60A84B4FF000021A60A74B4FF0B0
:1015E00000021A60A64B00221A70A64B00221A7045
:1015F000994B00221A70A44B00221A70A34B0022B0
:101600001A70A34B00221A70A24B4FF000021A600E
:10161000A14B00221A709B4B1B78002B07D17868D6
:10162000FFF734FF03461A46FB7B1343FB737B68CB
:101630001B7807EE903AF8EEE77AB7EE007AF4EE10
:10164000477AF1EE10FA40F0AA817B6800229A7086
:101650008B4B1B78002B1BD1804BD3ED007AB3EE64
:101660000E7A77EE877A7F4BC3ED007A7C4BD3ED11
:10167000007AB3EE0E7A77EE877A7B4BC3ED007A71
:10168000864B1B687C4A1360854B1B68794A136044
:10169000824B93ED007A744BD3ED007AB4EEE77A87
:1016A000F1EE10FA0FDC7E4B93ED007A6D4BD3ED2B
:1016B000007AB4EEE77AF1EE10FA04DC704B1B7896
:1016C000012B40F0A0826E4B01221A707B68012230
:1016D0009A70604B734A1A60664BD3ED007AB2EE93
:1016E0000E7A77EEC77A614BC3ED007A624BD3ED89
:1016F000007AB2EE0E7A77EEC77A5D4BC3ED007AD0
:10170000664B93ED007A5A4BD3ED007AB4EEE77A4C
:10171000F1EE10FA0FD4624B93ED007A534BD3EDF8
:10172000007AB4EEE77AF1EE10FA04D45A4B1B7843
:10173000012B40F06882584B01221A70514B012254
:101740001A70514B1B78002B0FD15749574800F0A6
:1017500047FC03461A46FB7B1343FB734A4B0122AB
:101760001A704FF47A7003F0DBFB7B685B7807EE4E
:10177000903AF8EEE77AB7EE007AF4EE477AF1EEB7
:1017800010FA40F09D80434BD3ED007A9FED487AEC
:1017900077EEC77A474BC3ED007A2C4B4FF000022F
:1017A0001A603B4B01221A70434B93ED157A414B63
:1017B000D3ED007AF0EE006A77EEE66A3D4BD3EDAA
:1017C000007AB0EE006A77EE867AB0EE671AF0EE35
:1017D000660AB0EE470A0EF055FB0346002B04D113
:1017E0002A4B1B78012B40F00E82284B01221A70E5
:1017F000274B00221A70154B154A1A60154B294ABF
:101800001A602E4B1B691B69D3ED007AB2EE047A85
:10181000F4EEC77AF1EE10FA40F1F5810B4B4FF080
:1018200000021A600B4B4FF000021A600A4B0122B3
:101830001A707B6802229A701B491C4800F0D0FB8A
:1018400003461A46FB7B1343FB73DCE1DC060020F6
:101850009A99193EE0060020CA060020A40600203E
:10186000A8060020AC060020B0060020B406002028
:10187000B8060020BC060020C0060020C4060020D8
:10188000C8060020C9060020CB060020CC06002098
:10189000CD060020D0060020D4060020F806002047
:1018A000FC06002000003443040200201800002041
:1018B0000000B442D8060020F000002020000020E4
:1018C0007B685B7807EE903AF8EEE77AF5EE407ABF
:1018D000F1EE10FA40F09781AB4BD3ED007A9FED1B
:1018E000AB7A77EE877AAA4BC3ED007AA94B4FF01B
:1018F00000021A60A84B01221A70A84B93ED157ACA
:10190000A34BD3ED007AF0EE006A77EEE66AA04BC7
:10191000D3ED007AB0EE006A77EE867AB0EE671A01
:10192000F0EE660AB0EE470A0EF0ACFA0346002B62
:1019300004D19B4B1B78012B40F06581984B012211
:101940001A70954B00221A70964B974A1A60914B69
:10195000964A1A60964B1B691B69D3ED007AB2EE6A
:10196000047AF4EEC77AF1EE10FA40F14C81894B1B
:101970004FF000021A608B4B4FF000021A608D4B43
:1019800001221A707B6802229A708B498B4800F002
:1019900027FB03461A46FB7B1343FB7333E17B684B
:1019A0001B7807EE903AF8EEE77AF5EE407AF1EE22
:1019B00010FA40F0D3807B6801229A70804B1B782C
:1019C000002B1BD17F4BD3ED007A9FED7F7A77EE12
:1019D000877A7E4BC3ED007A7D4BD3ED007A9FED85
:1019E0007A7A77EE877A7B4BC3ED007A7A4B1B6865
:1019F0007A4A13607A4B1B687A4A1360784B93EDEE
:101A0000007A724BD3ED007AB4EEE77AF1EE10FA79
:101A10000FDC714B93ED007A6E4BD3ED007AB4EE90
:101A2000E77AF1EE10FA04DC654B1B78012B40F0ED
:101A30009180634B01221A705A4B5B4A1A60694BC2
:101A4000D3ED007AB3EE097A77EEC77A664BC3ED31
:101A5000007A624BD3ED007AB3EE097A77EEC77A5B
:101A6000624BC3ED007A5E4B93ED007A5E4BD3ED93
:101A7000007AB4EEE77AF1EE10FA0FD4564B93EDFC
:101A8000007A5A4BD3ED007AB4EEE77AF1EE10FA11
:101A900004D4574B1B78012B40F0B480544B0122E7
:101AA0001A70544B01221A707B685B7807EE903AEB
:101AB000F8EEE77AB7EE007AF4EE477AF1EE10FA34
:101AC0001ED1384B4C4A1A60394B9B691B69D3EDC8
:101AD000007AB2EE047AF4EEC77AF1EE10FA00D48E
:101AE00090E02C4B4FF000021A602E4B4FF000029A
:101AF0001A60304B01221A707B6802229A7081E0D2
:101B00007B685B7807EE903AF8EEE77AF5EE407A7C
:101B1000F1EE10FA76D1234B384A1A60244B9B68B9
:101B20001B69D3ED007AB2EE047AF4EEC77AF1EED7
:101B300010FA00D466E0174B4FF000021A60194B00
:101B40004FF000021A601B4B01221A707B680222C0
:101B50009A7057E07B6800229A7054E07B680022FC
:101B60009A701F4B1B68174A13601B4B1B68184A5F
:101B70001360234B4FF000021A60084B5B6D024A62
:101B800013600123FB733EE0D00600200000B44246
:101B9000D8060020DC060020CD060020F000002042
:101BA000CC060020E0060020000034439A99193E3C
:101BB00020000020CA060020040200201800002097
:101BC000C8060020A406002000004842AC06002001
:101BD000A8060020B0060020F8060020C00600205D
:101BE000FC060020BC060020B4060020B806002039
:101BF000D4060020C90600200000B442000087433C
:101C0000C406002000BF094B1B78002B08D10849EF
:101C1000084800F0E5F903461A46FB7B1343FB73C3
:101C2000FB7B18461037BD4680BD00BFCD060020A7
:101C3000CC0100201800002080B487B000AFF8600D
:101C4000B9607A603B600023FB75FB68002B02D112
:101C50000123FB7508E0084ABB681360074A3B682C
:101C60001360074A7B681360FB7D18461C37BD462E
:101C70005DF8047B704700BF1007002014070020A8
:101C80001807002080B584B000AF78600023FB7394
:101C90000023BB737B68002B02D10123FB738BE015
:101CA000484B9B681B69D3ED007AB1EE047AF4EEE1
:101CB000C77AF1EE10FA23D9424BDB681B69D3EDEA
:101CC000007AB1EE047AF4EEC77AF1EE10FA17D981
:101CD0003C4B9B691B69D3ED007AB1EE047AF4EEBC
:101CE000C77AF1EE10FA0BD9364B5B691B69D3ED5D
:101CF000007AB1EE047AF4EEC77AF1EE10FA49D820
:101D0000304B9B681B69D3ED007AB1EE047AF4EE98
:101D1000C77AF1EE10FA0BD92A4BDB681B69D3EDB9
:101D2000007AB1EE047AF4EEC77AF1EE10FA05D833
:101D3000786800F075F80346BB7304E0786800F03B
:101D40007DF80346BB731F4B9B691B69D3ED007A7B
:101D5000B1EE047AF4EEC77AF1EE10FA0BD9194B12
:101D60005B691B69D3ED007AB1EE047AF4EEC77AB1
:101D7000F1EE10FA05D8786800F06EF80346BB73F0
:101D800004E0786800F076F80346BB730E4B1B68DE
:101D9000984711E0786800F051F80346BB73786803
:101DA00000F084F80346BB73786800F063F80346DC
:101DB000BB73064B1B689847FB7B18461037BD4624
:101DC00080BD00BF2000002014070020180700205D
:101DD00080B584B000AF78600023FB730023BB7331
:101DE0007B68002B02D10123FB7312E0786800F0BE
:101DF0004FF80346BB73094B1B684FF4FA709847C2
:101E0000786800F053F80346BB73044B1B68FA2054
:101E10009847FB7B18461037BD4680BD1007002051
:101E200080B582B000AF78607B685B68184608F0C8
:101E3000E5FF034618460837BD4680BD80B582B031
:101E400000AF78607B685B68184608F0F0FF0346D7
:101E500018460837BD4680BD80B582B000AF7860B7
:101E60007B689B68184608F0C9FF03461846083788
:101E7000BD4680BD80B582B000AF78607B689B684E
:101E8000184608F0D4FF034618460837BD4680BD03
:101E900080B582B000AF78607B681B68184608F098
:101EA000ADFF034618460837BD4680BD80B582B0F9
:101EB00000AF78607B681B68184608F0B8FF0346DF
:101EC00018460837BD4680BD80B584B000AF786045
:101ED0000023FB730023BB737B68002B02D101231B
:101EE000FB7317E07B681B68184607F0B1FF0346D9
:101EF0001A46BB7B1343BB730EF004F802467B68A3
:101F00005A60BB7B002B03D17B685B68002B01D13F
:101F10000123FB73FB7B18461037BD4680BD80B59F
:101F200084B000AF786039600023FB737B68002BBE
:101F300002D03B68002B02D10123FB7305E07B68D4
:101F40005B68396818460DF0F9FFFB7B18461037BF
:101F5000BD4680BD80B58AB000AF7860002387F8A9
:101F60002730002387F826307B68002B03D101231C
:101F700087F827302CE000233B627B681B6807F161
:101F80000C021146184608F0DBF903461A4697F88A
:101F90002630134387F8263097F82630002B17D1C8
:101FA0007B685B6807F10C010C4A18460DF0FEFFD8
:101FB00038623B6A002B0BD03B6A07F10C011422FC
:101FC00018460EF017F93B6A9B693A6A1046984723
:101FD00097F8273018462837BD4680BD972000085F
:101FE00080B584B000AF786039600023FB730023B4
:101FF000BB737B68002B02D03B68002B02D101230E
:10200000FB7343E03B689B693A68104698473B681E
:102010005A693B685A607B681B68184608F04EFA9C
:102020000346BB73BB7B002B1DD17B681B683A68E2
:102030001146184608F0BEF803461A46BB7B134308
:10204000BB73BB7B002B21D00123FB73BB7B012B1C
:102050001CD17B681B68184607F0FAFE0346BB7369
:102060000123FB7312E07B681B68184608F04EFAE8
:102070000346BB73BB7B012B08D17B681B681846EA
:1020800007F0E6FE0346BB730123FB73FB7B184698
:102090001037BD4680BD80B485B000AF7860396030
:1020A0000023FB607B685A693B685B689A4201D1F8
:1020B0000123FB60FB6818461437BD465DF8047BBE
:1020C0007047000080B487B000AFF8600B467A60BC
:1020D000FB720023FB75FB68002B02D07B68002B92
:1020E00002D10123FB7538E0FB7A072B32D801A21D
:1020F00052F823F0152100081D21000825210008B1
:102100002D210008352100083D2100084521000847
:102110004D210008FB687A685A601EE0FB687A6807
:102120009A601AE0FB687A68DA6016E0FB687A6801
:102130001A6112E0FB687A685A610EE0FB687A68FF
:102140009A610AE0FB687A68DA6106E0FB687A68FF
:102150001A6202E00123FB7500BFFB7D18461C37A5
:10216000BD465DF8047B704780B584B000AF7860F1
:102170000023FB737B68002B02D10123FB730BE070
:102180007B681B68184608F09EFA0346BB73BB7B4E
:10219000002B01D00123FB73FB7B18461037BD4693
:1021A00080BD000080B588B000AF78600023FB7769
:1021B0007B68002B02D10123FB77EBE07B681B6877
:1021C0001B79AA3B032B00F2E18001A252F823F015
:1021D000E121000825220008B32200087923000825
:1021E0007B681B685A1D07F10C031068516803C314
:1021F000D7ED037A9FED6A7A27EE877ADFED696A79
:10220000C7EE267A684BC3ED007A3B69674A1360D4
:1022100067496848FFF7E4FE03461A46FB7F13430D
:10222000FB77B7E07B681B685A1D07F10C03106849
:10223000516803C3D7ED037AB2EE0E7A27EE877AA0
:10224000DFED586AC7EE267A5B4BC3ED007AD7ED17
:10225000047AB6EE007A27EE877ADFED526AC7EE8F
:10226000267A564BC3ED007A554B5B6D554A136089
:1022700055495048FFF7B4FE03461A46FB7F134307
:10228000FB774D4BD3ED007AF5EE407AF1EE10FA84
:102290000BD14A4BD3ED007AF5EE407AF1EE10FA0D
:1022A00003D14A4B1B68984774E0494B1B68984719
:1022B00070E07B681B681A1D07F1140310685168F1
:1022C00003C3127A1A707B7D012B07D17B685B6890
:1022D000002B03D07B685B6800209847BB7D012BF7
:1022E00007D17B689B68002B03D07B689B6800202C
:1022F0009847FB7D012B07D17B68DB68002B03D05F
:102300007B68DB68002098473B7E012B07D17B6808
:102310001B69002B03D07B681B69002098477B7EDC
:10232000012B07D17B685B69002B03D07B685B695D
:1023300000209847BB7E012B07D17B689B69002B4F
:1023400003D07B689B6900209847FB7E012B07D157
:102350007B68DB69002B03D07B68DB690020984732
:102360003B7F012B15D17B681B6A002B11D07B684A
:102370001B6A002098470CE07B681B6805331B68CC
:10238000BB607B685B6ABA681A6003E00123FB7775
:1023900000E000BFFB7F18462037BD4680BD00BF70
:1023A0006666E63E0000C842DC060020E00600202B
:1023B000CC01002018000020E4060020E8060020E0
:1023C000F0000020D8060020E801002020070020AF
:1023D0001C07002080B485B000AF7860396000230E
:1023E000FB737B68002B02D03B68002B02D10123DA
:1023F000FB7302E0044A3B681360FB7B184614370A
:10240000BD465DF8047B70471C07002080B485B092
:1024100000AF786039600023FB737B68002B02D02B
:102420003B68002B02D10123FB7302E0044A3B68A6
:102430001360FB7B18461437BD465DF8047B70477C
:102440002007002080B584B000AF78600023FB73C4
:102450007B68002B02D10123FB730EE07B681A68B6
:102460007B685B681946104608F026FD0346BB737F
:10247000BB7B002B01D00123FB73FB7B184610377D
:10248000BD4680BD80B584B000AF78600023FB738B
:102490007B68002B02D10123FB7314E07B681A6870
:1024A0007B685B681946104608F0AAFD0346BB73BB
:1024B000BB7B002B02D00123FB7304E07B685B68CD
:1024C0005A6A7B689A60FB7B18461037BD4680BD10
:1024D00080B584B000AF786039600023FB73134986
:1024E0001348FFF71CFD03461A46FB7B1343FB739F
:1024F00010490F48FFF713FD03461A46FB7B1343B1
:10250000FB730D490A48FFF70AFD03461A46FB7B99
:102510001343FB73094A7B681360094A3B681360E5
:10252000FB7B18461037BD4680BD00BF3C02002033
:102530001800002058020020740200202407002008
:102540002807002080B584B000AF78607B68012246
:102550001A707B6808221A72194BD3ED007AF5EED7
:10256000407AF1EE10FA03D0164B1B68984706E04C
:10257000154B5B6D154A1360154B1B689847104B44
:1025800093ED007A134BD3ED007AB4EEE77AF1EED7
:1025900010FA03DD0F4B1B68BB6002E0084B1B68A1
:1025A000BB600D4B1B68FB607B6809331A4607F163
:1025B000080303CB1060516000BF1037BD4680BDDB
:1025C000DC06002024070020F0000020D8060020B0
:1025D0002807002014000020E006002080B485B009
:1025E00000AF78607B6801221A707B6808221A723B
:1025F000094B1B68BB60094B1B68FB607B68093398
:102600001A4607F1080303CB1060516000BF14376E
:10261000BD465DF8047B7047E4060020E806002014
:1026200080B584B000AF78607B6801221A707B6847
:1026300001221A72084B5B6D084A1360084B1B6835
:102640009847FF23FB737B680933FA7B1A7000BF3E
:102650001037BD4680BD00BFF0000020D806002026
:102660002807002080B485B000AF78607B68012225
:102670001A707B6804221A72064B1B68FB607B6829
:102680000933FA681A6000BF1437BD465DF8047B51
:10269000704700BFF406002080B584B000AF7860BA
:1026A0000023BB817B6809331B889BB2BB813B7BCA
:1026B000FB737B7BBB73FB7B074A1360BB7B074AC7
:1026C0001360BA7BFB7B1146184600F05BFC00BF31
:1026D0001037BD4680BD00BF080700200C07002052
:1026E00080B584B000AF78600023BB817B6809337C
:1026F0001B889BB2BB813B7BFB737B7BBB73BA7B31
:10270000FB7B11461846FEF709FD00BF1037BD469A
:1027100080BD000080B487B000AF786007F1080387
:1027200000221A605A607B6803F1090207F108036E
:102730001068516803C3BB687B61FB683B61064A54
:102740007B691360054A3B69136000BF1C37BD46B7
:102750005DF8047B704700BFF8060020FC060020EF
:1027600080B485B000AF78600023FB737B68002BDA
:1027700002D10123FB730BE17B685B6804221A73AF
:102780007B681B6804221A737B689B6828221A7373
:102790007B68DB6804221A737B681B6904221A7346
:1027A0007B685B6904221A737B689B6904221A7335
:1027B0007B68DB6904221A737B681B6A04221A7324
:1027C0007B685B6A04221A737B689B6A04221A7313
:1027D0007B68DB6A04221A737B681B6B04221A7302
:1027E0007B685B6B04221A737B689B6B04221A73F1
:1027F0007B68DB6B04221A737B681B6C04221A73E0
:102800007B685B6C04221A737B689B6C04221A73CE
:102810007B68DB6C04221A737B681B6D04221A73BD
:102820007B685B6D04221A737B689B6D04221A73AC
:102830007B68DB6D04221A737B681B6E04221A739B
:102840007B685B6E04221A737B689B6E04221A738A
:102850007B68DB6E04221A737B681B6F04221A7379
:102860007B685B6F04221A737B689B6F04221A7368
:102870007B685B684A4A9A607B681B68494A9A6031
:102880007B689B68484A9A607B68DB68474A9A6025
:10289000474B1A687B681B6912699A60444B5A68F7
:1028A0007B685B6912699A60414B9A687B689B6997
:1028B00012699A603E4BDA687B68DB6912699A603C
:1028C0003B4B1A697B681B6A12699A60384B5A69DC
:1028D0007B685B6A12699A60354B9A697B689B6A70
:1028E00012699A60324BDA697B68DB6A12699A6016
:1028F0007B681B6B2F4A9A607B685B6B2E4A9A60E1
:102900007B689B6B2D4A9A607B68DB6B2C4A9A60D4
:102910007B681B6C2B4A9A607B685B6C2A4A9A60C6
:102920007B689B6C294A9A607B68DB6C284A9A60BA
:102930007B681B6D274A9A607B685B6D264A9A60AC
:102940007B689B6D1C4A9A607B68DB6D1B4A9A60B2
:102950007B681B6E1A4A9A607B685B6E194A9A60A4
:102960007B689B6E1D4A9A607B68DB6E1C4A9A608E
:102970007B681B6F1B4A9A607B685B6F1A4A9A6080
:102980007B689B6F194A9A607B689B68184A5A60FB
:10299000FB7B18461437BD465DF8047B704700BFCB
:1029A00090020020900700202C0700204800002003
:1029B00020000020F406002014010020180100204F
:1029C0001C01002020010020D80600204401002026
:1029D000080100200C01002010010020DC0600206E
:1029E00014000020040700200C0700200807002026
:1029F000B12C000880B584B000AF78600023FB7371
:102A00007B68002B02D10123FB7345E17B68DB6807
:102A10009B681B681A46A34B1A607B689B6C9B687B
:102A20001B681A469F4B5A607B685B6C9B681B68EF
:102A30001A469C4B9A607B681B699B681B681A4608
:102A4000984BDA607B685B699B681B681A46954BFC
:102A50001A617B689B699B681B681A46914B5A6197
:102A60007B68DB699B681B681A468E4B9A617B68A2
:102A70001B6A9B681B681A468A4BDA617B685B6A33
:102A80009B681B681A46874B1A627B689B6A9B6827
:102A90001B681A46834B5A627B68DB6A9B681B681B
:102AA0001A46804B9A627B689B6E9B681B681A462D
:102AB0007C4BDA627B68DB6E9B681B681A46794B3D
:102AC0001A637B681B6F9B681B681A46754B5A63B9
:102AD0007B685B6F9B681B681A46724B9A637B68C6
:102AE0009B6F9B681B681A466E4BDA636E4B1B68C4
:102AF0009A686D4B1B6842F001029A600023BB7319
:102B00000EE0BB7B9B00674A1344102219466648BF
:102B100002F028FB0346654A1360BB7B0133BB739D
:102B2000BB7B002BEDD0642200215E480DF01EFB24
:102B30007B685B68184608F093F903461A46FB7BEE
:102B40001343FB737B68DB68184608F089F903467A
:102B50001A46FB7B1343FB737B689B6C184608F09B
:102B60007FF903461A46FB7B1343FB737B685B6C60
:102B7000184608F075F903461A46FB7B1343FB73AE
:102B80007B681B69184608F06BF903461A46FB7B05
:102B90001343FB737B685B69184608F061F90346D1
:102BA0001A46FB7B1343FB737B689B69184608F04E
:102BB00057F903461A46FB7B1343FB737B68DB69BB
:102BC000184608F04DF903461A46FB7B1343FB7386
:102BD0007B681B6A184608F043F903461A46FB7BDC
:102BE0001343FB737B685B6A184608F039F90346A8
:102BF0001A46FB7B1343FB737B689B6A184608F0FD
:102C00002FF903461A46FB7B1343FB737B68DB6A91
:102C1000184608F025F903461A46FB7B1343FB735D
:102C20007B689B6E184608F01BF903461A46FB7B2F
:102C30001343FB737B68DB6E184608F011F90346FB
:102C40001A46FB7B1343FB737B681B6F184608F027
:102C500007F903461A46FB7B1343FB737B685B6FE4
:102C6000184608F0FDF803461A46FB7B1343FB7336
:102C70007B689B6F184608F0F3F803461A46FB7B07
:102C80001343FB737B681B68184608F0E9F803469A
:102C90001A46FB7B1343FB73FB7B18461037BD467C
:102CA00080BD00BF2C0700203808002090070020BE
:102CB00080B483B000AF214B9B687B607B68204A67
:102CC0001360204B1B687B607B681D4A53601E4B62
:102CD0001B687B607B681A4A93601C4B1B687B6097
:102CE0007B68174AD3601A4B1B687B607B68144A69
:102CF0001361184B1B687B607B68114A5361164B4C
:102D00001B687B607B680E4A9361144B1B687B6079
:102D10007B680B4AD361124B1B687B607B68084A57
:102D20005362104B1B687B607B68054A936200BF4F
:102D30000C37BD465DF8047B704700BF40000020A3
:102D40002C070020640C0020680C00206C0C002074
:102D5000700C0020740C0020780C00207C0C0020EB
:102D6000800C0020F406002080B584B000AF7860AD
:102D70000023FB737B68002B02D10123FB7316E059
:102D80007B682433B2EE043AFAEE042A9FED0A2A55
:102D9000DFED0A1AB6EE001ADFED080A9FED080A09
:102DA00018460CF05DFF7B6818460CF005FEFB7BB7
:102DB00018461037BD4680BD0AD7233C00000000EE
:102DC000BC7493BC80B485B000AF78600023FB7303
:102DD0007B68002B02D10123FB730BE07B6893ED32
:102DE000167A7B68DB6CD3ED007A77EE277A7B6806
:102DF000C3ED167AFB7B18461437BD465DF8047B9D
:102E000070470000B0B586B000AFF860B96087EDDC
:102E1000010A0023FB75FB68002B02D0BB68002B66
:102E200002D10123FB7563E04FF000033B61FB68B7
:102E300003F12402FB68D3ED157AF0EE670A97EDF3
:102E4000010A10460CF045FF87ED040AD7ED047A1D
:102E5000B2EE047A67EE877AC7ED047A3869FDF737
:102E600023FB04460D463869FDF71EFB02460B4660
:102E700043EC102B0DF0F4FC51EC100B4FF0000262
:102E80001E4BFDF7B3F902460B4620462946FDF7D7
:102E9000F3FD0346002B0DD03869FDF705FB024614
:102EA0000B4643EC102B0DF05FFCB0EE407AF0EED9
:102EB000607A0CE03869FDF7F7FA02460B4643ECFE
:102EC000102B0DF0CDFCB0EE407AF0EE607A51ECB4
:102ED000170BFDF7F1FD03463B6197ED047AFAEE1F
:102EE000046AC7EE267AC7ED047ABB683A691A60AD
:102EF000FB7D18461837BD46B0BD00BF0000E03F5F
:102F000080B586B000AF78600023FB757B68002B2E
:102F100002D10123FB752FE07B68DB6C93ED007A17
:102F20007B68D3ED167A77EE677AC7ED047A7A6814
:102F30007B681B6DD3ED007A7B6893ED177AB0EE5A
:102F4000471AD7ED040AB0EE670A10460CF064FD8C
:102F500087ED030AF868FDF7A7FA02460B4643EC33
:102F6000102B0DF0F9FC53EC102B10461946FDF711
:102F7000A3FD02467B685A65FB7D18461837BD469F
:102F800080BD000080B584B000AF03460A46FB71E7
:102F90001346BB710023FB73FB79013B082B00F246
:102FA000C98001A252F823F0CD2F0008F52F0008A8
:102FB0001D300008453000086D30000895300008CD
:102FC000BD300008E53000080D31000802209FEDFB
:102FD000640AFEF715F8F0EE407A624BC3ED007A12
:102FE00061496248FEF7FCFF03461A46FB7B134328
:102FF000FB73A0E002209FED5E0AFEF701F8F0EE01
:10300000407A584BC3ED007A57495848FEF7E8FF1D
:1030100003461A46FB7B1343FB738CE002209FEDB3
:10302000550AFDF7EDFFF0EE407A4E4BC3ED007A06
:103030004D494E48FEF7D4FF03461A46FB7B134327
:10304000FB7378E002209FED4C0AFDF7D9FFF0EE0C
:10305000407A444BC3ED007A43494448FEF7C0FF31
:1030600003461A46FB7B1343FB7364E002209FED8B
:10307000430AFDF7C5FFF0EE407A3A4BC3ED007A04
:1030800039493A48FEF7ACFF03461A46FB7B134327
:10309000FB7350E002209FED3A0AFDF7B1FFF0EE1E
:1030A000407A304BC3ED007A2F493048FEF798FF45
:1030B00003461A46FB7B1343FB733CE002209FED63
:1030C000310AFDF79DFFF0EE407A264BC3ED007A02
:1030D00025492648FEF784FF03461A46FB7B134327
:1030E000FB7328E002209FED280AFDF789FFF0EE30
:1030F000407A1C4BC3ED007A1B491C48FEF770FF59
:1031000003461A46FB7B1343FB7314E002209FED3A
:103110001F0AFDF775FFF0EE407A124BC3ED007AFF
:1031200011491248FEF75CFF03461A46FB7B134326
:10313000FB7300E000BFBB790A3B032B0AD801A256
:1031400052F823F055310008553100085531000878
:103150005531000800BFFB7B18461037BD4680BDC7
:10316000EB51B83D14000020CC01002018000020D5
:10317000713D0A3EEB51383E6666663E713D8A3EC1
:10318000AE47A13EEB51B83E285CCF3E6666E63EB8
:1031900080B584B000AF0023FB724FF00003FB60EA
:1031A0004FF000037B602A4BD3ED007A9FED297A24
:1031B000F4EEC77AF1EE10FA08DD254BD3ED007A74
:1031C0009FED257A77EEC77AC7ED037A234B93ED0F
:1031D000007AD7ED037A77EE677AC7ED017AB2EE1F
:1031E000041ADFED1F0A97ED010A0CF04BFE0346AF
:1031F00083F00103DBB2002B20D09FED191AFAEE09
:10320000040A97ED010A0CF03DFE034683F001032A
:10321000DBB2002B12D002209FED120AFDF7F0FE68
:10322000F0EE407A104BC3ED007A10491048FEF7DB
:10323000D7FE03461A46FB7A1343FB72044B1B6806
:10324000064A136000BF18461037BD4680BD00BF58
:10325000D8060020000034430000B4439407002047
:10326000000000006666E63E14000020CC0100204D
:1032700018000020F0B58BB006AF78600023FB7318
:103280007B68002B02D10123FB7322E07B681D6861
:103290007B681E697B689B683B607B689B697A687A
:1032A0005268796849697868C0687C68E469049400
:1032B00003900291019200933B6832462946082010
:1032C00008F050FB0346BB73BB7B002B01D00123EE
:1032D000FB73FB7B18461437BD46F0BD80B584B048
:1032E00000AF78600023FB737B68002B02D10123C1
:1032F000FB730EE07B681A687B681B690121022062
:1033000008F07EFB0346BB73BB7B002B01D001237F
:10331000FB73FB7B18461037BD4680BD80B584B07B
:1033200000AF78600023FB737B68002B02D1012380
:10333000FB730EE07B685A687B685B69052102209D
:1033400008F05EFB0346BB73BB7B002B01D001235F
:10335000FB73FB7B18461037BD4680BD80B584B03B
:1033600000AF78600023FB737B68002B02D1012340
:10337000FB730EE07B689A687B689B6903210220DF
:1033800008F03EFB0346BB73BB7B002B01D001233F
:10339000FB73FB7B18461037BD4680BD80B584B0FB
:1033A00000AF78600023FB737B68002B02D1012300
:1033B000FB730EE07B68DA687B68DB69072102201B
:1033C00008F01EFB0346BB73BB7B002B01D001231F
:1033D000FB73FB7B18461037BD4680BD80B584B0BB
:1033E00000AF78600023FB737B68002B02D10123C0
:1033F000FB732EE04FF00003BB607B681B681B690A
:10340000D3ED007AB0EE670A144800F01FF987ED9B
:10341000020A97ED020A114800F0F2F87B681B6877
:103420001B69BA681A607B681B691B69D3ED007A57
:10343000B0EE670A0A4800F009F987ED020A97ED35
:10344000020A074800F0DCF87B681B691B69BA6850
:103450001A60FB7B18461037BD4680BD98070020D8
:10346000E807002080B584B000AF78600023FB73CC
:103470007B68002B02D10123FB732EE04FF0000389
:10348000BB607B685B681B69D3ED007AB0EE670AAE
:10349000144800F0DBF887ED020A97ED020A1148A4
:1034A00000F0AEF87B685B681B69BA681A607B68DD
:1034B0005B691B69D3ED007AB0EE670A0A4800F039
:1034C000C5F887ED020A97ED020A074800F098F860
:1034D0007B685B691B69BA681A60FB7B184610370A
:1034E000BD4680BDAC070020FC07002080B584B03D
:1034F00000AF78600023FB737B68002B02D10123AF
:10350000FB732EE04FF00003BB607B689B681B6978
:10351000D3ED007AB0EE670A144800F097F887ED13
:10352000020A97ED020A114800F06AF87B689B686E
:103530001B69BA681A607B689B691B69D3ED007AC6
:10354000B0EE670A0A4800F081F887ED020A97EDAD
:10355000020A084800F054F87B689B691B69BA6846
:103560001A60FB7B18461037BD4680BDC00700209F
:10357000100800202408002080B584B000AF7860D7
:103580000023FB737B68002B02D10123FB732EE029
:103590004FF00003BB607B68DB681B69D3ED007AEA
:1035A000B0EE670A144800F051F887ED020A97ED73
:1035B000020A114800F024F87B68DB681B69BA68CE
:1035C0001A607B68DB691B69D3ED007AB0EE670A8D
:1035D0000A4800F03BF887ED020A97ED020A074817
:1035E00000F00EF87B68DB691B69BA681A60FB7B28
:1035F00018461037BD4680BDD4070020240800209F
:1036000080B485B000AF786087ED000A0423FB73B7
:103610000FE0FB7B03F18043013B9B007A681A4477
:10362000FB7B9B0079680B4412681A60FB7B013BB3
:10363000FB73FB7B002BECD17B683A681A6000BF00
:103640001437BD465DF8047B7047000080B487B036
:1036500000AF786087ED000A4FF000037B614FF008
:1036600000033B610023FB730EE0FB7B9B007A6849
:103670001344D3ED007A97ED047A77EE277AC7EDFD
:10368000047AFB7B0133FB73FB7B042BEDD997EDB5
:10369000047AF1EE046AC7EE267AC7ED047AD7ED14
:1036A000047A9FED187A77EE877A97ED007AB4EE78
:1036B000E77AF1EE10FA15DCD7ED047A9FED117A76
:1036C00077EEC77A97ED007AB4EEE77AF1EE10FA6A
:1036D00008D4D7ED007A9FED0B7AF4EEC77AF1EEBD
:1036E00010FA02DD3B697B6101E03B687B617B692D
:1036F00007EE903AB0EE670A1C37BD465DF8047BD2
:10370000704700BF0000C84380B500AF064B074AB2
:103710001A60054801F00AFD0346002B01D000F0B5
:103720008BFF00BF80BD00BF380800200030024082
:1037300080B485B000AF78607B681B680B4A934209
:103740000DD10023FB600A4B1B6B094A43F48053E5
:103750001363074B1B6B03F48053FB60FB6800BFD4
:103760001437BD465DF8047B704700BF003002404F
:103770000038024080B500AF554A0021012008F012
:1037800077FD0346534A1360534A0021012008F095
:103790006FFD0346514A1360514A0021012008F091
:1037A00067FD03464F4A13604F4A0021012008F08D
:1037B0005FFD03464D4A13604D4A0021012008F089
:1037C00057FD03464B4A13604B4A0021022008F084
:1037D0004FFD0346494A1360494A0021022008F080
:1037E00047FD0346474A1360474B002201214748E3
:1037F00008F0C2FC0346464A1360464A0021464888
:1038000008F0B6FB0346454A1360454A0021454887
:1038100008F0AEFB0346444A1360444A0021444882
:1038200008F0A6FB0346434A1360434A002143487D
:1038300008F09EFB0346424A1360424A0021424878
:1038400008F096FB0346414A1360414A0021414873
:1038500008F08EFB0346404A1360404A002140486E
:1038600008F086FB03463F4A13603F4A00213F4869
:1038700008F07EFB03463E4A13603E4A00213E4864
:1038800008F076FB03463D4A13603D4A00213D485F
:1038900008F06EFB03463C4A13603C4A00213C485A
:1038A00008F066FB03463B4A13603B4A00213B4855
:1038B00008F05EFB03463A4A13603A4A00213A4850
:1038C00008F056FB0346394A136000BF80BD00BFB5
:1038D000A40E01087C080020B40E01088008002016
:1038E000C40E010884080020D40E010888080020B6
:1038F000E40E01088C080020F40E01089008002056
:10390000040F010894080020940E0108713F00087C
:1039100078080020C00C0108B139000844080020D4
:10392000E40C0108953A000848080020080D010839
:10393000ED3A00084C0800202C0D01081D3B000842
:1039400050080020500D0108D13B00085408002009
:10395000740D0108013D000858080020980D010869
:10396000513D00085C080020BC0D0108D93D00084D
:1039700060080020E00D0108193E000864080020DE
:10398000040E0108453E000868080020280E0108C2
:103990009D3E00086C0800204C0E0108D53E000832
:1039A00070080020700E0108093F0008740800200C
:1039B00080B584B000AF7860642008F0ADFB2D487E
:1039C000FEF740FD0346FB732B4B1B684FF0FF31A6
:1039D000184608F0D7FC0023BB601EE0274B1B688D
:1039E0004FF0FF31184608F0CDFC2248FEF74AFDA3
:1039F00003461A46FB7B1343FB731E4B5B689B69B4
:103A00001F4A13601F48FFF7DDF903461A46FB7B88
:103A10001343FB73BB680133BB60BB68632BDDD909
:103A2000184B93ED167ADFED186AC7EE267A154B20
:103A3000C3ED167A154B1B68184608F0F5FC144BBD
:103A40001B68184608F0F0FC0C4B1B684FF0FF3168
:103A5000184608F097FC0748FEF714FD03461A467F
:103A6000FB7B1343FB73034B5B689B69044A136046
:103A700000BFE9E740000020940800207C080020F7
:103A8000F0060020F00000200000C8428808002056
:103A90008C08002080B584B000AF78600F48FEF736
:103AA00013FA0346FB730E490E48FEF711FD034659
:103AB0001A46FB7B1343FB730B4B1B684FF0FF3124
:103AC000184608F05FFC0548FEF744FA03461A461C
:103AD000FB7B1343FB7300BFEEE700BF1800002021
:103AE000D5410008BD4100089008002080B584B091
:103AF00000AF78600848FEF733FE0346FB730648C4
:103B0000FEF778FF03461A46FB7B1343FB736420E2
:103B100008F002FB00BFF2E74C00002080B584B043
:103B200000AF78602948FFF7A5FB0346FB732748E1
:103B3000FFF7D4FB03461A46FB7B1343FB7332208B
:103B400008F0EAFA2148FFF749FC03461A46FB7BD6
:103B50001343FB731D48FFF701FC03461A46FB7B2A
:103B60001343FB73322008F0D7FA1848FFF7BEFC66
:103B700003461A46FB7B1343FB731448FFF7CEFB47
:103B800003461A46FB7B1343FB73322008F0C4FA4A
:103B90000E48FFF767FC03461A46FB7B1343FB7393
:103BA0000A48FFF7FBFB03461A46FB7B1343FB73F4
:103BB000322008F0B1FA0548FFF7DEFC03461A464A
:103BC000FB7B1343FB7300BFB1E700BF2000002065
:103BD00080B584B000AF78600023FB733D493E4858
:103BE000FEF7F8FB03461A46FB7B1343FB733B4986
:103BF0003948FEF70BFC03461A46FB7B1343FB7365
:103C0000374A00213448FEF75DFA03461A46FB7B2B
:103C10001343FB73334A01212F48FEF753FA03463F
:103C20001A46FB7B1343FB732F4A02212A48FEF7F7
:103C300049FA03461A46FB7B1343FB732B4A0321C5
:103C40002548FEF73FFA03461A46FB7B1343FB73F6
:103C5000274A04212048FEF735FA03461A46FB7B23
:103C60001343FB73234A05211B48FEF72BFA034637
:103C70001A46FB7B1343FB731F4A06211648FEF7C7
:103C800021FA03461A46FB7B1343FB73194A0721AB
:103C90001148FEF717FA03461A46FB7B1343FB73E2
:103CA0000D48FEF761FA03461A46FB7B1343FB738C
:103CB000124B1B684FF0FF31184608F063FB0648B3
:103CC000FEF770FA03461A46FB7B1343FB7300BFF3
:103CD000E6E700BFBD410008C8000020D54100084C
:103CE000E53F000871400008BD4000080941000898
:103CF0001F4100083541000881410008800800206C
:103D000080B584B000AF78600E48FFF72DF8034609
:103D1000FB730D4B1B68184608F086FB0B4B1B68AA
:103D20004FF0FF31184608F02DFB0648FFF7E8F882
:103D300003461A46FB7B1343FB730A2008F0ECF999
:103D400000BFF2E7F000002094080020880800205F
:103D500080B584B000AF78600023FB73184B1B68FC
:103D60004FF0FF31184608F00DFB4FF00003BB6029
:103D7000144B1B68BB60144BD3ED007AB0EE670A9E
:103D800010491248FFF73EF803461A46FB7B1343DF
:103D9000FB730C4BD3ED007A97ED027AB4EE677AA1
:103DA000F1EE10FA08D00A490A48FEF719F903465D
:103DB0001A46FB7B1343FB730A2008F0ADF9D7E7E3
:103DC0008C080020F4060020D8060020F000002017
:103DD000200200201800002080B584B000AF786079
:103DE0000B48FDF7C3F80346FB730A4B1B681846E4
:103DF00008F050F90648FDF727F803461A46FB7B02
:103E00001343FB73642008F087F900BFF2E700BF9B
:103E1000500100206008002080B584B000AF7860B9
:103E20000023FB73064B1B68184608F033F9FFF7B5
:103E3000AFF90346FB73C82008F06EF900BFF6E740
:103E40006408002080B584B000AF78600E4B0F4A44
:103E50000F491048FDF7F0FE0346FB734FF4FA607C
:103E600008F05AF90C4B1B68184608F013F909487A
:103E7000FDF708FF03461A46FB7B1343FB736420E0
:103E800008F04AF900BFF2E7054200081D420008A9
:103E9000ED410008C00100206808002080B584B012
:103EA00000AF78600023FB7300F0B8F90748FDF716
:103EB0008FFF03461A46FB7B1343FB73044B1B78AF
:103EC000002BF3D100F0AAF9F0E700BFC0010020F9
:103ED0004208002080B584B000AF78600023FB73F7
:103EE000084B1B68184608F0D5F8FDF755F903464E
:103EF0001A46FB7B1343FB73FA2008F00DF900BF51
:103F0000F3E700BF7008002080B584B000AF786090
:103F10000023FB73134B1B68184608F0BBF81248CC
:103F2000FDF722FB03461A46FB7B1343FB734FF45A
:103F3000967008F0F1F80C4B9B7807EE903AF8EE8B
:103F4000E77AB0EE007AF4EE477AF1EE10FAE6D1B5
:103F5000064B00221A70034B1B68184608F09AF8AB
:103F6000DDE700BF740800200007002043080020A0
:103F700080B483B000AF786000BF0C37BD465DF8F9
:103F8000047B704780B582B000AF0346FB80FB889E
:103F9000B3F5005F04D1094B1B68184608F044FADA
:103FA000FB88B3F5805F04D1054B1B68184608F009
:103FB0003BFA00BF0837BD4680BD00BF9008002017
:103FC0007C08002080B582B000AF7860044B1B688D
:103FD000184608F029FA00BF0837BD4680BD00BF6B
:103FE0008008002080B582B000AF7860184B1B7845
:103FF000002B18D1174B184A1A60184B4FF00002CB
:104000001A6017491748FDF7EBFF174B1B68184656
:1040100008F061F8154B1B68184608F05CF80C4B6B
:1040200001221A7010E00A4B1B78012B0CD10E4BA9
:104030001B68184608F02EF80C4B1B68184608F051
:1040400029F8034B00221A7000BF0837BD4680BD17
:1040500040080020DC0600206666E63EE006002000
:10406000CC0100201800002060080020700800200B
:1040700080B582B000AF78600E4B1B78002B08D162
:104080000D4B1B68184608F026F80A4B01221A70DF
:104090000BE0084B1B78012B07D1074B1B68184618
:1040A00007F0F8FF034B00221A7000BF0837BD4627
:1040B00080BD00BF410800206408002080B582B0A8
:1040C00000AF78600E4B1B78002B08D10D4B1B689E
:1040D000184608F000F80A4B01221A700BE0084B52
:1040E0001B78012B07D1074B1B68184607F0D2FF3E
:1040F000034B00221A7000BF0837BD4680BD00BFC9
:10410000420800206808002080B582B000AF7860C7
:104110000120FDF7C3F800BF0837BD4680BD80B55C
:1041200082B000AF78600220FDF7B8F800BF083712
:10413000BD4680BD80B582B000AF78600E4B1B7865
:10414000002B08D10D4B1B68184607F0C4FF0A4B23
:1041500001221A700BE0084B1B78012B07D1074B8B
:104160001B68184607F096FF034B00221A7000BF29
:104170000837BD4680BD00BF4308002074080020FA
:1041800080B582B000AF7860074B084A1A60084BD0
:104190004FF000021A6007490748FDF721FF00BFF2
:1041A0000837BD4680BD00BFDC060020703D0A3EDA
:1041B000E0060020CC0100201800002080B500AFF0
:1041C000034B1B68184607F065FF00BF80BD00BFAA
:1041D0005C08002080B500AF034B1B68184607F051
:1041E0007AFF00BF80BD00BF5C08002080B582B0B0
:1041F00000AF7860786807F08FFF00BF0837BD46D2
:1042000080BD000080B500AF034B1B68184607F067
:1042100062FF00BF80BD00BF6C08002080B500AF0A
:10422000034B1B68184607F035FF00BF80BD00BF79
:104230006C08002080B58AB000AF07F1140300229B
:104240001A605A609A60DA601A6100233B61654B1C
:104250001B6B644A43F004031363624B1B6B03F054
:1042600004033B613B690023FB605E4B1B6B5D4AB3
:1042700043F0800313635B4B1B6B03F08003FB6015
:10428000FB680023BB60574B1B6B564A43F001038E
:104290001363544B1B6B03F00103BB60BB6800232B
:1042A0007B60504B1B6B4F4A43F0020313634D4B33
:1042B0001B6B03F002037B607B6800224FF4C0415C
:1042C000494801F091F9002249F60211474801F0EE
:1042D0008BF901221021454801F086F900220421C2
:1042E000434801F081F94FF4C0437B610123BB6176
:1042F0000023FB6100233B6207F1140319463A488F
:1043000000F0EEFF02237B610123BB610223FB610E
:1043100002233B6207F114031946344800F0E0FF22
:1043200010237B610123BB610123FB6100233B62FE
:1043300007F1140319462D4800F0D2FF04237B61D6
:104340000123BB610223FB6102233B6207F11403DB
:104350001946274800F0C4FF4FF480537B614FF4A7
:104360008813BB610223FB6107F11403194620483F
:1043700000F0B6FF4FF400537B614FF40413BB61B0
:104380000123FB6107F114031946194800F0A8FF47
:104390004FF401437B610123BB610023FB610023D8
:1043A0003B6207F114031946104800F099FF4FF4DF
:1043B000C0537B610123BB610223FB6100233B628D
:1043C00007F114031946094800F08AFF002205216D
:1043D000282000F081FE282000F09AFE00BF283738
:1043E000BD4680BD00380240000802400000024087
:1043F0000004024080B500AF124B134A1A60114B03
:10440000124A5A600F4B00229A600E4B0022DA606B
:104410000C4B4FF480421A610A4B00225A61094B3F
:1044200000229A61074B0022DA61064B00221A62D1
:10443000044801F00BF90346002B01D000F0FCF812
:1044400000BF80BD9808002000580040801A060078
:1044500080B58AB000AF786007F1140300221A60BB
:104460005A609A60DA601A617B681B68214A93423D
:104470003CD100233B61204B1B6B1F4A43F00203DE
:1044800013631D4B1B6B03F002033B613B694FF44D
:1044900080637B611223BB610123FB6103233B62C9
:1044A00004237B6207F114031946144800F018FF37
:1044B00008237B611223BB610123FB6103233B6261
:1044C00009237B6207F1140319460C4800F008FF2A
:1044D0000023FB60084B1B6C074A43F48003136402
:1044E000054B1B6C03F48003FB60FB6800BF28379F
:1044F000BD4680BD00580040003802400004024024
:1045000080B500AF00F0CAFC00F018F8FFF792FE8B
:1045100000F0C2FA00F04CFAFFF76CFF00F092F8DE
:1045200000F0BAFB00F0E2FBFFF7EEF807F0D6FC74
:10453000FFF720F907F0F6FC00BFFDE780B594B067
:1045400000AF07F120033022002118460BF00EFEC9
:1045500007F10C0300221A605A609A60DA601A614F
:104560000023BB60294B1B6C284A43F08053136423
:10457000264B1B6C03F08053BB60BB6800237B6041
:10458000234B1B6823F44043214A43F40043136048
:104590001F4B1B6803F440437B607B6801233B6235
:1045A0004FF480337B620223BB634FF48003FB63D1
:1045B00019233B64A8237B640223BB640423FB64AC
:1045C00007F12003184602F065F80346002B01D0DE
:1045D00000F032F80F23FB6002233B6100237B6174
:1045E0004FF48053BB610023FB6107F10C030221F0
:1045F000184602F0C7FA0346002B01D000F01CF861
:1046000002F0A6FB00BF5037BD4680BD0038024017
:104610000070004080B582B000AF78607B681B6896
:10462000044A934201D100F05BFC00BF0837BD464D
:1046300080BD00BF0044014080B400AF72B600BF2F
:1046400000BFFDE780B500AF174B184A1A60164B44
:104650004FF482725A60144B00229A60124B00226F
:10466000DA60114B00221A610F4B00225A610E4B87
:104670004FF400729A610C4B1822DA610A4B002247
:104680001A62094B00225A62074B00229A62064BBB
:104690000A22DA62044802F0AEFC0346002B01D085
:1046A000FFF7CAFF00BF80BDEC08002000300140CA
:1046B00080B58AB000AF786007F1140300221A6059
:1046C0005A609A60DA601A617B681B68194A9342E3
:1046D0002BD100233B61184B5B6C174A43F480538A
:1046E0005364154B5B6C03F480533B613B690023BF
:1046F000FB60114B1B6B104A43F0010313630E4B1D
:104700001B6B03F00103FB60FB68E0237B6102236A
:10471000BB610123FB6103233B6205237B6207F13D
:1047200014031946054800F0DBFD00BF2837BD46DD
:1047300080BD00BF00300140003802400000024050
:1047400080B582B000AF00237B60124B5B6C114AD6
:1047500043F4804353640F4B5B6C03F480437B60F2
:104760007B6800233B600B4B1B6C0A4A43F0805371
:104770001364084B1B6C03F080533B603B680022C2
:104780000F216FF0010000F0A7FC00BF0837BD4605
:1047900080BD00BF0038024080B58CB000AF7860AB
:1047A0000023BB6200237B620023BB602E4B5B6C4B
:1047B0002D4A43F4003353642B4B5B6C03F40033FA
:1047C000BB60BB6807F10C0207F1100311461846E5
:1047D00002F0C4FB02F0AEFBB862BB6A234AA2FB44
:1047E00003239B0C013B7B62214B224A1A60204B26
:1047F00040F2E732DA601E4A7B6A53601C4B0022AB
:104800001A611B4B00229A60194B00229A611848CA
:1048100003F0D0F9034687F82F3097F82F30002B9C
:104820001BD1134803F02CFA034687F82F3097F872
:104830002F30002B11D1192000F06AFC7B680F2B60
:1048400008D800227968192000F046FC0A4A7B68E3
:10485000136002E0012387F82F3097F82F301846B5
:104860003037BD4680BD00BF0038024083DE1B43A9
:1048700044090020004401409802002080B500AFA8
:1048800002F09EFB00BFFDE780B400AF00BFFDE774
:1048900080B400AF00BFFDE780B400AF00BFFDE70C
:1048A00080B400AF00BFFDE780B400AF00BFBD46DD
:1048B0005DF8047B7047000080B500AF024803F04C
:1048C000B7FB00BF80BD00BF4409002080B500AF2A
:1048D000024803F0ADFB00BF80BD00BFFC09002013
:1048E00080B500AF024803F0A3FB00BF80BD00BF4E
:1048F000B00A002080B500AF024804F0DFFA00BF24
:1049000080BD00BF640B002080B500AF4FF4805025
:1049100000F084FE4FF4005000F080FE00BF80BD28
:1049200080B586B000AF7860144A154BD31A7B610E
:104930007B693B61134B1B68002B02D1114B124A60
:104940001A60104B1A687B6813443A699A4207D27E
:104950000BF024FC03460C221A604FF0FF3309E0F1
:10496000084B1B68FB60074B1A687B681344054AB9
:104970001360FB6818461837BD4680BD0000012053
:1049800000040000F8090020C093002080B400AFAC
:10499000064BD3F88830054A43F47003C2F88830D8
:1049A00000BFBD465DF8047B704700BF00ED00E02E
:1049B00080B586B000AF07F1100300221A605A607C
:1049C0003B4600221A605A609A60DA60304B314AE6
:1049D0001A602F4B53225A602D4B00229A602C4BA9
:1049E0004FF6FF72DA602A4B00221A61284B002230
:1049F0009A61274803F0A6F90346002B01D0FFF780
:104A00001BFE00233B6100237B6107F11003194665
:104A10001F4804F0B9F80346002B01D0FFF70CFE45
:104A20000A233B6001237B600023BB600023FB6003
:104A30003B4600221946164803F00AFC0346002BA9
:104A400001D0FFF7F9FD3B4604221946104803F058
:104A5000FFFB0346002B01D0FFF7EEFD3B4608228B
:104A600019460B4803F0F4FB0346002B01D0FFF777
:104A7000E3FD3B460C221946054803F0E9FB0346DB
:104A8000002B01D0FFF7D8FD00BF1837BD4680BD11
:104A9000FC0900200004004080B586B000AF07F19B
:104AA000100300221A605A603B4600221A605A60C6
:104AB0009A60DA60304B314A1A602F4B53225A60A9
:104AC0002D4B00229A602C4B4FF6FF72DA602A4B76
:104AD00000221A61284B00229A61274803F032F91C
:104AE0000346002B01D0FFF7A7FD00233B61002305
:104AF0007B6107F1100319461F4804F045F803468F
:104B0000002B01D0FFF798FD0A233B6001237B6057
:104B10000023BB600023FB603B4600221946164879
:104B200003F096FB0346002B01D0FFF785FD3B46C3
:104B300004221946104803F08BFB0346002B01D0DA
:104B4000FFF77AFD3B46082219460B4803F080FB2D
:104B50000346002B01D0FFF76FFD3B460C221946A0
:104B6000054803F075FB0346002B01D0FFF764FDF9
:104B700000BF1837BD4680BDB00A002000080040C5
:104B800080B58CB000AF786007F11C0300221A607A
:104B90005A609A60DA601A617B681B683A4A9342ED
:104BA00034D10023BB61394B1B6C384A43F00203FC
:104BB0001364364B1B6C03F00203BB61BB6900231B
:104BC0007B61324B1B6B314A43F0020313632F4B63
:104BD0001B6B03F002037B617B693323FB610223C0
:104BE0003B6202237B620023BB620223FB6207F16C
:104BF0001C031946264800F073FB002205211D20E6
:104C000000F06AFA1D2000F083FA39E07B681B6827
:104C1000204A934234D100233B611C4B1B6C1B4A3E
:104C200043F004031364194B1B6C03F004033B6152
:104C30003B690023FB60154B1B6B144A43F00203D6
:104C40001363124B1B6B03F00203FB60FB684FF412
:104C50007073FB6102233B6202237B620023BB6211
:104C60000223FB6207F11C031946094800F038FBD8
:104C7000002205211E2000F02FFA1E2000F048FA25
:104C800000BF3037BD4680BD000400400038024000
:104C9000000402400008004080B500AF114B124AEA
:104CA0001A60104B4FF4E1325A600E4B00229A60AA
:104CB0000C4B0022DA600B4B00221A61094B0C22CC
:104CC0005A61084B00229A61064B0022DA610548BE
:104CD00003F0E6FF0346002B01D0FFF7ADFC00BF59
:104CE00080BD00BF640B00200010014080B500AF04
:104CF000114B124A1A60104B4FF461225A600E4B4E
:104D000000229A600C4B0022DA600B4B00221A61E1
:104D1000094B0C225A61084B00229A61064B002273
:104D2000DA61054803F0BCFF0346002B01D0FFF712
:104D300083FC00BF80BD00BFDC0B002000440040AE
:104D400080B58CB000AF786007F11C0300221A60B8
:104D50005A609A60DA601A617B681B68364A93422F
:104D600035D10023BB61354B5B6C344A43F01003F3
:104D70005364324B5B6C03F01003BB61BB690023CF
:104D80007B612E4B1B6B2D4A43F0010313632B4BAE
:104D90001B6B03F001037B617B694FF4C063FB6114
:104DA00002233B6201237B620323BB620723FB6276
:104DB00007F11C031946224800F092FA002205214F
:104DC000252000F089F9252000F0A2F930E07B6869
:104DD0001B681C4A93422BD100233B61174B1B6C71
:104DE000164A43F400331364144B1B6C03F4003372
:104DF0003B613B690023FB60104B1B6B0F4A43F088
:104E0000010313630D4B1B6B03F00103FB60FB6895
:104E10000C23FB6102233B6201237B620323BB6201
:104E20000723FB6207F11C031946054800F058FAF6
:104E300000BF3037BD4680BD001001400038024041
:104E40000000024000440040DFF834D0FFF79EFD30
:104E50000C480D490D4A002302E0D458C4500433D5
:104E6000C4188C42F9D30A4A0A4C002301E01360AB
:104E70000432A242FBD30BF097F9FFF741FB7047D6
:104E8000000001200000002080060020B00F010873
:104E900080060020BC930020FEE7000080B500AF34
:104EA0000E4B1B680D4A43F4007313600B4B1B68D9
:104EB0000A4A43F480631360084B1B68074A43F4B3
:104EC00080731360032000F0FCF80F20FFF764FCF0
:104ED000FFF736FC0023184680BD00BF003C0240AF
:104EE00080B400AF064B1B781A46064B1B68134470
:104EF000044A136000BFBD465DF8047B704700BFE5
:104F00009C020020540C002080B400AF034B1B68AF
:104F10001846BD465DF8047B704700BF540C002066
:104F200080B584B000AF7860FFF7EEFFB8607B68B3
:104F3000FB60FB68B3F1FF3F05D00A4B1B781A46B4
:104F4000FB681344FB6000BFFFF7DEFF0246BB684F
:104F5000D31AFA689A42F7D800BF00BF1037BD468F
:104F600080BD00BF9C02002080B485B000AF786097
:104F70007B6803F00703FB600C4BDB68BB60BA681F
:104F80004FF6FF031340BB60FB681A02BB68134374
:104F900043F0BF6343F40033BB60044ABB68D36093
:104FA00000BF1437BD465DF8047B704700ED00E09C
:104FB00080B400AF044BDB681B0A03F007031846FC
:104FC000BD465DF8047B704700ED00E080B483B01F
:104FD00000AF0346FB7197F90730002B0BDBFB7921
:104FE00003F01F02074997F907305B09012000FA17
:104FF00002F241F8232000BF0C37BD465DF8047B68
:10500000704700BF00E100E080B483B000AF03460A
:105010003960FB7197F90730002B0ADB3B68DAB285
:105020000C4997F907301201D2B20B4483F80023E0
:105030000AE03B68DAB20849FB7903F00F03043B4E
:105040001201D2B20B441A7600BF0C37BD465DF890
:10505000047B704700E100E000ED00E080B489B01F
:1050600000AFF860B9607A60FB6803F00703FB618A
:10507000FB69C3F10703042B28BF0423BB61FB6951
:105080000433062B02D9FB69033B00E000237B615C
:105090004FF0FF32BB6902FA03F3DA43BB681A40F0
:1050A0007B699A404FF0FF317B6901FA03F3D943E2
:1050B0007B680B40134318462437BD465DF8047BDC
:1050C000704780B582B000AF78607868FFF74CFF1A
:1050D00000BF0837BD4680BD80B586B000AF03462F
:1050E000B9607A60FB7300237B61FFF761FF786131
:1050F0007A68B9687869FFF7B1FF024697F90F300F
:1051000011461846FFF780FF00BF1837BD4680BD27
:1051100080B582B000AF0346FB7197F9073018469F
:10512000FFF754FF00BF0837BD4680BD80B582B091
:1051300000AF78607B68002B01D101230EE07B6813
:105140005B79DBB2002B05D17B6800221A7178688D
:10515000FEF7EEFA7B6801225A71002318460837E1
:10516000BD4680BD80B487B000AFF860B9607A609A
:1051700000233B61FB6802225A7100237B610AE035
:105180007B699B00BA681A44FB681B6812681A6046
:105190007B6901337B617A697B689A42F0D3FB6853
:1051A0001B681B683B61FB6801225A713B6918460A
:1051B0001C37BD465DF8047B704780B584B000AFF6
:1051C00078607B689B6DFB60FFF79EFEB8607B6834
:1051D00093F83530DBB2022B08D07B6880225A6509
:1051E0007B68002283F83420012352E07B681B682F
:1051F0001A687B681B6822F016021A607B681B68BD
:105200005A697B681B6822F080025A617B681B6CBC
:10521000002B03D17B689B6C002B07D07B681B683D
:105220001A687B681B6822F008021A607B681B689A
:105230001A687B681B6822F001021A6013E0FFF70E
:1052400063FE0246BB68D31A052B0CD97B6820226B
:105250005A657B68032283F835207B68002283F837
:105260003420032315E07B681B681B6803F00103EF
:10527000002BE4D17B68DB6D3F229A40FB689A608B
:105280007B68012283F835207B68002283F8342074
:10529000002318461037BD4680BD80B483B000AFF0
:1052A00078607B6893F83530DBB2022B04D07B68E2
:1052B00080225A6501230CE07B68052283F83520A3
:1052C0007B681B681A687B681B6822F001021A6001
:1052D000002318460C37BD465DF8047B704700007C
:1052E00080B489B000AF7860396000237B6100230F
:1052F0003B610023BB610023FB6159E10122FB6993
:1053000002FA03F37B613B681B687A6913403B61D7
:105310003A697B699A4240F048813B685B6803F0D8
:105320000303012B05D03B685B6803F00303022BEA
:1053300030D17B689B68BB61FB695B00032202FA8A
:1053400003F3DB43BA691340BB613B68DA68FB696E
:105350005B0002FA03F3BA691343BB617B68BA6965
:105360009A607B685B68BB610122FB6902FA03F308
:10537000DB43BA691340BB613B685B681B0903F000
:105380000102FB6902FA03F3BA691343BB617B684C
:10539000BA695A603B685B6803F00303032B17D0BC
:1053A0007B68DB68BB61FB695B00032202FA03F3E5
:1053B000DB43BA691340BB613B689A68FB695B00D9
:1053C00002FA03F3BA691343BB617B68BA69DA6016
:1053D0003B685B6803F00303022B23D1FB69DA0807
:1053E0007B68083253F82230BB61FB6903F0070386
:1053F0009B000F2202FA03F3DB43BA691340BB613F
:105400003B681A69FB6903F007039B0002FA03F388
:10541000BA691343BB61FB69DA087B680832B96972
:1054200043F822107B681B68BB61FB695B000322A9
:1054300002FA03F3DB43BA691340BB613B685B6864
:1054400003F00302FB695B0002FA03F3BA6913433A
:10545000BB617B68BA691A603B685B6803F44033E0
:10546000002B00F0A2800023FB60574B5B6C564A78
:1054700043F480435364544B5B6C03F48043FB6000
:10548000FB68524AFB699B08023352F82330BB6128
:10549000FB6903F003039B000F2202FA03F3DB43D3
:1054A000BA691340BB617B68494A934219D07B6853
:1054B000484A934213D07B68474A93420DD07B6899
:1054C000464A934207D07B68454A934201D1042360
:1054D00008E0072306E0032304E0022302E001239F
:1054E00000E00023FA6902F0030292009340BA69D7
:1054F0001343BB613549FB699B080233BA6941F824
:105500002320384B9B68BB613B69DB43BA6913407E
:10551000BB613B685B6803F48013002B03D0BA695E
:105520003B691343BB612F4ABB6993602D4BDB681A
:10553000BB613B69DB43BA691340BB613B685B6895
:1055400003F40013002B03D0BA693B691343BB611A
:10555000244ABB69D360234B5B68BB613B69DB4377
:10556000BA691340BB613B685B6803F40033002BEE
:1055700003D0BA693B691343BB611A4ABB695360E4
:10558000184B1B68BB613B69DB43BA691340BB61C5
:105590003B685B6803F48033002B03D0BA693B6936
:1055A0001343BB610F4ABB691360FB690133FB61A5
:1055B000FB690F2B7FF6A2AE00BF00BF2437BD46AC
:1055C0005DF8047B704700BF00380240003801409E
:1055D000000002400004024000080240000C0240AB
:1055E00000100240003C014080B483B000AF7860FE
:1055F0000B467B8013467B707B78002B03D07A8828
:105600007B689A6103E07B881A047B689A6100BF1B
:105610000C37BD465DF8047B7047000080B582B052
:1056200000AF0346FB80084B5A69FB881340002BF0
:1056300006D0054AFB885361FB881846FEF7A2FC9A
:1056400000BF0837BD4680BD003C014080B584B036
:1056500000AF78607B68002B01D101232BE17B68D0
:1056600093F83D30DBB2002B06D17B68002283F833
:105670003C207868FEF7ECFE7B68242283F83D200E
:105680007B681B681A687B681B6822F001021A603D
:105690007B681B681A687B681B6842F400421A60CA
:1056A0007B681B681A687B681B6822F400421A60DA
:1056B00001F02CFCF8607B685B68814A934207D854
:1056C000FB68804A934294BF01230023DBB206E0CB
:1056D000FB687D4A934294BF01230023DBB2002B79
:1056E00001D00123E7E0FB68784AA2FB03239B0C6F
:1056F000BB607B681B685B6823F03F017B681B68AD
:10570000BA680A435A607B681B681B6A23F03F0132
:105710007B685B686A4A934202D8BB68013309E040
:10572000BB684FF4967202FB03F3694AA2FB0323A2
:105730009B0901337A6812680B4313627B681B680C
:10574000DB6923F44F4222F0FF027B685B685C490F
:105750008B4219D8FB68591E7B685B685B00B1FB04
:10576000F3F3591C40F6FC730B40002B0AD0FB6886
:10577000591E7B685B685B00B1FBF3F30133C3F335
:105780000B0351E004234FE07B689B68002B11D191
:10579000FB68581E7B6859680B465B000B44B0FBE6
:1057A000F3F30133C3F30B03002B0CBF01230023DE
:1057B000DBB212E0FB68581E7B6859680B469B0001
:1057C0000B4499000B44B0FBF3F30133C3F30B0319
:1057D000002B0CBF01230023DBB2002B01D00123DF
:1057E00022E07B689B68002B0ED1FB68581E7B680B
:1057F00059680B465B000B44B0FBF3F30133C3F372
:105800000B0343F400430FE0FB68581E7B685968A4
:105810000B469B000B4499000B44B0FBF3F30133A0
:10582000C3F30B0343F44043796809681343CB6126
:105830007B681B681B6823F0C0017B68DA697B68A2
:105840001B6A1A437B681B680A431A607B681B68E3
:105850009B6823F4034323F0FF037A6811697A6895
:10586000D26811437A6812680B4393607B681B68A7
:10587000DB6823F0FF017B685A697B689B691A43E8
:105880007B681B680A43DA607B681B681A687B6860
:105890001B6842F001021A607B6800221A647B6870
:1058A000202283F83D207B6800221A637B68002257
:1058B00083F83E20002318461037BD4680BD00BF48
:1058C000A08601007F841E00FF083D0083DE1B438D
:1058D000D34D621080B588B002AFF860084611461B
:1058E0001A4603467B810B463B811346FB80FFF73C
:1058F0000BFB7861FB6893F83D30DBB2202B40F066
:10590000D9807B690093192301226D49F86800F062
:105910008BFC0346002B01D00223CCE0FB6893F8FC
:105920003C30012B01D10223C5E0FB68012283F842
:105930003C20FB681B681B6803F00103012B07D0A8
:10594000FB681B681A68FB681B6842F001021A605A
:10595000FB681B681A68FB681B6822F400621A6007
:10596000FB68212283F83D20FB68402283F83E201B
:10597000FB6800221A64FB683A6A5A62FB68BA8CB8
:105980005A85FB685B8D9AB2FB681A85FB684D4AA5
:10599000DA62F8883A8979897B690193BB6A009356
:1059A0000346F86800F0C2FA0346002B52D00123E8
:1059B00081E07A69B96AF86800F050FD0346002B6F
:1059C0000DD0FB681B6C042B07D1FB681B681A68A1
:1059D000FB681B6842F400721A6001236BE0FB68ED
:1059E0005B6A1A78FB681B681A61FB685B6A5A1C61
:1059F000FB685A62FB681B8D013B9AB2FB681A85F3
:105A0000FB685B8D9BB2013B9AB2FB685A85FB68D1
:105A10001B685B6903F00403042B1BD1FB681B8D1F
:105A2000002B17D0FB685B6A1A78FB681B681A6149
:105A3000FB685B6A5A1CFB685A62FB681B8D013B62
:105A40009AB2FB681A85FB685B8D9BB2013B9AB2E8
:105A5000FB685A85FB681B8D002BAAD17A69B96A4D
:105A6000F86800F043FD0346002B0DD0FB681B6C6B
:105A7000042B07D1FB681B681A68FB681B6842F49B
:105A800000721A60012316E0FB681B681A68FB6845
:105A90001B6842F400721A60FB68202283F83D20E4
:105AA000FB68002283F83E20FB68002283F83C203C
:105AB000002300E0022318461837BD4680BD00BF12
:105AC000020010000000FFFF80B58CB002AFF8604C
:105AD000084611461A4603467B810B463B81134616
